{
	"data": {
		"bytecode": {
			"linkReferences": {},
			"object": "60806040523461041657612e786020813803918261001c8161041a565b93849283398101031261041657516001600160a01b0381169081900361041657610046604061041a565b90601982527f54727573744c656173652050726f706572747920426164676500000000000000602083015261007b604061041a565b60048152632a26282160e11b602082015282519091906001600160401b03811161032a575f54600181811c9116801561040c575b602082101461030c57601f81116103aa575b506020601f821160011461034957819293945f9261033e575b50508160011b915f199060031b1c1916175f555b81516001600160401b03811161032a57600154600181811c91168015610320575b602082101461030c57601f81116102a9575b50602092601f821160011461024857928192935f9261023d575b50508160011b915f199060031b1c1916176001555b331561022a5760068054336001600160a01b03198216811790925560405191906001600160a01b03167f8be0079c531659141344cd1fd0a4f28419497f9722a3daafe3b4186f6b6457e05f80a3600160075567016345785d8a0000600c5566b1a2bc2ec50000600d5581156101e85750600e80546001600160a01b0319169190911790556001600855604051612a3890816104408239f35b62461bcd60e51b815260206004820152601560248201527f496e76616c69642066656520636f6c6c6563746f7200000000000000000000006044820152606490fd5b631e4fbdf760e01b5f525f60045260245ffd5b015190505f8061013b565b601f1982169360015f52805f20915f5b8681106102915750836001959610610279575b505050811b01600155610150565b01515f1960f88460031b161c191690555f808061026b565b91926020600181928685015181550194019201610258565b60015f527fb10e2d527612073b26eecdfd717e6a320cf44b4afac2b0732d9fcbe2b7fa0cf6601f830160051c81019160208410610302575b601f0160051c01905b8181106102f75750610121565b5f81556001016102ea565b90915081906102e1565b634e487b7160e01b5f52602260045260245ffd5b90607f169061010f565b634e487b7160e01b5f52604160045260245ffd5b015190505f806100da565b601f198216905f8052805f20915f5b8181106103925750958360019596971061037a575b505050811b015f556100ee565b01515f1960f88460031b161c191690555f808061036d565b9192602060018192868b015181550194019201610358565b5f80527f290decd9548b62a8d60345a988386fc84ba6bc95484008f6362f93160ef3e563601f830160051c81019160208410610402575b601f0160051c01905b8181106103f757506100c1565b5f81556001016103ea565b90915081906103e1565b90607f16906100af565b5f80fd5b6040519190601f01601f191682016001600160401b0381118382101761032a5760405256fe6080806040526004361015610012575f80fd5b5f905f3560e01c90816301ffc9a7146121fe5750806303851c0e1461210a57806306fdde03146120685780630719262214611f9c578063081812fc14611f60578063095ea7b314611e765780630e8c8cd914611dfc578063126dbe4314611d1e57806323b872dd14611d0757806341636d8814611cae5780634212a8ae1461183357806342842e0e146118045780636007bd6e146117ac5780636352211e1461177c5780636a1b7ecc14610eec5780636ae80d391461175f5780636e3dcdee146112d457806370a0823114611283578063715018a6146112285780638da5cb5b1461120057806395d89b4114611122578063a22cb4651461107e578063a245c6ad1461102a578063b574a06814610f76578063b88d4fde14610f09578063b8fe6abe14610eec578063c415b95c14610ec4578063c712fdb9146105c4578063c87b56dd1461056b578063cd6b34b214610548578063db5b7f351461049d578063e34fc5311461046a578063e985e9c514610412578063e9c50c38146103d3578063ee513c8914610357578063f2fde38b146102ce578063f79d91ae14610278578063f7b10808146101eb5763fda39083146101cb575f80fd5b346101e857806003193601126101e8576020600f54604051908152f35b80fd5b50346101e85760203660031901126101e857600435815260096020526040902080546001600160a01b0316610274610225600184016124cd565b91610232600285016124cd565b9361023f600382016124cd565b9161024c600483016124cd565b600583015490600760068501549401549460405198899860ff808860081c169716958a6123b9565b0390f35b50346101e85760203660031901126101e8577f83bee1c75d00c29e66092d821c1c82aa4792fe1f058e8dff38d5d394d37916dd60406004356102b861281b565b600c549080600c5582519182526020820152a180f35b50346101e85760203660031901126101e8576102e8612354565b6102f061281b565b6001600160a01b0316801561034357600680546001600160a01b0319811683179091556001600160a01b03167f8be0079c531659141344cd1fd0a4f28419497f9722a3daafe3b4186f6b6457e05f80a380f35b631e4fbdf760e01b82526004829052602482fd5b50346101e857806003193601126101e85761037061281b565b600f54801561039757600f82905560065461039491906001600160a01b03166129a2565b80f35b60405162461bcd60e51b81526020600482015260146024820152734e6f2066756e647320746f20776974686472617760601b6044820152606490fd5b50346101e85760203660031901126101e85760209060ff906040906001600160a01b036103fe612354565b168152601084522054166040519015158152f35b50346101e85760403660031901126101e857604061042e612354565b9161043761236a565b9260018060a01b031681526005602052209060018060a01b03165f52602052602060ff60405f2054166040519015158152f35b50346101e85760203660031901126101e857602090600435815260098252604060018060a01b0391205416604051908152f35b50346101e85760203660031901126101e8576104b7612354565b6104bf61281b565b6001600160a01b0316801561050c57808252601060205260408220805460ff191660011790557ff1a0a41fd2d1da6a9a2cfd5942b1ee56d9f16e75df8f2d5dc9b6258aaf6f67ad8280a280f35b60405162461bcd60e51b8152602060048201526014602482015273496e76616c69642075736572206164647265737360601b6044820152606490fd5b50346101e85760203660031901126101e85761056261281b565b600435600d5580f35b346105c05760203660031901126105c057610587600435612842565b505f6040516105976020826122a0565b526102746040516105a96020826122a0565b5f8152604051918291602083526020830190612330565b5f80fd5b60a03660031901126105c0576004356001600160401b0381116105c0576105ef903690600401612312565b6024356001600160401b0381116105c05761060e903690600401612312565b6044356001600160401b0381116105c05761062d903690600401612312565b906064356001600160401b0381116105c05761064d903690600401612312565b9060843591600260075414610eb5576002600755845115610e7057815115610e3257835115610df757805115610db257600183148015610da8575b15610d6f57600c5460028414610d5e575b335f52601060205260ff60405f205416155f14610cfd573410610cb857600e546106cd9034906001600160a01b03166129a2565b600854935f198514610ca45760018501600855604051926106ed84612269565b338452602084019287845260408501918252606085019283526080850190815260a08501905f825260c08601935f855260e0870193600185526101008801968988528a5f52600960205260405f209860018060a01b039060018060a01b03905116166bffffffffffffffffffffffff60a01b8a54161789556001890190518051906001600160401b0382116109995781906107888454612495565b601f8111610c54575b50602090601f8311600114610bf1575f92610be6575b50508160011b915f199060031b1c19161790555b51805160028901916001600160401b0382116109995781906107dd8454612495565b601f8111610b96575b50602090601f8311600114610b33575f92610b28575b50508160011b915f199060031b1c19161790555b51805160038801916001600160401b0382116109995781906108328454612495565b601f8111610ad8575b50602090601f8311600114610a75575f92610a6a575b50508160011b915f199060031b1c19161790555b51805160048701916001600160401b038211610999576108858354612495565b601f8111610a25575b50602090601f83116001146109b85791806109009694926007999896945f926109ad575b50508160011b915f199060031b1c19161790555b5160058701556108e96006870192511515839060ff801983541691151516179055565b51815461ff00191690151560081b61ff0016179055565b51910155335f52600b60205260405f208054680100000000000000008110156109995760209461095882869460017f1460c68a099d5a530906f3997fc04e446564014eaf227f88a51a4bfcff28f49b9501815561246c565b81549060031b9085821b915f19901b191617905561098160405191604083526040830190612330565b93868201528033940390a36001600755604051908152f35b634e487b7160e01b5f52604160045260245ffd5b015190508d806108b2565b90601f19831691845f52815f20925f5b818110610a0d575092600192859260079b9a98966109009a9896106109f5575b505050811b0190556108c6565b01515f1960f88460031b161c191690558d80806109e8565b929360206001819287860151815501950193016109c8565b835f5260205f20601f840160051c81019160208510610a60575b601f0160051c01905b818110610a55575061088e565b5f8155600101610a48565b9091508190610a3f565b015190508c80610851565b5f8581528281209350601f198516905b818110610ac05750908460019594939210610aa8575b505050811b019055610865565b01515f1960f88460031b161c191690558c8080610a9b565b92936020600181928786015181550195019301610a85565b909150835f5260205f20601f840160051c81019160208510610b1e575b90601f859493920160051c01905b818110610b10575061083b565b5f8155849350600101610b03565b9091508190610af5565b015190508d806107fc565b5f8581528281209350601f198516905b818110610b7e5750908460019594939210610b66575b505050811b019055610810565b01515f1960f88460031b161c191690558d8080610b59565b92936020600181928786015181550195019301610b43565b909150835f5260205f20601f840160051c81019160208510610bdc575b90601f859493920160051c01905b818110610bce57506107e6565b5f8155849350600101610bc1565b9091508190610bb3565b015190508e806107a7565b5f8581528281209350601f198516905b818110610c3c5750908460019594939210610c24575b505050811b0190556107bb565b01515f1960f88460031b161c191690558e8080610c17565b92936020600181928786015181550195019301610c01565b909150835f5260205f20601f840160051c81019160208510610c9a575b90601f859493920160051c01905b818110610c8c5750610791565b5f8155849350600101610c7f565b9091508190610c71565b634e487b7160e01b5f52601160045260245ffd5b60405162461bcd60e51b815260206004820152601860248201527f496e73756666696369656e74206c697374696e672066656500000000000000006044820152606490fd5b600f5490808210610d19578103908111610ca457600f556106cd565b60405162461bcd60e51b815260206004820152601960248201527f53706f6e736f727368697020706f6f6c206465706c65746564000000000000006044820152606490fd5b600d54610d6a916127c2565b610699565b60405162461bcd60e51b8152602060048201526011602482015270125b9d985b1a590812d650c81b195d995b607a1b6044820152606490fd5b5060028314610688565b60405162461bcd60e51b815260206004820152601860248201527f47505320636f6f7264696e6174657320726571756972656400000000000000006044820152606490fd5b60405162461bcd60e51b8152602060048201526013602482015272159a59195bc81a185cda081c995c5d5a5c9959606a1b6044820152606490fd5b60405162461bcd60e51b8152602060048201526016602482015275111bd8dd5b595b9d081a185cda081c995c5d5a5c995960521b6044820152606490fd5b60405162461bcd60e51b815260206004820152601960248201527f50726f70657274792061646472657373207265717569726564000000000000006044820152606490fd5b633ee5aeb560e01b5f5260045ffd5b346105c0575f3660031901126105c057600e546040516001600160a01b039091168152602090f35b346105c0575f3660031901126105c0576020600c54604051908152f35b346105c05760803660031901126105c057610f22612354565b610f2a61236a565b90604435606435926001600160401b0384116105c057366023850112156105c057610f62610f749436906024816004013591016122dc565b92610f6e8383836125b9565b336128a5565b005b346105c05760203660031901126105c0576001600160a01b03610f97612354565b165f52600b60205260405f20604051806020835491828152019081935f5260205f20905f5b8181106110145750505081610fd29103826122a0565b604051918291602083019060208452518091526040830191905f5b818110610ffb575050500390f35b8251845285945060209384019390920191600101610fed565b8254845260209093019260019283019201610fbc565b346105c05760203660031901126105c0576004355f52600a60205260405f20611052816124cd565b906102746002611064600184016124cd565b92015460405193849360ff808460081c1693169185612380565b346105c05760403660031901126105c057611097612354565b60243590811515908183036105c0576001600160a01b031691821561110f576110e190335f52600560205260405f20845f5260205260405f209060ff801983541691151516179055565b6040519081527f17307eab39ab6107e8899845ad3d59bd9653f200f220920489ca2b5937696c3160203392a3005b82630b61174360e31b5f5260045260245ffd5b346105c0575f3660031901126105c0576040515f60015461114281612495565b80845290600181169081156111dc575060011461117e575b6102748361116a818503826122a0565b604051918291602083526020830190612330565b60015f9081527fb10e2d527612073b26eecdfd717e6a320cf44b4afac2b0732d9fcbe2b7fa0cf6939250905b8082106111c25750909150810160200161116a61115a565b9192600181602092548385880101520191019092916111aa565b60ff191660208086019190915291151560051b8401909101915061116a905061115a565b346105c0575f3660031901126105c0576006546040516001600160a01b039091168152602090f35b346105c0575f3660031901126105c05761124061281b565b600680546001600160a01b031981169091555f906001600160a01b03167f8be0079c531659141344cd1fd0a4f28419497f9722a3daafe3b4186f6b6457e08280a3005b346105c05760203660031901126105c0576001600160a01b036112a4612354565b1680156112c1575f526003602052602060405f2054604051908152f35b6322718ad960e21b5f525f60045260245ffd5b346105c05760a03660031901126105c0576004356024356001600160401b0381116105c057611307903690600401612312565b6044356001600160401b0381116105c057611326903690600401612312565b606435908115158092036105c057608435908115158092036105c05761134a61281b565b845f52600960205261140860405f2061140160405161136881612269565b82546001600160a01b03168152611381600184016124cd565b6020820152611392600284016124cd565b60408201526113a3600384016124cd565b60608201526113b4600484016124cd565b6080820152600583015460a0820152600683015460ff808216151560c0840190815260089290921c16151560e0830152600790930154610100820152516001600160a01b0316151561256d565b51156127cf565b835115611724578051156116df576040519061142382612285565b848252602082019081526040820193845260608201928352855f52600a60205260405f2091518051906001600160401b0382116109995781906114668554612495565b601f811161168f575b50602090601f831160011461162c575f92611621575b50508160011b915f199060031b1c19161782555b51805160018301916001600160401b038211610999576114b98354612495565b601f81116115dc575b50602090601f83116001146115485761116a946115389794847f96d0061366bdf39fb5d3238a4042127d93d745ca81e521824373b9885432a4899a98956108e9956002955f9261153d575b50508160011b915f199060031b1c19161790555b0192511515839060ff801983541691151516179055565b0390a2005b015190508d8061150d565b90601f19831691845f52815f20925f5b8181106115c45750946001856108e99560029561116a9a957f96d0061366bdf39fb5d3238a4042127d93d745ca81e521824373b9885432a4899e9c996115389e9b106115ac575b505050811b019055611521565b01515f1960f88460031b161c191690558d808061159f565b92936020600181928786015181550195019301611558565b835f5260205f20601f840160051c81019160208510611617575b601f0160051c01905b81811061160c57506114c2565b5f81556001016115ff565b90915081906115f6565b015190508880611485565b5f8681528281209350601f198516905b818110611677575090846001959493921061165f575b505050811b018255611499565b01515f1960f88460031b161c19169055888080611652565b9293602060018192878601518155019501930161163c565b909150845f5260205f20601f840160051c810191602085106116d5575b90601f859493920160051c01905b8181106116c7575061146f565b5f81558493506001016116ba565b90915081906116ac565b60405162461bcd60e51b815260206004820152601860248201527f566964656f2074696d657374616d7020726571756972656400000000000000006044820152606490fd5b60405162461bcd60e51b815260206004820152601360248201527214195c9cdbdb98481251081c995c5d5a5c9959606a1b6044820152606490fd5b346105c0575f3660031901126105c0576020600d54604051908152f35b346105c05760203660031901126105c057602061179a600435612842565b6040516001600160a01b039091168152f35b346105c05760403660031901126105c0576117c5612354565b6001600160a01b03165f908152600b60205260409020805460243591908210156105c0576020916117f59161246c565b90549060031b1c604051908152f35b346105c057610f7461181536612432565b90604051926118256020856122a0565b5f8452610f6e8383836125b9565b346105c05760203660031901126105c05760043561184f61281b565b805f52600960205260405f2090805f52600a60205260405f209060026040519261187884612285565b611881816124cd565b845261188f600182016124cd565b602085015201549160ff6060604083019282861615158452019360081c161515835260018060a01b03845416938415908115946118cb8661256d565b60068201908154906118e060ff8316156127cf565b60ff8260081c1615611c695760078401956002875414611bcc575b505060019060ff19161790556005429101556020936040519161191e86846122a0565b5f8352611bb9575f8481526002865260409020546001600160a01b0316151580611bb2575b611b61575f8481526002865260409020546001600160a01b03168015159182611b30575b611b19575b5f858152600287526040812080546001600160a01b0319166001600160a01b038a161790558590889083907fddf252ad1be2c89b69c2b068fc378daa952ba7f163c4a11628f55a4df523b3ef9080a450611b0657843b6119f6575b505460405190815233927f4fdf86fb949d94ea64686b0c53072d1e62e2b9205a072cd65dbacfe8f7556dcf91a3005b83611a2f9160405180938192630a85bd0160e11b83523360048401525f6024840152876044840152608060648401526084830190612330565b03815f895af15f9181611ac6575b50611a6c57505050611a4d612876565b8051919082611a695783633250574960e11b5f5260045260245ffd5b01fd5b929391929091906001600160e01b03191663757a42ff60e11b01611ab457508291907f4fdf86fb949d94ea64686b0c53072d1e62e2b9205a072cd65dbacfe8f7556dcf6119c7565b633250574960e11b5f5260045260245ffd5b9091508481813d8311611aff575b611ade81836122a0565b810103126105c057516001600160e01b0319811681036105c0579086611a3d565b503d611ad4565b6339e3563760e11b5f525f60045260245ffd5b865f526003865260405f206001815401905561196c565b5f8681526004602052604080822080546001600160a01b031916905583825260038952902080545f19019055611967565b60405162461bcd60e51b8152600481018690526024808201527f50726f70657274792062616467657320617265206e6f6e2d7472616e7366657260448201526361626c6560e01b6064820152608490fd5b5080611943565b633250574960e11b5f525f60045260245ffd5b5115611c24575115611bdf5788806118fb565b60405162461bcd60e51b815260206004820152601a60248201527f416464726573732070726f6f66206e6f742076657269666965640000000000006044820152606490fd5b60405162461bcd60e51b815260206004820152601a60248201527f476f7665726e6d656e74204944206e6f742076657269666965640000000000006044820152606490fd5b60405162461bcd60e51b815260206004820152601760248201527f50726f70657274792069732064656163746976617465640000000000000000006044820152606490fd5b5f3660031901126105c0573415611cd057611ccb34600f546127c2565b600f55005b60405162461bcd60e51b815260206004820152600f60248201526e4d7573742073656e642066756e647360881b6044820152606490fd5b346105c057610f74611d1836612432565b916125b9565b346105c05760203660031901126105c0576004355f52600960205260405f20604051611d4981612269565b81546001600160a01b03168152610274611d65600184016124cd565b9160208101928352611d79600285016124cd565b9360408201948552611d8d600382016124cd565b60608301908152611da0600483016124cd565b8060808501526005830154908160a0860152600684015492600760ff8086161515958660c08a015260081c161515958660e08901520154958661010082015260018060a01b0390511697519851905190604051998a998a6123b9565b346105c05760203660031901126105c0576004355f52600a60205260405f20604051611e2781612285565b611e30826124cd565b81526102746002611e43600185016124cd565b9384602085015201549160ff80841615159384604084015260081c16151590816060820152519260405194859485612380565b346105c05760403660031901126105c057611e8f612354565b602435611e9b81612842565b33151580611f4d575b80611f20575b611f0d5781906001600160a01b0384811691167f8c5be1e5ebec7d5bd14f71427d1e84f3dd0314c0f7b2291e5b200ac8c7c3b9255f80a45f90815260046020526040902080546001600160a01b0319166001600160a01b03909216919091179055005b63a9fbf51f60e01b5f523360045260245ffd5b506001600160a01b0381165f90815260056020908152604080832033845290915290205460ff1615611eaa565b506001600160a01b038116331415611ea4565b346105c05760203660031901126105c057600435611f7d81612842565b505f526004602052602060018060a01b0360405f205416604051908152f35b346105c05760203660031901126105c0576004355f526009602052602060405f2060405190611fca82612269565b80546001600160a01b03168252611fe3600182016124cd565b83830152611ff3600282016124cd565b6040830152612004600382016124cd565b6060830152612015600482016124cd565b6080830152600581015460a0830152600681015491610100600760ff8086161515958660c086015260081c161515938460e0850152015491015281612060575b506040519015158152f35b905082612055565b346105c0575f3660031901126105c0576040515f5f5461208781612495565b80845290600181169081156111dc57506001146120ae576102748361116a818503826122a0565b5f8080527f290decd9548b62a8d60345a988386fc84ba6bc95484008f6362f93160ef3e563939250905b8082106120f05750909150810160200161116a61115a565b9192600181602092548385880101520191019092916120d8565b346105c05760403660031901126105c0576004356024356001600160401b0381116105c05761213d903690600401612312565b61214561281b565b815f526009602052600660405f2061216760018060a01b03825416151561256d565b019081549060ff8260081c16156121b9577fa32677ab4fac60467a78a3510492f292639d719077591f03963780e3ab79bd53926115389261ff0019169055604051918291602083526020830190612330565b60405162461bcd60e51b815260206004820152601c60248201527f50726f706572747920616c7265616479206465616374697661746564000000006044820152606490fd5b346105c05760203660031901126105c0576004359063ffffffff60e01b82168092036105c0576020916380ac58cd60e01b8114908115612258575b8115612247575b5015158152f35b6301ffc9a760e01b14905083612240565b635b5e139f60e01b81149150612239565b61012081019081106001600160401b0382111761099957604052565b608081019081106001600160401b0382111761099957604052565b90601f801991011681019081106001600160401b0382111761099957604052565b6001600160401b03811161099957601f01601f191660200190565b9291926122e8826122c1565b916122f660405193846122a0565b8294818452818301116105c0578281602093845f960137010152565b9080601f830112156105c05781602061232d933591016122dc565b90565b805180835260209291819084018484015e5f828201840152601f01601f1916010190565b600435906001600160a01b03821682036105c057565b602435906001600160a01b03821682036105c057565b9294939060609261239c6123aa92608087526080870190612330565b908582036020870152612330565b94151560408401521515910152565b959998979491936123fe61241a946123f06101009a9761240c9560018060a01b03168b5261012060208c01526101208b0190612330565b9089820360408b0152612330565b908782036060890152612330565b908582036080870152612330565b9660a0840152151560c0830152151560e08201520152565b60609060031901126105c0576004356001600160a01b03811681036105c057906024356001600160a01b03811681036105c0579060443590565b8054821015612481575f5260205f2001905f90565b634e487b7160e01b5f52603260045260245ffd5b90600182811c921680156124c3575b60208310146124af57565b634e487b7160e01b5f52602260045260245ffd5b91607f16916124a4565b9060405191825f8254926124e084612495565b808452936001811690811561254b5750600114612507575b50612505925003836122a0565b565b90505f9291925260205f20905f915b81831061252f575050906020612505928201015f6124f8565b6020919350806001915483858901015201910190918492612516565b90506020925061250594915060ff191682840152151560051b8201015f6124f8565b1561257457565b60405162461bcd60e51b815260206004820152601760248201527f50726f706572747920646f6573206e6f742065786973740000000000000000006044820152606490fd5b6001600160a01b0390911691908215611bb9575f828152600260205260409020546001600160a01b03161515806127ba575b612769575f828152600260205260409020546001600160a01b0316928290331515806126d4575b50846126a1575b805f52600360205260405f2060018154019055815f52600260205260405f20816bffffffffffffffffffffffff60a01b825416179055847fddf252ad1be2c89b69c2b068fc378daa952ba7f163c4a11628f55a4df523b3ef5f80a46001600160a01b031680830361268957505050565b6364283d7b60e01b5f5260045260245260445260645ffd5b5f82815260046020526040902080546001600160a01b0319169055845f52600360205260405f205f198154019055612619565b90915080612718575b156126ea5782905f612612565b828461270257637e27328960e01b5f5260045260245ffd5b63177e802f60e01b5f523360045260245260445ffd5b503384148015612747575b806126dd57505f838152600460205260409020546001600160a01b031633146126dd565b505f84815260056020908152604080832033845290915290205460ff16612723565b60405162461bcd60e51b8152602060048201526024808201527f50726f70657274792062616467657320617265206e6f6e2d7472616e7366657260448201526361626c6560e01b6064820152608490fd5b5060016125eb565b91908201809211610ca457565b156127d657565b60405162461bcd60e51b815260206004820152601960248201527f50726f706572747920616c7265616479207665726966696564000000000000006044820152606490fd5b6006546001600160a01b0316330361282f57565b63118cdaa760e01b5f523360045260245ffd5b5f818152600260205260409020546001600160a01b0316908115612864575090565b637e27328960e01b5f5260045260245ffd5b3d156128a0573d90612887826122c1565b9161289560405193846122a0565b82523d5f602084013e565b606090565b823b6128b3575b5050505050565b604051630a85bd0160e11b81526001600160a01b0391821660048201529181166024830152604482019390935260806064820152911691602090829081906128ff906084830190612330565b03815f865af15f918161295d575b5061293b575061291b612876565b805190816129365782633250574960e11b5f5260045260245ffd5b602001fd5b6001600160e01b03191663757a42ff60e11b01611ab457505f808080806128ac565b9091506020813d60201161299a575b81612979602093836122a0565b810103126105c057516001600160e01b0319811681036105c057905f61290d565b3d915061296c565b8147106129eb575f918291829182916001600160a01b03165af16129c4612876565b90156129cd5750565b8051156129dc57602081519101fd5b63d6bda27560e01b5f5260045ffd5b504763cf47918160e01b5f5260045260245260445ffdfea2646970667358221220902dc3b2b132ebc642dee82f13326dcfdd28470968213493e009b82c81302efb64736f6c634300081c0033",
			"opcodes": "PUSH1 0x80 PUSH1 0x40 MSTORE CALLVALUE PUSH2 0x416 JUMPI PUSH2 0x2E78 PUSH1 0x20 DUP2 CODESIZE SUB SWAP2 DUP3 PUSH2 0x1C DUP2 PUSH2 0x41A JUMP JUMPDEST SWAP4 DUP5 SWAP3 DUP4 CODECOPY DUP2 ADD SUB SLT PUSH2 0x416 JUMPI MLOAD PUSH1 0x1 PUSH1 0x1 PUSH1 0xA0 SHL SUB DUP2 AND SWAP1 DUP2 SWAP1 SUB PUSH2 0x416 JUMPI PUSH2 0x46 PUSH1 0x40 PUSH2 0x41A JUMP JUMPDEST SWAP1 PUSH1 0x19 DUP3 MSTORE PUSH32 0x54727573744C656173652050726F706572747920426164676500000000000000 PUSH1 0x20 DUP4 ADD MSTORE PUSH2 0x7B PUSH1 0x40 PUSH2 0x41A JUMP JUMPDEST PUSH1 0x4 DUP2 MSTORE PUSH4 0x2A262821 PUSH1 0xE1 SHL PUSH1 0x20 DUP3 ADD MSTORE DUP3 MLOAD SWAP1 SWAP2 SWAP1 PUSH1 0x1 PUSH1 0x1 PUSH1 0x40 SHL SUB DUP2 GT PUSH2 0x32A JUMPI PUSH0 SLOAD PUSH1 0x1 DUP2 DUP2 SHR SWAP2 AND DUP1 ISZERO PUSH2 0x40C JUMPI JUMPDEST PUSH1 0x20 DUP3 LT EQ PUSH2 0x30C JUMPI PUSH1 0x1F DUP2 GT PUSH2 0x3AA JUMPI JUMPDEST POP PUSH1 0x20 PUSH1 0x1F DUP3 GT PUSH1 0x1 EQ PUSH2 0x349 JUMPI DUP2 SWAP3 SWAP4 SWAP5 PUSH0 SWAP3 PUSH2 0x33E JUMPI JUMPDEST POP POP DUP2 PUSH1 0x1 SHL SWAP2 PUSH0 NOT SWAP1 PUSH1 0x3 SHL SHR NOT AND OR PUSH0 SSTORE JUMPDEST DUP2 MLOAD PUSH1 0x1 PUSH1 0x1 PUSH1 0x40 SHL SUB DUP2 GT PUSH2 0x32A JUMPI PUSH1 0x1 SLOAD PUSH1 0x1 DUP2 DUP2 SHR SWAP2 AND DUP1 ISZERO PUSH2 0x320 JUMPI JUMPDEST PUSH1 0x20 DUP3 LT EQ PUSH2 0x30C JUMPI PUSH1 0x1F DUP2 GT PUSH2 0x2A9 JUMPI JUMPDEST POP PUSH1 0x20 SWAP3 PUSH1 0x1F DUP3 GT PUSH1 0x1 EQ PUSH2 0x248 JUMPI SWAP3 DUP2 SWAP3 SWAP4 PUSH0 SWAP3 PUSH2 0x23D JUMPI JUMPDEST POP POP DUP2 PUSH1 0x1 SHL SWAP2 PUSH0 NOT SWAP1 PUSH1 0x3 SHL SHR NOT AND OR PUSH1 0x1 SSTORE JUMPDEST CALLER ISZERO PUSH2 0x22A JUMPI PUSH1 0x6 DUP1 SLOAD CALLER PUSH1 0x1 PUSH1 0x1 PUSH1 0xA0 SHL SUB NOT DUP3 AND DUP2 OR SWAP1 SWAP3 SSTORE PUSH1 0x40 MLOAD SWAP2 SWAP1 PUSH1 0x1 PUSH1 0x1 PUSH1 0xA0 SHL SUB AND PUSH32 0x8BE0079C531659141344CD1FD0A4F28419497F9722A3DAAFE3B4186F6B6457E0 PUSH0 DUP1 LOG3 PUSH1 0x1 PUSH1 0x7 SSTORE PUSH8 0x16345785D8A0000 PUSH1 0xC SSTORE PUSH7 0xB1A2BC2EC50000 PUSH1 0xD SSTORE DUP2 ISZERO PUSH2 0x1E8 JUMPI POP PUSH1 0xE DUP1 SLOAD PUSH1 0x1 PUSH1 0x1 PUSH1 0xA0 SHL SUB NOT AND SWAP2 SWAP1 SWAP2 OR SWAP1 SSTORE PUSH1 0x1 PUSH1 0x8 SSTORE PUSH1 0x40 MLOAD PUSH2 0x2A38 SWAP1 DUP2 PUSH2 0x440 DUP3 CODECOPY RETURN JUMPDEST PUSH3 0x461BCD PUSH1 0xE5 SHL DUP2 MSTORE PUSH1 0x20 PUSH1 0x4 DUP3 ADD MSTORE PUSH1 0x15 PUSH1 0x24 DUP3 ADD MSTORE PUSH32 0x496E76616C69642066656520636F6C6C6563746F720000000000000000000000 PUSH1 0x44 DUP3 ADD MSTORE PUSH1 0x64 SWAP1 REVERT JUMPDEST PUSH4 0x1E4FBDF7 PUSH1 0xE0 SHL PUSH0 MSTORE PUSH0 PUSH1 0x4 MSTORE PUSH1 0x24 PUSH0 REVERT JUMPDEST ADD MLOAD SWAP1 POP PUSH0 DUP1 PUSH2 0x13B JUMP JUMPDEST PUSH1 0x1F NOT DUP3 AND SWAP4 PUSH1 0x1 PUSH0 MSTORE DUP1 PUSH0 KECCAK256 SWAP2 PUSH0 JUMPDEST DUP7 DUP2 LT PUSH2 0x291 JUMPI POP DUP4 PUSH1 0x1 SWAP6 SWAP7 LT PUSH2 0x279 JUMPI JUMPDEST POP POP POP DUP2 SHL ADD PUSH1 0x1 SSTORE PUSH2 0x150 JUMP JUMPDEST ADD MLOAD PUSH0 NOT PUSH1 0xF8 DUP5 PUSH1 0x3 SHL AND SHR NOT AND SWAP1 SSTORE PUSH0 DUP1 DUP1 PUSH2 0x26B JUMP JUMPDEST SWAP2 SWAP3 PUSH1 0x20 PUSH1 0x1 DUP2 SWAP3 DUP7 DUP6 ADD MLOAD DUP2 SSTORE ADD SWAP5 ADD SWAP3 ADD PUSH2 0x258 JUMP JUMPDEST PUSH1 0x1 PUSH0 MSTORE PUSH32 0xB10E2D527612073B26EECDFD717E6A320CF44B4AFAC2B0732D9FCBE2B7FA0CF6 PUSH1 0x1F DUP4 ADD PUSH1 0x5 SHR DUP2 ADD SWAP2 PUSH1 0x20 DUP5 LT PUSH2 0x302 JUMPI JUMPDEST PUSH1 0x1F ADD PUSH1 0x5 SHR ADD SWAP1 JUMPDEST DUP2 DUP2 LT PUSH2 0x2F7 JUMPI POP PUSH2 0x121 JUMP JUMPDEST PUSH0 DUP2 SSTORE PUSH1 0x1 ADD PUSH2 0x2EA JUMP JUMPDEST SWAP1 SWAP2 POP DUP2 SWAP1 PUSH2 0x2E1 JUMP JUMPDEST PUSH4 0x4E487B71 PUSH1 0xE0 SHL PUSH0 MSTORE PUSH1 0x22 PUSH1 0x4 MSTORE PUSH1 0x24 PUSH0 REVERT JUMPDEST SWAP1 PUSH1 0x7F AND SWAP1 PUSH2 0x10F JUMP JUMPDEST PUSH4 0x4E487B71 PUSH1 0xE0 SHL PUSH0 MSTORE PUSH1 0x41 PUSH1 0x4 MSTORE PUSH1 0x24 PUSH0 REVERT JUMPDEST ADD MLOAD SWAP1 POP PUSH0 DUP1 PUSH2 0xDA JUMP JUMPDEST PUSH1 0x1F NOT DUP3 AND SWAP1 PUSH0 DUP1 MSTORE DUP1 PUSH0 KECCAK256 SWAP2 PUSH0 JUMPDEST DUP2 DUP2 LT PUSH2 0x392 JUMPI POP SWAP6 DUP4 PUSH1 0x1 SWAP6 SWAP7 SWAP8 LT PUSH2 0x37A JUMPI JUMPDEST POP POP POP DUP2 SHL ADD PUSH0 SSTORE PUSH2 0xEE JUMP JUMPDEST ADD MLOAD PUSH0 NOT PUSH1 0xF8 DUP5 PUSH1 0x3 SHL AND SHR NOT AND SWAP1 SSTORE PUSH0 DUP1 DUP1 PUSH2 0x36D JUMP JUMPDEST SWAP2 SWAP3 PUSH1 0x20 PUSH1 0x1 DUP2 SWAP3 DUP7 DUP12 ADD MLOAD DUP2 SSTORE ADD SWAP5 ADD SWAP3 ADD PUSH2 0x358 JUMP JUMPDEST PUSH0 DUP1 MSTORE PUSH32 0x290DECD9548B62A8D60345A988386FC84BA6BC95484008F6362F93160EF3E563 PUSH1 0x1F DUP4 ADD PUSH1 0x5 SHR DUP2 ADD SWAP2 PUSH1 0x20 DUP5 LT PUSH2 0x402 JUMPI JUMPDEST PUSH1 0x1F ADD PUSH1 0x5 SHR ADD SWAP1 JUMPDEST DUP2 DUP2 LT PUSH2 0x3F7 JUMPI POP PUSH2 0xC1 JUMP JUMPDEST PUSH0 DUP2 SSTORE PUSH1 0x1 ADD PUSH2 0x3EA JUMP JUMPDEST SWAP1 SWAP2 POP DUP2 SWAP1 PUSH2 0x3E1 JUMP JUMPDEST SWAP1 PUSH1 0x7F AND SWAP1 PUSH2 0xAF JUMP JUMPDEST PUSH0 DUP1 REVERT JUMPDEST PUSH1 0x40 MLOAD SWAP2 SWAP1 PUSH1 0x1F ADD PUSH1 0x1F NOT AND DUP3 ADD PUSH1 0x1 PUSH1 0x1 PUSH1 0x40 SHL SUB DUP2 GT DUP4 DUP3 LT OR PUSH2 0x32A JUMPI PUSH1 0x40 MSTORE JUMP INVALID PUSH1 0x80 DUP1 PUSH1 0x40 MSTORE PUSH1 0x4 CALLDATASIZE LT ISZERO PUSH2 0x12 JUMPI PUSH0 DUP1 REVERT JUMPDEST PUSH0 SWAP1 PUSH0 CALLDATALOAD PUSH1 0xE0 SHR SWAP1 DUP2 PUSH4 0x1FFC9A7 EQ PUSH2 0x21FE JUMPI POP DUP1 PUSH4 0x3851C0E EQ PUSH2 0x210A JUMPI DUP1 PUSH4 0x6FDDE03 EQ PUSH2 0x2068 JUMPI DUP1 PUSH4 0x7192622 EQ PUSH2 0x1F9C JUMPI DUP1 PUSH4 0x81812FC EQ PUSH2 0x1F60 JUMPI DUP1 PUSH4 0x95EA7B3 EQ PUSH2 0x1E76 JUMPI DUP1 PUSH4 0xE8C8CD9 EQ PUSH2 0x1DFC JUMPI DUP1 PUSH4 0x126DBE43 EQ PUSH2 0x1D1E JUMPI DUP1 PUSH4 0x23B872DD EQ PUSH2 0x1D07 JUMPI DUP1 PUSH4 0x41636D88 EQ PUSH2 0x1CAE JUMPI DUP1 PUSH4 0x4212A8AE EQ PUSH2 0x1833 JUMPI DUP1 PUSH4 0x42842E0E EQ PUSH2 0x1804 JUMPI DUP1 PUSH4 0x6007BD6E EQ PUSH2 0x17AC JUMPI DUP1 PUSH4 0x6352211E EQ PUSH2 0x177C JUMPI DUP1 PUSH4 0x6A1B7ECC EQ PUSH2 0xEEC JUMPI DUP1 PUSH4 0x6AE80D39 EQ PUSH2 0x175F JUMPI DUP1 PUSH4 0x6E3DCDEE EQ PUSH2 0x12D4 JUMPI DUP1 PUSH4 0x70A08231 EQ PUSH2 0x1283 JUMPI DUP1 PUSH4 0x715018A6 EQ PUSH2 0x1228 JUMPI DUP1 PUSH4 0x8DA5CB5B EQ PUSH2 0x1200 JUMPI DUP1 PUSH4 0x95D89B41 EQ PUSH2 0x1122 JUMPI DUP1 PUSH4 0xA22CB465 EQ PUSH2 0x107E JUMPI DUP1 PUSH4 0xA245C6AD EQ PUSH2 0x102A JUMPI DUP1 PUSH4 0xB574A068 EQ PUSH2 0xF76 JUMPI DUP1 PUSH4 0xB88D4FDE EQ PUSH2 0xF09 JUMPI DUP1 PUSH4 0xB8FE6ABE EQ PUSH2 0xEEC JUMPI DUP1 PUSH4 0xC415B95C EQ PUSH2 0xEC4 JUMPI DUP1 PUSH4 0xC712FDB9 EQ PUSH2 0x5C4 JUMPI DUP1 PUSH4 0xC87B56DD EQ PUSH2 0x56B JUMPI DUP1 PUSH4 0xCD6B34B2 EQ PUSH2 0x548 JUMPI DUP1 PUSH4 0xDB5B7F35 EQ PUSH2 0x49D JUMPI DUP1 PUSH4 0xE34FC531 EQ PUSH2 0x46A JUMPI DUP1 PUSH4 0xE985E9C5 EQ PUSH2 0x412 JUMPI DUP1 PUSH4 0xE9C50C38 EQ PUSH2 0x3D3 JUMPI DUP1 PUSH4 0xEE513C89 EQ PUSH2 0x357 JUMPI DUP1 PUSH4 0xF2FDE38B EQ PUSH2 0x2CE JUMPI DUP1 PUSH4 0xF79D91AE EQ PUSH2 0x278 JUMPI DUP1 PUSH4 0xF7B10808 EQ PUSH2 0x1EB JUMPI PUSH4 0xFDA39083 EQ PUSH2 0x1CB JUMPI PUSH0 DUP1 REVERT JUMPDEST CALLVALUE PUSH2 0x1E8 JUMPI DUP1 PUSH1 0x3 NOT CALLDATASIZE ADD SLT PUSH2 0x1E8 JUMPI PUSH1 0x20 PUSH1 0xF SLOAD PUSH1 0x40 MLOAD SWAP1 DUP2 MSTORE RETURN JUMPDEST DUP1 REVERT JUMPDEST POP CALLVALUE PUSH2 0x1E8 JUMPI PUSH1 0x20 CALLDATASIZE PUSH1 0x3 NOT ADD SLT PUSH2 0x1E8 JUMPI PUSH1 0x4 CALLDATALOAD DUP2 MSTORE PUSH1 0x9 PUSH1 0x20 MSTORE PUSH1 0x40 SWAP1 KECCAK256 DUP1 SLOAD PUSH1 0x1 PUSH1 0x1 PUSH1 0xA0 SHL SUB AND PUSH2 0x274 PUSH2 0x225 PUSH1 0x1 DUP5 ADD PUSH2 0x24CD JUMP JUMPDEST SWAP2 PUSH2 0x232 PUSH1 0x2 DUP6 ADD PUSH2 0x24CD JUMP JUMPDEST SWAP4 PUSH2 0x23F PUSH1 0x3 DUP3 ADD PUSH2 0x24CD JUMP JUMPDEST SWAP2 PUSH2 0x24C PUSH1 0x4 DUP4 ADD PUSH2 0x24CD JUMP JUMPDEST PUSH1 0x5 DUP4 ADD SLOAD SWAP1 PUSH1 0x7 PUSH1 0x6 DUP6 ADD SLOAD SWAP5 ADD SLOAD SWAP5 PUSH1 0x40 MLOAD SWAP9 DUP10 SWAP9 PUSH1 0xFF DUP1 DUP9 PUSH1 0x8 SHR AND SWAP8 AND SWAP6 DUP11 PUSH2 0x23B9 JUMP JUMPDEST SUB SWAP1 RETURN JUMPDEST POP CALLVALUE PUSH2 0x1E8 JUMPI PUSH1 0x20 CALLDATASIZE PUSH1 0x3 NOT ADD SLT PUSH2 0x1E8 JUMPI PUSH32 0x83BEE1C75D00C29E66092D821C1C82AA4792FE1F058E8DFF38D5D394D37916DD PUSH1 0x40 PUSH1 0x4 CALLDATALOAD PUSH2 0x2B8 PUSH2 0x281B JUMP JUMPDEST PUSH1 0xC SLOAD SWAP1 DUP1 PUSH1 0xC SSTORE DUP3 MLOAD SWAP2 DUP3 MSTORE PUSH1 0x20 DUP3 ADD MSTORE LOG1 DUP1 RETURN JUMPDEST POP CALLVALUE PUSH2 0x1E8 JUMPI PUSH1 0x20 CALLDATASIZE PUSH1 0x3 NOT ADD SLT PUSH2 0x1E8 JUMPI PUSH2 0x2E8 PUSH2 0x2354 JUMP JUMPDEST PUSH2 0x2F0 PUSH2 0x281B JUMP JUMPDEST PUSH1 0x1 PUSH1 0x1 PUSH1 0xA0 SHL SUB AND DUP1 ISZERO PUSH2 0x343 JUMPI PUSH1 0x6 DUP1 SLOAD PUSH1 0x1 PUSH1 0x1 PUSH1 0xA0 SHL SUB NOT DUP2 AND DUP4 OR SWAP1 SWAP2 SSTORE PUSH1 0x1 PUSH1 0x1 PUSH1 0xA0 SHL SUB AND PUSH32 0x8BE0079C531659141344CD1FD0A4F28419497F9722A3DAAFE3B4186F6B6457E0 PUSH0 DUP1 LOG3 DUP1 RETURN JUMPDEST PUSH4 0x1E4FBDF7 PUSH1 0xE0 SHL DUP3 MSTORE PUSH1 0x4 DUP3 SWAP1 MSTORE PUSH1 0x24 DUP3 REVERT JUMPDEST POP CALLVALUE PUSH2 0x1E8 JUMPI DUP1 PUSH1 0x3 NOT CALLDATASIZE ADD SLT PUSH2 0x1E8 JUMPI PUSH2 0x370 PUSH2 0x281B JUMP JUMPDEST PUSH1 0xF SLOAD DUP1 ISZERO PUSH2 0x397 JUMPI PUSH1 0xF DUP3 SWAP1 SSTORE PUSH1 0x6 SLOAD PUSH2 0x394 SWAP2 SWAP1 PUSH1 0x1 PUSH1 0x1 PUSH1 0xA0 SHL SUB AND PUSH2 0x29A2 JUMP JUMPDEST DUP1 RETURN JUMPDEST PUSH1 0x40 MLOAD PUSH3 0x461BCD PUSH1 0xE5 SHL DUP2 MSTORE PUSH1 0x20 PUSH1 0x4 DUP3 ADD MSTORE PUSH1 0x14 PUSH1 0x24 DUP3 ADD MSTORE PUSH20 0x4E6F2066756E647320746F207769746864726177 PUSH1 0x60 SHL PUSH1 0x44 DUP3 ADD MSTORE PUSH1 0x64 SWAP1 REVERT JUMPDEST POP CALLVALUE PUSH2 0x1E8 JUMPI PUSH1 0x20 CALLDATASIZE PUSH1 0x3 NOT ADD SLT PUSH2 0x1E8 JUMPI PUSH1 0x20 SWAP1 PUSH1 0xFF SWAP1 PUSH1 0x40 SWAP1 PUSH1 0x1 PUSH1 0x1 PUSH1 0xA0 SHL SUB PUSH2 0x3FE PUSH2 0x2354 JUMP JUMPDEST AND DUP2 MSTORE PUSH1 0x10 DUP5 MSTORE KECCAK256 SLOAD AND PUSH1 0x40 MLOAD SWAP1 ISZERO ISZERO DUP2 MSTORE RETURN JUMPDEST POP CALLVALUE PUSH2 0x1E8 JUMPI PUSH1 0x40 CALLDATASIZE PUSH1 0x3 NOT ADD SLT PUSH2 0x1E8 JUMPI PUSH1 0x40 PUSH2 0x42E PUSH2 0x2354 JUMP JUMPDEST SWAP2 PUSH2 0x437 PUSH2 0x236A JUMP JUMPDEST SWAP3 PUSH1 0x1 DUP1 PUSH1 0xA0 SHL SUB AND DUP2 MSTORE PUSH1 0x5 PUSH1 0x20 MSTORE KECCAK256 SWAP1 PUSH1 0x1 DUP1 PUSH1 0xA0 SHL SUB AND PUSH0 MSTORE PUSH1 0x20 MSTORE PUSH1 0x20 PUSH1 0xFF PUSH1 0x40 PUSH0 KECCAK256 SLOAD AND PUSH1 0x40 MLOAD SWAP1 ISZERO ISZERO DUP2 MSTORE RETURN JUMPDEST POP CALLVALUE PUSH2 0x1E8 JUMPI PUSH1 0x20 CALLDATASIZE PUSH1 0x3 NOT ADD SLT PUSH2 0x1E8 JUMPI PUSH1 0x20 SWAP1 PUSH1 0x4 CALLDATALOAD DUP2 MSTORE PUSH1 0x9 DUP3 MSTORE PUSH1 0x40 PUSH1 0x1 DUP1 PUSH1 0xA0 SHL SUB SWAP2 KECCAK256 SLOAD AND PUSH1 0x40 MLOAD SWAP1 DUP2 MSTORE RETURN JUMPDEST POP CALLVALUE PUSH2 0x1E8 JUMPI PUSH1 0x20 CALLDATASIZE PUSH1 0x3 NOT ADD SLT PUSH2 0x1E8 JUMPI PUSH2 0x4B7 PUSH2 0x2354 JUMP JUMPDEST PUSH2 0x4BF PUSH2 0x281B JUMP JUMPDEST PUSH1 0x1 PUSH1 0x1 PUSH1 0xA0 SHL SUB AND DUP1 ISZERO PUSH2 0x50C JUMPI DUP1 DUP3 MSTORE PUSH1 0x10 PUSH1 0x20 MSTORE PUSH1 0x40 DUP3 KECCAK256 DUP1 SLOAD PUSH1 0xFF NOT AND PUSH1 0x1 OR SWAP1 SSTORE PUSH32 0xF1A0A41FD2D1DA6A9A2CFD5942B1EE56D9F16E75DF8F2D5DC9B6258AAF6F67AD DUP3 DUP1 LOG2 DUP1 RETURN JUMPDEST PUSH1 0x40 MLOAD PUSH3 0x461BCD PUSH1 0xE5 SHL DUP2 MSTORE PUSH1 0x20 PUSH1 0x4 DUP3 ADD MSTORE PUSH1 0x14 PUSH1 0x24 DUP3 ADD MSTORE PUSH20 0x496E76616C696420757365722061646472657373 PUSH1 0x60 SHL PUSH1 0x44 DUP3 ADD MSTORE PUSH1 0x64 SWAP1 REVERT JUMPDEST POP CALLVALUE PUSH2 0x1E8 JUMPI PUSH1 0x20 CALLDATASIZE PUSH1 0x3 NOT ADD SLT PUSH2 0x1E8 JUMPI PUSH2 0x562 PUSH2 0x281B JUMP JUMPDEST PUSH1 0x4 CALLDATALOAD PUSH1 0xD SSTORE DUP1 RETURN JUMPDEST CALLVALUE PUSH2 0x5C0 JUMPI PUSH1 0x20 CALLDATASIZE PUSH1 0x3 NOT ADD SLT PUSH2 0x5C0 JUMPI PUSH2 0x587 PUSH1 0x4 CALLDATALOAD PUSH2 0x2842 JUMP JUMPDEST POP PUSH0 PUSH1 0x40 MLOAD PUSH2 0x597 PUSH1 0x20 DUP3 PUSH2 0x22A0 JUMP JUMPDEST MSTORE PUSH2 0x274 PUSH1 0x40 MLOAD PUSH2 0x5A9 PUSH1 0x20 DUP3 PUSH2 0x22A0 JUMP JUMPDEST PUSH0 DUP2 MSTORE PUSH1 0x40 MLOAD SWAP2 DUP3 SWAP2 PUSH1 0x20 DUP4 MSTORE PUSH1 0x20 DUP4 ADD SWAP1 PUSH2 0x2330 JUMP JUMPDEST PUSH0 DUP1 REVERT JUMPDEST PUSH1 0xA0 CALLDATASIZE PUSH1 0x3 NOT ADD SLT PUSH2 0x5C0 JUMPI PUSH1 0x4 CALLDATALOAD PUSH1 0x1 PUSH1 0x1 PUSH1 0x40 SHL SUB DUP2 GT PUSH2 0x5C0 JUMPI PUSH2 0x5EF SWAP1 CALLDATASIZE SWAP1 PUSH1 0x4 ADD PUSH2 0x2312 JUMP JUMPDEST PUSH1 0x24 CALLDATALOAD PUSH1 0x1 PUSH1 0x1 PUSH1 0x40 SHL SUB DUP2 GT PUSH2 0x5C0 JUMPI PUSH2 0x60E SWAP1 CALLDATASIZE SWAP1 PUSH1 0x4 ADD PUSH2 0x2312 JUMP JUMPDEST PUSH1 0x44 CALLDATALOAD PUSH1 0x1 PUSH1 0x1 PUSH1 0x40 SHL SUB DUP2 GT PUSH2 0x5C0 JUMPI PUSH2 0x62D SWAP1 CALLDATASIZE SWAP1 PUSH1 0x4 ADD PUSH2 0x2312 JUMP JUMPDEST SWAP1 PUSH1 0x64 CALLDATALOAD PUSH1 0x1 PUSH1 0x1 PUSH1 0x40 SHL SUB DUP2 GT PUSH2 0x5C0 JUMPI PUSH2 0x64D SWAP1 CALLDATASIZE SWAP1 PUSH1 0x4 ADD PUSH2 0x2312 JUMP JUMPDEST SWAP1 PUSH1 0x84 CALLDATALOAD SWAP2 PUSH1 0x2 PUSH1 0x7 SLOAD EQ PUSH2 0xEB5 JUMPI PUSH1 0x2 PUSH1 0x7 SSTORE DUP5 MLOAD ISZERO PUSH2 0xE70 JUMPI DUP2 MLOAD ISZERO PUSH2 0xE32 JUMPI DUP4 MLOAD ISZERO PUSH2 0xDF7 JUMPI DUP1 MLOAD ISZERO PUSH2 0xDB2 JUMPI PUSH1 0x1 DUP4 EQ DUP1 ISZERO PUSH2 0xDA8 JUMPI JUMPDEST ISZERO PUSH2 0xD6F JUMPI PUSH1 0xC SLOAD PUSH1 0x2 DUP5 EQ PUSH2 0xD5E JUMPI JUMPDEST CALLER PUSH0 MSTORE PUSH1 0x10 PUSH1 0x20 MSTORE PUSH1 0xFF PUSH1 0x40 PUSH0 KECCAK256 SLOAD AND ISZERO PUSH0 EQ PUSH2 0xCFD JUMPI CALLVALUE LT PUSH2 0xCB8 JUMPI PUSH1 0xE SLOAD PUSH2 0x6CD SWAP1 CALLVALUE SWAP1 PUSH1 0x1 PUSH1 0x1 PUSH1 0xA0 SHL SUB AND PUSH2 0x29A2 JUMP JUMPDEST PUSH1 0x8 SLOAD SWAP4 PUSH0 NOT DUP6 EQ PUSH2 0xCA4 JUMPI PUSH1 0x1 DUP6 ADD PUSH1 0x8 SSTORE PUSH1 0x40 MLOAD SWAP3 PUSH2 0x6ED DUP5 PUSH2 0x2269 JUMP JUMPDEST CALLER DUP5 MSTORE PUSH1 0x20 DUP5 ADD SWAP3 DUP8 DUP5 MSTORE PUSH1 0x40 DUP6 ADD SWAP2 DUP3 MSTORE PUSH1 0x60 DUP6 ADD SWAP3 DUP4 MSTORE PUSH1 0x80 DUP6 ADD SWAP1 DUP2 MSTORE PUSH1 0xA0 DUP6 ADD SWAP1 PUSH0 DUP3 MSTORE PUSH1 0xC0 DUP7 ADD SWAP4 PUSH0 DUP6 MSTORE PUSH1 0xE0 DUP8 ADD SWAP4 PUSH1 0x1 DUP6 MSTORE PUSH2 0x100 DUP9 ADD SWAP7 DUP10 DUP9 MSTORE DUP11 PUSH0 MSTORE PUSH1 0x9 PUSH1 0x20 MSTORE PUSH1 0x40 PUSH0 KECCAK256 SWAP9 PUSH1 0x1 DUP1 PUSH1 0xA0 SHL SUB SWAP1 PUSH1 0x1 DUP1 PUSH1 0xA0 SHL SUB SWAP1 MLOAD AND AND PUSH12 0xFFFFFFFFFFFFFFFFFFFFFFFF PUSH1 0xA0 SHL DUP11 SLOAD AND OR DUP10 SSTORE PUSH1 0x1 DUP10 ADD SWAP1 MLOAD DUP1 MLOAD SWAP1 PUSH1 0x1 PUSH1 0x1 PUSH1 0x40 SHL SUB DUP3 GT PUSH2 0x999 JUMPI DUP2 SWAP1 PUSH2 0x788 DUP5 SLOAD PUSH2 0x2495 JUMP JUMPDEST PUSH1 0x1F DUP2 GT PUSH2 0xC54 JUMPI JUMPDEST POP PUSH1 0x20 SWAP1 PUSH1 0x1F DUP4 GT PUSH1 0x1 EQ PUSH2 0xBF1 JUMPI PUSH0 SWAP3 PUSH2 0xBE6 JUMPI JUMPDEST POP POP DUP2 PUSH1 0x1 SHL SWAP2 PUSH0 NOT SWAP1 PUSH1 0x3 SHL SHR NOT AND OR SWAP1 SSTORE JUMPDEST MLOAD DUP1 MLOAD PUSH1 0x2 DUP10 ADD SWAP2 PUSH1 0x1 PUSH1 0x1 PUSH1 0x40 SHL SUB DUP3 GT PUSH2 0x999 JUMPI DUP2 SWAP1 PUSH2 0x7DD DUP5 SLOAD PUSH2 0x2495 JUMP JUMPDEST PUSH1 0x1F DUP2 GT PUSH2 0xB96 JUMPI JUMPDEST POP PUSH1 0x20 SWAP1 PUSH1 0x1F DUP4 GT PUSH1 0x1 EQ PUSH2 0xB33 JUMPI PUSH0 SWAP3 PUSH2 0xB28 JUMPI JUMPDEST POP POP DUP2 PUSH1 0x1 SHL SWAP2 PUSH0 NOT SWAP1 PUSH1 0x3 SHL SHR NOT AND OR SWAP1 SSTORE JUMPDEST MLOAD DUP1 MLOAD PUSH1 0x3 DUP9 ADD SWAP2 PUSH1 0x1 PUSH1 0x1 PUSH1 0x40 SHL SUB DUP3 GT PUSH2 0x999 JUMPI DUP2 SWAP1 PUSH2 0x832 DUP5 SLOAD PUSH2 0x2495 JUMP JUMPDEST PUSH1 0x1F DUP2 GT PUSH2 0xAD8 JUMPI JUMPDEST POP PUSH1 0x20 SWAP1 PUSH1 0x1F DUP4 GT PUSH1 0x1 EQ PUSH2 0xA75 JUMPI PUSH0 SWAP3 PUSH2 0xA6A JUMPI JUMPDEST POP POP DUP2 PUSH1 0x1 SHL SWAP2 PUSH0 NOT SWAP1 PUSH1 0x3 SHL SHR NOT AND OR SWAP1 SSTORE JUMPDEST MLOAD DUP1 MLOAD PUSH1 0x4 DUP8 ADD SWAP2 PUSH1 0x1 PUSH1 0x1 PUSH1 0x40 SHL SUB DUP3 GT PUSH2 0x999 JUMPI PUSH2 0x885 DUP4 SLOAD PUSH2 0x2495 JUMP JUMPDEST PUSH1 0x1F DUP2 GT PUSH2 0xA25 JUMPI JUMPDEST POP PUSH1 0x20 SWAP1 PUSH1 0x1F DUP4 GT PUSH1 0x1 EQ PUSH2 0x9B8 JUMPI SWAP2 DUP1 PUSH2 0x900 SWAP7 SWAP5 SWAP3 PUSH1 0x7 SWAP10 SWAP9 SWAP7 SWAP5 PUSH0 SWAP3 PUSH2 0x9AD JUMPI JUMPDEST POP POP DUP2 PUSH1 0x1 SHL SWAP2 PUSH0 NOT SWAP1 PUSH1 0x3 SHL SHR NOT AND OR SWAP1 SSTORE JUMPDEST MLOAD PUSH1 0x5 DUP8 ADD SSTORE PUSH2 0x8E9 PUSH1 0x6 DUP8 ADD SWAP3 MLOAD ISZERO ISZERO DUP4 SWAP1 PUSH1 0xFF DUP1 NOT DUP4 SLOAD AND SWAP2 ISZERO ISZERO AND OR SWAP1 SSTORE JUMP JUMPDEST MLOAD DUP2 SLOAD PUSH2 0xFF00 NOT AND SWAP1 ISZERO ISZERO PUSH1 0x8 SHL PUSH2 0xFF00 AND OR SWAP1 SSTORE JUMP JUMPDEST MLOAD SWAP2 ADD SSTORE CALLER PUSH0 MSTORE PUSH1 0xB PUSH1 0x20 MSTORE PUSH1 0x40 PUSH0 KECCAK256 DUP1 SLOAD PUSH9 0x10000000000000000 DUP2 LT ISZERO PUSH2 0x999 JUMPI PUSH1 0x20 SWAP5 PUSH2 0x958 DUP3 DUP7 SWAP5 PUSH1 0x1 PUSH32 0x1460C68A099D5A530906F3997FC04E446564014EAF227F88A51A4BFCFF28F49B SWAP6 ADD DUP2 SSTORE PUSH2 0x246C JUMP JUMPDEST DUP2 SLOAD SWAP1 PUSH1 0x3 SHL SWAP1 DUP6 DUP3 SHL SWAP2 PUSH0 NOT SWAP1 SHL NOT AND OR SWAP1 SSTORE PUSH2 0x981 PUSH1 0x40 MLOAD SWAP2 PUSH1 0x40 DUP4 MSTORE PUSH1 0x40 DUP4 ADD SWAP1 PUSH2 0x2330 JUMP JUMPDEST SWAP4 DUP7 DUP3 ADD MSTORE DUP1 CALLER SWAP5 SUB SWAP1 LOG3 PUSH1 0x1 PUSH1 0x7 SSTORE PUSH1 0x40 MLOAD SWAP1 DUP2 MSTORE RETURN JUMPDEST PUSH4 0x4E487B71 PUSH1 0xE0 SHL PUSH0 MSTORE PUSH1 0x41 PUSH1 0x4 MSTORE PUSH1 0x24 PUSH0 REVERT JUMPDEST ADD MLOAD SWAP1 POP DUP14 DUP1 PUSH2 0x8B2 JUMP JUMPDEST SWAP1 PUSH1 0x1F NOT DUP4 AND SWAP2 DUP5 PUSH0 MSTORE DUP2 PUSH0 KECCAK256 SWAP3 PUSH0 JUMPDEST DUP2 DUP2 LT PUSH2 0xA0D JUMPI POP SWAP3 PUSH1 0x1 SWAP3 DUP6 SWAP3 PUSH1 0x7 SWAP12 SWAP11 SWAP9 SWAP7 PUSH2 0x900 SWAP11 SWAP9 SWAP7 LT PUSH2 0x9F5 JUMPI JUMPDEST POP POP POP DUP2 SHL ADD SWAP1 SSTORE PUSH2 0x8C6 JUMP JUMPDEST ADD MLOAD PUSH0 NOT PUSH1 0xF8 DUP5 PUSH1 0x3 SHL AND SHR NOT AND SWAP1 SSTORE DUP14 DUP1 DUP1 PUSH2 0x9E8 JUMP JUMPDEST SWAP3 SWAP4 PUSH1 0x20 PUSH1 0x1 DUP2 SWAP3 DUP8 DUP7 ADD MLOAD DUP2 SSTORE ADD SWAP6 ADD SWAP4 ADD PUSH2 0x9C8 JUMP JUMPDEST DUP4 PUSH0 MSTORE PUSH1 0x20 PUSH0 KECCAK256 PUSH1 0x1F DUP5 ADD PUSH1 0x5 SHR DUP2 ADD SWAP2 PUSH1 0x20 DUP6 LT PUSH2 0xA60 JUMPI JUMPDEST PUSH1 0x1F ADD PUSH1 0x5 SHR ADD SWAP1 JUMPDEST DUP2 DUP2 LT PUSH2 0xA55 JUMPI POP PUSH2 0x88E JUMP JUMPDEST PUSH0 DUP2 SSTORE PUSH1 0x1 ADD PUSH2 0xA48 JUMP JUMPDEST SWAP1 SWAP2 POP DUP2 SWAP1 PUSH2 0xA3F JUMP JUMPDEST ADD MLOAD SWAP1 POP DUP13 DUP1 PUSH2 0x851 JUMP JUMPDEST PUSH0 DUP6 DUP2 MSTORE DUP3 DUP2 KECCAK256 SWAP4 POP PUSH1 0x1F NOT DUP6 AND SWAP1 JUMPDEST DUP2 DUP2 LT PUSH2 0xAC0 JUMPI POP SWAP1 DUP5 PUSH1 0x1 SWAP6 SWAP5 SWAP4 SWAP3 LT PUSH2 0xAA8 JUMPI JUMPDEST POP POP POP DUP2 SHL ADD SWAP1 SSTORE PUSH2 0x865 JUMP JUMPDEST ADD MLOAD PUSH0 NOT PUSH1 0xF8 DUP5 PUSH1 0x3 SHL AND SHR NOT AND SWAP1 SSTORE DUP13 DUP1 DUP1 PUSH2 0xA9B JUMP JUMPDEST SWAP3 SWAP4 PUSH1 0x20 PUSH1 0x1 DUP2 SWAP3 DUP8 DUP7 ADD MLOAD DUP2 SSTORE ADD SWAP6 ADD SWAP4 ADD PUSH2 0xA85 JUMP JUMPDEST SWAP1 SWAP2 POP DUP4 PUSH0 MSTORE PUSH1 0x20 PUSH0 KECCAK256 PUSH1 0x1F DUP5 ADD PUSH1 0x5 SHR DUP2 ADD SWAP2 PUSH1 0x20 DUP6 LT PUSH2 0xB1E JUMPI JUMPDEST SWAP1 PUSH1 0x1F DUP6 SWAP5 SWAP4 SWAP3 ADD PUSH1 0x5 SHR ADD SWAP1 JUMPDEST DUP2 DUP2 LT PUSH2 0xB10 JUMPI POP PUSH2 0x83B JUMP JUMPDEST PUSH0 DUP2 SSTORE DUP5 SWAP4 POP PUSH1 0x1 ADD PUSH2 0xB03 JUMP JUMPDEST SWAP1 SWAP2 POP DUP2 SWAP1 PUSH2 0xAF5 JUMP JUMPDEST ADD MLOAD SWAP1 POP DUP14 DUP1 PUSH2 0x7FC JUMP JUMPDEST PUSH0 DUP6 DUP2 MSTORE DUP3 DUP2 KECCAK256 SWAP4 POP PUSH1 0x1F NOT DUP6 AND SWAP1 JUMPDEST DUP2 DUP2 LT PUSH2 0xB7E JUMPI POP SWAP1 DUP5 PUSH1 0x1 SWAP6 SWAP5 SWAP4 SWAP3 LT PUSH2 0xB66 JUMPI JUMPDEST POP POP POP DUP2 SHL ADD SWAP1 SSTORE PUSH2 0x810 JUMP JUMPDEST ADD MLOAD PUSH0 NOT PUSH1 0xF8 DUP5 PUSH1 0x3 SHL AND SHR NOT AND SWAP1 SSTORE DUP14 DUP1 DUP1 PUSH2 0xB59 JUMP JUMPDEST SWAP3 SWAP4 PUSH1 0x20 PUSH1 0x1 DUP2 SWAP3 DUP8 DUP7 ADD MLOAD DUP2 SSTORE ADD SWAP6 ADD SWAP4 ADD PUSH2 0xB43 JUMP JUMPDEST SWAP1 SWAP2 POP DUP4 PUSH0 MSTORE PUSH1 0x20 PUSH0 KECCAK256 PUSH1 0x1F DUP5 ADD PUSH1 0x5 SHR DUP2 ADD SWAP2 PUSH1 0x20 DUP6 LT PUSH2 0xBDC JUMPI JUMPDEST SWAP1 PUSH1 0x1F DUP6 SWAP5 SWAP4 SWAP3 ADD PUSH1 0x5 SHR ADD SWAP1 JUMPDEST DUP2 DUP2 LT PUSH2 0xBCE JUMPI POP PUSH2 0x7E6 JUMP JUMPDEST PUSH0 DUP2 SSTORE DUP5 SWAP4 POP PUSH1 0x1 ADD PUSH2 0xBC1 JUMP JUMPDEST SWAP1 SWAP2 POP DUP2 SWAP1 PUSH2 0xBB3 JUMP JUMPDEST ADD MLOAD SWAP1 POP DUP15 DUP1 PUSH2 0x7A7 JUMP JUMPDEST PUSH0 DUP6 DUP2 MSTORE DUP3 DUP2 KECCAK256 SWAP4 POP PUSH1 0x1F NOT DUP6 AND SWAP1 JUMPDEST DUP2 DUP2 LT PUSH2 0xC3C JUMPI POP SWAP1 DUP5 PUSH1 0x1 SWAP6 SWAP5 SWAP4 SWAP3 LT PUSH2 0xC24 JUMPI JUMPDEST POP POP POP DUP2 SHL ADD SWAP1 SSTORE PUSH2 0x7BB JUMP JUMPDEST ADD MLOAD PUSH0 NOT PUSH1 0xF8 DUP5 PUSH1 0x3 SHL AND SHR NOT AND SWAP1 SSTORE DUP15 DUP1 DUP1 PUSH2 0xC17 JUMP JUMPDEST SWAP3 SWAP4 PUSH1 0x20 PUSH1 0x1 DUP2 SWAP3 DUP8 DUP7 ADD MLOAD DUP2 SSTORE ADD SWAP6 ADD SWAP4 ADD PUSH2 0xC01 JUMP JUMPDEST SWAP1 SWAP2 POP DUP4 PUSH0 MSTORE PUSH1 0x20 PUSH0 KECCAK256 PUSH1 0x1F DUP5 ADD PUSH1 0x5 SHR DUP2 ADD SWAP2 PUSH1 0x20 DUP6 LT PUSH2 0xC9A JUMPI JUMPDEST SWAP1 PUSH1 0x1F DUP6 SWAP5 SWAP4 SWAP3 ADD PUSH1 0x5 SHR ADD SWAP1 JUMPDEST DUP2 DUP2 LT PUSH2 0xC8C JUMPI POP PUSH2 0x791 JUMP JUMPDEST PUSH0 DUP2 SSTORE DUP5 SWAP4 POP PUSH1 0x1 ADD PUSH2 0xC7F JUMP JUMPDEST SWAP1 SWAP2 POP DUP2 SWAP1 PUSH2 0xC71 JUMP JUMPDEST PUSH4 0x4E487B71 PUSH1 0xE0 SHL PUSH0 MSTORE PUSH1 0x11 PUSH1 0x4 MSTORE PUSH1 0x24 PUSH0 REVERT JUMPDEST PUSH1 0x40 MLOAD PUSH3 0x461BCD PUSH1 0xE5 SHL DUP2 MSTORE PUSH1 0x20 PUSH1 0x4 DUP3 ADD MSTORE PUSH1 0x18 PUSH1 0x24 DUP3 ADD MSTORE PUSH32 0x496E73756666696369656E74206C697374696E67206665650000000000000000 PUSH1 0x44 DUP3 ADD MSTORE PUSH1 0x64 SWAP1 REVERT JUMPDEST PUSH1 0xF SLOAD SWAP1 DUP1 DUP3 LT PUSH2 0xD19 JUMPI DUP2 SUB SWAP1 DUP2 GT PUSH2 0xCA4 JUMPI PUSH1 0xF SSTORE PUSH2 0x6CD JUMP JUMPDEST PUSH1 0x40 MLOAD PUSH3 0x461BCD PUSH1 0xE5 SHL DUP2 MSTORE PUSH1 0x20 PUSH1 0x4 DUP3 ADD MSTORE PUSH1 0x19 PUSH1 0x24 DUP3 ADD MSTORE PUSH32 0x53706F6E736F727368697020706F6F6C206465706C6574656400000000000000 PUSH1 0x44 DUP3 ADD MSTORE PUSH1 0x64 SWAP1 REVERT JUMPDEST PUSH1 0xD SLOAD PUSH2 0xD6A SWAP2 PUSH2 0x27C2 JUMP JUMPDEST PUSH2 0x699 JUMP JUMPDEST PUSH1 0x40 MLOAD PUSH3 0x461BCD PUSH1 0xE5 SHL DUP2 MSTORE PUSH1 0x20 PUSH1 0x4 DUP3 ADD MSTORE PUSH1 0x11 PUSH1 0x24 DUP3 ADD MSTORE PUSH17 0x125B9D985B1A590812D650C81B195D995B PUSH1 0x7A SHL PUSH1 0x44 DUP3 ADD MSTORE PUSH1 0x64 SWAP1 REVERT JUMPDEST POP PUSH1 0x2 DUP4 EQ PUSH2 0x688 JUMP JUMPDEST PUSH1 0x40 MLOAD PUSH3 0x461BCD PUSH1 0xE5 SHL DUP2 MSTORE PUSH1 0x20 PUSH1 0x4 DUP3 ADD MSTORE PUSH1 0x18 PUSH1 0x24 DUP3 ADD MSTORE PUSH32 0x47505320636F6F7264696E617465732072657175697265640000000000000000 PUSH1 0x44 DUP3 ADD MSTORE PUSH1 0x64 SWAP1 REVERT JUMPDEST PUSH1 0x40 MLOAD PUSH3 0x461BCD PUSH1 0xE5 SHL DUP2 MSTORE PUSH1 0x20 PUSH1 0x4 DUP3 ADD MSTORE PUSH1 0x13 PUSH1 0x24 DUP3 ADD MSTORE PUSH19 0x159A59195BC81A185CDA081C995C5D5A5C9959 PUSH1 0x6A SHL PUSH1 0x44 DUP3 ADD MSTORE PUSH1 0x64 SWAP1 REVERT JUMPDEST PUSH1 0x40 MLOAD PUSH3 0x461BCD PUSH1 0xE5 SHL DUP2 MSTORE PUSH1 0x20 PUSH1 0x4 DUP3 ADD MSTORE PUSH1 0x16 PUSH1 0x24 DUP3 ADD MSTORE PUSH22 0x111BD8DD5B595B9D081A185CDA081C995C5D5A5C9959 PUSH1 0x52 SHL PUSH1 0x44 DUP3 ADD MSTORE PUSH1 0x64 SWAP1 REVERT JUMPDEST PUSH1 0x40 MLOAD PUSH3 0x461BCD PUSH1 0xE5 SHL DUP2 MSTORE PUSH1 0x20 PUSH1 0x4 DUP3 ADD MSTORE PUSH1 0x19 PUSH1 0x24 DUP3 ADD MSTORE PUSH32 0x50726F7065727479206164647265737320726571756972656400000000000000 PUSH1 0x44 DUP3 ADD MSTORE PUSH1 0x64 SWAP1 REVERT JUMPDEST PUSH4 0x3EE5AEB5 PUSH1 0xE0 SHL PUSH0 MSTORE PUSH1 0x4 PUSH0 REVERT JUMPDEST CALLVALUE PUSH2 0x5C0 JUMPI PUSH0 CALLDATASIZE PUSH1 0x3 NOT ADD SLT PUSH2 0x5C0 JUMPI PUSH1 0xE SLOAD PUSH1 0x40 MLOAD PUSH1 0x1 PUSH1 0x1 PUSH1 0xA0 SHL SUB SWAP1 SWAP2 AND DUP2 MSTORE PUSH1 0x20 SWAP1 RETURN JUMPDEST CALLVALUE PUSH2 0x5C0 JUMPI PUSH0 CALLDATASIZE PUSH1 0x3 NOT ADD SLT PUSH2 0x5C0 JUMPI PUSH1 0x20 PUSH1 0xC SLOAD PUSH1 0x40 MLOAD SWAP1 DUP2 MSTORE RETURN JUMPDEST CALLVALUE PUSH2 0x5C0 JUMPI PUSH1 0x80 CALLDATASIZE PUSH1 0x3 NOT ADD SLT PUSH2 0x5C0 JUMPI PUSH2 0xF22 PUSH2 0x2354 JUMP JUMPDEST PUSH2 0xF2A PUSH2 0x236A JUMP JUMPDEST SWAP1 PUSH1 0x44 CALLDATALOAD PUSH1 0x64 CALLDATALOAD SWAP3 PUSH1 0x1 PUSH1 0x1 PUSH1 0x40 SHL SUB DUP5 GT PUSH2 0x5C0 JUMPI CALLDATASIZE PUSH1 0x23 DUP6 ADD SLT ISZERO PUSH2 0x5C0 JUMPI PUSH2 0xF62 PUSH2 0xF74 SWAP5 CALLDATASIZE SWAP1 PUSH1 0x24 DUP2 PUSH1 0x4 ADD CALLDATALOAD SWAP2 ADD PUSH2 0x22DC JUMP JUMPDEST SWAP3 PUSH2 0xF6E DUP4 DUP4 DUP4 PUSH2 0x25B9 JUMP JUMPDEST CALLER PUSH2 0x28A5 JUMP JUMPDEST STOP JUMPDEST CALLVALUE PUSH2 0x5C0 JUMPI PUSH1 0x20 CALLDATASIZE PUSH1 0x3 NOT ADD SLT PUSH2 0x5C0 JUMPI PUSH1 0x1 PUSH1 0x1 PUSH1 0xA0 SHL SUB PUSH2 0xF97 PUSH2 0x2354 JUMP JUMPDEST AND PUSH0 MSTORE PUSH1 0xB PUSH1 0x20 MSTORE PUSH1 0x40 PUSH0 KECCAK256 PUSH1 0x40 MLOAD DUP1 PUSH1 0x20 DUP4 SLOAD SWAP2 DUP3 DUP2 MSTORE ADD SWAP1 DUP2 SWAP4 PUSH0 MSTORE PUSH1 0x20 PUSH0 KECCAK256 SWAP1 PUSH0 JUMPDEST DUP2 DUP2 LT PUSH2 0x1014 JUMPI POP POP POP DUP2 PUSH2 0xFD2 SWAP2 SUB DUP3 PUSH2 0x22A0 JUMP JUMPDEST PUSH1 0x40 MLOAD SWAP2 DUP3 SWAP2 PUSH1 0x20 DUP4 ADD SWAP1 PUSH1 0x20 DUP5 MSTORE MLOAD DUP1 SWAP2 MSTORE PUSH1 0x40 DUP4 ADD SWAP2 SWAP1 PUSH0 JUMPDEST DUP2 DUP2 LT PUSH2 0xFFB JUMPI POP POP POP SUB SWAP1 RETURN JUMPDEST DUP3 MLOAD DUP5 MSTORE DUP6 SWAP5 POP PUSH1 0x20 SWAP4 DUP5 ADD SWAP4 SWAP1 SWAP3 ADD SWAP2 PUSH1 0x1 ADD PUSH2 0xFED JUMP JUMPDEST DUP3 SLOAD DUP5 MSTORE PUSH1 0x20 SWAP1 SWAP4 ADD SWAP3 PUSH1 0x1 SWAP3 DUP4 ADD SWAP3 ADD PUSH2 0xFBC JUMP JUMPDEST CALLVALUE PUSH2 0x5C0 JUMPI PUSH1 0x20 CALLDATASIZE PUSH1 0x3 NOT ADD SLT PUSH2 0x5C0 JUMPI PUSH1 0x4 CALLDATALOAD PUSH0 MSTORE PUSH1 0xA PUSH1 0x20 MSTORE PUSH1 0x40 PUSH0 KECCAK256 PUSH2 0x1052 DUP2 PUSH2 0x24CD JUMP JUMPDEST SWAP1 PUSH2 0x274 PUSH1 0x2 PUSH2 0x1064 PUSH1 0x1 DUP5 ADD PUSH2 0x24CD JUMP JUMPDEST SWAP3 ADD SLOAD PUSH1 0x40 MLOAD SWAP4 DUP5 SWAP4 PUSH1 0xFF DUP1 DUP5 PUSH1 0x8 SHR AND SWAP4 AND SWAP2 DUP6 PUSH2 0x2380 JUMP JUMPDEST CALLVALUE PUSH2 0x5C0 JUMPI PUSH1 0x40 CALLDATASIZE PUSH1 0x3 NOT ADD SLT PUSH2 0x5C0 JUMPI PUSH2 0x1097 PUSH2 0x2354 JUMP JUMPDEST PUSH1 0x24 CALLDATALOAD SWAP1 DUP2 ISZERO ISZERO SWAP1 DUP2 DUP4 SUB PUSH2 0x5C0 JUMPI PUSH1 0x1 PUSH1 0x1 PUSH1 0xA0 SHL SUB AND SWAP2 DUP3 ISZERO PUSH2 0x110F JUMPI PUSH2 0x10E1 SWAP1 CALLER PUSH0 MSTORE PUSH1 0x5 PUSH1 0x20 MSTORE PUSH1 0x40 PUSH0 KECCAK256 DUP5 PUSH0 MSTORE PUSH1 0x20 MSTORE PUSH1 0x40 PUSH0 KECCAK256 SWAP1 PUSH1 0xFF DUP1 NOT DUP4 SLOAD AND SWAP2 ISZERO ISZERO AND OR SWAP1 SSTORE JUMP JUMPDEST PUSH1 0x40 MLOAD SWAP1 DUP2 MSTORE PUSH32 0x17307EAB39AB6107E8899845AD3D59BD9653F200F220920489CA2B5937696C31 PUSH1 0x20 CALLER SWAP3 LOG3 STOP JUMPDEST DUP3 PUSH4 0xB611743 PUSH1 0xE3 SHL PUSH0 MSTORE PUSH1 0x4 MSTORE PUSH1 0x24 PUSH0 REVERT JUMPDEST CALLVALUE PUSH2 0x5C0 JUMPI PUSH0 CALLDATASIZE PUSH1 0x3 NOT ADD SLT PUSH2 0x5C0 JUMPI PUSH1 0x40 MLOAD PUSH0 PUSH1 0x1 SLOAD PUSH2 0x1142 DUP2 PUSH2 0x2495 JUMP JUMPDEST DUP1 DUP5 MSTORE SWAP1 PUSH1 0x1 DUP2 AND SWAP1 DUP2 ISZERO PUSH2 0x11DC JUMPI POP PUSH1 0x1 EQ PUSH2 0x117E JUMPI JUMPDEST PUSH2 0x274 DUP4 PUSH2 0x116A DUP2 DUP6 SUB DUP3 PUSH2 0x22A0 JUMP JUMPDEST PUSH1 0x40 MLOAD SWAP2 DUP3 SWAP2 PUSH1 0x20 DUP4 MSTORE PUSH1 0x20 DUP4 ADD SWAP1 PUSH2 0x2330 JUMP JUMPDEST PUSH1 0x1 PUSH0 SWAP1 DUP2 MSTORE PUSH32 0xB10E2D527612073B26EECDFD717E6A320CF44B4AFAC2B0732D9FCBE2B7FA0CF6 SWAP4 SWAP3 POP SWAP1 JUMPDEST DUP1 DUP3 LT PUSH2 0x11C2 JUMPI POP SWAP1 SWAP2 POP DUP2 ADD PUSH1 0x20 ADD PUSH2 0x116A PUSH2 0x115A JUMP JUMPDEST SWAP2 SWAP3 PUSH1 0x1 DUP2 PUSH1 0x20 SWAP3 SLOAD DUP4 DUP6 DUP9 ADD ADD MSTORE ADD SWAP2 ADD SWAP1 SWAP3 SWAP2 PUSH2 0x11AA JUMP JUMPDEST PUSH1 0xFF NOT AND PUSH1 0x20 DUP1 DUP7 ADD SWAP2 SWAP1 SWAP2 MSTORE SWAP2 ISZERO ISZERO PUSH1 0x5 SHL DUP5 ADD SWAP1 SWAP2 ADD SWAP2 POP PUSH2 0x116A SWAP1 POP PUSH2 0x115A JUMP JUMPDEST CALLVALUE PUSH2 0x5C0 JUMPI PUSH0 CALLDATASIZE PUSH1 0x3 NOT ADD SLT PUSH2 0x5C0 JUMPI PUSH1 0x6 SLOAD PUSH1 0x40 MLOAD PUSH1 0x1 PUSH1 0x1 PUSH1 0xA0 SHL SUB SWAP1 SWAP2 AND DUP2 MSTORE PUSH1 0x20 SWAP1 RETURN JUMPDEST CALLVALUE PUSH2 0x5C0 JUMPI PUSH0 CALLDATASIZE PUSH1 0x3 NOT ADD SLT PUSH2 0x5C0 JUMPI PUSH2 0x1240 PUSH2 0x281B JUMP JUMPDEST PUSH1 0x6 DUP1 SLOAD PUSH1 0x1 PUSH1 0x1 PUSH1 0xA0 SHL SUB NOT DUP2 AND SWAP1 SWAP2 SSTORE PUSH0 SWAP1 PUSH1 0x1 PUSH1 0x1 PUSH1 0xA0 SHL SUB AND PUSH32 0x8BE0079C531659141344CD1FD0A4F28419497F9722A3DAAFE3B4186F6B6457E0 DUP3 DUP1 LOG3 STOP JUMPDEST CALLVALUE PUSH2 0x5C0 JUMPI PUSH1 0x20 CALLDATASIZE PUSH1 0x3 NOT ADD SLT PUSH2 0x5C0 JUMPI PUSH1 0x1 PUSH1 0x1 PUSH1 0xA0 SHL SUB PUSH2 0x12A4 PUSH2 0x2354 JUMP JUMPDEST AND DUP1 ISZERO PUSH2 0x12C1 JUMPI PUSH0 MSTORE PUSH1 0x3 PUSH1 0x20 MSTORE PUSH1 0x20 PUSH1 0x40 PUSH0 KECCAK256 SLOAD PUSH1 0x40 MLOAD SWAP1 DUP2 MSTORE RETURN JUMPDEST PUSH4 0x22718AD9 PUSH1 0xE2 SHL PUSH0 MSTORE PUSH0 PUSH1 0x4 MSTORE PUSH1 0x24 PUSH0 REVERT JUMPDEST CALLVALUE PUSH2 0x5C0 JUMPI PUSH1 0xA0 CALLDATASIZE PUSH1 0x3 NOT ADD SLT PUSH2 0x5C0 JUMPI PUSH1 0x4 CALLDATALOAD PUSH1 0x24 CALLDATALOAD PUSH1 0x1 PUSH1 0x1 PUSH1 0x40 SHL SUB DUP2 GT PUSH2 0x5C0 JUMPI PUSH2 0x1307 SWAP1 CALLDATASIZE SWAP1 PUSH1 0x4 ADD PUSH2 0x2312 JUMP JUMPDEST PUSH1 0x44 CALLDATALOAD PUSH1 0x1 PUSH1 0x1 PUSH1 0x40 SHL SUB DUP2 GT PUSH2 0x5C0 JUMPI PUSH2 0x1326 SWAP1 CALLDATASIZE SWAP1 PUSH1 0x4 ADD PUSH2 0x2312 JUMP JUMPDEST PUSH1 0x64 CALLDATALOAD SWAP1 DUP2 ISZERO ISZERO DUP1 SWAP3 SUB PUSH2 0x5C0 JUMPI PUSH1 0x84 CALLDATALOAD SWAP1 DUP2 ISZERO ISZERO DUP1 SWAP3 SUB PUSH2 0x5C0 JUMPI PUSH2 0x134A PUSH2 0x281B JUMP JUMPDEST DUP5 PUSH0 MSTORE PUSH1 0x9 PUSH1 0x20 MSTORE PUSH2 0x1408 PUSH1 0x40 PUSH0 KECCAK256 PUSH2 0x1401 PUSH1 0x40 MLOAD PUSH2 0x1368 DUP2 PUSH2 0x2269 JUMP JUMPDEST DUP3 SLOAD PUSH1 0x1 PUSH1 0x1 PUSH1 0xA0 SHL SUB AND DUP2 MSTORE PUSH2 0x1381 PUSH1 0x1 DUP5 ADD PUSH2 0x24CD JUMP JUMPDEST PUSH1 0x20 DUP3 ADD MSTORE PUSH2 0x1392 PUSH1 0x2 DUP5 ADD PUSH2 0x24CD JUMP JUMPDEST PUSH1 0x40 DUP3 ADD MSTORE PUSH2 0x13A3 PUSH1 0x3 DUP5 ADD PUSH2 0x24CD JUMP JUMPDEST PUSH1 0x60 DUP3 ADD MSTORE PUSH2 0x13B4 PUSH1 0x4 DUP5 ADD PUSH2 0x24CD JUMP JUMPDEST PUSH1 0x80 DUP3 ADD MSTORE PUSH1 0x5 DUP4 ADD SLOAD PUSH1 0xA0 DUP3 ADD MSTORE PUSH1 0x6 DUP4 ADD SLOAD PUSH1 0xFF DUP1 DUP3 AND ISZERO ISZERO PUSH1 0xC0 DUP5 ADD SWAP1 DUP2 MSTORE PUSH1 0x8 SWAP3 SWAP1 SWAP3 SHR AND ISZERO ISZERO PUSH1 0xE0 DUP4 ADD MSTORE PUSH1 0x7 SWAP1 SWAP4 ADD SLOAD PUSH2 0x100 DUP3 ADD MSTORE MLOAD PUSH1 0x1 PUSH1 0x1 PUSH1 0xA0 SHL SUB AND ISZERO ISZERO PUSH2 0x256D JUMP JUMPDEST MLOAD ISZERO PUSH2 0x27CF JUMP JUMPDEST DUP4 MLOAD ISZERO PUSH2 0x1724 JUMPI DUP1 MLOAD ISZERO PUSH2 0x16DF JUMPI PUSH1 0x40 MLOAD SWAP1 PUSH2 0x1423 DUP3 PUSH2 0x2285 JUMP JUMPDEST DUP5 DUP3 MSTORE PUSH1 0x20 DUP3 ADD SWAP1 DUP2 MSTORE PUSH1 0x40 DUP3 ADD SWAP4 DUP5 MSTORE PUSH1 0x60 DUP3 ADD SWAP3 DUP4 MSTORE DUP6 PUSH0 MSTORE PUSH1 0xA PUSH1 0x20 MSTORE PUSH1 0x40 PUSH0 KECCAK256 SWAP2 MLOAD DUP1 MLOAD SWAP1 PUSH1 0x1 PUSH1 0x1 PUSH1 0x40 SHL SUB DUP3 GT PUSH2 0x999 JUMPI DUP2 SWAP1 PUSH2 0x1466 DUP6 SLOAD PUSH2 0x2495 JUMP JUMPDEST PUSH1 0x1F DUP2 GT PUSH2 0x168F JUMPI JUMPDEST POP PUSH1 0x20 SWAP1 PUSH1 0x1F DUP4 GT PUSH1 0x1 EQ PUSH2 0x162C JUMPI PUSH0 SWAP3 PUSH2 0x1621 JUMPI JUMPDEST POP POP DUP2 PUSH1 0x1 SHL SWAP2 PUSH0 NOT SWAP1 PUSH1 0x3 SHL SHR NOT AND OR DUP3 SSTORE JUMPDEST MLOAD DUP1 MLOAD PUSH1 0x1 DUP4 ADD SWAP2 PUSH1 0x1 PUSH1 0x1 PUSH1 0x40 SHL SUB DUP3 GT PUSH2 0x999 JUMPI PUSH2 0x14B9 DUP4 SLOAD PUSH2 0x2495 JUMP JUMPDEST PUSH1 0x1F DUP2 GT PUSH2 0x15DC JUMPI JUMPDEST POP PUSH1 0x20 SWAP1 PUSH1 0x1F DUP4 GT PUSH1 0x1 EQ PUSH2 0x1548 JUMPI PUSH2 0x116A SWAP5 PUSH2 0x1538 SWAP8 SWAP5 DUP5 PUSH32 0x96D0061366BDF39FB5D3238A4042127D93D745CA81E521824373B9885432A489 SWAP11 SWAP9 SWAP6 PUSH2 0x8E9 SWAP6 PUSH1 0x2 SWAP6 PUSH0 SWAP3 PUSH2 0x153D JUMPI JUMPDEST POP POP DUP2 PUSH1 0x1 SHL SWAP2 PUSH0 NOT SWAP1 PUSH1 0x3 SHL SHR NOT AND OR SWAP1 SSTORE JUMPDEST ADD SWAP3 MLOAD ISZERO ISZERO DUP4 SWAP1 PUSH1 0xFF DUP1 NOT DUP4 SLOAD AND SWAP2 ISZERO ISZERO AND OR SWAP1 SSTORE JUMP JUMPDEST SUB SWAP1 LOG2 STOP JUMPDEST ADD MLOAD SWAP1 POP DUP14 DUP1 PUSH2 0x150D JUMP JUMPDEST SWAP1 PUSH1 0x1F NOT DUP4 AND SWAP2 DUP5 PUSH0 MSTORE DUP2 PUSH0 KECCAK256 SWAP3 PUSH0 JUMPDEST DUP2 DUP2 LT PUSH2 0x15C4 JUMPI POP SWAP5 PUSH1 0x1 DUP6 PUSH2 0x8E9 SWAP6 PUSH1 0x2 SWAP6 PUSH2 0x116A SWAP11 SWAP6 PUSH32 0x96D0061366BDF39FB5D3238A4042127D93D745CA81E521824373B9885432A489 SWAP15 SWAP13 SWAP10 PUSH2 0x1538 SWAP15 SWAP12 LT PUSH2 0x15AC JUMPI JUMPDEST POP POP POP DUP2 SHL ADD SWAP1 SSTORE PUSH2 0x1521 JUMP JUMPDEST ADD MLOAD PUSH0 NOT PUSH1 0xF8 DUP5 PUSH1 0x3 SHL AND SHR NOT AND SWAP1 SSTORE DUP14 DUP1 DUP1 PUSH2 0x159F JUMP JUMPDEST SWAP3 SWAP4 PUSH1 0x20 PUSH1 0x1 DUP2 SWAP3 DUP8 DUP7 ADD MLOAD DUP2 SSTORE ADD SWAP6 ADD SWAP4 ADD PUSH2 0x1558 JUMP JUMPDEST DUP4 PUSH0 MSTORE PUSH1 0x20 PUSH0 KECCAK256 PUSH1 0x1F DUP5 ADD PUSH1 0x5 SHR DUP2 ADD SWAP2 PUSH1 0x20 DUP6 LT PUSH2 0x1617 JUMPI JUMPDEST PUSH1 0x1F ADD PUSH1 0x5 SHR ADD SWAP1 JUMPDEST DUP2 DUP2 LT PUSH2 0x160C JUMPI POP PUSH2 0x14C2 JUMP JUMPDEST PUSH0 DUP2 SSTORE PUSH1 0x1 ADD PUSH2 0x15FF JUMP JUMPDEST SWAP1 SWAP2 POP DUP2 SWAP1 PUSH2 0x15F6 JUMP JUMPDEST ADD MLOAD SWAP1 POP DUP9 DUP1 PUSH2 0x1485 JUMP JUMPDEST PUSH0 DUP7 DUP2 MSTORE DUP3 DUP2 KECCAK256 SWAP4 POP PUSH1 0x1F NOT DUP6 AND SWAP1 JUMPDEST DUP2 DUP2 LT PUSH2 0x1677 JUMPI POP SWAP1 DUP5 PUSH1 0x1 SWAP6 SWAP5 SWAP4 SWAP3 LT PUSH2 0x165F JUMPI JUMPDEST POP POP POP DUP2 SHL ADD DUP3 SSTORE PUSH2 0x1499 JUMP JUMPDEST ADD MLOAD PUSH0 NOT PUSH1 0xF8 DUP5 PUSH1 0x3 SHL AND SHR NOT AND SWAP1 SSTORE DUP9 DUP1 DUP1 PUSH2 0x1652 JUMP JUMPDEST SWAP3 SWAP4 PUSH1 0x20 PUSH1 0x1 DUP2 SWAP3 DUP8 DUP7 ADD MLOAD DUP2 SSTORE ADD SWAP6 ADD SWAP4 ADD PUSH2 0x163C JUMP JUMPDEST SWAP1 SWAP2 POP DUP5 PUSH0 MSTORE PUSH1 0x20 PUSH0 KECCAK256 PUSH1 0x1F DUP5 ADD PUSH1 0x5 SHR DUP2 ADD SWAP2 PUSH1 0x20 DUP6 LT PUSH2 0x16D5 JUMPI JUMPDEST SWAP1 PUSH1 0x1F DUP6 SWAP5 SWAP4 SWAP3 ADD PUSH1 0x5 SHR ADD SWAP1 JUMPDEST DUP2 DUP2 LT PUSH2 0x16C7 JUMPI POP PUSH2 0x146F JUMP JUMPDEST PUSH0 DUP2 SSTORE DUP5 SWAP4 POP PUSH1 0x1 ADD PUSH2 0x16BA JUMP JUMPDEST SWAP1 SWAP2 POP DUP2 SWAP1 PUSH2 0x16AC JUMP JUMPDEST PUSH1 0x40 MLOAD PUSH3 0x461BCD PUSH1 0xE5 SHL DUP2 MSTORE PUSH1 0x20 PUSH1 0x4 DUP3 ADD MSTORE PUSH1 0x18 PUSH1 0x24 DUP3 ADD MSTORE PUSH32 0x566964656F2074696D657374616D702072657175697265640000000000000000 PUSH1 0x44 DUP3 ADD MSTORE PUSH1 0x64 SWAP1 REVERT JUMPDEST PUSH1 0x40 MLOAD PUSH3 0x461BCD PUSH1 0xE5 SHL DUP2 MSTORE PUSH1 0x20 PUSH1 0x4 DUP3 ADD MSTORE PUSH1 0x13 PUSH1 0x24 DUP3 ADD MSTORE PUSH19 0x14195C9CDBDB98481251081C995C5D5A5C9959 PUSH1 0x6A SHL PUSH1 0x44 DUP3 ADD MSTORE PUSH1 0x64 SWAP1 REVERT JUMPDEST CALLVALUE PUSH2 0x5C0 JUMPI PUSH0 CALLDATASIZE PUSH1 0x3 NOT ADD SLT PUSH2 0x5C0 JUMPI PUSH1 0x20 PUSH1 0xD SLOAD PUSH1 0x40 MLOAD SWAP1 DUP2 MSTORE RETURN JUMPDEST CALLVALUE PUSH2 0x5C0 JUMPI PUSH1 0x20 CALLDATASIZE PUSH1 0x3 NOT ADD SLT PUSH2 0x5C0 JUMPI PUSH1 0x20 PUSH2 0x179A PUSH1 0x4 CALLDATALOAD PUSH2 0x2842 JUMP JUMPDEST PUSH1 0x40 MLOAD PUSH1 0x1 PUSH1 0x1 PUSH1 0xA0 SHL SUB SWAP1 SWAP2 AND DUP2 MSTORE RETURN JUMPDEST CALLVALUE PUSH2 0x5C0 JUMPI PUSH1 0x40 CALLDATASIZE PUSH1 0x3 NOT ADD SLT PUSH2 0x5C0 JUMPI PUSH2 0x17C5 PUSH2 0x2354 JUMP JUMPDEST PUSH1 0x1 PUSH1 0x1 PUSH1 0xA0 SHL SUB AND PUSH0 SWAP1 DUP2 MSTORE PUSH1 0xB PUSH1 0x20 MSTORE PUSH1 0x40 SWAP1 KECCAK256 DUP1 SLOAD PUSH1 0x24 CALLDATALOAD SWAP2 SWAP1 DUP3 LT ISZERO PUSH2 0x5C0 JUMPI PUSH1 0x20 SWAP2 PUSH2 0x17F5 SWAP2 PUSH2 0x246C JUMP JUMPDEST SWAP1 SLOAD SWAP1 PUSH1 0x3 SHL SHR PUSH1 0x40 MLOAD SWAP1 DUP2 MSTORE RETURN JUMPDEST CALLVALUE PUSH2 0x5C0 JUMPI PUSH2 0xF74 PUSH2 0x1815 CALLDATASIZE PUSH2 0x2432 JUMP JUMPDEST SWAP1 PUSH1 0x40 MLOAD SWAP3 PUSH2 0x1825 PUSH1 0x20 DUP6 PUSH2 0x22A0 JUMP JUMPDEST PUSH0 DUP5 MSTORE PUSH2 0xF6E DUP4 DUP4 DUP4 PUSH2 0x25B9 JUMP JUMPDEST CALLVALUE PUSH2 0x5C0 JUMPI PUSH1 0x20 CALLDATASIZE PUSH1 0x3 NOT ADD SLT PUSH2 0x5C0 JUMPI PUSH1 0x4 CALLDATALOAD PUSH2 0x184F PUSH2 0x281B JUMP JUMPDEST DUP1 PUSH0 MSTORE PUSH1 0x9 PUSH1 0x20 MSTORE PUSH1 0x40 PUSH0 KECCAK256 SWAP1 DUP1 PUSH0 MSTORE PUSH1 0xA PUSH1 0x20 MSTORE PUSH1 0x40 PUSH0 KECCAK256 SWAP1 PUSH1 0x2 PUSH1 0x40 MLOAD SWAP3 PUSH2 0x1878 DUP5 PUSH2 0x2285 JUMP JUMPDEST PUSH2 0x1881 DUP2 PUSH2 0x24CD JUMP JUMPDEST DUP5 MSTORE PUSH2 0x188F PUSH1 0x1 DUP3 ADD PUSH2 0x24CD JUMP JUMPDEST PUSH1 0x20 DUP6 ADD MSTORE ADD SLOAD SWAP2 PUSH1 0xFF PUSH1 0x60 PUSH1 0x40 DUP4 ADD SWAP3 DUP3 DUP7 AND ISZERO ISZERO DUP5 MSTORE ADD SWAP4 PUSH1 0x8 SHR AND ISZERO ISZERO DUP4 MSTORE PUSH1 0x1 DUP1 PUSH1 0xA0 SHL SUB DUP5 SLOAD AND SWAP4 DUP5 ISZERO SWAP1 DUP2 ISZERO SWAP5 PUSH2 0x18CB DUP7 PUSH2 0x256D JUMP JUMPDEST PUSH1 0x6 DUP3 ADD SWAP1 DUP2 SLOAD SWAP1 PUSH2 0x18E0 PUSH1 0xFF DUP4 AND ISZERO PUSH2 0x27CF JUMP JUMPDEST PUSH1 0xFF DUP3 PUSH1 0x8 SHR AND ISZERO PUSH2 0x1C69 JUMPI PUSH1 0x7 DUP5 ADD SWAP6 PUSH1 0x2 DUP8 SLOAD EQ PUSH2 0x1BCC JUMPI JUMPDEST POP POP PUSH1 0x1 SWAP1 PUSH1 0xFF NOT AND OR SWAP1 SSTORE PUSH1 0x5 TIMESTAMP SWAP2 ADD SSTORE PUSH1 0x20 SWAP4 PUSH1 0x40 MLOAD SWAP2 PUSH2 0x191E DUP7 DUP5 PUSH2 0x22A0 JUMP JUMPDEST PUSH0 DUP4 MSTORE PUSH2 0x1BB9 JUMPI PUSH0 DUP5 DUP2 MSTORE PUSH1 0x2 DUP7 MSTORE PUSH1 0x40 SWAP1 KECCAK256 SLOAD PUSH1 0x1 PUSH1 0x1 PUSH1 0xA0 SHL SUB AND ISZERO ISZERO DUP1 PUSH2 0x1BB2 JUMPI JUMPDEST PUSH2 0x1B61 JUMPI PUSH0 DUP5 DUP2 MSTORE PUSH1 0x2 DUP7 MSTORE PUSH1 0x40 SWAP1 KECCAK256 SLOAD PUSH1 0x1 PUSH1 0x1 PUSH1 0xA0 SHL SUB AND DUP1 ISZERO ISZERO SWAP2 DUP3 PUSH2 0x1B30 JUMPI JUMPDEST PUSH2 0x1B19 JUMPI JUMPDEST PUSH0 DUP6 DUP2 MSTORE PUSH1 0x2 DUP8 MSTORE PUSH1 0x40 DUP2 KECCAK256 DUP1 SLOAD PUSH1 0x1 PUSH1 0x1 PUSH1 0xA0 SHL SUB NOT AND PUSH1 0x1 PUSH1 0x1 PUSH1 0xA0 SHL SUB DUP11 AND OR SWAP1 SSTORE DUP6 SWAP1 DUP9 SWAP1 DUP4 SWAP1 PUSH32 0xDDF252AD1BE2C89B69C2B068FC378DAA952BA7F163C4A11628F55A4DF523B3EF SWAP1 DUP1 LOG4 POP PUSH2 0x1B06 JUMPI DUP5 EXTCODESIZE PUSH2 0x19F6 JUMPI JUMPDEST POP SLOAD PUSH1 0x40 MLOAD SWAP1 DUP2 MSTORE CALLER SWAP3 PUSH32 0x4FDF86FB949D94EA64686B0C53072D1E62E2B9205A072CD65DBACFE8F7556DCF SWAP2 LOG3 STOP JUMPDEST DUP4 PUSH2 0x1A2F SWAP2 PUSH1 0x40 MLOAD DUP1 SWAP4 DUP2 SWAP3 PUSH4 0xA85BD01 PUSH1 0xE1 SHL DUP4 MSTORE CALLER PUSH1 0x4 DUP5 ADD MSTORE PUSH0 PUSH1 0x24 DUP5 ADD MSTORE DUP8 PUSH1 0x44 DUP5 ADD MSTORE PUSH1 0x80 PUSH1 0x64 DUP5 ADD MSTORE PUSH1 0x84 DUP4 ADD SWAP1 PUSH2 0x2330 JUMP JUMPDEST SUB DUP2 PUSH0 DUP10 GAS CALL PUSH0 SWAP2 DUP2 PUSH2 0x1AC6 JUMPI JUMPDEST POP PUSH2 0x1A6C JUMPI POP POP POP PUSH2 0x1A4D PUSH2 0x2876 JUMP JUMPDEST DUP1 MLOAD SWAP2 SWAP1 DUP3 PUSH2 0x1A69 JUMPI DUP4 PUSH4 0x32505749 PUSH1 0xE1 SHL PUSH0 MSTORE PUSH1 0x4 MSTORE PUSH1 0x24 PUSH0 REVERT JUMPDEST ADD REVERT JUMPDEST SWAP3 SWAP4 SWAP2 SWAP3 SWAP1 SWAP2 SWAP1 PUSH1 0x1 PUSH1 0x1 PUSH1 0xE0 SHL SUB NOT AND PUSH4 0x757A42FF PUSH1 0xE1 SHL ADD PUSH2 0x1AB4 JUMPI POP DUP3 SWAP2 SWAP1 PUSH32 0x4FDF86FB949D94EA64686B0C53072D1E62E2B9205A072CD65DBACFE8F7556DCF PUSH2 0x19C7 JUMP JUMPDEST PUSH4 0x32505749 PUSH1 0xE1 SHL PUSH0 MSTORE PUSH1 0x4 MSTORE PUSH1 0x24 PUSH0 REVERT JUMPDEST SWAP1 SWAP2 POP DUP5 DUP2 DUP2 RETURNDATASIZE DUP4 GT PUSH2 0x1AFF JUMPI JUMPDEST PUSH2 0x1ADE DUP2 DUP4 PUSH2 0x22A0 JUMP JUMPDEST DUP2 ADD SUB SLT PUSH2 0x5C0 JUMPI MLOAD PUSH1 0x1 PUSH1 0x1 PUSH1 0xE0 SHL SUB NOT DUP2 AND DUP2 SUB PUSH2 0x5C0 JUMPI SWAP1 DUP7 PUSH2 0x1A3D JUMP JUMPDEST POP RETURNDATASIZE PUSH2 0x1AD4 JUMP JUMPDEST PUSH4 0x39E35637 PUSH1 0xE1 SHL PUSH0 MSTORE PUSH0 PUSH1 0x4 MSTORE PUSH1 0x24 PUSH0 REVERT JUMPDEST DUP7 PUSH0 MSTORE PUSH1 0x3 DUP7 MSTORE PUSH1 0x40 PUSH0 KECCAK256 PUSH1 0x1 DUP2 SLOAD ADD SWAP1 SSTORE PUSH2 0x196C JUMP JUMPDEST PUSH0 DUP7 DUP2 MSTORE PUSH1 0x4 PUSH1 0x20 MSTORE PUSH1 0x40 DUP1 DUP3 KECCAK256 DUP1 SLOAD PUSH1 0x1 PUSH1 0x1 PUSH1 0xA0 SHL SUB NOT AND SWAP1 SSTORE DUP4 DUP3 MSTORE PUSH1 0x3 DUP10 MSTORE SWAP1 KECCAK256 DUP1 SLOAD PUSH0 NOT ADD SWAP1 SSTORE PUSH2 0x1967 JUMP JUMPDEST PUSH1 0x40 MLOAD PUSH3 0x461BCD PUSH1 0xE5 SHL DUP2 MSTORE PUSH1 0x4 DUP2 ADD DUP7 SWAP1 MSTORE PUSH1 0x24 DUP1 DUP3 ADD MSTORE PUSH32 0x50726F70657274792062616467657320617265206E6F6E2D7472616E73666572 PUSH1 0x44 DUP3 ADD MSTORE PUSH4 0x61626C65 PUSH1 0xE0 SHL PUSH1 0x64 DUP3 ADD MSTORE PUSH1 0x84 SWAP1 REVERT JUMPDEST POP DUP1 PUSH2 0x1943 JUMP JUMPDEST PUSH4 0x32505749 PUSH1 0xE1 SHL PUSH0 MSTORE PUSH0 PUSH1 0x4 MSTORE PUSH1 0x24 PUSH0 REVERT JUMPDEST MLOAD ISZERO PUSH2 0x1C24 JUMPI MLOAD ISZERO PUSH2 0x1BDF JUMPI DUP9 DUP1 PUSH2 0x18FB JUMP JUMPDEST PUSH1 0x40 MLOAD PUSH3 0x461BCD PUSH1 0xE5 SHL DUP2 MSTORE PUSH1 0x20 PUSH1 0x4 DUP3 ADD MSTORE PUSH1 0x1A PUSH1 0x24 DUP3 ADD MSTORE PUSH32 0x416464726573732070726F6F66206E6F74207665726966696564000000000000 PUSH1 0x44 DUP3 ADD MSTORE PUSH1 0x64 SWAP1 REVERT JUMPDEST PUSH1 0x40 MLOAD PUSH3 0x461BCD PUSH1 0xE5 SHL DUP2 MSTORE PUSH1 0x20 PUSH1 0x4 DUP3 ADD MSTORE PUSH1 0x1A PUSH1 0x24 DUP3 ADD MSTORE PUSH32 0x476F7665726E6D656E74204944206E6F74207665726966696564000000000000 PUSH1 0x44 DUP3 ADD MSTORE PUSH1 0x64 SWAP1 REVERT JUMPDEST PUSH1 0x40 MLOAD PUSH3 0x461BCD PUSH1 0xE5 SHL DUP2 MSTORE PUSH1 0x20 PUSH1 0x4 DUP3 ADD MSTORE PUSH1 0x17 PUSH1 0x24 DUP3 ADD MSTORE PUSH32 0x50726F7065727479206973206465616374697661746564000000000000000000 PUSH1 0x44 DUP3 ADD MSTORE PUSH1 0x64 SWAP1 REVERT JUMPDEST PUSH0 CALLDATASIZE PUSH1 0x3 NOT ADD SLT PUSH2 0x5C0 JUMPI CALLVALUE ISZERO PUSH2 0x1CD0 JUMPI PUSH2 0x1CCB CALLVALUE PUSH1 0xF SLOAD PUSH2 0x27C2 JUMP JUMPDEST PUSH1 0xF SSTORE STOP JUMPDEST PUSH1 0x40 MLOAD PUSH3 0x461BCD PUSH1 0xE5 SHL DUP2 MSTORE PUSH1 0x20 PUSH1 0x4 DUP3 ADD MSTORE PUSH1 0xF PUSH1 0x24 DUP3 ADD MSTORE PUSH15 0x4D7573742073656E642066756E6473 PUSH1 0x88 SHL PUSH1 0x44 DUP3 ADD MSTORE PUSH1 0x64 SWAP1 REVERT JUMPDEST CALLVALUE PUSH2 0x5C0 JUMPI PUSH2 0xF74 PUSH2 0x1D18 CALLDATASIZE PUSH2 0x2432 JUMP JUMPDEST SWAP2 PUSH2 0x25B9 JUMP JUMPDEST CALLVALUE PUSH2 0x5C0 JUMPI PUSH1 0x20 CALLDATASIZE PUSH1 0x3 NOT ADD SLT PUSH2 0x5C0 JUMPI PUSH1 0x4 CALLDATALOAD PUSH0 MSTORE PUSH1 0x9 PUSH1 0x20 MSTORE PUSH1 0x40 PUSH0 KECCAK256 PUSH1 0x40 MLOAD PUSH2 0x1D49 DUP2 PUSH2 0x2269 JUMP JUMPDEST DUP2 SLOAD PUSH1 0x1 PUSH1 0x1 PUSH1 0xA0 SHL SUB AND DUP2 MSTORE PUSH2 0x274 PUSH2 0x1D65 PUSH1 0x1 DUP5 ADD PUSH2 0x24CD JUMP JUMPDEST SWAP2 PUSH1 0x20 DUP2 ADD SWAP3 DUP4 MSTORE PUSH2 0x1D79 PUSH1 0x2 DUP6 ADD PUSH2 0x24CD JUMP JUMPDEST SWAP4 PUSH1 0x40 DUP3 ADD SWAP5 DUP6 MSTORE PUSH2 0x1D8D PUSH1 0x3 DUP3 ADD PUSH2 0x24CD JUMP JUMPDEST PUSH1 0x60 DUP4 ADD SWAP1 DUP2 MSTORE PUSH2 0x1DA0 PUSH1 0x4 DUP4 ADD PUSH2 0x24CD JUMP JUMPDEST DUP1 PUSH1 0x80 DUP6 ADD MSTORE PUSH1 0x5 DUP4 ADD SLOAD SWAP1 DUP2 PUSH1 0xA0 DUP7 ADD MSTORE PUSH1 0x6 DUP5 ADD SLOAD SWAP3 PUSH1 0x7 PUSH1 0xFF DUP1 DUP7 AND ISZERO ISZERO SWAP6 DUP7 PUSH1 0xC0 DUP11 ADD MSTORE PUSH1 0x8 SHR AND ISZERO ISZERO SWAP6 DUP7 PUSH1 0xE0 DUP10 ADD MSTORE ADD SLOAD SWAP6 DUP7 PUSH2 0x100 DUP3 ADD MSTORE PUSH1 0x1 DUP1 PUSH1 0xA0 SHL SUB SWAP1 MLOAD AND SWAP8 MLOAD SWAP9 MLOAD SWAP1 MLOAD SWAP1 PUSH1 0x40 MLOAD SWAP10 DUP11 SWAP10 DUP11 PUSH2 0x23B9 JUMP JUMPDEST CALLVALUE PUSH2 0x5C0 JUMPI PUSH1 0x20 CALLDATASIZE PUSH1 0x3 NOT ADD SLT PUSH2 0x5C0 JUMPI PUSH1 0x4 CALLDATALOAD PUSH0 MSTORE PUSH1 0xA PUSH1 0x20 MSTORE PUSH1 0x40 PUSH0 KECCAK256 PUSH1 0x40 MLOAD PUSH2 0x1E27 DUP2 PUSH2 0x2285 JUMP JUMPDEST PUSH2 0x1E30 DUP3 PUSH2 0x24CD JUMP JUMPDEST DUP2 MSTORE PUSH2 0x274 PUSH1 0x2 PUSH2 0x1E43 PUSH1 0x1 DUP6 ADD PUSH2 0x24CD JUMP JUMPDEST SWAP4 DUP5 PUSH1 0x20 DUP6 ADD MSTORE ADD SLOAD SWAP2 PUSH1 0xFF DUP1 DUP5 AND ISZERO ISZERO SWAP4 DUP5 PUSH1 0x40 DUP5 ADD MSTORE PUSH1 0x8 SHR AND ISZERO ISZERO SWAP1 DUP2 PUSH1 0x60 DUP3 ADD MSTORE MLOAD SWAP3 PUSH1 0x40 MLOAD SWAP5 DUP6 SWAP5 DUP6 PUSH2 0x2380 JUMP JUMPDEST CALLVALUE PUSH2 0x5C0 JUMPI PUSH1 0x40 CALLDATASIZE PUSH1 0x3 NOT ADD SLT PUSH2 0x5C0 JUMPI PUSH2 0x1E8F PUSH2 0x2354 JUMP JUMPDEST PUSH1 0x24 CALLDATALOAD PUSH2 0x1E9B DUP2 PUSH2 0x2842 JUMP JUMPDEST CALLER ISZERO ISZERO DUP1 PUSH2 0x1F4D JUMPI JUMPDEST DUP1 PUSH2 0x1F20 JUMPI JUMPDEST PUSH2 0x1F0D JUMPI DUP2 SWAP1 PUSH1 0x1 PUSH1 0x1 PUSH1 0xA0 SHL SUB DUP5 DUP2 AND SWAP2 AND PUSH32 0x8C5BE1E5EBEC7D5BD14F71427D1E84F3DD0314C0F7B2291E5B200AC8C7C3B925 PUSH0 DUP1 LOG4 PUSH0 SWAP1 DUP2 MSTORE PUSH1 0x4 PUSH1 0x20 MSTORE PUSH1 0x40 SWAP1 KECCAK256 DUP1 SLOAD PUSH1 0x1 PUSH1 0x1 PUSH1 0xA0 SHL SUB NOT AND PUSH1 0x1 PUSH1 0x1 PUSH1 0xA0 SHL SUB SWAP1 SWAP3 AND SWAP2 SWAP1 SWAP2 OR SWAP1 SSTORE STOP JUMPDEST PUSH4 0xA9FBF51F PUSH1 0xE0 SHL PUSH0 MSTORE CALLER PUSH1 0x4 MSTORE PUSH1 0x24 PUSH0 REVERT JUMPDEST POP PUSH1 0x1 PUSH1 0x1 PUSH1 0xA0 SHL SUB DUP2 AND PUSH0 SWAP1 DUP2 MSTORE PUSH1 0x5 PUSH1 0x20 SWAP1 DUP2 MSTORE PUSH1 0x40 DUP1 DUP4 KECCAK256 CALLER DUP5 MSTORE SWAP1 SWAP2 MSTORE SWAP1 KECCAK256 SLOAD PUSH1 0xFF AND ISZERO PUSH2 0x1EAA JUMP JUMPDEST POP PUSH1 0x1 PUSH1 0x1 PUSH1 0xA0 SHL SUB DUP2 AND CALLER EQ ISZERO PUSH2 0x1EA4 JUMP JUMPDEST CALLVALUE PUSH2 0x5C0 JUMPI PUSH1 0x20 CALLDATASIZE PUSH1 0x3 NOT ADD SLT PUSH2 0x5C0 JUMPI PUSH1 0x4 CALLDATALOAD PUSH2 0x1F7D DUP2 PUSH2 0x2842 JUMP JUMPDEST POP PUSH0 MSTORE PUSH1 0x4 PUSH1 0x20 MSTORE PUSH1 0x20 PUSH1 0x1 DUP1 PUSH1 0xA0 SHL SUB PUSH1 0x40 PUSH0 KECCAK256 SLOAD AND PUSH1 0x40 MLOAD SWAP1 DUP2 MSTORE RETURN JUMPDEST CALLVALUE PUSH2 0x5C0 JUMPI PUSH1 0x20 CALLDATASIZE PUSH1 0x3 NOT ADD SLT PUSH2 0x5C0 JUMPI PUSH1 0x4 CALLDATALOAD PUSH0 MSTORE PUSH1 0x9 PUSH1 0x20 MSTORE PUSH1 0x20 PUSH1 0x40 PUSH0 KECCAK256 PUSH1 0x40 MLOAD SWAP1 PUSH2 0x1FCA DUP3 PUSH2 0x2269 JUMP JUMPDEST DUP1 SLOAD PUSH1 0x1 PUSH1 0x1 PUSH1 0xA0 SHL SUB AND DUP3 MSTORE PUSH2 0x1FE3 PUSH1 0x1 DUP3 ADD PUSH2 0x24CD JUMP JUMPDEST DUP4 DUP4 ADD MSTORE PUSH2 0x1FF3 PUSH1 0x2 DUP3 ADD PUSH2 0x24CD JUMP JUMPDEST PUSH1 0x40 DUP4 ADD MSTORE PUSH2 0x2004 PUSH1 0x3 DUP3 ADD PUSH2 0x24CD JUMP JUMPDEST PUSH1 0x60 DUP4 ADD MSTORE PUSH2 0x2015 PUSH1 0x4 DUP3 ADD PUSH2 0x24CD JUMP JUMPDEST PUSH1 0x80 DUP4 ADD MSTORE PUSH1 0x5 DUP2 ADD SLOAD PUSH1 0xA0 DUP4 ADD MSTORE PUSH1 0x6 DUP2 ADD SLOAD SWAP2 PUSH2 0x100 PUSH1 0x7 PUSH1 0xFF DUP1 DUP7 AND ISZERO ISZERO SWAP6 DUP7 PUSH1 0xC0 DUP7 ADD MSTORE PUSH1 0x8 SHR AND ISZERO ISZERO SWAP4 DUP5 PUSH1 0xE0 DUP6 ADD MSTORE ADD SLOAD SWAP2 ADD MSTORE DUP2 PUSH2 0x2060 JUMPI JUMPDEST POP PUSH1 0x40 MLOAD SWAP1 ISZERO ISZERO DUP2 MSTORE RETURN JUMPDEST SWAP1 POP DUP3 PUSH2 0x2055 JUMP JUMPDEST CALLVALUE PUSH2 0x5C0 JUMPI PUSH0 CALLDATASIZE PUSH1 0x3 NOT ADD SLT PUSH2 0x5C0 JUMPI PUSH1 0x40 MLOAD PUSH0 PUSH0 SLOAD PUSH2 0x2087 DUP2 PUSH2 0x2495 JUMP JUMPDEST DUP1 DUP5 MSTORE SWAP1 PUSH1 0x1 DUP2 AND SWAP1 DUP2 ISZERO PUSH2 0x11DC JUMPI POP PUSH1 0x1 EQ PUSH2 0x20AE JUMPI PUSH2 0x274 DUP4 PUSH2 0x116A DUP2 DUP6 SUB DUP3 PUSH2 0x22A0 JUMP JUMPDEST PUSH0 DUP1 DUP1 MSTORE PUSH32 0x290DECD9548B62A8D60345A988386FC84BA6BC95484008F6362F93160EF3E563 SWAP4 SWAP3 POP SWAP1 JUMPDEST DUP1 DUP3 LT PUSH2 0x20F0 JUMPI POP SWAP1 SWAP2 POP DUP2 ADD PUSH1 0x20 ADD PUSH2 0x116A PUSH2 0x115A JUMP JUMPDEST SWAP2 SWAP3 PUSH1 0x1 DUP2 PUSH1 0x20 SWAP3 SLOAD DUP4 DUP6 DUP9 ADD ADD MSTORE ADD SWAP2 ADD SWAP1 SWAP3 SWAP2 PUSH2 0x20D8 JUMP JUMPDEST CALLVALUE PUSH2 0x5C0 JUMPI PUSH1 0x40 CALLDATASIZE PUSH1 0x3 NOT ADD SLT PUSH2 0x5C0 JUMPI PUSH1 0x4 CALLDATALOAD PUSH1 0x24 CALLDATALOAD PUSH1 0x1 PUSH1 0x1 PUSH1 0x40 SHL SUB DUP2 GT PUSH2 0x5C0 JUMPI PUSH2 0x213D SWAP1 CALLDATASIZE SWAP1 PUSH1 0x4 ADD PUSH2 0x2312 JUMP JUMPDEST PUSH2 0x2145 PUSH2 0x281B JUMP JUMPDEST DUP2 PUSH0 MSTORE PUSH1 0x9 PUSH1 0x20 MSTORE PUSH1 0x6 PUSH1 0x40 PUSH0 KECCAK256 PUSH2 0x2167 PUSH1 0x1 DUP1 PUSH1 0xA0 SHL SUB DUP3 SLOAD AND ISZERO ISZERO PUSH2 0x256D JUMP JUMPDEST ADD SWAP1 DUP2 SLOAD SWAP1 PUSH1 0xFF DUP3 PUSH1 0x8 SHR AND ISZERO PUSH2 0x21B9 JUMPI PUSH32 0xA32677AB4FAC60467A78A3510492F292639D719077591F03963780E3AB79BD53 SWAP3 PUSH2 0x1538 SWAP3 PUSH2 0xFF00 NOT AND SWAP1 SSTORE PUSH1 0x40 MLOAD SWAP2 DUP3 SWAP2 PUSH1 0x20 DUP4 MSTORE PUSH1 0x20 DUP4 ADD SWAP1 PUSH2 0x2330 JUMP JUMPDEST PUSH1 0x40 MLOAD PUSH3 0x461BCD PUSH1 0xE5 SHL DUP2 MSTORE PUSH1 0x20 PUSH1 0x4 DUP3 ADD MSTORE PUSH1 0x1C PUSH1 0x24 DUP3 ADD MSTORE PUSH32 0x50726F706572747920616C726561647920646561637469766174656400000000 PUSH1 0x44 DUP3 ADD MSTORE PUSH1 0x64 SWAP1 REVERT JUMPDEST CALLVALUE PUSH2 0x5C0 JUMPI PUSH1 0x20 CALLDATASIZE PUSH1 0x3 NOT ADD SLT PUSH2 0x5C0 JUMPI PUSH1 0x4 CALLDATALOAD SWAP1 PUSH4 0xFFFFFFFF PUSH1 0xE0 SHL DUP3 AND DUP1 SWAP3 SUB PUSH2 0x5C0 JUMPI PUSH1 0x20 SWAP2 PUSH4 0x80AC58CD PUSH1 0xE0 SHL DUP2 EQ SWAP1 DUP2 ISZERO PUSH2 0x2258 JUMPI JUMPDEST DUP2 ISZERO PUSH2 0x2247 JUMPI JUMPDEST POP ISZERO ISZERO DUP2 MSTORE RETURN JUMPDEST PUSH4 0x1FFC9A7 PUSH1 0xE0 SHL EQ SWAP1 POP DUP4 PUSH2 0x2240 JUMP JUMPDEST PUSH4 0x5B5E139F PUSH1 0xE0 SHL DUP2 EQ SWAP2 POP PUSH2 0x2239 JUMP JUMPDEST PUSH2 0x120 DUP2 ADD SWAP1 DUP2 LT PUSH1 0x1 PUSH1 0x1 PUSH1 0x40 SHL SUB DUP3 GT OR PUSH2 0x999 JUMPI PUSH1 0x40 MSTORE JUMP JUMPDEST PUSH1 0x80 DUP2 ADD SWAP1 DUP2 LT PUSH1 0x1 PUSH1 0x1 PUSH1 0x40 SHL SUB DUP3 GT OR PUSH2 0x999 JUMPI PUSH1 0x40 MSTORE JUMP JUMPDEST SWAP1 PUSH1 0x1F DUP1 NOT SWAP2 ADD AND DUP2 ADD SWAP1 DUP2 LT PUSH1 0x1 PUSH1 0x1 PUSH1 0x40 SHL SUB DUP3 GT OR PUSH2 0x999 JUMPI PUSH1 0x40 MSTORE JUMP JUMPDEST PUSH1 0x1 PUSH1 0x1 PUSH1 0x40 SHL SUB DUP2 GT PUSH2 0x999 JUMPI PUSH1 0x1F ADD PUSH1 0x1F NOT AND PUSH1 0x20 ADD SWAP1 JUMP JUMPDEST SWAP3 SWAP2 SWAP3 PUSH2 0x22E8 DUP3 PUSH2 0x22C1 JUMP JUMPDEST SWAP2 PUSH2 0x22F6 PUSH1 0x40 MLOAD SWAP4 DUP5 PUSH2 0x22A0 JUMP JUMPDEST DUP3 SWAP5 DUP2 DUP5 MSTORE DUP2 DUP4 ADD GT PUSH2 0x5C0 JUMPI DUP3 DUP2 PUSH1 0x20 SWAP4 DUP5 PUSH0 SWAP7 ADD CALLDATACOPY ADD ADD MSTORE JUMP JUMPDEST SWAP1 DUP1 PUSH1 0x1F DUP4 ADD SLT ISZERO PUSH2 0x5C0 JUMPI DUP2 PUSH1 0x20 PUSH2 0x232D SWAP4 CALLDATALOAD SWAP2 ADD PUSH2 0x22DC JUMP JUMPDEST SWAP1 JUMP JUMPDEST DUP1 MLOAD DUP1 DUP4 MSTORE PUSH1 0x20 SWAP3 SWAP2 DUP2 SWAP1 DUP5 ADD DUP5 DUP5 ADD MCOPY PUSH0 DUP3 DUP3 ADD DUP5 ADD MSTORE PUSH1 0x1F ADD PUSH1 0x1F NOT AND ADD ADD SWAP1 JUMP JUMPDEST PUSH1 0x4 CALLDATALOAD SWAP1 PUSH1 0x1 PUSH1 0x1 PUSH1 0xA0 SHL SUB DUP3 AND DUP3 SUB PUSH2 0x5C0 JUMPI JUMP JUMPDEST PUSH1 0x24 CALLDATALOAD SWAP1 PUSH1 0x1 PUSH1 0x1 PUSH1 0xA0 SHL SUB DUP3 AND DUP3 SUB PUSH2 0x5C0 JUMPI JUMP JUMPDEST SWAP3 SWAP5 SWAP4 SWAP1 PUSH1 0x60 SWAP3 PUSH2 0x239C PUSH2 0x23AA SWAP3 PUSH1 0x80 DUP8 MSTORE PUSH1 0x80 DUP8 ADD SWAP1 PUSH2 0x2330 JUMP JUMPDEST SWAP1 DUP6 DUP3 SUB PUSH1 0x20 DUP8 ADD MSTORE PUSH2 0x2330 JUMP JUMPDEST SWAP5 ISZERO ISZERO PUSH1 0x40 DUP5 ADD MSTORE ISZERO ISZERO SWAP2 ADD MSTORE JUMP JUMPDEST SWAP6 SWAP10 SWAP9 SWAP8 SWAP5 SWAP2 SWAP4 PUSH2 0x23FE PUSH2 0x241A SWAP5 PUSH2 0x23F0 PUSH2 0x100 SWAP11 SWAP8 PUSH2 0x240C SWAP6 PUSH1 0x1 DUP1 PUSH1 0xA0 SHL SUB AND DUP12 MSTORE PUSH2 0x120 PUSH1 0x20 DUP13 ADD MSTORE PUSH2 0x120 DUP12 ADD SWAP1 PUSH2 0x2330 JUMP JUMPDEST SWAP1 DUP10 DUP3 SUB PUSH1 0x40 DUP12 ADD MSTORE PUSH2 0x2330 JUMP JUMPDEST SWAP1 DUP8 DUP3 SUB PUSH1 0x60 DUP10 ADD MSTORE PUSH2 0x2330 JUMP JUMPDEST SWAP1 DUP6 DUP3 SUB PUSH1 0x80 DUP8 ADD MSTORE PUSH2 0x2330 JUMP JUMPDEST SWAP7 PUSH1 0xA0 DUP5 ADD MSTORE ISZERO ISZERO PUSH1 0xC0 DUP4 ADD MSTORE ISZERO ISZERO PUSH1 0xE0 DUP3 ADD MSTORE ADD MSTORE JUMP JUMPDEST PUSH1 0x60 SWAP1 PUSH1 0x3 NOT ADD SLT PUSH2 0x5C0 JUMPI PUSH1 0x4 CALLDATALOAD PUSH1 0x1 PUSH1 0x1 PUSH1 0xA0 SHL SUB DUP2 AND DUP2 SUB PUSH2 0x5C0 JUMPI SWAP1 PUSH1 0x24 CALLDATALOAD PUSH1 0x1 PUSH1 0x1 PUSH1 0xA0 SHL SUB DUP2 AND DUP2 SUB PUSH2 0x5C0 JUMPI SWAP1 PUSH1 0x44 CALLDATALOAD SWAP1 JUMP JUMPDEST DUP1 SLOAD DUP3 LT ISZERO PUSH2 0x2481 JUMPI PUSH0 MSTORE PUSH1 0x20 PUSH0 KECCAK256 ADD SWAP1 PUSH0 SWAP1 JUMP JUMPDEST PUSH4 0x4E487B71 PUSH1 0xE0 SHL PUSH0 MSTORE PUSH1 0x32 PUSH1 0x4 MSTORE PUSH1 0x24 PUSH0 REVERT JUMPDEST SWAP1 PUSH1 0x1 DUP3 DUP2 SHR SWAP3 AND DUP1 ISZERO PUSH2 0x24C3 JUMPI JUMPDEST PUSH1 0x20 DUP4 LT EQ PUSH2 0x24AF JUMPI JUMP JUMPDEST PUSH4 0x4E487B71 PUSH1 0xE0 SHL PUSH0 MSTORE PUSH1 0x22 PUSH1 0x4 MSTORE PUSH1 0x24 PUSH0 REVERT JUMPDEST SWAP2 PUSH1 0x7F AND SWAP2 PUSH2 0x24A4 JUMP JUMPDEST SWAP1 PUSH1 0x40 MLOAD SWAP2 DUP3 PUSH0 DUP3 SLOAD SWAP3 PUSH2 0x24E0 DUP5 PUSH2 0x2495 JUMP JUMPDEST DUP1 DUP5 MSTORE SWAP4 PUSH1 0x1 DUP2 AND SWAP1 DUP2 ISZERO PUSH2 0x254B JUMPI POP PUSH1 0x1 EQ PUSH2 0x2507 JUMPI JUMPDEST POP PUSH2 0x2505 SWAP3 POP SUB DUP4 PUSH2 0x22A0 JUMP JUMPDEST JUMP JUMPDEST SWAP1 POP PUSH0 SWAP3 SWAP2 SWAP3 MSTORE PUSH1 0x20 PUSH0 KECCAK256 SWAP1 PUSH0 SWAP2 JUMPDEST DUP2 DUP4 LT PUSH2 0x252F JUMPI POP POP SWAP1 PUSH1 0x20 PUSH2 0x2505 SWAP3 DUP3 ADD ADD PUSH0 PUSH2 0x24F8 JUMP JUMPDEST PUSH1 0x20 SWAP2 SWAP4 POP DUP1 PUSH1 0x1 SWAP2 SLOAD DUP4 DUP6 DUP10 ADD ADD MSTORE ADD SWAP2 ADD SWAP1 SWAP2 DUP5 SWAP3 PUSH2 0x2516 JUMP JUMPDEST SWAP1 POP PUSH1 0x20 SWAP3 POP PUSH2 0x2505 SWAP5 SWAP2 POP PUSH1 0xFF NOT AND DUP3 DUP5 ADD MSTORE ISZERO ISZERO PUSH1 0x5 SHL DUP3 ADD ADD PUSH0 PUSH2 0x24F8 JUMP JUMPDEST ISZERO PUSH2 0x2574 JUMPI JUMP JUMPDEST PUSH1 0x40 MLOAD PUSH3 0x461BCD PUSH1 0xE5 SHL DUP2 MSTORE PUSH1 0x20 PUSH1 0x4 DUP3 ADD MSTORE PUSH1 0x17 PUSH1 0x24 DUP3 ADD MSTORE PUSH32 0x50726F706572747920646F6573206E6F74206578697374000000000000000000 PUSH1 0x44 DUP3 ADD MSTORE PUSH1 0x64 SWAP1 REVERT JUMPDEST PUSH1 0x1 PUSH1 0x1 PUSH1 0xA0 SHL SUB SWAP1 SWAP2 AND SWAP2 SWAP1 DUP3 ISZERO PUSH2 0x1BB9 JUMPI PUSH0 DUP3 DUP2 MSTORE PUSH1 0x2 PUSH1 0x20 MSTORE PUSH1 0x40 SWAP1 KECCAK256 SLOAD PUSH1 0x1 PUSH1 0x1 PUSH1 0xA0 SHL SUB AND ISZERO ISZERO DUP1 PUSH2 0x27BA JUMPI JUMPDEST PUSH2 0x2769 JUMPI PUSH0 DUP3 DUP2 MSTORE PUSH1 0x2 PUSH1 0x20 MSTORE PUSH1 0x40 SWAP1 KECCAK256 SLOAD PUSH1 0x1 PUSH1 0x1 PUSH1 0xA0 SHL SUB AND SWAP3 DUP3 SWAP1 CALLER ISZERO ISZERO DUP1 PUSH2 0x26D4 JUMPI JUMPDEST POP DUP5 PUSH2 0x26A1 JUMPI JUMPDEST DUP1 PUSH0 MSTORE PUSH1 0x3 PUSH1 0x20 MSTORE PUSH1 0x40 PUSH0 KECCAK256 PUSH1 0x1 DUP2 SLOAD ADD SWAP1 SSTORE DUP2 PUSH0 MSTORE PUSH1 0x2 PUSH1 0x20 MSTORE PUSH1 0x40 PUSH0 KECCAK256 DUP2 PUSH12 0xFFFFFFFFFFFFFFFFFFFFFFFF PUSH1 0xA0 SHL DUP3 SLOAD AND OR SWAP1 SSTORE DUP5 PUSH32 0xDDF252AD1BE2C89B69C2B068FC378DAA952BA7F163C4A11628F55A4DF523B3EF PUSH0 DUP1 LOG4 PUSH1 0x1 PUSH1 0x1 PUSH1 0xA0 SHL SUB AND DUP1 DUP4 SUB PUSH2 0x2689 JUMPI POP POP POP JUMP JUMPDEST PUSH4 0x64283D7B PUSH1 0xE0 SHL PUSH0 MSTORE PUSH1 0x4 MSTORE PUSH1 0x24 MSTORE PUSH1 0x44 MSTORE PUSH1 0x64 PUSH0 REVERT JUMPDEST PUSH0 DUP3 DUP2 MSTORE PUSH1 0x4 PUSH1 0x20 MSTORE PUSH1 0x40 SWAP1 KECCAK256 DUP1 SLOAD PUSH1 0x1 PUSH1 0x1 PUSH1 0xA0 SHL SUB NOT AND SWAP1 SSTORE DUP5 PUSH0 MSTORE PUSH1 0x3 PUSH1 0x20 MSTORE PUSH1 0x40 PUSH0 KECCAK256 PUSH0 NOT DUP2 SLOAD ADD SWAP1 SSTORE PUSH2 0x2619 JUMP JUMPDEST SWAP1 SWAP2 POP DUP1 PUSH2 0x2718 JUMPI JUMPDEST ISZERO PUSH2 0x26EA JUMPI DUP3 SWAP1 PUSH0 PUSH2 0x2612 JUMP JUMPDEST DUP3 DUP5 PUSH2 0x2702 JUMPI PUSH4 0x7E273289 PUSH1 0xE0 SHL PUSH0 MSTORE PUSH1 0x4 MSTORE PUSH1 0x24 PUSH0 REVERT JUMPDEST PUSH4 0x177E802F PUSH1 0xE0 SHL PUSH0 MSTORE CALLER PUSH1 0x4 MSTORE PUSH1 0x24 MSTORE PUSH1 0x44 PUSH0 REVERT JUMPDEST POP CALLER DUP5 EQ DUP1 ISZERO PUSH2 0x2747 JUMPI JUMPDEST DUP1 PUSH2 0x26DD JUMPI POP PUSH0 DUP4 DUP2 MSTORE PUSH1 0x4 PUSH1 0x20 MSTORE PUSH1 0x40 SWAP1 KECCAK256 SLOAD PUSH1 0x1 PUSH1 0x1 PUSH1 0xA0 SHL SUB AND CALLER EQ PUSH2 0x26DD JUMP JUMPDEST POP PUSH0 DUP5 DUP2 MSTORE PUSH1 0x5 PUSH1 0x20 SWAP1 DUP2 MSTORE PUSH1 0x40 DUP1 DUP4 KECCAK256 CALLER DUP5 MSTORE SWAP1 SWAP2 MSTORE SWAP1 KECCAK256 SLOAD PUSH1 0xFF AND PUSH2 0x2723 JUMP JUMPDEST PUSH1 0x40 MLOAD PUSH3 0x461BCD PUSH1 0xE5 SHL DUP2 MSTORE PUSH1 0x20 PUSH1 0x4 DUP3 ADD MSTORE PUSH1 0x24 DUP1 DUP3 ADD MSTORE PUSH32 0x50726F70657274792062616467657320617265206E6F6E2D7472616E73666572 PUSH1 0x44 DUP3 ADD MSTORE PUSH4 0x61626C65 PUSH1 0xE0 SHL PUSH1 0x64 DUP3 ADD MSTORE PUSH1 0x84 SWAP1 REVERT JUMPDEST POP PUSH1 0x1 PUSH2 0x25EB JUMP JUMPDEST SWAP2 SWAP1 DUP3 ADD DUP1 SWAP3 GT PUSH2 0xCA4 JUMPI JUMP JUMPDEST ISZERO PUSH2 0x27D6 JUMPI JUMP JUMPDEST PUSH1 0x40 MLOAD PUSH3 0x461BCD PUSH1 0xE5 SHL DUP2 MSTORE PUSH1 0x20 PUSH1 0x4 DUP3 ADD MSTORE PUSH1 0x19 PUSH1 0x24 DUP3 ADD MSTORE PUSH32 0x50726F706572747920616C726561647920766572696669656400000000000000 PUSH1 0x44 DUP3 ADD MSTORE PUSH1 0x64 SWAP1 REVERT JUMPDEST PUSH1 0x6 SLOAD PUSH1 0x1 PUSH1 0x1 PUSH1 0xA0 SHL SUB AND CALLER SUB PUSH2 0x282F JUMPI JUMP JUMPDEST PUSH4 0x118CDAA7 PUSH1 0xE0 SHL PUSH0 MSTORE CALLER PUSH1 0x4 MSTORE PUSH1 0x24 PUSH0 REVERT JUMPDEST PUSH0 DUP2 DUP2 MSTORE PUSH1 0x2 PUSH1 0x20 MSTORE PUSH1 0x40 SWAP1 KECCAK256 SLOAD PUSH1 0x1 PUSH1 0x1 PUSH1 0xA0 SHL SUB AND SWAP1 DUP2 ISZERO PUSH2 0x2864 JUMPI POP SWAP1 JUMP JUMPDEST PUSH4 0x7E273289 PUSH1 0xE0 SHL PUSH0 MSTORE PUSH1 0x4 MSTORE PUSH1 0x24 PUSH0 REVERT JUMPDEST RETURNDATASIZE ISZERO PUSH2 0x28A0 JUMPI RETURNDATASIZE SWAP1 PUSH2 0x2887 DUP3 PUSH2 0x22C1 JUMP JUMPDEST SWAP2 PUSH2 0x2895 PUSH1 0x40 MLOAD SWAP4 DUP5 PUSH2 0x22A0 JUMP JUMPDEST DUP3 MSTORE RETURNDATASIZE PUSH0 PUSH1 0x20 DUP5 ADD RETURNDATACOPY JUMP JUMPDEST PUSH1 0x60 SWAP1 JUMP JUMPDEST DUP3 EXTCODESIZE PUSH2 0x28B3 JUMPI JUMPDEST POP POP POP POP POP JUMP JUMPDEST PUSH1 0x40 MLOAD PUSH4 0xA85BD01 PUSH1 0xE1 SHL DUP2 MSTORE PUSH1 0x1 PUSH1 0x1 PUSH1 0xA0 SHL SUB SWAP2 DUP3 AND PUSH1 0x4 DUP3 ADD MSTORE SWAP2 DUP2 AND PUSH1 0x24 DUP4 ADD MSTORE PUSH1 0x44 DUP3 ADD SWAP4 SWAP1 SWAP4 MSTORE PUSH1 0x80 PUSH1 0x64 DUP3 ADD MSTORE SWAP2 AND SWAP2 PUSH1 0x20 SWAP1 DUP3 SWAP1 DUP2 SWAP1 PUSH2 0x28FF SWAP1 PUSH1 0x84 DUP4 ADD SWAP1 PUSH2 0x2330 JUMP JUMPDEST SUB DUP2 PUSH0 DUP7 GAS CALL PUSH0 SWAP2 DUP2 PUSH2 0x295D JUMPI JUMPDEST POP PUSH2 0x293B JUMPI POP PUSH2 0x291B PUSH2 0x2876 JUMP JUMPDEST DUP1 MLOAD SWAP1 DUP2 PUSH2 0x2936 JUMPI DUP3 PUSH4 0x32505749 PUSH1 0xE1 SHL PUSH0 MSTORE PUSH1 0x4 MSTORE PUSH1 0x24 PUSH0 REVERT JUMPDEST PUSH1 0x20 ADD REVERT JUMPDEST PUSH1 0x1 PUSH1 0x1 PUSH1 0xE0 SHL SUB NOT AND PUSH4 0x757A42FF PUSH1 0xE1 SHL ADD PUSH2 0x1AB4 JUMPI POP PUSH0 DUP1 DUP1 DUP1 DUP1 PUSH2 0x28AC JUMP JUMPDEST SWAP1 SWAP2 POP PUSH1 0x20 DUP2 RETURNDATASIZE PUSH1 0x20 GT PUSH2 0x299A JUMPI JUMPDEST DUP2 PUSH2 0x2979 PUSH1 0x20 SWAP4 DUP4 PUSH2 0x22A0 JUMP JUMPDEST DUP2 ADD SUB SLT PUSH2 0x5C0 JUMPI MLOAD PUSH1 0x1 PUSH1 0x1 PUSH1 0xE0 SHL SUB NOT DUP2 AND DUP2 SUB PUSH2 0x5C0 JUMPI SWAP1 PUSH0 PUSH2 0x290D JUMP JUMPDEST RETURNDATASIZE SWAP2 POP PUSH2 0x296C JUMP JUMPDEST DUP2 SELFBALANCE LT PUSH2 0x29EB JUMPI PUSH0 SWAP2 DUP3 SWAP2 DUP3 SWAP2 DUP3 SWAP2 PUSH1 0x1 PUSH1 0x1 PUSH1 0xA0 SHL SUB AND GAS CALL PUSH2 0x29C4 PUSH2 0x2876 JUMP JUMPDEST SWAP1 ISZERO PUSH2 0x29CD JUMPI POP JUMP JUMPDEST DUP1 MLOAD ISZERO PUSH2 0x29DC JUMPI PUSH1 0x20 DUP2 MLOAD SWAP2 ADD REVERT JUMPDEST PUSH4 0xD6BDA275 PUSH1 0xE0 SHL PUSH0 MSTORE PUSH1 0x4 PUSH0 REVERT JUMPDEST POP SELFBALANCE PUSH4 0xCF479181 PUSH1 0xE0 SHL PUSH0 MSTORE PUSH1 0x4 MSTORE PUSH1 0x24 MSTORE PUSH1 0x44 PUSH0 REVERT INVALID LOG2 PUSH5 0x6970667358 0x22 SLT KECCAK256 SWAP1 0x2D 0xC3 0xB2 0xB1 ORIGIN 0xEB 0xC6 TIMESTAMP 0xDE 0xE8 0x2F SGT ORIGIN PUSH14 0xCFDD28470968213493E009B82C81 ADDRESS 0x2E 0xFB PUSH5 0x736F6C6343 STOP ADDMOD SHR STOP CALLER "
		},
		"gasEstimates": {
			"creation": {
				"codeDepositCost": "2161600",
				"executionCost": "infinite",
				"totalCost": "infinite"
			},
			"external": {
				"approve(address,uint256)": "31195",
				"balanceOf(address)": "2804",
				"deactivateProperty(uint256,string)": "infinite",
				"emergencyWithdrawSponsorship()": "infinite",
				"feeCollector()": "2857",
				"fundSponsorshipPool()": "24601",
				"gasSponsored(address)": "3159",
				"getApproved(uint256)": "4674",
				"getKYCProof(uint256)": "infinite",
				"getLandlordProperties(address)": "infinite",
				"getListingFee()": "2811",
				"getPropertyDetails(uint256)": "infinite",
				"getPropertyOwner(uint256)": "3033",
				"grantGasSponsorship(address)": "28494",
				"isApprovedForAll(address,address)": "3286",
				"isPropertyVerified(uint256)": "infinite",
				"kycProcessingFee()": "2591",
				"kycProofs(uint256)": "infinite",
				"landlordProperties(address,uint256)": "7046",
				"linkKYCProof(uint256,string,string,bool,bool)": "infinite",
				"listingFee()": "2569",
				"name()": "infinite",
				"owner()": "2703",
				"ownerOf(uint256)": "2709",
				"properties(uint256)": "infinite",
				"renounceOwnership()": "28461",
				"safeTransferFrom(address,address,uint256)": "infinite",
				"safeTransferFrom(address,address,uint256,bytes)": "infinite",
				"setApprovalForAll(address,bool)": "26916",
				"sponsorshipPool()": "3095",
				"submitProperty(string,string,string,string,uint256)": "infinite",
				"supportsInterface(bytes4)": "327",
				"symbol()": "infinite",
				"tokenURI(uint256)": "infinite",
				"transferFrom(address,address,uint256)": "108660",
				"transferOwnership(address)": "28951",
				"updateKYCFee(uint256)": "25050",
				"updateListingFee(uint256)": "28617",
				"verifyProperty(uint256)": "infinite"
			},
			"internal": {
				"_update(address,uint256,address)": "infinite"
			}
		},
		"methodIdentifiers": {
			"approve(address,uint256)": "095ea7b3",
			"balanceOf(address)": "70a08231",
			"deactivateProperty(uint256,string)": "03851c0e",
			"emergencyWithdrawSponsorship()": "ee513c89",
			"feeCollector()": "c415b95c",
			"fundSponsorshipPool()": "41636d88",
			"gasSponsored(address)": "e9c50c38",
			"getApproved(uint256)": "081812fc",
			"getKYCProof(uint256)": "0e8c8cd9",
			"getLandlordProperties(address)": "b574a068",
			"getListingFee()": "b8fe6abe",
			"getPropertyDetails(uint256)": "126dbe43",
			"getPropertyOwner(uint256)": "e34fc531",
			"grantGasSponsorship(address)": "db5b7f35",
			"isApprovedForAll(address,address)": "e985e9c5",
			"isPropertyVerified(uint256)": "07192622",
			"kycProcessingFee()": "6ae80d39",
			"kycProofs(uint256)": "a245c6ad",
			"landlordProperties(address,uint256)": "6007bd6e",
			"linkKYCProof(uint256,string,string,bool,bool)": "6e3dcdee",
			"listingFee()": "6a1b7ecc",
			"name()": "06fdde03",
			"owner()": "8da5cb5b",
			"ownerOf(uint256)": "6352211e",
			"properties(uint256)": "f7b10808",
			"renounceOwnership()": "715018a6",
			"safeTransferFrom(address,address,uint256)": "42842e0e",
			"safeTransferFrom(address,address,uint256,bytes)": "b88d4fde",
			"setApprovalForAll(address,bool)": "a22cb465",
			"sponsorshipPool()": "fda39083",
			"submitProperty(string,string,string,string,uint256)": "c712fdb9",
			"supportsInterface(bytes4)": "01ffc9a7",
			"symbol()": "95d89b41",
			"tokenURI(uint256)": "c87b56dd",
			"transferFrom(address,address,uint256)": "23b872dd",
			"transferOwnership(address)": "f2fde38b",
			"updateKYCFee(uint256)": "cd6b34b2",
			"updateListingFee(uint256)": "f79d91ae",
			"verifyProperty(uint256)": "4212a8ae"
		}
	},
	"abi": [
		{
			"inputs": [
				{
					"internalType": "address",
					"name": "_feeCollector",
					"type": "address"
				}
			],
			"stateMutability": "nonpayable",
			"type": "constructor"
		},
		{
			"inputs": [
				{
					"internalType": "address",
					"name": "sender",
					"type": "address"
				},
				{
					"internalType": "uint256",
					"name": "tokenId",
					"type": "uint256"
				},
				{
					"internalType": "address",
					"name": "owner",
					"type": "address"
				}
			],
			"name": "ERC721IncorrectOwner",
			"type": "error"
		},
		{
			"inputs": [
				{
					"internalType": "address",
					"name": "operator",
					"type": "address"
				},
				{
					"internalType": "uint256",
					"name": "tokenId",
					"type": "uint256"
				}
			],
			"name": "ERC721InsufficientApproval",
			"type": "error"
		},
		{
			"inputs": [
				{
					"internalType": "address",
					"name": "approver",
					"type": "address"
				}
			],
			"name": "ERC721InvalidApprover",
			"type": "error"
		},
		{
			"inputs": [
				{
					"internalType": "address",
					"name": "operator",
					"type": "address"
				}
			],
			"name": "ERC721InvalidOperator",
			"type": "error"
		},
		{
			"inputs": [
				{
					"internalType": "address",
					"name": "owner",
					"type": "address"
				}
			],
			"name": "ERC721InvalidOwner",
			"type": "error"
		},
		{
			"inputs": [
				{
					"internalType": "address",
					"name": "receiver",
					"type": "address"
				}
			],
			"name": "ERC721InvalidReceiver",
			"type": "error"
		},
		{
			"inputs": [
				{
					"internalType": "address",
					"name": "sender",
					"type": "address"
				}
			],
			"name": "ERC721InvalidSender",
			"type": "error"
		},
		{
			"inputs": [
				{
					"internalType": "uint256",
					"name": "tokenId",
					"type": "uint256"
				}
			],
			"name": "ERC721NonexistentToken",
			"type": "error"
		},
		{
			"inputs": [],
			"name": "FailedCall",
			"type": "error"
		},
		{
			"inputs": [
				{
					"internalType": "uint256",
					"name": "balance",
					"type": "uint256"
				},
				{
					"internalType": "uint256",
					"name": "needed",
					"type": "uint256"
				}
			],
			"name": "InsufficientBalance",
			"type": "error"
		},
		{
			"inputs": [
				{
					"internalType": "address",
					"name": "owner",
					"type": "address"
				}
			],
			"name": "OwnableInvalidOwner",
			"type": "error"
		},
		{
			"inputs": [
				{
					"internalType": "address",
					"name": "account",
					"type": "address"
				}
			],
			"name": "OwnableUnauthorizedAccount",
			"type": "error"
		},
		{
			"inputs": [],
			"name": "ReentrancyGuardReentrantCall",
			"type": "error"
		},
		{
			"anonymous": false,
			"inputs": [
				{
					"indexed": true,
					"internalType": "address",
					"name": "owner",
					"type": "address"
				},
				{
					"indexed": true,
					"internalType": "address",
					"name": "approved",
					"type": "address"
				},
				{
					"indexed": true,
					"internalType": "uint256",
					"name": "tokenId",
					"type": "uint256"
				}
			],
			"name": "Approval",
			"type": "event"
		},
		{
			"anonymous": false,
			"inputs": [
				{
					"indexed": true,
					"internalType": "address",
					"name": "owner",
					"type": "address"
				},
				{
					"indexed": true,
					"internalType": "address",
					"name": "operator",
					"type": "address"
				},
				{
					"indexed": false,
					"internalType": "bool",
					"name": "approved",
					"type": "bool"
				}
			],
			"name": "ApprovalForAll",
			"type": "event"
		},
		{
			"anonymous": false,
			"inputs": [
				{
					"indexed": true,
					"internalType": "address",
					"name": "user",
					"type": "address"
				}
			],
			"name": "GasSponsorshipGranted",
			"type": "event"
		},
		{
			"anonymous": false,
			"inputs": [
				{
					"indexed": true,
					"internalType": "uint256",
					"name": "propertyId",
					"type": "uint256"
				},
				{
					"indexed": false,
					"internalType": "string",
					"name": "personaVerificationId",
					"type": "string"
				}
			],
			"name": "KYCProofLinked",
			"type": "event"
		},
		{
			"anonymous": false,
			"inputs": [
				{
					"indexed": false,
					"internalType": "uint256",
					"name": "oldFee",
					"type": "uint256"
				},
				{
					"indexed": false,
					"internalType": "uint256",
					"name": "newFee",
					"type": "uint256"
				}
			],
			"name": "ListingFeeUpdated",
			"type": "event"
		},
		{
			"anonymous": false,
			"inputs": [
				{
					"indexed": true,
					"internalType": "address",
					"name": "previousOwner",
					"type": "address"
				},
				{
					"indexed": true,
					"internalType": "address",
					"name": "newOwner",
					"type": "address"
				}
			],
			"name": "OwnershipTransferred",
			"type": "event"
		},
		{
			"anonymous": false,
			"inputs": [
				{
					"indexed": true,
					"internalType": "uint256",
					"name": "propertyId",
					"type": "uint256"
				},
				{
					"indexed": false,
					"internalType": "string",
					"name": "reason",
					"type": "string"
				}
			],
			"name": "PropertyDeactivated",
			"type": "event"
		},
		{
			"anonymous": false,
			"inputs": [
				{
					"indexed": true,
					"internalType": "uint256",
					"name": "propertyId",
					"type": "uint256"
				},
				{
					"indexed": true,
					"internalType": "address",
					"name": "landlord",
					"type": "address"
				},
				{
					"indexed": false,
					"internalType": "string",
					"name": "propertyAddress",
					"type": "string"
				},
				{
					"indexed": false,
					"internalType": "uint256",
					"name": "kycLevel",
					"type": "uint256"
				}
			],
			"name": "PropertySubmitted",
			"type": "event"
		},
		{
			"anonymous": false,
			"inputs": [
				{
					"indexed": true,
					"internalType": "uint256",
					"name": "propertyId",
					"type": "uint256"
				},
				{
					"indexed": true,
					"internalType": "address",
					"name": "verifier",
					"type": "address"
				},
				{
					"indexed": false,
					"internalType": "uint256",
					"name": "kycLevel",
					"type": "uint256"
				}
			],
			"name": "PropertyVerified",
			"type": "event"
		},
		{
			"anonymous": false,
			"inputs": [
				{
					"indexed": true,
					"internalType": "address",
					"name": "from",
					"type": "address"
				},
				{
					"indexed": true,
					"internalType": "address",
					"name": "to",
					"type": "address"
				},
				{
					"indexed": true,
					"internalType": "uint256",
					"name": "tokenId",
					"type": "uint256"
				}
			],
			"name": "Transfer",
			"type": "event"
		},
		{
			"inputs": [
				{
					"internalType": "address",
					"name": "to",
					"type": "address"
				},
				{
					"internalType": "uint256",
					"name": "tokenId",
					"type": "uint256"
				}
			],
			"name": "approve",
			"outputs": [],
			"stateMutability": "nonpayable",
			"type": "function"
		},
		{
			"inputs": [
				{
					"internalType": "address",
					"name": "owner",
					"type": "address"
				}
			],
			"name": "balanceOf",
			"outputs": [
				{
					"internalType": "uint256",
					"name": "",
					"type": "uint256"
				}
			],
			"stateMutability": "view",
			"type": "function"
		},
		{
			"inputs": [
				{
					"internalType": "uint256",
					"name": "propertyId",
					"type": "uint256"
				},
				{
					"internalType": "string",
					"name": "reason",
					"type": "string"
				}
			],
			"name": "deactivateProperty",
			"outputs": [],
			"stateMutability": "nonpayable",
			"type": "function"
		},
		{
			"inputs": [],
			"name": "emergencyWithdrawSponsorship",
			"outputs": [],
			"stateMutability": "nonpayable",
			"type": "function"
		},
		{
			"inputs": [],
			"name": "feeCollector",
			"outputs": [
				{
					"internalType": "address",
					"name": "",
					"type": "address"
				}
			],
			"stateMutability": "view",
			"type": "function"
		},
		{
			"inputs": [],
			"name": "fundSponsorshipPool",
			"outputs": [],
			"stateMutability": "payable",
			"type": "function"
		},
		{
			"inputs": [
				{
					"internalType": "address",
					"name": "",
					"type": "address"
				}
			],
			"name": "gasSponsored",
			"outputs": [
				{
					"internalType": "bool",
					"name": "",
					"type": "bool"
				}
			],
			"stateMutability": "view",
			"type": "function"
		},
		{
			"inputs": [
				{
					"internalType": "uint256",
					"name": "tokenId",
					"type": "uint256"
				}
			],
			"name": "getApproved",
			"outputs": [
				{
					"internalType": "address",
					"name": "",
					"type": "address"
				}
			],
			"stateMutability": "view",
			"type": "function"
		},
		{
			"inputs": [
				{
					"internalType": "uint256",
					"name": "propertyId",
					"type": "uint256"
				}
			],
			"name": "getKYCProof",
			"outputs": [
				{
					"internalType": "string",
					"name": "personaVerificationId",
					"type": "string"
				},
				{
					"internalType": "string",
					"name": "videoTimestamp",
					"type": "string"
				},
				{
					"internalType": "bool",
					"name": "governmentIdVerified",
					"type": "bool"
				},
				{
					"internalType": "bool",
					"name": "addressProofVerified",
					"type": "bool"
				}
			],
			"stateMutability": "view",
			"type": "function"
		},
		{
			"inputs": [
				{
					"internalType": "address",
					"name": "landlord",
					"type": "address"
				}
			],
			"name": "getLandlordProperties",
			"outputs": [
				{
					"internalType": "uint256[]",
					"name": "",
					"type": "uint256[]"
				}
			],
			"stateMutability": "view",
			"type": "function"
		},
		{
			"inputs": [],
			"name": "getListingFee",
			"outputs": [
				{
					"internalType": "uint256",
					"name": "",
					"type": "uint256"
				}
			],
			"stateMutability": "view",
			"type": "function"
		},
		{
			"inputs": [
				{
					"internalType": "uint256",
					"name": "propertyId",
					"type": "uint256"
				}
			],
			"name": "getPropertyDetails",
			"outputs": [
				{
					"internalType": "address",
					"name": "owner",
					"type": "address"
				},
				{
					"internalType": "string",
					"name": "propertyAddress",
					"type": "string"
				},
				{
					"internalType": "string",
					"name": "documentHash",
					"type": "string"
				},
				{
					"internalType": "string",
					"name": "videoHash",
					"type": "string"
				},
				{
					"internalType": "string",
					"name": "gpsCoordinates",
					"type": "string"
				},
				{
					"internalType": "uint256",
					"name": "verificationDate",
					"type": "uint256"
				},
				{
					"internalType": "bool",
					"name": "isVerified",
					"type": "bool"
				},
				{
					"internalType": "bool",
					"name": "isActive",
					"type": "bool"
				},
				{
					"internalType": "uint256",
					"name": "kycLevel",
					"type": "uint256"
				}
			],
			"stateMutability": "view",
			"type": "function"
		},
		{
			"inputs": [
				{
					"internalType": "uint256",
					"name": "propertyId",
					"type": "uint256"
				}
			],
			"name": "getPropertyOwner",
			"outputs": [
				{
					"internalType": "address",
					"name": "",
					"type": "address"
				}
			],
			"stateMutability": "view",
			"type": "function"
		},
		{
			"inputs": [
				{
					"internalType": "address",
					"name": "user",
					"type": "address"
				}
			],
			"name": "grantGasSponsorship",
			"outputs": [],
			"stateMutability": "nonpayable",
			"type": "function"
		},
		{
			"inputs": [
				{
					"internalType": "address",
					"name": "owner",
					"type": "address"
				},
				{
					"internalType": "address",
					"name": "operator",
					"type": "address"
				}
			],
			"name": "isApprovedForAll",
			"outputs": [
				{
					"internalType": "bool",
					"name": "",
					"type": "bool"
				}
			],
			"stateMutability": "view",
			"type": "function"
		},
		{
			"inputs": [
				{
					"internalType": "uint256",
					"name": "propertyId",
					"type": "uint256"
				}
			],
			"name": "isPropertyVerified",
			"outputs": [
				{
					"internalType": "bool",
					"name": "",
					"type": "bool"
				}
			],
			"stateMutability": "view",
			"type": "function"
		},
		{
			"inputs": [],
			"name": "kycProcessingFee",
			"outputs": [
				{
					"internalType": "uint256",
					"name": "",
					"type": "uint256"
				}
			],
			"stateMutability": "view",
			"type": "function"
		},
		{
			"inputs": [
				{
					"internalType": "uint256",
					"name": "",
					"type": "uint256"
				}
			],
			"name": "kycProofs",
			"outputs": [
				{
					"internalType": "string",
					"name": "personaVerificationId",
					"type": "string"
				},
				{
					"internalType": "string",
					"name": "videoTimestamp",
					"type": "string"
				},
				{
					"internalType": "bool",
					"name": "governmentIdVerified",
					"type": "bool"
				},
				{
					"internalType": "bool",
					"name": "addressProofVerified",
					"type": "bool"
				}
			],
			"stateMutability": "view",
			"type": "function"
		},
		{
			"inputs": [
				{
					"internalType": "address",
					"name": "",
					"type": "address"
				},
				{
					"internalType": "uint256",
					"name": "",
					"type": "uint256"
				}
			],
			"name": "landlordProperties",
			"outputs": [
				{
					"internalType": "uint256",
					"name": "",
					"type": "uint256"
				}
			],
			"stateMutability": "view",
			"type": "function"
		},
		{
			"inputs": [
				{
					"internalType": "uint256",
					"name": "propertyId",
					"type": "uint256"
				},
				{
					"internalType": "string",
					"name": "_personaVerificationId",
					"type": "string"
				},
				{
					"internalType": "string",
					"name": "_videoTimestamp",
					"type": "string"
				},
				{
					"internalType": "bool",
					"name": "_governmentIdVerified",
					"type": "bool"
				},
				{
					"internalType": "bool",
					"name": "_addressProofVerified",
					"type": "bool"
				}
			],
			"name": "linkKYCProof",
			"outputs": [],
			"stateMutability": "nonpayable",
			"type": "function"
		},
		{
			"inputs": [],
			"name": "listingFee",
			"outputs": [
				{
					"internalType": "uint256",
					"name": "",
					"type": "uint256"
				}
			],
			"stateMutability": "view",
			"type": "function"
		},
		{
			"inputs": [],
			"name": "name",
			"outputs": [
				{
					"internalType": "string",
					"name": "",
					"type": "string"
				}
			],
			"stateMutability": "view",
			"type": "function"
		},
		{
			"inputs": [],
			"name": "owner",
			"outputs": [
				{
					"internalType": "address",
					"name": "",
					"type": "address"
				}
			],
			"stateMutability": "view",
			"type": "function"
		},
		{
			"inputs": [
				{
					"internalType": "uint256",
					"name": "tokenId",
					"type": "uint256"
				}
			],
			"name": "ownerOf",
			"outputs": [
				{
					"internalType": "address",
					"name": "",
					"type": "address"
				}
			],
			"stateMutability": "view",
			"type": "function"
		},
		{
			"inputs": [
				{
					"internalType": "uint256",
					"name": "",
					"type": "uint256"
				}
			],
			"name": "properties",
			"outputs": [
				{
					"internalType": "address",
					"name": "owner",
					"type": "address"
				},
				{
					"internalType": "string",
					"name": "propertyAddress",
					"type": "string"
				},
				{
					"internalType": "string",
					"name": "documentHash",
					"type": "string"
				},
				{
					"internalType": "string",
					"name": "videoHash",
					"type": "string"
				},
				{
					"internalType": "string",
					"name": "gpsCoordinates",
					"type": "string"
				},
				{
					"internalType": "uint256",
					"name": "verificationDate",
					"type": "uint256"
				},
				{
					"internalType": "bool",
					"name": "isVerified",
					"type": "bool"
				},
				{
					"internalType": "bool",
					"name": "isActive",
					"type": "bool"
				},
				{
					"internalType": "uint256",
					"name": "kycLevel",
					"type": "uint256"
				}
			],
			"stateMutability": "view",
			"type": "function"
		},
		{
			"inputs": [],
			"name": "renounceOwnership",
			"outputs": [],
			"stateMutability": "nonpayable",
			"type": "function"
		},
		{
			"inputs": [
				{
					"internalType": "address",
					"name": "from",
					"type": "address"
				},
				{
					"internalType": "address",
					"name": "to",
					"type": "address"
				},
				{
					"internalType": "uint256",
					"name": "tokenId",
					"type": "uint256"
				}
			],
			"name": "safeTransferFrom",
			"outputs": [],
			"stateMutability": "nonpayable",
			"type": "function"
		},
		{
			"inputs": [
				{
					"internalType": "address",
					"name": "from",
					"type": "address"
				},
				{
					"internalType": "address",
					"name": "to",
					"type": "address"
				},
				{
					"internalType": "uint256",
					"name": "tokenId",
					"type": "uint256"
				},
				{
					"internalType": "bytes",
					"name": "data",
					"type": "bytes"
				}
			],
			"name": "safeTransferFrom",
			"outputs": [],
			"stateMutability": "nonpayable",
			"type": "function"
		},
		{
			"inputs": [
				{
					"internalType": "address",
					"name": "operator",
					"type": "address"
				},
				{
					"internalType": "bool",
					"name": "approved",
					"type": "bool"
				}
			],
			"name": "setApprovalForAll",
			"outputs": [],
			"stateMutability": "nonpayable",
			"type": "function"
		},
		{
			"inputs": [],
			"name": "sponsorshipPool",
			"outputs": [
				{
					"internalType": "uint256",
					"name": "",
					"type": "uint256"
				}
			],
			"stateMutability": "view",
			"type": "function"
		},
		{
			"inputs": [
				{
					"internalType": "string",
					"name": "_propertyAddress",
					"type": "string"
				},
				{
					"internalType": "string",
					"name": "_documentHash",
					"type": "string"
				},
				{
					"internalType": "string",
					"name": "_videoHash",
					"type": "string"
				},
				{
					"internalType": "string",
					"name": "_gpsCoordinates",
					"type": "string"
				},
				{
					"internalType": "uint256",
					"name": "_kycLevel",
					"type": "uint256"
				}
			],
			"name": "submitProperty",
			"outputs": [
				{
					"internalType": "uint256",
					"name": "",
					"type": "uint256"
				}
			],
			"stateMutability": "payable",
			"type": "function"
		},
		{
			"inputs": [
				{
					"internalType": "bytes4",
					"name": "interfaceId",
					"type": "bytes4"
				}
			],
			"name": "supportsInterface",
			"outputs": [
				{
					"internalType": "bool",
					"name": "",
					"type": "bool"
				}
			],
			"stateMutability": "view",
			"type": "function"
		},
		{
			"inputs": [],
			"name": "symbol",
			"outputs": [
				{
					"internalType": "string",
					"name": "",
					"type": "string"
				}
			],
			"stateMutability": "view",
			"type": "function"
		},
		{
			"inputs": [
				{
					"internalType": "uint256",
					"name": "tokenId",
					"type": "uint256"
				}
			],
			"name": "tokenURI",
			"outputs": [
				{
					"internalType": "string",
					"name": "",
					"type": "string"
				}
			],
			"stateMutability": "view",
			"type": "function"
		},
		{
			"inputs": [
				{
					"internalType": "address",
					"name": "from",
					"type": "address"
				},
				{
					"internalType": "address",
					"name": "to",
					"type": "address"
				},
				{
					"internalType": "uint256",
					"name": "tokenId",
					"type": "uint256"
				}
			],
			"name": "transferFrom",
			"outputs": [],
			"stateMutability": "nonpayable",
			"type": "function"
		},
		{
			"inputs": [
				{
					"internalType": "address",
					"name": "newOwner",
					"type": "address"
				}
			],
			"name": "transferOwnership",
			"outputs": [],
			"stateMutability": "nonpayable",
			"type": "function"
		},
		{
			"inputs": [
				{
					"internalType": "uint256",
					"name": "newFee",
					"type": "uint256"
				}
			],
			"name": "updateKYCFee",
			"outputs": [],
			"stateMutability": "nonpayable",
			"type": "function"
		},
		{
			"inputs": [
				{
					"internalType": "uint256",
					"name": "newFee",
					"type": "uint256"
				}
			],
			"name": "updateListingFee",
			"outputs": [],
			"stateMutability": "nonpayable",
			"type": "function"
		},
		{
			"inputs": [
				{
					"internalType": "uint256",
					"name": "propertyId",
					"type": "uint256"
				}
			],
			"name": "verifyProperty",
			"outputs": [],
			"stateMutability": "nonpayable",
			"type": "function"
		}
	]
}