{
	"data": {
		"bytecode": {
			"linkReferences": {},
			"object": "60806040523461033657604080519081016001600160401b0381118282101761024c576040908152601982527f54727573744c656173652052656e74616c205265636569707400000000000000602083015280519081016001600160401b0381118282101761024c5760405260048152632a26292960e11b602082015281516001600160401b03811161024c575f54600181811c9116801561032c575b602082101461022e57601f81116102ca575b50602092601f821160011461026b57928192935f92610260575b50508160011b915f199060031b1c1916175f555b80516001600160401b03811161024c57600154600181811c91168015610242575b602082101461022e57601f81116101cb575b50602091601f821160011461016b579181925f92610160575b50508160011b915f199060031b1c1916176001555b600160075561014b3361033a565b50600160085560405161228d90816103c48239f35b015190505f80610128565b601f1982169260015f52805f20915f5b8581106101b35750836001951061019b575b505050811b0160015561013d565b01515f1960f88460031b161c191690555f808061018d565b9192602060018192868501518155019401920161017b565b60015f527fb10e2d527612073b26eecdfd717e6a320cf44b4afac2b0732d9fcbe2b7fa0cf6601f830160051c81019160208410610224575b601f0160051c01905b818110610219575061010f565b5f815560010161020c565b9091508190610203565b634e487b7160e01b5f52602260045260245ffd5b90607f16906100fd565b634e487b7160e01b5f52604160045260245ffd5b015190505f806100c8565b601f198216935f8052805f20915f5b8681106102b2575083600195961061029a575b505050811b015f556100dc565b01515f1960f88460031b161c191690555f808061028d565b9192602060018192868501518155019401920161027a565b5f80527f290decd9548b62a8d60345a988386fc84ba6bc95484008f6362f93160ef3e563601f830160051c81019160208410610322575b601f0160051c01905b81811061031757506100ae565b5f815560010161030a565b9091508190610301565b90607f169061009c565b5f80fd5b6001600160a01b0381165f9081525f5160206126515f395f51905f52602052604090205460ff166103be576001600160a01b03165f8181525f5160206126515f395f51905f5260205260408120805460ff191660011790553391907f2f8788117e7eff1d82e926ec794901d17c78024a50270940304540a733656f0d8180a4600190565b505f9056fe6080806040526004361015610012575f80fd5b5f905f3560e01c90816301ffc9a7146114b15750806306fdde031461140f578063081812fc146113d3578063095ea7b3146112e95780630d214345146112775780630f7ee1ec146111f757806323b872dd146111e0578063248a9ca3146111ad5780632f2ff15d1461116f57806336568abe1461112b57806342842e0e146110fc5780636352211e146110cc57806370a082311461107b57806372e1d047146110445780638e767f4314610fd457806391d1485414610f8b578063942c587514610deb57806395d89b4114610d0d578063a217fddf14610cf3578063a22cb46514610c58578063b63e6ac314610b55578063b88d4fde14610ae7578063c274cb5614610731578063c87b56dd146106d4578063d2d8fd5d14610314578063d5391393146102d9578063d547741f14610295578063d7d7a7511461023e578063e985e9c5146101e65763fca3b5aa14610168575f80fd5b346101e35760203660031901126101e35761018161155a565b610189611b92565b6001600160a01b038116156101a5576101a190611c8a565b5080f35b60405162461bcd60e51b8152602060048201526016602482015275496e76616c696420657363726f77206164647265737360501b6044820152606490fd5b80fd5b50346101e35760403660031901126101e357604061020261155a565b9161020b611570565b9260018060a01b031681526005602052209060018060a01b03165f52602052602060ff60405f2054166040519015158152f35b50346101e35760403660031901126101e35761025861155a565b6001600160a01b03168152600a60205260408120805460243592908310156101e3576020610286848461177c565b90549060031b1c604051908152f35b50346101e35760403660031901126101e3576101a16004356102b5611570565b906102d46102cf825f526006602052600160405f20015490565b611c50565b611de7565b50346101e357806003193601126101e35760206040517f9f2df0fed2c77648de5860a4cc508cd0818c85b8b8a1ab4ceeef8d981c8956a68152f35b50346101e357610323366117f7565b9692506103339791959497611be1565b61033b611fa1565b6001600160a01b03831694610351861515611a3f565b6001600160a01b031695610366871515611a84565b841561068557808211156106485761038088511515611ad0565b60085497889161038f83611b15565b6008556040519361039f856115f7565b8585526020850191898352604086018b81528d6060880190815260808801918b835260a0890193845260c0890194855260e08901954287526101008a019788526101208a0198808a528b52600960205260408b209951906002821015610634578a549051610100600160a81b0360089190911b1660ff929092166001600160a81b031990911617178955516001890180546001600160a01b039092166001600160a01b0319909216919091179055516002880155516003870155516004860155516005850155516006840155518051600784019167ffffffffffffffff82116106205761048c83546115bf565b601f81116105db575b509185939160209c9795938c9997508d90601f831160011461053a578661050b9660088d975f5160206122385f395f51905f529d9b97876105069860809f9d986040988d9a9261052f575b50508160011b915f199060031b1c19161790555b519101558c81528f600a905220611b37565b611fc1565b604051915f8352898301526040820152836060820152a46001600755604051908152f35b015190505f806104e0565b8387528187209190601f198416885b8181106105a957509660088d975f5160206122385f395f51905f529d9b9760018860809f9d96986040988d9a61050b9f9c6105069d10610591575b505050811b0190556104f4565b01515f1960f88460031b161c191690555f8080610584565b93602091929395969798999a9b9c9d50600182918786015181550195019301908f9c9b9a999897969594939291610549565b83875260208720601f840160051c81019160208510610616575b601f0160051c01905b81811061060b5750610495565b5f81556001016105fe565b90915081906105f5565b634e487b7160e01b86526041600452602486fd5b634e487b7160e01b8c52602160045260248cfd5b60405162461bcd60e51b8152602060048201526015602482015274125b9d985b1a59081c995b9d185b081c195c9a5bd9605a1b6044820152606490fd5b60405162461bcd60e51b815260206004820152602160248201527f4465706f736974206d7573742062652067726561746572207468616e207a65726044820152606f60f81b6064820152608490fd5b3461072d57602036600319011261072d576106f0600435611b70565b505f604051610700602082611614565b52610729604051610712602082611614565b5f8152604051918291602083526020830190611536565b0390f35b5f80fd5b3461072d5761073f366117f7565b9492959396919061074e611be1565b610756611fa1565b6001600160a01b0383169461076c861515611a3f565b6001600160a01b031695610781871515611a84565b8815610aa25782821115610a6c5761079b81511515611ad0565b6008549788926107aa84611b15565b600855604051946107ba866115f7565b600186528b602087018a8152604088018c815260608901915f835260808a0193845260a08a0194855260c08a0195865260e08a019687526101008a019788526101208a01988c8a525f52600960205260405f209951906002821015610a58578a549051610100600160a81b0360089190911b1660ff929092166001600160a81b031990911617178955516001890180546001600160a01b039092166001600160a01b0319909216919091179055516002880155516003870155516004860155516005850155516006840155518051600784019167ffffffffffffffff8211610a44576108a683546115bf565b601f81116109ff575b509160209a9593918a9795938c90601f831160011461095f5761092f948a94845f5160206122385f395f51905f529b999560809b99956008955f92610954575b50508160011b915f199060031b1c19161790555b51910155885f52600a8c5261091b8260405f20611b37565b835f52600b8c526105068260405f20611b37565b60405191600183525f8a84015260408301526060820152a46001600755604051908152f35b015190505f806108ef565b601f9998979695949392919919821690835f528a5f20915f5b8181106109d05750936001846008948d9e5f5160206122385f395f51905f529e999561092f9b9860809f9e9d9a106109b8575b505050811b019055610903565b01515f1960f88460031b161c191690555f80806109ab565b939597999b9496989a5090918f600181928786015181550195019301908e9a98969492919b999795939b610978565b835f5260205f20601f840160051c81019160208510610a3a575b601f0160051c01905b818110610a2f57506108af565b5f8155600101610a22565b9091508190610a19565b634e487b7160e01b5f52604160045260245ffd5b634e487b7160e01b5f52602160045260245ffd5b60405162461bcd60e51b815260206004820152600e60248201526d125b9d985b1a59081c195c9a5bd960921b6044820152606490fd5b60405162461bcd60e51b815260206004820152601e60248201527f52656e74206d7573742062652067726561746572207468616e207a65726f00006044820152606490fd5b3461072d57608036600319011261072d57610b0061155a565b610b08611570565b906044356064359267ffffffffffffffff841161072d573660238501121561072d57610b41610b539436906024816004013591016117c1565b92610b4d838383611874565b33611e6b565b005b3461072d57602036600319011261072d576004355f52600960205260405f2060405190610b81826115f7565b805460ff81166002811015610a58578352602083019060018060a01b039060081c16815260018060a01b0360018301541692604081019384526002830154906060810191825260038401549360808201948552600481015460a08301908152600582015460c0840190815260068301549160e085019283526008610c0760078601611636565b946101008701958652015494610120810195865251976002891015610a5857965198519551965190519151925193519451604051998a996107299992986001600160a01b039081169216908b6116d6565b3461072d57604036600319011261072d57610c7161155a565b6024359081151580920361072d576001600160a01b0316908115610ce057335f52600560205260405f20825f5260205260405f2060ff1981541660ff83161790556040519081527f17307eab39ab6107e8899845ad3d59bd9653f200f220920489ca2b5937696c3160203392a3005b50630b61174360e31b5f5260045260245ffd5b3461072d575f36600319011261072d5760206040515f8152f35b3461072d575f36600319011261072d576040515f600154610d2d816115bf565b8084529060018116908115610dc75750600114610d69575b61072983610d5581850382611614565b604051918291602083526020830190611536565b60015f9081527fb10e2d527612073b26eecdfd717e6a320cf44b4afac2b0732d9fcbe2b7fa0cf6939250905b808210610dad57509091508101602001610d55610d45565b919260018160209254838588010152019101909291610d95565b60ff191660208086019190915291151560051b84019091019150610d559050610d45565b3461072d57602036600319011261072d57600435610e07611b92565b5f818152600260205260409020546001600160a01b031615610f4d575f818152600260205260409020546001600160a01b0316151580610f46575b610ef5575f818152600260205260409020546001600160a01b03168015908115610ec2575b5f83815260026020526040812080546001600160a01b03191690558390827fddf252ad1be2c89b69c2b068fc378daa952ba7f163c4a11628f55a4df523b3ef8280a450610eb057005b637e27328960e01b5f5260045260245ffd5b5f83815260046020526040902080546001600160a01b0319169055805f52600360205260405f205f198154019055610e67565b60405162461bcd60e51b8152602060048201526024808201527f52656e74616c20726563656970747320617265206e6f6e2d7472616e7366657260448201526361626c6560e01b6064820152608490fd5b505f610e42565b60405162461bcd60e51b8152602060048201526016602482015275149958d95a5c1d08191bd95cc81b9bdd08195e1a5cdd60521b6044820152606490fd5b3461072d57604036600319011261072d57610fa4611570565b6004355f52600660205260405f209060018060a01b03165f52602052602060ff60405f2054166040519015158152f35b3461072d57602036600319011261072d576004355f52600b60205260405f206040519081602082549182815201915f5260205f20905f5b81811061102e576107298561102281870382611614565b60405191829182611586565b825484526020909301926001928301920161100b565b3461072d57604036600319011261072d576024356004355f52600b60205260405f20805482101561072d576020916102869161177c565b3461072d57602036600319011261072d576001600160a01b0361109c61155a565b1680156110b9575f526003602052602060405f2054604051908152f35b6322718ad960e21b5f525f60045260245ffd5b3461072d57602036600319011261072d5760206110ea600435611b70565b6040516001600160a01b039091168152f35b3461072d57610b5361110d36611742565b906040519261111d602085611614565b5f8452610b4d838383611874565b3461072d57604036600319011261072d57611144611570565b336001600160a01b0382160361116057610b5390600435611de7565b63334bd91960e11b5f5260045ffd5b3461072d57604036600319011261072d57610b5360043561118e611570565b906111a86102cf825f526006602052600160405f20015490565b611d5b565b3461072d57602036600319011261072d5760206111d86004355f526006602052600160405f20015490565b604051908152f35b3461072d57610b536111f136611742565b91611874565b3461072d57602036600319011261072d576004355f52600960205260405f20805461072960018060a01b036001840154169260028101549060038101546004820154600583015490600684015492600861125360078701611636565b950154604051998a99919791600881901c6001600160a01b03169060ff168b6116d6565b3461072d57602036600319011261072d576001600160a01b0361129861155a565b165f52600a60205260405f206040519081602082549182815201915f5260205f20905f5b8181106112d3576107298561102281870382611614565b82548452602090930192600192830192016112bc565b3461072d57604036600319011261072d5761130261155a565b60243561130e81611b70565b331515806113c0575b80611393575b6113805781906001600160a01b0384811691167f8c5be1e5ebec7d5bd14f71427d1e84f3dd0314c0f7b2291e5b200ac8c7c3b9255f80a45f90815260046020526040902080546001600160a01b0319166001600160a01b03909216919091179055005b63a9fbf51f60e01b5f523360045260245ffd5b506001600160a01b0381165f90815260056020908152604080832033845290915290205460ff161561131d565b506001600160a01b038116331415611317565b3461072d57602036600319011261072d576004356113f081611b70565b505f526004602052602060018060a01b0360405f205416604051908152f35b3461072d575f36600319011261072d576040515f5f5461142e816115bf565b8084529060018116908115610dc757506001146114555761072983610d5581850382611614565b5f8080527f290decd9548b62a8d60345a988386fc84ba6bc95484008f6362f93160ef3e563939250905b80821061149757509091508101602001610d55610d45565b91926001816020925483858801015201910190929161147f565b3461072d57602036600319011261072d576004359063ffffffff60e01b821680920361072d57602091637965db0b60e01b81149081156114f3575b5015158152f35b6380ac58cd60e01b811491508115611525575b8115611514575b50836114ec565b6301ffc9a760e01b1490508361150d565b635b5e139f60e01b81149150611506565b805180835260209291819084018484015e5f828201840152601f01601f1916010190565b600435906001600160a01b038216820361072d57565b602435906001600160a01b038216820361072d57565b60206040818301928281528451809452019201905f5b8181106115a95750505090565b825184526020938401939092019160010161159c565b90600182811c921680156115ed575b60208310146115d957565b634e487b7160e01b5f52602260045260245ffd5b91607f16916115ce565b610140810190811067ffffffffffffffff821117610a4457604052565b90601f8019910116810190811067ffffffffffffffff821117610a4457604052565b9060405191825f825492611649846115bf565b80845293600181169081156116b45750600114611670575b5061166e92500383611614565b565b90505f9291925260205f20905f915b81831061169857505090602061166e928201015f611661565b602091935080600191548385890101520191019091849261167f565b90506020925061166e94915060ff191682840152151560051b8201015f611661565b9a9998959297949197969390966002881015610a58576101209861173d988d5260018060a01b031660208d015260018060a01b031660408c015260608b015260808a015260a089015260c088015260e0870152610140610100870152610140860190611536565b930152565b606090600319011261072d576004356001600160a01b038116810361072d57906024356001600160a01b038116810361072d579060443590565b8054821015611791575f5260205f2001905f90565b634e487b7160e01b5f52603260045260245ffd5b67ffffffffffffffff8111610a4457601f01601f191660200190565b9291926117cd826117a5565b916117db6040519384611614565b82948184528183011161072d578281602093845f960137010152565b9061010060031983011261072d576004356001600160a01b038116810361072d57916024356001600160a01b038116810361072d579160443591606435916084359160a4359160c4359160e4359067ffffffffffffffff821161072d578060238301121561072d57816024611871936004013591016117c1565b90565b6001600160a01b0390911691908215611a2c575f828152600260205260409020546001600160a01b0316151580611a24575b610ef5575f828152600260205260409020546001600160a01b03169282903315158061198f575b508461195c575b805f52600360205260405f2060018154019055815f52600260205260405f20816bffffffffffffffffffffffff60a01b825416179055847fddf252ad1be2c89b69c2b068fc378daa952ba7f163c4a11628f55a4df523b3ef5f80a46001600160a01b031680830361194457505050565b6364283d7b60e01b5f5260045260245260445260645ffd5b5f82815260046020526040902080546001600160a01b0319169055845f52600360205260405f205f1981540190556118d4565b909150806119d3575b156119a55782905f6118cd565b82846119bd57637e27328960e01b5f5260045260245ffd5b63177e802f60e01b5f523360045260245260445ffd5b503384148015611a02575b8061199857505f838152600460205260409020546001600160a01b03163314611998565b505f84815260056020908152604080832033845290915290205460ff166119de565b5060016118a6565b633250574960e11b5f525f60045260245ffd5b15611a4657565b60405162461bcd60e51b8152602060048201526016602482015275496e76616c69642074656e616e74206164647265737360501b6044820152606490fd5b15611a8b57565b60405162461bcd60e51b815260206004820152601860248201527f496e76616c6964206c616e646c6f7264206164647265737300000000000000006044820152606490fd5b15611ad757565b60405162461bcd60e51b815260206004820152601660248201527513595d1859185d18481a185cda081c995c5d5a5c995960521b6044820152606490fd5b5f198114611b235760010190565b634e487b7160e01b5f52601160045260245ffd5b805468010000000000000000811015610a4457611b599160018201815561177c565b819291549060031b91821b915f19901b1916179055565b5f818152600260205260409020546001600160a01b0316908115610eb0575090565b335f9081527f54cdd369e4e8a8515e52ca72ec816c2101831ad1f18bf44102ed171459c9b4f8602052604090205460ff1615611bca57565b63e2517d3f60e01b5f52336004525f60245260445ffd5b335f9081527f3195c024b2ddd6d9b8f6c836aa52f67fe69376c8903d009b80229b3ce4425f51602052604090205460ff1615611c1957565b63e2517d3f60e01b5f52336004527f9f2df0fed2c77648de5860a4cc508cd0818c85b8b8a1ab4ceeef8d981c8956a660245260445ffd5b5f81815260066020908152604080832033845290915290205460ff1615611c745750565b63e2517d3f60e01b5f523360045260245260445ffd5b6001600160a01b0381165f9081527f3195c024b2ddd6d9b8f6c836aa52f67fe69376c8903d009b80229b3ce4425f51602052604090205460ff16611d56576001600160a01b03165f8181527f3195c024b2ddd6d9b8f6c836aa52f67fe69376c8903d009b80229b3ce4425f5160205260408120805460ff191660011790553391907f9f2df0fed2c77648de5860a4cc508cd0818c85b8b8a1ab4ceeef8d981c8956a6907f2f8788117e7eff1d82e926ec794901d17c78024a50270940304540a733656f0d9080a4600190565b505f90565b5f8181526006602090815260408083206001600160a01b038616845290915290205460ff16611de1575f8181526006602090815260408083206001600160a01b0395909516808452949091528120805460ff19166001179055339291907f2f8788117e7eff1d82e926ec794901d17c78024a50270940304540a733656f0d9080a4600190565b50505f90565b5f8181526006602090815260408083206001600160a01b038616845290915290205460ff1615611de1575f8181526006602090815260408083206001600160a01b0395909516808452949091528120805460ff19169055339291907ff6391f5c32d9c69d2a47ea670b442974b53935d1edc7fd64eb21e047a839171b9080a4600190565b823b611e79575b5050505050565b604051630a85bd0160e11b81526001600160a01b039182166004820152918116602483015260448201939093526080606482015291169160209082908190611ec5906084830190611536565b03815f865af15f9181611f5c575b50611f2857503d15611f21573d611ee9816117a5565b90611ef76040519283611614565b81523d5f602083013e5b80519081611f1c5782633250574960e11b5f5260045260245ffd5b602001fd5b6060611f01565b6001600160e01b03191663757a42ff60e11b01611f4a57505f80808080611e72565b633250574960e11b5f5260045260245ffd5b9091506020813d602011611f99575b81611f7860209383611614565b8101031261072d57516001600160e01b03198116810361072d57905f611ed3565b3d9150611f6b565b600260075414611fb2576002600755565b633ee5aeb560e01b5f5260045ffd5b9060209060405190611fd38383611614565b5f82526001600160a01b038416938415611a2c575f8281526002855260409020546001600160a01b031615158061222f575b6121de575f8281526002855260409020546001600160a01b031680151590816121ad575b865f526003865260405f2060018154019055835f526002865260405f20876bffffffffffffffffffffffff60a01b8254161790558387827fddf252ad1be2c89b69c2b068fc378daa952ba7f163c4a11628f55a4df523b3ef5f80a45061219a573b612095575b50505050565b916120d291819495936040519384928392630a85bd0160e11b84523360048501525f60248501526044840152608060648401526084830190611536565b03815f885af15f918161215a575b506121355750503d1561212d573d906120f8826117a5565b916121066040519384611614565b82523d5f8284013e5b8151918261212a5783633250574960e11b5f5260045260245ffd5b01fd5b60609061210f565b909291506001600160e01b03191663757a42ff60e11b01611f4a57505f80808061208f565b9091508381813d8311612193575b6121728183611614565b8101031261072d57516001600160e01b03198116810361072d57905f6120e0565b503d612168565b6339e3563760e11b5f525f60045260245ffd5b5f8481526004602052604080822080546001600160a01b031916905582825260038852902080545f19019055612029565b60405162461bcd60e51b8152600481018590526024808201527f52656e74616c20726563656970747320617265206e6f6e2d7472616e7366657260448201526361626c6560e01b6064820152608490fd5b50600161200556feea7c9386e3a2a10362ff36a32254465d5b26d5d224b6a956829847e6731b0f5ea2646970667358221220c39d25f1281cef6d9b11f8188e82f67f7a8975ab66227cbf3b05f7c4a206774964736f6c634300081c003354cdd369e4e8a8515e52ca72ec816c2101831ad1f18bf44102ed171459c9b4f8",
			"opcodes": "PUSH1 0x80 PUSH1 0x40 MSTORE CALLVALUE PUSH2 0x336 JUMPI PUSH1 0x40 DUP1 MLOAD SWAP1 DUP2 ADD PUSH1 0x1 PUSH1 0x1 PUSH1 0x40 SHL SUB DUP2 GT DUP3 DUP3 LT OR PUSH2 0x24C JUMPI PUSH1 0x40 SWAP1 DUP2 MSTORE PUSH1 0x19 DUP3 MSTORE PUSH32 0x54727573744C656173652052656E74616C205265636569707400000000000000 PUSH1 0x20 DUP4 ADD MSTORE DUP1 MLOAD SWAP1 DUP2 ADD PUSH1 0x1 PUSH1 0x1 PUSH1 0x40 SHL SUB DUP2 GT DUP3 DUP3 LT OR PUSH2 0x24C JUMPI PUSH1 0x40 MSTORE PUSH1 0x4 DUP2 MSTORE PUSH4 0x2A262929 PUSH1 0xE1 SHL PUSH1 0x20 DUP3 ADD MSTORE DUP2 MLOAD PUSH1 0x1 PUSH1 0x1 PUSH1 0x40 SHL SUB DUP2 GT PUSH2 0x24C JUMPI PUSH0 SLOAD PUSH1 0x1 DUP2 DUP2 SHR SWAP2 AND DUP1 ISZERO PUSH2 0x32C JUMPI JUMPDEST PUSH1 0x20 DUP3 LT EQ PUSH2 0x22E JUMPI PUSH1 0x1F DUP2 GT PUSH2 0x2CA JUMPI JUMPDEST POP PUSH1 0x20 SWAP3 PUSH1 0x1F DUP3 GT PUSH1 0x1 EQ PUSH2 0x26B JUMPI SWAP3 DUP2 SWAP3 SWAP4 PUSH0 SWAP3 PUSH2 0x260 JUMPI JUMPDEST POP POP DUP2 PUSH1 0x1 SHL SWAP2 PUSH0 NOT SWAP1 PUSH1 0x3 SHL SHR NOT AND OR PUSH0 SSTORE JUMPDEST DUP1 MLOAD PUSH1 0x1 PUSH1 0x1 PUSH1 0x40 SHL SUB DUP2 GT PUSH2 0x24C JUMPI PUSH1 0x1 SLOAD PUSH1 0x1 DUP2 DUP2 SHR SWAP2 AND DUP1 ISZERO PUSH2 0x242 JUMPI JUMPDEST PUSH1 0x20 DUP3 LT EQ PUSH2 0x22E JUMPI PUSH1 0x1F DUP2 GT PUSH2 0x1CB JUMPI JUMPDEST POP PUSH1 0x20 SWAP2 PUSH1 0x1F DUP3 GT PUSH1 0x1 EQ PUSH2 0x16B JUMPI SWAP2 DUP2 SWAP3 PUSH0 SWAP3 PUSH2 0x160 JUMPI JUMPDEST POP POP DUP2 PUSH1 0x1 SHL SWAP2 PUSH0 NOT SWAP1 PUSH1 0x3 SHL SHR NOT AND OR PUSH1 0x1 SSTORE JUMPDEST PUSH1 0x1 PUSH1 0x7 SSTORE PUSH2 0x14B CALLER PUSH2 0x33A JUMP JUMPDEST POP PUSH1 0x1 PUSH1 0x8 SSTORE PUSH1 0x40 MLOAD PUSH2 0x228D SWAP1 DUP2 PUSH2 0x3C4 DUP3 CODECOPY RETURN JUMPDEST ADD MLOAD SWAP1 POP PUSH0 DUP1 PUSH2 0x128 JUMP JUMPDEST PUSH1 0x1F NOT DUP3 AND SWAP3 PUSH1 0x1 PUSH0 MSTORE DUP1 PUSH0 KECCAK256 SWAP2 PUSH0 JUMPDEST DUP6 DUP2 LT PUSH2 0x1B3 JUMPI POP DUP4 PUSH1 0x1 SWAP6 LT PUSH2 0x19B JUMPI JUMPDEST POP POP POP DUP2 SHL ADD PUSH1 0x1 SSTORE PUSH2 0x13D JUMP JUMPDEST ADD MLOAD PUSH0 NOT PUSH1 0xF8 DUP5 PUSH1 0x3 SHL AND SHR NOT AND SWAP1 SSTORE PUSH0 DUP1 DUP1 PUSH2 0x18D JUMP JUMPDEST SWAP2 SWAP3 PUSH1 0x20 PUSH1 0x1 DUP2 SWAP3 DUP7 DUP6 ADD MLOAD DUP2 SSTORE ADD SWAP5 ADD SWAP3 ADD PUSH2 0x17B JUMP JUMPDEST PUSH1 0x1 PUSH0 MSTORE PUSH32 0xB10E2D527612073B26EECDFD717E6A320CF44B4AFAC2B0732D9FCBE2B7FA0CF6 PUSH1 0x1F DUP4 ADD PUSH1 0x5 SHR DUP2 ADD SWAP2 PUSH1 0x20 DUP5 LT PUSH2 0x224 JUMPI JUMPDEST PUSH1 0x1F ADD PUSH1 0x5 SHR ADD SWAP1 JUMPDEST DUP2 DUP2 LT PUSH2 0x219 JUMPI POP PUSH2 0x10F JUMP JUMPDEST PUSH0 DUP2 SSTORE PUSH1 0x1 ADD PUSH2 0x20C JUMP JUMPDEST SWAP1 SWAP2 POP DUP2 SWAP1 PUSH2 0x203 JUMP JUMPDEST PUSH4 0x4E487B71 PUSH1 0xE0 SHL PUSH0 MSTORE PUSH1 0x22 PUSH1 0x4 MSTORE PUSH1 0x24 PUSH0 REVERT JUMPDEST SWAP1 PUSH1 0x7F AND SWAP1 PUSH2 0xFD JUMP JUMPDEST PUSH4 0x4E487B71 PUSH1 0xE0 SHL PUSH0 MSTORE PUSH1 0x41 PUSH1 0x4 MSTORE PUSH1 0x24 PUSH0 REVERT JUMPDEST ADD MLOAD SWAP1 POP PUSH0 DUP1 PUSH2 0xC8 JUMP JUMPDEST PUSH1 0x1F NOT DUP3 AND SWAP4 PUSH0 DUP1 MSTORE DUP1 PUSH0 KECCAK256 SWAP2 PUSH0 JUMPDEST DUP7 DUP2 LT PUSH2 0x2B2 JUMPI POP DUP4 PUSH1 0x1 SWAP6 SWAP7 LT PUSH2 0x29A JUMPI JUMPDEST POP POP POP DUP2 SHL ADD PUSH0 SSTORE PUSH2 0xDC JUMP JUMPDEST ADD MLOAD PUSH0 NOT PUSH1 0xF8 DUP5 PUSH1 0x3 SHL AND SHR NOT AND SWAP1 SSTORE PUSH0 DUP1 DUP1 PUSH2 0x28D JUMP JUMPDEST SWAP2 SWAP3 PUSH1 0x20 PUSH1 0x1 DUP2 SWAP3 DUP7 DUP6 ADD MLOAD DUP2 SSTORE ADD SWAP5 ADD SWAP3 ADD PUSH2 0x27A JUMP JUMPDEST PUSH0 DUP1 MSTORE PUSH32 0x290DECD9548B62A8D60345A988386FC84BA6BC95484008F6362F93160EF3E563 PUSH1 0x1F DUP4 ADD PUSH1 0x5 SHR DUP2 ADD SWAP2 PUSH1 0x20 DUP5 LT PUSH2 0x322 JUMPI JUMPDEST PUSH1 0x1F ADD PUSH1 0x5 SHR ADD SWAP1 JUMPDEST DUP2 DUP2 LT PUSH2 0x317 JUMPI POP PUSH2 0xAE JUMP JUMPDEST PUSH0 DUP2 SSTORE PUSH1 0x1 ADD PUSH2 0x30A JUMP JUMPDEST SWAP1 SWAP2 POP DUP2 SWAP1 PUSH2 0x301 JUMP JUMPDEST SWAP1 PUSH1 0x7F AND SWAP1 PUSH2 0x9C JUMP JUMPDEST PUSH0 DUP1 REVERT JUMPDEST PUSH1 0x1 PUSH1 0x1 PUSH1 0xA0 SHL SUB DUP2 AND PUSH0 SWAP1 DUP2 MSTORE PUSH0 MLOAD PUSH1 0x20 PUSH2 0x2651 PUSH0 CODECOPY PUSH0 MLOAD SWAP1 PUSH0 MSTORE PUSH1 0x20 MSTORE PUSH1 0x40 SWAP1 KECCAK256 SLOAD PUSH1 0xFF AND PUSH2 0x3BE JUMPI PUSH1 0x1 PUSH1 0x1 PUSH1 0xA0 SHL SUB AND PUSH0 DUP2 DUP2 MSTORE PUSH0 MLOAD PUSH1 0x20 PUSH2 0x2651 PUSH0 CODECOPY PUSH0 MLOAD SWAP1 PUSH0 MSTORE PUSH1 0x20 MSTORE PUSH1 0x40 DUP2 KECCAK256 DUP1 SLOAD PUSH1 0xFF NOT AND PUSH1 0x1 OR SWAP1 SSTORE CALLER SWAP2 SWAP1 PUSH32 0x2F8788117E7EFF1D82E926EC794901D17C78024A50270940304540A733656F0D DUP2 DUP1 LOG4 PUSH1 0x1 SWAP1 JUMP JUMPDEST POP PUSH0 SWAP1 JUMP INVALID PUSH1 0x80 DUP1 PUSH1 0x40 MSTORE PUSH1 0x4 CALLDATASIZE LT ISZERO PUSH2 0x12 JUMPI PUSH0 DUP1 REVERT JUMPDEST PUSH0 SWAP1 PUSH0 CALLDATALOAD PUSH1 0xE0 SHR SWAP1 DUP2 PUSH4 0x1FFC9A7 EQ PUSH2 0x14B1 JUMPI POP DUP1 PUSH4 0x6FDDE03 EQ PUSH2 0x140F JUMPI DUP1 PUSH4 0x81812FC EQ PUSH2 0x13D3 JUMPI DUP1 PUSH4 0x95EA7B3 EQ PUSH2 0x12E9 JUMPI DUP1 PUSH4 0xD214345 EQ PUSH2 0x1277 JUMPI DUP1 PUSH4 0xF7EE1EC EQ PUSH2 0x11F7 JUMPI DUP1 PUSH4 0x23B872DD EQ PUSH2 0x11E0 JUMPI DUP1 PUSH4 0x248A9CA3 EQ PUSH2 0x11AD JUMPI DUP1 PUSH4 0x2F2FF15D EQ PUSH2 0x116F JUMPI DUP1 PUSH4 0x36568ABE EQ PUSH2 0x112B JUMPI DUP1 PUSH4 0x42842E0E EQ PUSH2 0x10FC JUMPI DUP1 PUSH4 0x6352211E EQ PUSH2 0x10CC JUMPI DUP1 PUSH4 0x70A08231 EQ PUSH2 0x107B JUMPI DUP1 PUSH4 0x72E1D047 EQ PUSH2 0x1044 JUMPI DUP1 PUSH4 0x8E767F43 EQ PUSH2 0xFD4 JUMPI DUP1 PUSH4 0x91D14854 EQ PUSH2 0xF8B JUMPI DUP1 PUSH4 0x942C5875 EQ PUSH2 0xDEB JUMPI DUP1 PUSH4 0x95D89B41 EQ PUSH2 0xD0D JUMPI DUP1 PUSH4 0xA217FDDF EQ PUSH2 0xCF3 JUMPI DUP1 PUSH4 0xA22CB465 EQ PUSH2 0xC58 JUMPI DUP1 PUSH4 0xB63E6AC3 EQ PUSH2 0xB55 JUMPI DUP1 PUSH4 0xB88D4FDE EQ PUSH2 0xAE7 JUMPI DUP1 PUSH4 0xC274CB56 EQ PUSH2 0x731 JUMPI DUP1 PUSH4 0xC87B56DD EQ PUSH2 0x6D4 JUMPI DUP1 PUSH4 0xD2D8FD5D EQ PUSH2 0x314 JUMPI DUP1 PUSH4 0xD5391393 EQ PUSH2 0x2D9 JUMPI DUP1 PUSH4 0xD547741F EQ PUSH2 0x295 JUMPI DUP1 PUSH4 0xD7D7A751 EQ PUSH2 0x23E JUMPI DUP1 PUSH4 0xE985E9C5 EQ PUSH2 0x1E6 JUMPI PUSH4 0xFCA3B5AA EQ PUSH2 0x168 JUMPI PUSH0 DUP1 REVERT JUMPDEST CALLVALUE PUSH2 0x1E3 JUMPI PUSH1 0x20 CALLDATASIZE PUSH1 0x3 NOT ADD SLT PUSH2 0x1E3 JUMPI PUSH2 0x181 PUSH2 0x155A JUMP JUMPDEST PUSH2 0x189 PUSH2 0x1B92 JUMP JUMPDEST PUSH1 0x1 PUSH1 0x1 PUSH1 0xA0 SHL SUB DUP2 AND ISZERO PUSH2 0x1A5 JUMPI PUSH2 0x1A1 SWAP1 PUSH2 0x1C8A JUMP JUMPDEST POP DUP1 RETURN JUMPDEST PUSH1 0x40 MLOAD PUSH3 0x461BCD PUSH1 0xE5 SHL DUP2 MSTORE PUSH1 0x20 PUSH1 0x4 DUP3 ADD MSTORE PUSH1 0x16 PUSH1 0x24 DUP3 ADD MSTORE PUSH22 0x496E76616C696420657363726F772061646472657373 PUSH1 0x50 SHL PUSH1 0x44 DUP3 ADD MSTORE PUSH1 0x64 SWAP1 REVERT JUMPDEST DUP1 REVERT JUMPDEST POP CALLVALUE PUSH2 0x1E3 JUMPI PUSH1 0x40 CALLDATASIZE PUSH1 0x3 NOT ADD SLT PUSH2 0x1E3 JUMPI PUSH1 0x40 PUSH2 0x202 PUSH2 0x155A JUMP JUMPDEST SWAP2 PUSH2 0x20B PUSH2 0x1570 JUMP JUMPDEST SWAP3 PUSH1 0x1 DUP1 PUSH1 0xA0 SHL SUB AND DUP2 MSTORE PUSH1 0x5 PUSH1 0x20 MSTORE KECCAK256 SWAP1 PUSH1 0x1 DUP1 PUSH1 0xA0 SHL SUB AND PUSH0 MSTORE PUSH1 0x20 MSTORE PUSH1 0x20 PUSH1 0xFF PUSH1 0x40 PUSH0 KECCAK256 SLOAD AND PUSH1 0x40 MLOAD SWAP1 ISZERO ISZERO DUP2 MSTORE RETURN JUMPDEST POP CALLVALUE PUSH2 0x1E3 JUMPI PUSH1 0x40 CALLDATASIZE PUSH1 0x3 NOT ADD SLT PUSH2 0x1E3 JUMPI PUSH2 0x258 PUSH2 0x155A JUMP JUMPDEST PUSH1 0x1 PUSH1 0x1 PUSH1 0xA0 SHL SUB AND DUP2 MSTORE PUSH1 0xA PUSH1 0x20 MSTORE PUSH1 0x40 DUP2 KECCAK256 DUP1 SLOAD PUSH1 0x24 CALLDATALOAD SWAP3 SWAP1 DUP4 LT ISZERO PUSH2 0x1E3 JUMPI PUSH1 0x20 PUSH2 0x286 DUP5 DUP5 PUSH2 0x177C JUMP JUMPDEST SWAP1 SLOAD SWAP1 PUSH1 0x3 SHL SHR PUSH1 0x40 MLOAD SWAP1 DUP2 MSTORE RETURN JUMPDEST POP CALLVALUE PUSH2 0x1E3 JUMPI PUSH1 0x40 CALLDATASIZE PUSH1 0x3 NOT ADD SLT PUSH2 0x1E3 JUMPI PUSH2 0x1A1 PUSH1 0x4 CALLDATALOAD PUSH2 0x2B5 PUSH2 0x1570 JUMP JUMPDEST SWAP1 PUSH2 0x2D4 PUSH2 0x2CF DUP3 PUSH0 MSTORE PUSH1 0x6 PUSH1 0x20 MSTORE PUSH1 0x1 PUSH1 0x40 PUSH0 KECCAK256 ADD SLOAD SWAP1 JUMP JUMPDEST PUSH2 0x1C50 JUMP JUMPDEST PUSH2 0x1DE7 JUMP JUMPDEST POP CALLVALUE PUSH2 0x1E3 JUMPI DUP1 PUSH1 0x3 NOT CALLDATASIZE ADD SLT PUSH2 0x1E3 JUMPI PUSH1 0x20 PUSH1 0x40 MLOAD PUSH32 0x9F2DF0FED2C77648DE5860A4CC508CD0818C85B8B8A1AB4CEEEF8D981C8956A6 DUP2 MSTORE RETURN JUMPDEST POP CALLVALUE PUSH2 0x1E3 JUMPI PUSH2 0x323 CALLDATASIZE PUSH2 0x17F7 JUMP JUMPDEST SWAP7 SWAP3 POP PUSH2 0x333 SWAP8 SWAP2 SWAP6 SWAP5 SWAP8 PUSH2 0x1BE1 JUMP JUMPDEST PUSH2 0x33B PUSH2 0x1FA1 JUMP JUMPDEST PUSH1 0x1 PUSH1 0x1 PUSH1 0xA0 SHL SUB DUP4 AND SWAP5 PUSH2 0x351 DUP7 ISZERO ISZERO PUSH2 0x1A3F JUMP JUMPDEST PUSH1 0x1 PUSH1 0x1 PUSH1 0xA0 SHL SUB AND SWAP6 PUSH2 0x366 DUP8 ISZERO ISZERO PUSH2 0x1A84 JUMP JUMPDEST DUP5 ISZERO PUSH2 0x685 JUMPI DUP1 DUP3 GT ISZERO PUSH2 0x648 JUMPI PUSH2 0x380 DUP9 MLOAD ISZERO ISZERO PUSH2 0x1AD0 JUMP JUMPDEST PUSH1 0x8 SLOAD SWAP8 DUP9 SWAP2 PUSH2 0x38F DUP4 PUSH2 0x1B15 JUMP JUMPDEST PUSH1 0x8 SSTORE PUSH1 0x40 MLOAD SWAP4 PUSH2 0x39F DUP6 PUSH2 0x15F7 JUMP JUMPDEST DUP6 DUP6 MSTORE PUSH1 0x20 DUP6 ADD SWAP2 DUP10 DUP4 MSTORE PUSH1 0x40 DUP7 ADD DUP12 DUP2 MSTORE DUP14 PUSH1 0x60 DUP9 ADD SWAP1 DUP2 MSTORE PUSH1 0x80 DUP9 ADD SWAP2 DUP12 DUP4 MSTORE PUSH1 0xA0 DUP10 ADD SWAP4 DUP5 MSTORE PUSH1 0xC0 DUP10 ADD SWAP5 DUP6 MSTORE PUSH1 0xE0 DUP10 ADD SWAP6 TIMESTAMP DUP8 MSTORE PUSH2 0x100 DUP11 ADD SWAP8 DUP9 MSTORE PUSH2 0x120 DUP11 ADD SWAP9 DUP1 DUP11 MSTORE DUP12 MSTORE PUSH1 0x9 PUSH1 0x20 MSTORE PUSH1 0x40 DUP12 KECCAK256 SWAP10 MLOAD SWAP1 PUSH1 0x2 DUP3 LT ISZERO PUSH2 0x634 JUMPI DUP11 SLOAD SWAP1 MLOAD PUSH2 0x100 PUSH1 0x1 PUSH1 0xA8 SHL SUB PUSH1 0x8 SWAP2 SWAP1 SWAP2 SHL AND PUSH1 0xFF SWAP3 SWAP1 SWAP3 AND PUSH1 0x1 PUSH1 0x1 PUSH1 0xA8 SHL SUB NOT SWAP1 SWAP2 AND OR OR DUP10 SSTORE MLOAD PUSH1 0x1 DUP10 ADD DUP1 SLOAD PUSH1 0x1 PUSH1 0x1 PUSH1 0xA0 SHL SUB SWAP1 SWAP3 AND PUSH1 0x1 PUSH1 0x1 PUSH1 0xA0 SHL SUB NOT SWAP1 SWAP3 AND SWAP2 SWAP1 SWAP2 OR SWAP1 SSTORE MLOAD PUSH1 0x2 DUP9 ADD SSTORE MLOAD PUSH1 0x3 DUP8 ADD SSTORE MLOAD PUSH1 0x4 DUP7 ADD SSTORE MLOAD PUSH1 0x5 DUP6 ADD SSTORE MLOAD PUSH1 0x6 DUP5 ADD SSTORE MLOAD DUP1 MLOAD PUSH1 0x7 DUP5 ADD SWAP2 PUSH8 0xFFFFFFFFFFFFFFFF DUP3 GT PUSH2 0x620 JUMPI PUSH2 0x48C DUP4 SLOAD PUSH2 0x15BF JUMP JUMPDEST PUSH1 0x1F DUP2 GT PUSH2 0x5DB JUMPI JUMPDEST POP SWAP2 DUP6 SWAP4 SWAP2 PUSH1 0x20 SWAP13 SWAP8 SWAP6 SWAP4 DUP13 SWAP10 SWAP8 POP DUP14 SWAP1 PUSH1 0x1F DUP4 GT PUSH1 0x1 EQ PUSH2 0x53A JUMPI DUP7 PUSH2 0x50B SWAP7 PUSH1 0x8 DUP14 SWAP8 PUSH0 MLOAD PUSH1 0x20 PUSH2 0x2238 PUSH0 CODECOPY PUSH0 MLOAD SWAP1 PUSH0 MSTORE SWAP14 SWAP12 SWAP8 DUP8 PUSH2 0x506 SWAP9 PUSH1 0x80 SWAP16 SWAP14 SWAP9 PUSH1 0x40 SWAP9 DUP14 SWAP11 SWAP3 PUSH2 0x52F JUMPI JUMPDEST POP POP DUP2 PUSH1 0x1 SHL SWAP2 PUSH0 NOT SWAP1 PUSH1 0x3 SHL SHR NOT AND OR SWAP1 SSTORE JUMPDEST MLOAD SWAP2 ADD SSTORE DUP13 DUP2 MSTORE DUP16 PUSH1 0xA SWAP1 MSTORE KECCAK256 PUSH2 0x1B37 JUMP JUMPDEST PUSH2 0x1FC1 JUMP JUMPDEST PUSH1 0x40 MLOAD SWAP2 PUSH0 DUP4 MSTORE DUP10 DUP4 ADD MSTORE PUSH1 0x40 DUP3 ADD MSTORE DUP4 PUSH1 0x60 DUP3 ADD MSTORE LOG4 PUSH1 0x1 PUSH1 0x7 SSTORE PUSH1 0x40 MLOAD SWAP1 DUP2 MSTORE RETURN JUMPDEST ADD MLOAD SWAP1 POP PUSH0 DUP1 PUSH2 0x4E0 JUMP JUMPDEST DUP4 DUP8 MSTORE DUP2 DUP8 KECCAK256 SWAP2 SWAP1 PUSH1 0x1F NOT DUP5 AND DUP9 JUMPDEST DUP2 DUP2 LT PUSH2 0x5A9 JUMPI POP SWAP7 PUSH1 0x8 DUP14 SWAP8 PUSH0 MLOAD PUSH1 0x20 PUSH2 0x2238 PUSH0 CODECOPY PUSH0 MLOAD SWAP1 PUSH0 MSTORE SWAP14 SWAP12 SWAP8 PUSH1 0x1 DUP9 PUSH1 0x80 SWAP16 SWAP14 SWAP7 SWAP9 PUSH1 0x40 SWAP9 DUP14 SWAP11 PUSH2 0x50B SWAP16 SWAP13 PUSH2 0x506 SWAP14 LT PUSH2 0x591 JUMPI JUMPDEST POP POP POP DUP2 SHL ADD SWAP1 SSTORE PUSH2 0x4F4 JUMP JUMPDEST ADD MLOAD PUSH0 NOT PUSH1 0xF8 DUP5 PUSH1 0x3 SHL AND SHR NOT AND SWAP1 SSTORE PUSH0 DUP1 DUP1 PUSH2 0x584 JUMP JUMPDEST SWAP4 PUSH1 0x20 SWAP2 SWAP3 SWAP4 SWAP6 SWAP7 SWAP8 SWAP9 SWAP10 SWAP11 SWAP12 SWAP13 SWAP14 POP PUSH1 0x1 DUP3 SWAP2 DUP8 DUP7 ADD MLOAD DUP2 SSTORE ADD SWAP6 ADD SWAP4 ADD SWAP1 DUP16 SWAP13 SWAP12 SWAP11 SWAP10 SWAP9 SWAP8 SWAP7 SWAP6 SWAP5 SWAP4 SWAP3 SWAP2 PUSH2 0x549 JUMP JUMPDEST DUP4 DUP8 MSTORE PUSH1 0x20 DUP8 KECCAK256 PUSH1 0x1F DUP5 ADD PUSH1 0x5 SHR DUP2 ADD SWAP2 PUSH1 0x20 DUP6 LT PUSH2 0x616 JUMPI JUMPDEST PUSH1 0x1F ADD PUSH1 0x5 SHR ADD SWAP1 JUMPDEST DUP2 DUP2 LT PUSH2 0x60B JUMPI POP PUSH2 0x495 JUMP JUMPDEST PUSH0 DUP2 SSTORE PUSH1 0x1 ADD PUSH2 0x5FE JUMP JUMPDEST SWAP1 SWAP2 POP DUP2 SWAP1 PUSH2 0x5F5 JUMP JUMPDEST PUSH4 0x4E487B71 PUSH1 0xE0 SHL DUP7 MSTORE PUSH1 0x41 PUSH1 0x4 MSTORE PUSH1 0x24 DUP7 REVERT JUMPDEST PUSH4 0x4E487B71 PUSH1 0xE0 SHL DUP13 MSTORE PUSH1 0x21 PUSH1 0x4 MSTORE PUSH1 0x24 DUP13 REVERT JUMPDEST PUSH1 0x40 MLOAD PUSH3 0x461BCD PUSH1 0xE5 SHL DUP2 MSTORE PUSH1 0x20 PUSH1 0x4 DUP3 ADD MSTORE PUSH1 0x15 PUSH1 0x24 DUP3 ADD MSTORE PUSH21 0x125B9D985B1A59081C995B9D185B081C195C9A5BD9 PUSH1 0x5A SHL PUSH1 0x44 DUP3 ADD MSTORE PUSH1 0x64 SWAP1 REVERT JUMPDEST PUSH1 0x40 MLOAD PUSH3 0x461BCD PUSH1 0xE5 SHL DUP2 MSTORE PUSH1 0x20 PUSH1 0x4 DUP3 ADD MSTORE PUSH1 0x21 PUSH1 0x24 DUP3 ADD MSTORE PUSH32 0x4465706F736974206D7573742062652067726561746572207468616E207A6572 PUSH1 0x44 DUP3 ADD MSTORE PUSH1 0x6F PUSH1 0xF8 SHL PUSH1 0x64 DUP3 ADD MSTORE PUSH1 0x84 SWAP1 REVERT JUMPDEST CALLVALUE PUSH2 0x72D JUMPI PUSH1 0x20 CALLDATASIZE PUSH1 0x3 NOT ADD SLT PUSH2 0x72D JUMPI PUSH2 0x6F0 PUSH1 0x4 CALLDATALOAD PUSH2 0x1B70 JUMP JUMPDEST POP PUSH0 PUSH1 0x40 MLOAD PUSH2 0x700 PUSH1 0x20 DUP3 PUSH2 0x1614 JUMP JUMPDEST MSTORE PUSH2 0x729 PUSH1 0x40 MLOAD PUSH2 0x712 PUSH1 0x20 DUP3 PUSH2 0x1614 JUMP JUMPDEST PUSH0 DUP2 MSTORE PUSH1 0x40 MLOAD SWAP2 DUP3 SWAP2 PUSH1 0x20 DUP4 MSTORE PUSH1 0x20 DUP4 ADD SWAP1 PUSH2 0x1536 JUMP JUMPDEST SUB SWAP1 RETURN JUMPDEST PUSH0 DUP1 REVERT JUMPDEST CALLVALUE PUSH2 0x72D JUMPI PUSH2 0x73F CALLDATASIZE PUSH2 0x17F7 JUMP JUMPDEST SWAP5 SWAP3 SWAP6 SWAP4 SWAP7 SWAP2 SWAP1 PUSH2 0x74E PUSH2 0x1BE1 JUMP JUMPDEST PUSH2 0x756 PUSH2 0x1FA1 JUMP JUMPDEST PUSH1 0x1 PUSH1 0x1 PUSH1 0xA0 SHL SUB DUP4 AND SWAP5 PUSH2 0x76C DUP7 ISZERO ISZERO PUSH2 0x1A3F JUMP JUMPDEST PUSH1 0x1 PUSH1 0x1 PUSH1 0xA0 SHL SUB AND SWAP6 PUSH2 0x781 DUP8 ISZERO ISZERO PUSH2 0x1A84 JUMP JUMPDEST DUP9 ISZERO PUSH2 0xAA2 JUMPI DUP3 DUP3 GT ISZERO PUSH2 0xA6C JUMPI PUSH2 0x79B DUP2 MLOAD ISZERO ISZERO PUSH2 0x1AD0 JUMP JUMPDEST PUSH1 0x8 SLOAD SWAP8 DUP9 SWAP3 PUSH2 0x7AA DUP5 PUSH2 0x1B15 JUMP JUMPDEST PUSH1 0x8 SSTORE PUSH1 0x40 MLOAD SWAP5 PUSH2 0x7BA DUP7 PUSH2 0x15F7 JUMP JUMPDEST PUSH1 0x1 DUP7 MSTORE DUP12 PUSH1 0x20 DUP8 ADD DUP11 DUP2 MSTORE PUSH1 0x40 DUP9 ADD DUP13 DUP2 MSTORE PUSH1 0x60 DUP10 ADD SWAP2 PUSH0 DUP4 MSTORE PUSH1 0x80 DUP11 ADD SWAP4 DUP5 MSTORE PUSH1 0xA0 DUP11 ADD SWAP5 DUP6 MSTORE PUSH1 0xC0 DUP11 ADD SWAP6 DUP7 MSTORE PUSH1 0xE0 DUP11 ADD SWAP7 DUP8 MSTORE PUSH2 0x100 DUP11 ADD SWAP8 DUP9 MSTORE PUSH2 0x120 DUP11 ADD SWAP9 DUP13 DUP11 MSTORE PUSH0 MSTORE PUSH1 0x9 PUSH1 0x20 MSTORE PUSH1 0x40 PUSH0 KECCAK256 SWAP10 MLOAD SWAP1 PUSH1 0x2 DUP3 LT ISZERO PUSH2 0xA58 JUMPI DUP11 SLOAD SWAP1 MLOAD PUSH2 0x100 PUSH1 0x1 PUSH1 0xA8 SHL SUB PUSH1 0x8 SWAP2 SWAP1 SWAP2 SHL AND PUSH1 0xFF SWAP3 SWAP1 SWAP3 AND PUSH1 0x1 PUSH1 0x1 PUSH1 0xA8 SHL SUB NOT SWAP1 SWAP2 AND OR OR DUP10 SSTORE MLOAD PUSH1 0x1 DUP10 ADD DUP1 SLOAD PUSH1 0x1 PUSH1 0x1 PUSH1 0xA0 SHL SUB SWAP1 SWAP3 AND PUSH1 0x1 PUSH1 0x1 PUSH1 0xA0 SHL SUB NOT SWAP1 SWAP3 AND SWAP2 SWAP1 SWAP2 OR SWAP1 SSTORE MLOAD PUSH1 0x2 DUP9 ADD SSTORE MLOAD PUSH1 0x3 DUP8 ADD SSTORE MLOAD PUSH1 0x4 DUP7 ADD SSTORE MLOAD PUSH1 0x5 DUP6 ADD SSTORE MLOAD PUSH1 0x6 DUP5 ADD SSTORE MLOAD DUP1 MLOAD PUSH1 0x7 DUP5 ADD SWAP2 PUSH8 0xFFFFFFFFFFFFFFFF DUP3 GT PUSH2 0xA44 JUMPI PUSH2 0x8A6 DUP4 SLOAD PUSH2 0x15BF JUMP JUMPDEST PUSH1 0x1F DUP2 GT PUSH2 0x9FF JUMPI JUMPDEST POP SWAP2 PUSH1 0x20 SWAP11 SWAP6 SWAP4 SWAP2 DUP11 SWAP8 SWAP6 SWAP4 DUP13 SWAP1 PUSH1 0x1F DUP4 GT PUSH1 0x1 EQ PUSH2 0x95F JUMPI PUSH2 0x92F SWAP5 DUP11 SWAP5 DUP5 PUSH0 MLOAD PUSH1 0x20 PUSH2 0x2238 PUSH0 CODECOPY PUSH0 MLOAD SWAP1 PUSH0 MSTORE SWAP12 SWAP10 SWAP6 PUSH1 0x80 SWAP12 SWAP10 SWAP6 PUSH1 0x8 SWAP6 PUSH0 SWAP3 PUSH2 0x954 JUMPI JUMPDEST POP POP DUP2 PUSH1 0x1 SHL SWAP2 PUSH0 NOT SWAP1 PUSH1 0x3 SHL SHR NOT AND OR SWAP1 SSTORE JUMPDEST MLOAD SWAP2 ADD SSTORE DUP9 PUSH0 MSTORE PUSH1 0xA DUP13 MSTORE PUSH2 0x91B DUP3 PUSH1 0x40 PUSH0 KECCAK256 PUSH2 0x1B37 JUMP JUMPDEST DUP4 PUSH0 MSTORE PUSH1 0xB DUP13 MSTORE PUSH2 0x506 DUP3 PUSH1 0x40 PUSH0 KECCAK256 PUSH2 0x1B37 JUMP JUMPDEST PUSH1 0x40 MLOAD SWAP2 PUSH1 0x1 DUP4 MSTORE PUSH0 DUP11 DUP5 ADD MSTORE PUSH1 0x40 DUP4 ADD MSTORE PUSH1 0x60 DUP3 ADD MSTORE LOG4 PUSH1 0x1 PUSH1 0x7 SSTORE PUSH1 0x40 MLOAD SWAP1 DUP2 MSTORE RETURN JUMPDEST ADD MLOAD SWAP1 POP PUSH0 DUP1 PUSH2 0x8EF JUMP JUMPDEST PUSH1 0x1F SWAP10 SWAP9 SWAP8 SWAP7 SWAP6 SWAP5 SWAP4 SWAP3 SWAP2 SWAP10 NOT DUP3 AND SWAP1 DUP4 PUSH0 MSTORE DUP11 PUSH0 KECCAK256 SWAP2 PUSH0 JUMPDEST DUP2 DUP2 LT PUSH2 0x9D0 JUMPI POP SWAP4 PUSH1 0x1 DUP5 PUSH1 0x8 SWAP5 DUP14 SWAP15 PUSH0 MLOAD PUSH1 0x20 PUSH2 0x2238 PUSH0 CODECOPY PUSH0 MLOAD SWAP1 PUSH0 MSTORE SWAP15 SWAP10 SWAP6 PUSH2 0x92F SWAP12 SWAP9 PUSH1 0x80 SWAP16 SWAP15 SWAP14 SWAP11 LT PUSH2 0x9B8 JUMPI JUMPDEST POP POP POP DUP2 SHL ADD SWAP1 SSTORE PUSH2 0x903 JUMP JUMPDEST ADD MLOAD PUSH0 NOT PUSH1 0xF8 DUP5 PUSH1 0x3 SHL AND SHR NOT AND SWAP1 SSTORE PUSH0 DUP1 DUP1 PUSH2 0x9AB JUMP JUMPDEST SWAP4 SWAP6 SWAP8 SWAP10 SWAP12 SWAP5 SWAP7 SWAP9 SWAP11 POP SWAP1 SWAP2 DUP16 PUSH1 0x1 DUP2 SWAP3 DUP8 DUP7 ADD MLOAD DUP2 SSTORE ADD SWAP6 ADD SWAP4 ADD SWAP1 DUP15 SWAP11 SWAP9 SWAP7 SWAP5 SWAP3 SWAP2 SWAP12 SWAP10 SWAP8 SWAP6 SWAP4 SWAP12 PUSH2 0x978 JUMP JUMPDEST DUP4 PUSH0 MSTORE PUSH1 0x20 PUSH0 KECCAK256 PUSH1 0x1F DUP5 ADD PUSH1 0x5 SHR DUP2 ADD SWAP2 PUSH1 0x20 DUP6 LT PUSH2 0xA3A JUMPI JUMPDEST PUSH1 0x1F ADD PUSH1 0x5 SHR ADD SWAP1 JUMPDEST DUP2 DUP2 LT PUSH2 0xA2F JUMPI POP PUSH2 0x8AF JUMP JUMPDEST PUSH0 DUP2 SSTORE PUSH1 0x1 ADD PUSH2 0xA22 JUMP JUMPDEST SWAP1 SWAP2 POP DUP2 SWAP1 PUSH2 0xA19 JUMP JUMPDEST PUSH4 0x4E487B71 PUSH1 0xE0 SHL PUSH0 MSTORE PUSH1 0x41 PUSH1 0x4 MSTORE PUSH1 0x24 PUSH0 REVERT JUMPDEST PUSH4 0x4E487B71 PUSH1 0xE0 SHL PUSH0 MSTORE PUSH1 0x21 PUSH1 0x4 MSTORE PUSH1 0x24 PUSH0 REVERT JUMPDEST PUSH1 0x40 MLOAD PUSH3 0x461BCD PUSH1 0xE5 SHL DUP2 MSTORE PUSH1 0x20 PUSH1 0x4 DUP3 ADD MSTORE PUSH1 0xE PUSH1 0x24 DUP3 ADD MSTORE PUSH14 0x125B9D985B1A59081C195C9A5BD9 PUSH1 0x92 SHL PUSH1 0x44 DUP3 ADD MSTORE PUSH1 0x64 SWAP1 REVERT JUMPDEST PUSH1 0x40 MLOAD PUSH3 0x461BCD PUSH1 0xE5 SHL DUP2 MSTORE PUSH1 0x20 PUSH1 0x4 DUP3 ADD MSTORE PUSH1 0x1E PUSH1 0x24 DUP3 ADD MSTORE PUSH32 0x52656E74206D7573742062652067726561746572207468616E207A65726F0000 PUSH1 0x44 DUP3 ADD MSTORE PUSH1 0x64 SWAP1 REVERT JUMPDEST CALLVALUE PUSH2 0x72D JUMPI PUSH1 0x80 CALLDATASIZE PUSH1 0x3 NOT ADD SLT PUSH2 0x72D JUMPI PUSH2 0xB00 PUSH2 0x155A JUMP JUMPDEST PUSH2 0xB08 PUSH2 0x1570 JUMP JUMPDEST SWAP1 PUSH1 0x44 CALLDATALOAD PUSH1 0x64 CALLDATALOAD SWAP3 PUSH8 0xFFFFFFFFFFFFFFFF DUP5 GT PUSH2 0x72D JUMPI CALLDATASIZE PUSH1 0x23 DUP6 ADD SLT ISZERO PUSH2 0x72D JUMPI PUSH2 0xB41 PUSH2 0xB53 SWAP5 CALLDATASIZE SWAP1 PUSH1 0x24 DUP2 PUSH1 0x4 ADD CALLDATALOAD SWAP2 ADD PUSH2 0x17C1 JUMP JUMPDEST SWAP3 PUSH2 0xB4D DUP4 DUP4 DUP4 PUSH2 0x1874 JUMP JUMPDEST CALLER PUSH2 0x1E6B JUMP JUMPDEST STOP JUMPDEST CALLVALUE PUSH2 0x72D JUMPI PUSH1 0x20 CALLDATASIZE PUSH1 0x3 NOT ADD SLT PUSH2 0x72D JUMPI PUSH1 0x4 CALLDATALOAD PUSH0 MSTORE PUSH1 0x9 PUSH1 0x20 MSTORE PUSH1 0x40 PUSH0 KECCAK256 PUSH1 0x40 MLOAD SWAP1 PUSH2 0xB81 DUP3 PUSH2 0x15F7 JUMP JUMPDEST DUP1 SLOAD PUSH1 0xFF DUP2 AND PUSH1 0x2 DUP2 LT ISZERO PUSH2 0xA58 JUMPI DUP4 MSTORE PUSH1 0x20 DUP4 ADD SWAP1 PUSH1 0x1 DUP1 PUSH1 0xA0 SHL SUB SWAP1 PUSH1 0x8 SHR AND DUP2 MSTORE PUSH1 0x1 DUP1 PUSH1 0xA0 SHL SUB PUSH1 0x1 DUP4 ADD SLOAD AND SWAP3 PUSH1 0x40 DUP2 ADD SWAP4 DUP5 MSTORE PUSH1 0x2 DUP4 ADD SLOAD SWAP1 PUSH1 0x60 DUP2 ADD SWAP2 DUP3 MSTORE PUSH1 0x3 DUP5 ADD SLOAD SWAP4 PUSH1 0x80 DUP3 ADD SWAP5 DUP6 MSTORE PUSH1 0x4 DUP2 ADD SLOAD PUSH1 0xA0 DUP4 ADD SWAP1 DUP2 MSTORE PUSH1 0x5 DUP3 ADD SLOAD PUSH1 0xC0 DUP5 ADD SWAP1 DUP2 MSTORE PUSH1 0x6 DUP4 ADD SLOAD SWAP2 PUSH1 0xE0 DUP6 ADD SWAP3 DUP4 MSTORE PUSH1 0x8 PUSH2 0xC07 PUSH1 0x7 DUP7 ADD PUSH2 0x1636 JUMP JUMPDEST SWAP5 PUSH2 0x100 DUP8 ADD SWAP6 DUP7 MSTORE ADD SLOAD SWAP5 PUSH2 0x120 DUP2 ADD SWAP6 DUP7 MSTORE MLOAD SWAP8 PUSH1 0x2 DUP10 LT ISZERO PUSH2 0xA58 JUMPI SWAP7 MLOAD SWAP9 MLOAD SWAP6 MLOAD SWAP7 MLOAD SWAP1 MLOAD SWAP2 MLOAD SWAP3 MLOAD SWAP4 MLOAD SWAP5 MLOAD PUSH1 0x40 MLOAD SWAP10 DUP11 SWAP10 PUSH2 0x729 SWAP10 SWAP3 SWAP9 PUSH1 0x1 PUSH1 0x1 PUSH1 0xA0 SHL SUB SWAP1 DUP2 AND SWAP3 AND SWAP1 DUP12 PUSH2 0x16D6 JUMP JUMPDEST CALLVALUE PUSH2 0x72D JUMPI PUSH1 0x40 CALLDATASIZE PUSH1 0x3 NOT ADD SLT PUSH2 0x72D JUMPI PUSH2 0xC71 PUSH2 0x155A JUMP JUMPDEST PUSH1 0x24 CALLDATALOAD SWAP1 DUP2 ISZERO ISZERO DUP1 SWAP3 SUB PUSH2 0x72D JUMPI PUSH1 0x1 PUSH1 0x1 PUSH1 0xA0 SHL SUB AND SWAP1 DUP2 ISZERO PUSH2 0xCE0 JUMPI CALLER PUSH0 MSTORE PUSH1 0x5 PUSH1 0x20 MSTORE PUSH1 0x40 PUSH0 KECCAK256 DUP3 PUSH0 MSTORE PUSH1 0x20 MSTORE PUSH1 0x40 PUSH0 KECCAK256 PUSH1 0xFF NOT DUP2 SLOAD AND PUSH1 0xFF DUP4 AND OR SWAP1 SSTORE PUSH1 0x40 MLOAD SWAP1 DUP2 MSTORE PUSH32 0x17307EAB39AB6107E8899845AD3D59BD9653F200F220920489CA2B5937696C31 PUSH1 0x20 CALLER SWAP3 LOG3 STOP JUMPDEST POP PUSH4 0xB611743 PUSH1 0xE3 SHL PUSH0 MSTORE PUSH1 0x4 MSTORE PUSH1 0x24 PUSH0 REVERT JUMPDEST CALLVALUE PUSH2 0x72D JUMPI PUSH0 CALLDATASIZE PUSH1 0x3 NOT ADD SLT PUSH2 0x72D JUMPI PUSH1 0x20 PUSH1 0x40 MLOAD PUSH0 DUP2 MSTORE RETURN JUMPDEST CALLVALUE PUSH2 0x72D JUMPI PUSH0 CALLDATASIZE PUSH1 0x3 NOT ADD SLT PUSH2 0x72D JUMPI PUSH1 0x40 MLOAD PUSH0 PUSH1 0x1 SLOAD PUSH2 0xD2D DUP2 PUSH2 0x15BF JUMP JUMPDEST DUP1 DUP5 MSTORE SWAP1 PUSH1 0x1 DUP2 AND SWAP1 DUP2 ISZERO PUSH2 0xDC7 JUMPI POP PUSH1 0x1 EQ PUSH2 0xD69 JUMPI JUMPDEST PUSH2 0x729 DUP4 PUSH2 0xD55 DUP2 DUP6 SUB DUP3 PUSH2 0x1614 JUMP JUMPDEST PUSH1 0x40 MLOAD SWAP2 DUP3 SWAP2 PUSH1 0x20 DUP4 MSTORE PUSH1 0x20 DUP4 ADD SWAP1 PUSH2 0x1536 JUMP JUMPDEST PUSH1 0x1 PUSH0 SWAP1 DUP2 MSTORE PUSH32 0xB10E2D527612073B26EECDFD717E6A320CF44B4AFAC2B0732D9FCBE2B7FA0CF6 SWAP4 SWAP3 POP SWAP1 JUMPDEST DUP1 DUP3 LT PUSH2 0xDAD JUMPI POP SWAP1 SWAP2 POP DUP2 ADD PUSH1 0x20 ADD PUSH2 0xD55 PUSH2 0xD45 JUMP JUMPDEST SWAP2 SWAP3 PUSH1 0x1 DUP2 PUSH1 0x20 SWAP3 SLOAD DUP4 DUP6 DUP9 ADD ADD MSTORE ADD SWAP2 ADD SWAP1 SWAP3 SWAP2 PUSH2 0xD95 JUMP JUMPDEST PUSH1 0xFF NOT AND PUSH1 0x20 DUP1 DUP7 ADD SWAP2 SWAP1 SWAP2 MSTORE SWAP2 ISZERO ISZERO PUSH1 0x5 SHL DUP5 ADD SWAP1 SWAP2 ADD SWAP2 POP PUSH2 0xD55 SWAP1 POP PUSH2 0xD45 JUMP JUMPDEST CALLVALUE PUSH2 0x72D JUMPI PUSH1 0x20 CALLDATASIZE PUSH1 0x3 NOT ADD SLT PUSH2 0x72D JUMPI PUSH1 0x4 CALLDATALOAD PUSH2 0xE07 PUSH2 0x1B92 JUMP JUMPDEST PUSH0 DUP2 DUP2 MSTORE PUSH1 0x2 PUSH1 0x20 MSTORE PUSH1 0x40 SWAP1 KECCAK256 SLOAD PUSH1 0x1 PUSH1 0x1 PUSH1 0xA0 SHL SUB AND ISZERO PUSH2 0xF4D JUMPI PUSH0 DUP2 DUP2 MSTORE PUSH1 0x2 PUSH1 0x20 MSTORE PUSH1 0x40 SWAP1 KECCAK256 SLOAD PUSH1 0x1 PUSH1 0x1 PUSH1 0xA0 SHL SUB AND ISZERO ISZERO DUP1 PUSH2 0xF46 JUMPI JUMPDEST PUSH2 0xEF5 JUMPI PUSH0 DUP2 DUP2 MSTORE PUSH1 0x2 PUSH1 0x20 MSTORE PUSH1 0x40 SWAP1 KECCAK256 SLOAD PUSH1 0x1 PUSH1 0x1 PUSH1 0xA0 SHL SUB AND DUP1 ISZERO SWAP1 DUP2 ISZERO PUSH2 0xEC2 JUMPI JUMPDEST PUSH0 DUP4 DUP2 MSTORE PUSH1 0x2 PUSH1 0x20 MSTORE PUSH1 0x40 DUP2 KECCAK256 DUP1 SLOAD PUSH1 0x1 PUSH1 0x1 PUSH1 0xA0 SHL SUB NOT AND SWAP1 SSTORE DUP4 SWAP1 DUP3 PUSH32 0xDDF252AD1BE2C89B69C2B068FC378DAA952BA7F163C4A11628F55A4DF523B3EF DUP3 DUP1 LOG4 POP PUSH2 0xEB0 JUMPI STOP JUMPDEST PUSH4 0x7E273289 PUSH1 0xE0 SHL PUSH0 MSTORE PUSH1 0x4 MSTORE PUSH1 0x24 PUSH0 REVERT JUMPDEST PUSH0 DUP4 DUP2 MSTORE PUSH1 0x4 PUSH1 0x20 MSTORE PUSH1 0x40 SWAP1 KECCAK256 DUP1 SLOAD PUSH1 0x1 PUSH1 0x1 PUSH1 0xA0 SHL SUB NOT AND SWAP1 SSTORE DUP1 PUSH0 MSTORE PUSH1 0x3 PUSH1 0x20 MSTORE PUSH1 0x40 PUSH0 KECCAK256 PUSH0 NOT DUP2 SLOAD ADD SWAP1 SSTORE PUSH2 0xE67 JUMP JUMPDEST PUSH1 0x40 MLOAD PUSH3 0x461BCD PUSH1 0xE5 SHL DUP2 MSTORE PUSH1 0x20 PUSH1 0x4 DUP3 ADD MSTORE PUSH1 0x24 DUP1 DUP3 ADD MSTORE PUSH32 0x52656E74616C20726563656970747320617265206E6F6E2D7472616E73666572 PUSH1 0x44 DUP3 ADD MSTORE PUSH4 0x61626C65 PUSH1 0xE0 SHL PUSH1 0x64 DUP3 ADD MSTORE PUSH1 0x84 SWAP1 REVERT JUMPDEST POP PUSH0 PUSH2 0xE42 JUMP JUMPDEST PUSH1 0x40 MLOAD PUSH3 0x461BCD PUSH1 0xE5 SHL DUP2 MSTORE PUSH1 0x20 PUSH1 0x4 DUP3 ADD MSTORE PUSH1 0x16 PUSH1 0x24 DUP3 ADD MSTORE PUSH22 0x149958D95A5C1D08191BD95CC81B9BDD08195E1A5CDD PUSH1 0x52 SHL PUSH1 0x44 DUP3 ADD MSTORE PUSH1 0x64 SWAP1 REVERT JUMPDEST CALLVALUE PUSH2 0x72D JUMPI PUSH1 0x40 CALLDATASIZE PUSH1 0x3 NOT ADD SLT PUSH2 0x72D JUMPI PUSH2 0xFA4 PUSH2 0x1570 JUMP JUMPDEST PUSH1 0x4 CALLDATALOAD PUSH0 MSTORE PUSH1 0x6 PUSH1 0x20 MSTORE PUSH1 0x40 PUSH0 KECCAK256 SWAP1 PUSH1 0x1 DUP1 PUSH1 0xA0 SHL SUB AND PUSH0 MSTORE PUSH1 0x20 MSTORE PUSH1 0x20 PUSH1 0xFF PUSH1 0x40 PUSH0 KECCAK256 SLOAD AND PUSH1 0x40 MLOAD SWAP1 ISZERO ISZERO DUP2 MSTORE RETURN JUMPDEST CALLVALUE PUSH2 0x72D JUMPI PUSH1 0x20 CALLDATASIZE PUSH1 0x3 NOT ADD SLT PUSH2 0x72D JUMPI PUSH1 0x4 CALLDATALOAD PUSH0 MSTORE PUSH1 0xB PUSH1 0x20 MSTORE PUSH1 0x40 PUSH0 KECCAK256 PUSH1 0x40 MLOAD SWAP1 DUP2 PUSH1 0x20 DUP3 SLOAD SWAP2 DUP3 DUP2 MSTORE ADD SWAP2 PUSH0 MSTORE PUSH1 0x20 PUSH0 KECCAK256 SWAP1 PUSH0 JUMPDEST DUP2 DUP2 LT PUSH2 0x102E JUMPI PUSH2 0x729 DUP6 PUSH2 0x1022 DUP2 DUP8 SUB DUP3 PUSH2 0x1614 JUMP JUMPDEST PUSH1 0x40 MLOAD SWAP2 DUP3 SWAP2 DUP3 PUSH2 0x1586 JUMP JUMPDEST DUP3 SLOAD DUP5 MSTORE PUSH1 0x20 SWAP1 SWAP4 ADD SWAP3 PUSH1 0x1 SWAP3 DUP4 ADD SWAP3 ADD PUSH2 0x100B JUMP JUMPDEST CALLVALUE PUSH2 0x72D JUMPI PUSH1 0x40 CALLDATASIZE PUSH1 0x3 NOT ADD SLT PUSH2 0x72D JUMPI PUSH1 0x24 CALLDATALOAD PUSH1 0x4 CALLDATALOAD PUSH0 MSTORE PUSH1 0xB PUSH1 0x20 MSTORE PUSH1 0x40 PUSH0 KECCAK256 DUP1 SLOAD DUP3 LT ISZERO PUSH2 0x72D JUMPI PUSH1 0x20 SWAP2 PUSH2 0x286 SWAP2 PUSH2 0x177C JUMP JUMPDEST CALLVALUE PUSH2 0x72D JUMPI PUSH1 0x20 CALLDATASIZE PUSH1 0x3 NOT ADD SLT PUSH2 0x72D JUMPI PUSH1 0x1 PUSH1 0x1 PUSH1 0xA0 SHL SUB PUSH2 0x109C PUSH2 0x155A JUMP JUMPDEST AND DUP1 ISZERO PUSH2 0x10B9 JUMPI PUSH0 MSTORE PUSH1 0x3 PUSH1 0x20 MSTORE PUSH1 0x20 PUSH1 0x40 PUSH0 KECCAK256 SLOAD PUSH1 0x40 MLOAD SWAP1 DUP2 MSTORE RETURN JUMPDEST PUSH4 0x22718AD9 PUSH1 0xE2 SHL PUSH0 MSTORE PUSH0 PUSH1 0x4 MSTORE PUSH1 0x24 PUSH0 REVERT JUMPDEST CALLVALUE PUSH2 0x72D JUMPI PUSH1 0x20 CALLDATASIZE PUSH1 0x3 NOT ADD SLT PUSH2 0x72D JUMPI PUSH1 0x20 PUSH2 0x10EA PUSH1 0x4 CALLDATALOAD PUSH2 0x1B70 JUMP JUMPDEST PUSH1 0x40 MLOAD PUSH1 0x1 PUSH1 0x1 PUSH1 0xA0 SHL SUB SWAP1 SWAP2 AND DUP2 MSTORE RETURN JUMPDEST CALLVALUE PUSH2 0x72D JUMPI PUSH2 0xB53 PUSH2 0x110D CALLDATASIZE PUSH2 0x1742 JUMP JUMPDEST SWAP1 PUSH1 0x40 MLOAD SWAP3 PUSH2 0x111D PUSH1 0x20 DUP6 PUSH2 0x1614 JUMP JUMPDEST PUSH0 DUP5 MSTORE PUSH2 0xB4D DUP4 DUP4 DUP4 PUSH2 0x1874 JUMP JUMPDEST CALLVALUE PUSH2 0x72D JUMPI PUSH1 0x40 CALLDATASIZE PUSH1 0x3 NOT ADD SLT PUSH2 0x72D JUMPI PUSH2 0x1144 PUSH2 0x1570 JUMP JUMPDEST CALLER PUSH1 0x1 PUSH1 0x1 PUSH1 0xA0 SHL SUB DUP3 AND SUB PUSH2 0x1160 JUMPI PUSH2 0xB53 SWAP1 PUSH1 0x4 CALLDATALOAD PUSH2 0x1DE7 JUMP JUMPDEST PUSH4 0x334BD919 PUSH1 0xE1 SHL PUSH0 MSTORE PUSH1 0x4 PUSH0 REVERT JUMPDEST CALLVALUE PUSH2 0x72D JUMPI PUSH1 0x40 CALLDATASIZE PUSH1 0x3 NOT ADD SLT PUSH2 0x72D JUMPI PUSH2 0xB53 PUSH1 0x4 CALLDATALOAD PUSH2 0x118E PUSH2 0x1570 JUMP JUMPDEST SWAP1 PUSH2 0x11A8 PUSH2 0x2CF DUP3 PUSH0 MSTORE PUSH1 0x6 PUSH1 0x20 MSTORE PUSH1 0x1 PUSH1 0x40 PUSH0 KECCAK256 ADD SLOAD SWAP1 JUMP JUMPDEST PUSH2 0x1D5B JUMP JUMPDEST CALLVALUE PUSH2 0x72D JUMPI PUSH1 0x20 CALLDATASIZE PUSH1 0x3 NOT ADD SLT PUSH2 0x72D JUMPI PUSH1 0x20 PUSH2 0x11D8 PUSH1 0x4 CALLDATALOAD PUSH0 MSTORE PUSH1 0x6 PUSH1 0x20 MSTORE PUSH1 0x1 PUSH1 0x40 PUSH0 KECCAK256 ADD SLOAD SWAP1 JUMP JUMPDEST PUSH1 0x40 MLOAD SWAP1 DUP2 MSTORE RETURN JUMPDEST CALLVALUE PUSH2 0x72D JUMPI PUSH2 0xB53 PUSH2 0x11F1 CALLDATASIZE PUSH2 0x1742 JUMP JUMPDEST SWAP2 PUSH2 0x1874 JUMP JUMPDEST CALLVALUE PUSH2 0x72D JUMPI PUSH1 0x20 CALLDATASIZE PUSH1 0x3 NOT ADD SLT PUSH2 0x72D JUMPI PUSH1 0x4 CALLDATALOAD PUSH0 MSTORE PUSH1 0x9 PUSH1 0x20 MSTORE PUSH1 0x40 PUSH0 KECCAK256 DUP1 SLOAD PUSH2 0x729 PUSH1 0x1 DUP1 PUSH1 0xA0 SHL SUB PUSH1 0x1 DUP5 ADD SLOAD AND SWAP3 PUSH1 0x2 DUP2 ADD SLOAD SWAP1 PUSH1 0x3 DUP2 ADD SLOAD PUSH1 0x4 DUP3 ADD SLOAD PUSH1 0x5 DUP4 ADD SLOAD SWAP1 PUSH1 0x6 DUP5 ADD SLOAD SWAP3 PUSH1 0x8 PUSH2 0x1253 PUSH1 0x7 DUP8 ADD PUSH2 0x1636 JUMP JUMPDEST SWAP6 ADD SLOAD PUSH1 0x40 MLOAD SWAP10 DUP11 SWAP10 SWAP2 SWAP8 SWAP2 PUSH1 0x8 DUP2 SWAP1 SHR PUSH1 0x1 PUSH1 0x1 PUSH1 0xA0 SHL SUB AND SWAP1 PUSH1 0xFF AND DUP12 PUSH2 0x16D6 JUMP JUMPDEST CALLVALUE PUSH2 0x72D JUMPI PUSH1 0x20 CALLDATASIZE PUSH1 0x3 NOT ADD SLT PUSH2 0x72D JUMPI PUSH1 0x1 PUSH1 0x1 PUSH1 0xA0 SHL SUB PUSH2 0x1298 PUSH2 0x155A JUMP JUMPDEST AND PUSH0 MSTORE PUSH1 0xA PUSH1 0x20 MSTORE PUSH1 0x40 PUSH0 KECCAK256 PUSH1 0x40 MLOAD SWAP1 DUP2 PUSH1 0x20 DUP3 SLOAD SWAP2 DUP3 DUP2 MSTORE ADD SWAP2 PUSH0 MSTORE PUSH1 0x20 PUSH0 KECCAK256 SWAP1 PUSH0 JUMPDEST DUP2 DUP2 LT PUSH2 0x12D3 JUMPI PUSH2 0x729 DUP6 PUSH2 0x1022 DUP2 DUP8 SUB DUP3 PUSH2 0x1614 JUMP JUMPDEST DUP3 SLOAD DUP5 MSTORE PUSH1 0x20 SWAP1 SWAP4 ADD SWAP3 PUSH1 0x1 SWAP3 DUP4 ADD SWAP3 ADD PUSH2 0x12BC JUMP JUMPDEST CALLVALUE PUSH2 0x72D JUMPI PUSH1 0x40 CALLDATASIZE PUSH1 0x3 NOT ADD SLT PUSH2 0x72D JUMPI PUSH2 0x1302 PUSH2 0x155A JUMP JUMPDEST PUSH1 0x24 CALLDATALOAD PUSH2 0x130E DUP2 PUSH2 0x1B70 JUMP JUMPDEST CALLER ISZERO ISZERO DUP1 PUSH2 0x13C0 JUMPI JUMPDEST DUP1 PUSH2 0x1393 JUMPI JUMPDEST PUSH2 0x1380 JUMPI DUP2 SWAP1 PUSH1 0x1 PUSH1 0x1 PUSH1 0xA0 SHL SUB DUP5 DUP2 AND SWAP2 AND PUSH32 0x8C5BE1E5EBEC7D5BD14F71427D1E84F3DD0314C0F7B2291E5B200AC8C7C3B925 PUSH0 DUP1 LOG4 PUSH0 SWAP1 DUP2 MSTORE PUSH1 0x4 PUSH1 0x20 MSTORE PUSH1 0x40 SWAP1 KECCAK256 DUP1 SLOAD PUSH1 0x1 PUSH1 0x1 PUSH1 0xA0 SHL SUB NOT AND PUSH1 0x1 PUSH1 0x1 PUSH1 0xA0 SHL SUB SWAP1 SWAP3 AND SWAP2 SWAP1 SWAP2 OR SWAP1 SSTORE STOP JUMPDEST PUSH4 0xA9FBF51F PUSH1 0xE0 SHL PUSH0 MSTORE CALLER PUSH1 0x4 MSTORE PUSH1 0x24 PUSH0 REVERT JUMPDEST POP PUSH1 0x1 PUSH1 0x1 PUSH1 0xA0 SHL SUB DUP2 AND PUSH0 SWAP1 DUP2 MSTORE PUSH1 0x5 PUSH1 0x20 SWAP1 DUP2 MSTORE PUSH1 0x40 DUP1 DUP4 KECCAK256 CALLER DUP5 MSTORE SWAP1 SWAP2 MSTORE SWAP1 KECCAK256 SLOAD PUSH1 0xFF AND ISZERO PUSH2 0x131D JUMP JUMPDEST POP PUSH1 0x1 PUSH1 0x1 PUSH1 0xA0 SHL SUB DUP2 AND CALLER EQ ISZERO PUSH2 0x1317 JUMP JUMPDEST CALLVALUE PUSH2 0x72D JUMPI PUSH1 0x20 CALLDATASIZE PUSH1 0x3 NOT ADD SLT PUSH2 0x72D JUMPI PUSH1 0x4 CALLDATALOAD PUSH2 0x13F0 DUP2 PUSH2 0x1B70 JUMP JUMPDEST POP PUSH0 MSTORE PUSH1 0x4 PUSH1 0x20 MSTORE PUSH1 0x20 PUSH1 0x1 DUP1 PUSH1 0xA0 SHL SUB PUSH1 0x40 PUSH0 KECCAK256 SLOAD AND PUSH1 0x40 MLOAD SWAP1 DUP2 MSTORE RETURN JUMPDEST CALLVALUE PUSH2 0x72D JUMPI PUSH0 CALLDATASIZE PUSH1 0x3 NOT ADD SLT PUSH2 0x72D JUMPI PUSH1 0x40 MLOAD PUSH0 PUSH0 SLOAD PUSH2 0x142E DUP2 PUSH2 0x15BF JUMP JUMPDEST DUP1 DUP5 MSTORE SWAP1 PUSH1 0x1 DUP2 AND SWAP1 DUP2 ISZERO PUSH2 0xDC7 JUMPI POP PUSH1 0x1 EQ PUSH2 0x1455 JUMPI PUSH2 0x729 DUP4 PUSH2 0xD55 DUP2 DUP6 SUB DUP3 PUSH2 0x1614 JUMP JUMPDEST PUSH0 DUP1 DUP1 MSTORE PUSH32 0x290DECD9548B62A8D60345A988386FC84BA6BC95484008F6362F93160EF3E563 SWAP4 SWAP3 POP SWAP1 JUMPDEST DUP1 DUP3 LT PUSH2 0x1497 JUMPI POP SWAP1 SWAP2 POP DUP2 ADD PUSH1 0x20 ADD PUSH2 0xD55 PUSH2 0xD45 JUMP JUMPDEST SWAP2 SWAP3 PUSH1 0x1 DUP2 PUSH1 0x20 SWAP3 SLOAD DUP4 DUP6 DUP9 ADD ADD MSTORE ADD SWAP2 ADD SWAP1 SWAP3 SWAP2 PUSH2 0x147F JUMP JUMPDEST CALLVALUE PUSH2 0x72D JUMPI PUSH1 0x20 CALLDATASIZE PUSH1 0x3 NOT ADD SLT PUSH2 0x72D JUMPI PUSH1 0x4 CALLDATALOAD SWAP1 PUSH4 0xFFFFFFFF PUSH1 0xE0 SHL DUP3 AND DUP1 SWAP3 SUB PUSH2 0x72D JUMPI PUSH1 0x20 SWAP2 PUSH4 0x7965DB0B PUSH1 0xE0 SHL DUP2 EQ SWAP1 DUP2 ISZERO PUSH2 0x14F3 JUMPI JUMPDEST POP ISZERO ISZERO DUP2 MSTORE RETURN JUMPDEST PUSH4 0x80AC58CD PUSH1 0xE0 SHL DUP2 EQ SWAP2 POP DUP2 ISZERO PUSH2 0x1525 JUMPI JUMPDEST DUP2 ISZERO PUSH2 0x1514 JUMPI JUMPDEST POP DUP4 PUSH2 0x14EC JUMP JUMPDEST PUSH4 0x1FFC9A7 PUSH1 0xE0 SHL EQ SWAP1 POP DUP4 PUSH2 0x150D JUMP JUMPDEST PUSH4 0x5B5E139F PUSH1 0xE0 SHL DUP2 EQ SWAP2 POP PUSH2 0x1506 JUMP JUMPDEST DUP1 MLOAD DUP1 DUP4 MSTORE PUSH1 0x20 SWAP3 SWAP2 DUP2 SWAP1 DUP5 ADD DUP5 DUP5 ADD MCOPY PUSH0 DUP3 DUP3 ADD DUP5 ADD MSTORE PUSH1 0x1F ADD PUSH1 0x1F NOT AND ADD ADD SWAP1 JUMP JUMPDEST PUSH1 0x4 CALLDATALOAD SWAP1 PUSH1 0x1 PUSH1 0x1 PUSH1 0xA0 SHL SUB DUP3 AND DUP3 SUB PUSH2 0x72D JUMPI JUMP JUMPDEST PUSH1 0x24 CALLDATALOAD SWAP1 PUSH1 0x1 PUSH1 0x1 PUSH1 0xA0 SHL SUB DUP3 AND DUP3 SUB PUSH2 0x72D JUMPI JUMP JUMPDEST PUSH1 0x20 PUSH1 0x40 DUP2 DUP4 ADD SWAP3 DUP3 DUP2 MSTORE DUP5 MLOAD DUP1 SWAP5 MSTORE ADD SWAP3 ADD SWAP1 PUSH0 JUMPDEST DUP2 DUP2 LT PUSH2 0x15A9 JUMPI POP POP POP SWAP1 JUMP JUMPDEST DUP3 MLOAD DUP5 MSTORE PUSH1 0x20 SWAP4 DUP5 ADD SWAP4 SWAP1 SWAP3 ADD SWAP2 PUSH1 0x1 ADD PUSH2 0x159C JUMP JUMPDEST SWAP1 PUSH1 0x1 DUP3 DUP2 SHR SWAP3 AND DUP1 ISZERO PUSH2 0x15ED JUMPI JUMPDEST PUSH1 0x20 DUP4 LT EQ PUSH2 0x15D9 JUMPI JUMP JUMPDEST PUSH4 0x4E487B71 PUSH1 0xE0 SHL PUSH0 MSTORE PUSH1 0x22 PUSH1 0x4 MSTORE PUSH1 0x24 PUSH0 REVERT JUMPDEST SWAP2 PUSH1 0x7F AND SWAP2 PUSH2 0x15CE JUMP JUMPDEST PUSH2 0x140 DUP2 ADD SWAP1 DUP2 LT PUSH8 0xFFFFFFFFFFFFFFFF DUP3 GT OR PUSH2 0xA44 JUMPI PUSH1 0x40 MSTORE JUMP JUMPDEST SWAP1 PUSH1 0x1F DUP1 NOT SWAP2 ADD AND DUP2 ADD SWAP1 DUP2 LT PUSH8 0xFFFFFFFFFFFFFFFF DUP3 GT OR PUSH2 0xA44 JUMPI PUSH1 0x40 MSTORE JUMP JUMPDEST SWAP1 PUSH1 0x40 MLOAD SWAP2 DUP3 PUSH0 DUP3 SLOAD SWAP3 PUSH2 0x1649 DUP5 PUSH2 0x15BF JUMP JUMPDEST DUP1 DUP5 MSTORE SWAP4 PUSH1 0x1 DUP2 AND SWAP1 DUP2 ISZERO PUSH2 0x16B4 JUMPI POP PUSH1 0x1 EQ PUSH2 0x1670 JUMPI JUMPDEST POP PUSH2 0x166E SWAP3 POP SUB DUP4 PUSH2 0x1614 JUMP JUMPDEST JUMP JUMPDEST SWAP1 POP PUSH0 SWAP3 SWAP2 SWAP3 MSTORE PUSH1 0x20 PUSH0 KECCAK256 SWAP1 PUSH0 SWAP2 JUMPDEST DUP2 DUP4 LT PUSH2 0x1698 JUMPI POP POP SWAP1 PUSH1 0x20 PUSH2 0x166E SWAP3 DUP3 ADD ADD PUSH0 PUSH2 0x1661 JUMP JUMPDEST PUSH1 0x20 SWAP2 SWAP4 POP DUP1 PUSH1 0x1 SWAP2 SLOAD DUP4 DUP6 DUP10 ADD ADD MSTORE ADD SWAP2 ADD SWAP1 SWAP2 DUP5 SWAP3 PUSH2 0x167F JUMP JUMPDEST SWAP1 POP PUSH1 0x20 SWAP3 POP PUSH2 0x166E SWAP5 SWAP2 POP PUSH1 0xFF NOT AND DUP3 DUP5 ADD MSTORE ISZERO ISZERO PUSH1 0x5 SHL DUP3 ADD ADD PUSH0 PUSH2 0x1661 JUMP JUMPDEST SWAP11 SWAP10 SWAP9 SWAP6 SWAP3 SWAP8 SWAP5 SWAP2 SWAP8 SWAP7 SWAP4 SWAP1 SWAP7 PUSH1 0x2 DUP9 LT ISZERO PUSH2 0xA58 JUMPI PUSH2 0x120 SWAP9 PUSH2 0x173D SWAP9 DUP14 MSTORE PUSH1 0x1 DUP1 PUSH1 0xA0 SHL SUB AND PUSH1 0x20 DUP14 ADD MSTORE PUSH1 0x1 DUP1 PUSH1 0xA0 SHL SUB AND PUSH1 0x40 DUP13 ADD MSTORE PUSH1 0x60 DUP12 ADD MSTORE PUSH1 0x80 DUP11 ADD MSTORE PUSH1 0xA0 DUP10 ADD MSTORE PUSH1 0xC0 DUP9 ADD MSTORE PUSH1 0xE0 DUP8 ADD MSTORE PUSH2 0x140 PUSH2 0x100 DUP8 ADD MSTORE PUSH2 0x140 DUP7 ADD SWAP1 PUSH2 0x1536 JUMP JUMPDEST SWAP4 ADD MSTORE JUMP JUMPDEST PUSH1 0x60 SWAP1 PUSH1 0x3 NOT ADD SLT PUSH2 0x72D JUMPI PUSH1 0x4 CALLDATALOAD PUSH1 0x1 PUSH1 0x1 PUSH1 0xA0 SHL SUB DUP2 AND DUP2 SUB PUSH2 0x72D JUMPI SWAP1 PUSH1 0x24 CALLDATALOAD PUSH1 0x1 PUSH1 0x1 PUSH1 0xA0 SHL SUB DUP2 AND DUP2 SUB PUSH2 0x72D JUMPI SWAP1 PUSH1 0x44 CALLDATALOAD SWAP1 JUMP JUMPDEST DUP1 SLOAD DUP3 LT ISZERO PUSH2 0x1791 JUMPI PUSH0 MSTORE PUSH1 0x20 PUSH0 KECCAK256 ADD SWAP1 PUSH0 SWAP1 JUMP JUMPDEST PUSH4 0x4E487B71 PUSH1 0xE0 SHL PUSH0 MSTORE PUSH1 0x32 PUSH1 0x4 MSTORE PUSH1 0x24 PUSH0 REVERT JUMPDEST PUSH8 0xFFFFFFFFFFFFFFFF DUP2 GT PUSH2 0xA44 JUMPI PUSH1 0x1F ADD PUSH1 0x1F NOT AND PUSH1 0x20 ADD SWAP1 JUMP JUMPDEST SWAP3 SWAP2 SWAP3 PUSH2 0x17CD DUP3 PUSH2 0x17A5 JUMP JUMPDEST SWAP2 PUSH2 0x17DB PUSH1 0x40 MLOAD SWAP4 DUP5 PUSH2 0x1614 JUMP JUMPDEST DUP3 SWAP5 DUP2 DUP5 MSTORE DUP2 DUP4 ADD GT PUSH2 0x72D JUMPI DUP3 DUP2 PUSH1 0x20 SWAP4 DUP5 PUSH0 SWAP7 ADD CALLDATACOPY ADD ADD MSTORE JUMP JUMPDEST SWAP1 PUSH2 0x100 PUSH1 0x3 NOT DUP4 ADD SLT PUSH2 0x72D JUMPI PUSH1 0x4 CALLDATALOAD PUSH1 0x1 PUSH1 0x1 PUSH1 0xA0 SHL SUB DUP2 AND DUP2 SUB PUSH2 0x72D JUMPI SWAP2 PUSH1 0x24 CALLDATALOAD PUSH1 0x1 PUSH1 0x1 PUSH1 0xA0 SHL SUB DUP2 AND DUP2 SUB PUSH2 0x72D JUMPI SWAP2 PUSH1 0x44 CALLDATALOAD SWAP2 PUSH1 0x64 CALLDATALOAD SWAP2 PUSH1 0x84 CALLDATALOAD SWAP2 PUSH1 0xA4 CALLDATALOAD SWAP2 PUSH1 0xC4 CALLDATALOAD SWAP2 PUSH1 0xE4 CALLDATALOAD SWAP1 PUSH8 0xFFFFFFFFFFFFFFFF DUP3 GT PUSH2 0x72D JUMPI DUP1 PUSH1 0x23 DUP4 ADD SLT ISZERO PUSH2 0x72D JUMPI DUP2 PUSH1 0x24 PUSH2 0x1871 SWAP4 PUSH1 0x4 ADD CALLDATALOAD SWAP2 ADD PUSH2 0x17C1 JUMP JUMPDEST SWAP1 JUMP JUMPDEST PUSH1 0x1 PUSH1 0x1 PUSH1 0xA0 SHL SUB SWAP1 SWAP2 AND SWAP2 SWAP1 DUP3 ISZERO PUSH2 0x1A2C JUMPI PUSH0 DUP3 DUP2 MSTORE PUSH1 0x2 PUSH1 0x20 MSTORE PUSH1 0x40 SWAP1 KECCAK256 SLOAD PUSH1 0x1 PUSH1 0x1 PUSH1 0xA0 SHL SUB AND ISZERO ISZERO DUP1 PUSH2 0x1A24 JUMPI JUMPDEST PUSH2 0xEF5 JUMPI PUSH0 DUP3 DUP2 MSTORE PUSH1 0x2 PUSH1 0x20 MSTORE PUSH1 0x40 SWAP1 KECCAK256 SLOAD PUSH1 0x1 PUSH1 0x1 PUSH1 0xA0 SHL SUB AND SWAP3 DUP3 SWAP1 CALLER ISZERO ISZERO DUP1 PUSH2 0x198F JUMPI JUMPDEST POP DUP5 PUSH2 0x195C JUMPI JUMPDEST DUP1 PUSH0 MSTORE PUSH1 0x3 PUSH1 0x20 MSTORE PUSH1 0x40 PUSH0 KECCAK256 PUSH1 0x1 DUP2 SLOAD ADD SWAP1 SSTORE DUP2 PUSH0 MSTORE PUSH1 0x2 PUSH1 0x20 MSTORE PUSH1 0x40 PUSH0 KECCAK256 DUP2 PUSH12 0xFFFFFFFFFFFFFFFFFFFFFFFF PUSH1 0xA0 SHL DUP3 SLOAD AND OR SWAP1 SSTORE DUP5 PUSH32 0xDDF252AD1BE2C89B69C2B068FC378DAA952BA7F163C4A11628F55A4DF523B3EF PUSH0 DUP1 LOG4 PUSH1 0x1 PUSH1 0x1 PUSH1 0xA0 SHL SUB AND DUP1 DUP4 SUB PUSH2 0x1944 JUMPI POP POP POP JUMP JUMPDEST PUSH4 0x64283D7B PUSH1 0xE0 SHL PUSH0 MSTORE PUSH1 0x4 MSTORE PUSH1 0x24 MSTORE PUSH1 0x44 MSTORE PUSH1 0x64 PUSH0 REVERT JUMPDEST PUSH0 DUP3 DUP2 MSTORE PUSH1 0x4 PUSH1 0x20 MSTORE PUSH1 0x40 SWAP1 KECCAK256 DUP1 SLOAD PUSH1 0x1 PUSH1 0x1 PUSH1 0xA0 SHL SUB NOT AND SWAP1 SSTORE DUP5 PUSH0 MSTORE PUSH1 0x3 PUSH1 0x20 MSTORE PUSH1 0x40 PUSH0 KECCAK256 PUSH0 NOT DUP2 SLOAD ADD SWAP1 SSTORE PUSH2 0x18D4 JUMP JUMPDEST SWAP1 SWAP2 POP DUP1 PUSH2 0x19D3 JUMPI JUMPDEST ISZERO PUSH2 0x19A5 JUMPI DUP3 SWAP1 PUSH0 PUSH2 0x18CD JUMP JUMPDEST DUP3 DUP5 PUSH2 0x19BD JUMPI PUSH4 0x7E273289 PUSH1 0xE0 SHL PUSH0 MSTORE PUSH1 0x4 MSTORE PUSH1 0x24 PUSH0 REVERT JUMPDEST PUSH4 0x177E802F PUSH1 0xE0 SHL PUSH0 MSTORE CALLER PUSH1 0x4 MSTORE PUSH1 0x24 MSTORE PUSH1 0x44 PUSH0 REVERT JUMPDEST POP CALLER DUP5 EQ DUP1 ISZERO PUSH2 0x1A02 JUMPI JUMPDEST DUP1 PUSH2 0x1998 JUMPI POP PUSH0 DUP4 DUP2 MSTORE PUSH1 0x4 PUSH1 0x20 MSTORE PUSH1 0x40 SWAP1 KECCAK256 SLOAD PUSH1 0x1 PUSH1 0x1 PUSH1 0xA0 SHL SUB AND CALLER EQ PUSH2 0x1998 JUMP JUMPDEST POP PUSH0 DUP5 DUP2 MSTORE PUSH1 0x5 PUSH1 0x20 SWAP1 DUP2 MSTORE PUSH1 0x40 DUP1 DUP4 KECCAK256 CALLER DUP5 MSTORE SWAP1 SWAP2 MSTORE SWAP1 KECCAK256 SLOAD PUSH1 0xFF AND PUSH2 0x19DE JUMP JUMPDEST POP PUSH1 0x1 PUSH2 0x18A6 JUMP JUMPDEST PUSH4 0x32505749 PUSH1 0xE1 SHL PUSH0 MSTORE PUSH0 PUSH1 0x4 MSTORE PUSH1 0x24 PUSH0 REVERT JUMPDEST ISZERO PUSH2 0x1A46 JUMPI JUMP JUMPDEST PUSH1 0x40 MLOAD PUSH3 0x461BCD PUSH1 0xE5 SHL DUP2 MSTORE PUSH1 0x20 PUSH1 0x4 DUP3 ADD MSTORE PUSH1 0x16 PUSH1 0x24 DUP3 ADD MSTORE PUSH22 0x496E76616C69642074656E616E742061646472657373 PUSH1 0x50 SHL PUSH1 0x44 DUP3 ADD MSTORE PUSH1 0x64 SWAP1 REVERT JUMPDEST ISZERO PUSH2 0x1A8B JUMPI JUMP JUMPDEST PUSH1 0x40 MLOAD PUSH3 0x461BCD PUSH1 0xE5 SHL DUP2 MSTORE PUSH1 0x20 PUSH1 0x4 DUP3 ADD MSTORE PUSH1 0x18 PUSH1 0x24 DUP3 ADD MSTORE PUSH32 0x496E76616C6964206C616E646C6F726420616464726573730000000000000000 PUSH1 0x44 DUP3 ADD MSTORE PUSH1 0x64 SWAP1 REVERT JUMPDEST ISZERO PUSH2 0x1AD7 JUMPI JUMP JUMPDEST PUSH1 0x40 MLOAD PUSH3 0x461BCD PUSH1 0xE5 SHL DUP2 MSTORE PUSH1 0x20 PUSH1 0x4 DUP3 ADD MSTORE PUSH1 0x16 PUSH1 0x24 DUP3 ADD MSTORE PUSH22 0x13595D1859185D18481A185CDA081C995C5D5A5C9959 PUSH1 0x52 SHL PUSH1 0x44 DUP3 ADD MSTORE PUSH1 0x64 SWAP1 REVERT JUMPDEST PUSH0 NOT DUP2 EQ PUSH2 0x1B23 JUMPI PUSH1 0x1 ADD SWAP1 JUMP JUMPDEST PUSH4 0x4E487B71 PUSH1 0xE0 SHL PUSH0 MSTORE PUSH1 0x11 PUSH1 0x4 MSTORE PUSH1 0x24 PUSH0 REVERT JUMPDEST DUP1 SLOAD PUSH9 0x10000000000000000 DUP2 LT ISZERO PUSH2 0xA44 JUMPI PUSH2 0x1B59 SWAP2 PUSH1 0x1 DUP3 ADD DUP2 SSTORE PUSH2 0x177C JUMP JUMPDEST DUP2 SWAP3 SWAP2 SLOAD SWAP1 PUSH1 0x3 SHL SWAP2 DUP3 SHL SWAP2 PUSH0 NOT SWAP1 SHL NOT AND OR SWAP1 SSTORE JUMP JUMPDEST PUSH0 DUP2 DUP2 MSTORE PUSH1 0x2 PUSH1 0x20 MSTORE PUSH1 0x40 SWAP1 KECCAK256 SLOAD PUSH1 0x1 PUSH1 0x1 PUSH1 0xA0 SHL SUB AND SWAP1 DUP2 ISZERO PUSH2 0xEB0 JUMPI POP SWAP1 JUMP JUMPDEST CALLER PUSH0 SWAP1 DUP2 MSTORE PUSH32 0x54CDD369E4E8A8515E52CA72EC816C2101831AD1F18BF44102ED171459C9B4F8 PUSH1 0x20 MSTORE PUSH1 0x40 SWAP1 KECCAK256 SLOAD PUSH1 0xFF AND ISZERO PUSH2 0x1BCA JUMPI JUMP JUMPDEST PUSH4 0xE2517D3F PUSH1 0xE0 SHL PUSH0 MSTORE CALLER PUSH1 0x4 MSTORE PUSH0 PUSH1 0x24 MSTORE PUSH1 0x44 PUSH0 REVERT JUMPDEST CALLER PUSH0 SWAP1 DUP2 MSTORE PUSH32 0x3195C024B2DDD6D9B8F6C836AA52F67FE69376C8903D009B80229B3CE4425F51 PUSH1 0x20 MSTORE PUSH1 0x40 SWAP1 KECCAK256 SLOAD PUSH1 0xFF AND ISZERO PUSH2 0x1C19 JUMPI JUMP JUMPDEST PUSH4 0xE2517D3F PUSH1 0xE0 SHL PUSH0 MSTORE CALLER PUSH1 0x4 MSTORE PUSH32 0x9F2DF0FED2C77648DE5860A4CC508CD0818C85B8B8A1AB4CEEEF8D981C8956A6 PUSH1 0x24 MSTORE PUSH1 0x44 PUSH0 REVERT JUMPDEST PUSH0 DUP2 DUP2 MSTORE PUSH1 0x6 PUSH1 0x20 SWAP1 DUP2 MSTORE PUSH1 0x40 DUP1 DUP4 KECCAK256 CALLER DUP5 MSTORE SWAP1 SWAP2 MSTORE SWAP1 KECCAK256 SLOAD PUSH1 0xFF AND ISZERO PUSH2 0x1C74 JUMPI POP JUMP JUMPDEST PUSH4 0xE2517D3F PUSH1 0xE0 SHL PUSH0 MSTORE CALLER PUSH1 0x4 MSTORE PUSH1 0x24 MSTORE PUSH1 0x44 PUSH0 REVERT JUMPDEST PUSH1 0x1 PUSH1 0x1 PUSH1 0xA0 SHL SUB DUP2 AND PUSH0 SWAP1 DUP2 MSTORE PUSH32 0x3195C024B2DDD6D9B8F6C836AA52F67FE69376C8903D009B80229B3CE4425F51 PUSH1 0x20 MSTORE PUSH1 0x40 SWAP1 KECCAK256 SLOAD PUSH1 0xFF AND PUSH2 0x1D56 JUMPI PUSH1 0x1 PUSH1 0x1 PUSH1 0xA0 SHL SUB AND PUSH0 DUP2 DUP2 MSTORE PUSH32 0x3195C024B2DDD6D9B8F6C836AA52F67FE69376C8903D009B80229B3CE4425F51 PUSH1 0x20 MSTORE PUSH1 0x40 DUP2 KECCAK256 DUP1 SLOAD PUSH1 0xFF NOT AND PUSH1 0x1 OR SWAP1 SSTORE CALLER SWAP2 SWAP1 PUSH32 0x9F2DF0FED2C77648DE5860A4CC508CD0818C85B8B8A1AB4CEEEF8D981C8956A6 SWAP1 PUSH32 0x2F8788117E7EFF1D82E926EC794901D17C78024A50270940304540A733656F0D SWAP1 DUP1 LOG4 PUSH1 0x1 SWAP1 JUMP JUMPDEST POP PUSH0 SWAP1 JUMP JUMPDEST PUSH0 DUP2 DUP2 MSTORE PUSH1 0x6 PUSH1 0x20 SWAP1 DUP2 MSTORE PUSH1 0x40 DUP1 DUP4 KECCAK256 PUSH1 0x1 PUSH1 0x1 PUSH1 0xA0 SHL SUB DUP7 AND DUP5 MSTORE SWAP1 SWAP2 MSTORE SWAP1 KECCAK256 SLOAD PUSH1 0xFF AND PUSH2 0x1DE1 JUMPI PUSH0 DUP2 DUP2 MSTORE PUSH1 0x6 PUSH1 0x20 SWAP1 DUP2 MSTORE PUSH1 0x40 DUP1 DUP4 KECCAK256 PUSH1 0x1 PUSH1 0x1 PUSH1 0xA0 SHL SUB SWAP6 SWAP1 SWAP6 AND DUP1 DUP5 MSTORE SWAP5 SWAP1 SWAP2 MSTORE DUP2 KECCAK256 DUP1 SLOAD PUSH1 0xFF NOT AND PUSH1 0x1 OR SWAP1 SSTORE CALLER SWAP3 SWAP2 SWAP1 PUSH32 0x2F8788117E7EFF1D82E926EC794901D17C78024A50270940304540A733656F0D SWAP1 DUP1 LOG4 PUSH1 0x1 SWAP1 JUMP JUMPDEST POP POP PUSH0 SWAP1 JUMP JUMPDEST PUSH0 DUP2 DUP2 MSTORE PUSH1 0x6 PUSH1 0x20 SWAP1 DUP2 MSTORE PUSH1 0x40 DUP1 DUP4 KECCAK256 PUSH1 0x1 PUSH1 0x1 PUSH1 0xA0 SHL SUB DUP7 AND DUP5 MSTORE SWAP1 SWAP2 MSTORE SWAP1 KECCAK256 SLOAD PUSH1 0xFF AND ISZERO PUSH2 0x1DE1 JUMPI PUSH0 DUP2 DUP2 MSTORE PUSH1 0x6 PUSH1 0x20 SWAP1 DUP2 MSTORE PUSH1 0x40 DUP1 DUP4 KECCAK256 PUSH1 0x1 PUSH1 0x1 PUSH1 0xA0 SHL SUB SWAP6 SWAP1 SWAP6 AND DUP1 DUP5 MSTORE SWAP5 SWAP1 SWAP2 MSTORE DUP2 KECCAK256 DUP1 SLOAD PUSH1 0xFF NOT AND SWAP1 SSTORE CALLER SWAP3 SWAP2 SWAP1 PUSH32 0xF6391F5C32D9C69D2A47EA670B442974B53935D1EDC7FD64EB21E047A839171B SWAP1 DUP1 LOG4 PUSH1 0x1 SWAP1 JUMP JUMPDEST DUP3 EXTCODESIZE PUSH2 0x1E79 JUMPI JUMPDEST POP POP POP POP POP JUMP JUMPDEST PUSH1 0x40 MLOAD PUSH4 0xA85BD01 PUSH1 0xE1 SHL DUP2 MSTORE PUSH1 0x1 PUSH1 0x1 PUSH1 0xA0 SHL SUB SWAP2 DUP3 AND PUSH1 0x4 DUP3 ADD MSTORE SWAP2 DUP2 AND PUSH1 0x24 DUP4 ADD MSTORE PUSH1 0x44 DUP3 ADD SWAP4 SWAP1 SWAP4 MSTORE PUSH1 0x80 PUSH1 0x64 DUP3 ADD MSTORE SWAP2 AND SWAP2 PUSH1 0x20 SWAP1 DUP3 SWAP1 DUP2 SWAP1 PUSH2 0x1EC5 SWAP1 PUSH1 0x84 DUP4 ADD SWAP1 PUSH2 0x1536 JUMP JUMPDEST SUB DUP2 PUSH0 DUP7 GAS CALL PUSH0 SWAP2 DUP2 PUSH2 0x1F5C JUMPI JUMPDEST POP PUSH2 0x1F28 JUMPI POP RETURNDATASIZE ISZERO PUSH2 0x1F21 JUMPI RETURNDATASIZE PUSH2 0x1EE9 DUP2 PUSH2 0x17A5 JUMP JUMPDEST SWAP1 PUSH2 0x1EF7 PUSH1 0x40 MLOAD SWAP3 DUP4 PUSH2 0x1614 JUMP JUMPDEST DUP2 MSTORE RETURNDATASIZE PUSH0 PUSH1 0x20 DUP4 ADD RETURNDATACOPY JUMPDEST DUP1 MLOAD SWAP1 DUP2 PUSH2 0x1F1C JUMPI DUP3 PUSH4 0x32505749 PUSH1 0xE1 SHL PUSH0 MSTORE PUSH1 0x4 MSTORE PUSH1 0x24 PUSH0 REVERT JUMPDEST PUSH1 0x20 ADD REVERT JUMPDEST PUSH1 0x60 PUSH2 0x1F01 JUMP JUMPDEST PUSH1 0x1 PUSH1 0x1 PUSH1 0xE0 SHL SUB NOT AND PUSH4 0x757A42FF PUSH1 0xE1 SHL ADD PUSH2 0x1F4A JUMPI POP PUSH0 DUP1 DUP1 DUP1 DUP1 PUSH2 0x1E72 JUMP JUMPDEST PUSH4 0x32505749 PUSH1 0xE1 SHL PUSH0 MSTORE PUSH1 0x4 MSTORE PUSH1 0x24 PUSH0 REVERT JUMPDEST SWAP1 SWAP2 POP PUSH1 0x20 DUP2 RETURNDATASIZE PUSH1 0x20 GT PUSH2 0x1F99 JUMPI JUMPDEST DUP2 PUSH2 0x1F78 PUSH1 0x20 SWAP4 DUP4 PUSH2 0x1614 JUMP JUMPDEST DUP2 ADD SUB SLT PUSH2 0x72D JUMPI MLOAD PUSH1 0x1 PUSH1 0x1 PUSH1 0xE0 SHL SUB NOT DUP2 AND DUP2 SUB PUSH2 0x72D JUMPI SWAP1 PUSH0 PUSH2 0x1ED3 JUMP JUMPDEST RETURNDATASIZE SWAP2 POP PUSH2 0x1F6B JUMP JUMPDEST PUSH1 0x2 PUSH1 0x7 SLOAD EQ PUSH2 0x1FB2 JUMPI PUSH1 0x2 PUSH1 0x7 SSTORE JUMP JUMPDEST PUSH4 0x3EE5AEB5 PUSH1 0xE0 SHL PUSH0 MSTORE PUSH1 0x4 PUSH0 REVERT JUMPDEST SWAP1 PUSH1 0x20 SWAP1 PUSH1 0x40 MLOAD SWAP1 PUSH2 0x1FD3 DUP4 DUP4 PUSH2 0x1614 JUMP JUMPDEST PUSH0 DUP3 MSTORE PUSH1 0x1 PUSH1 0x1 PUSH1 0xA0 SHL SUB DUP5 AND SWAP4 DUP5 ISZERO PUSH2 0x1A2C JUMPI PUSH0 DUP3 DUP2 MSTORE PUSH1 0x2 DUP6 MSTORE PUSH1 0x40 SWAP1 KECCAK256 SLOAD PUSH1 0x1 PUSH1 0x1 PUSH1 0xA0 SHL SUB AND ISZERO ISZERO DUP1 PUSH2 0x222F JUMPI JUMPDEST PUSH2 0x21DE JUMPI PUSH0 DUP3 DUP2 MSTORE PUSH1 0x2 DUP6 MSTORE PUSH1 0x40 SWAP1 KECCAK256 SLOAD PUSH1 0x1 PUSH1 0x1 PUSH1 0xA0 SHL SUB AND DUP1 ISZERO ISZERO SWAP1 DUP2 PUSH2 0x21AD JUMPI JUMPDEST DUP7 PUSH0 MSTORE PUSH1 0x3 DUP7 MSTORE PUSH1 0x40 PUSH0 KECCAK256 PUSH1 0x1 DUP2 SLOAD ADD SWAP1 SSTORE DUP4 PUSH0 MSTORE PUSH1 0x2 DUP7 MSTORE PUSH1 0x40 PUSH0 KECCAK256 DUP8 PUSH12 0xFFFFFFFFFFFFFFFFFFFFFFFF PUSH1 0xA0 SHL DUP3 SLOAD AND OR SWAP1 SSTORE DUP4 DUP8 DUP3 PUSH32 0xDDF252AD1BE2C89B69C2B068FC378DAA952BA7F163C4A11628F55A4DF523B3EF PUSH0 DUP1 LOG4 POP PUSH2 0x219A JUMPI EXTCODESIZE PUSH2 0x2095 JUMPI JUMPDEST POP POP POP POP JUMP JUMPDEST SWAP2 PUSH2 0x20D2 SWAP2 DUP2 SWAP5 SWAP6 SWAP4 PUSH1 0x40 MLOAD SWAP4 DUP5 SWAP3 DUP4 SWAP3 PUSH4 0xA85BD01 PUSH1 0xE1 SHL DUP5 MSTORE CALLER PUSH1 0x4 DUP6 ADD MSTORE PUSH0 PUSH1 0x24 DUP6 ADD MSTORE PUSH1 0x44 DUP5 ADD MSTORE PUSH1 0x80 PUSH1 0x64 DUP5 ADD MSTORE PUSH1 0x84 DUP4 ADD SWAP1 PUSH2 0x1536 JUMP JUMPDEST SUB DUP2 PUSH0 DUP9 GAS CALL PUSH0 SWAP2 DUP2 PUSH2 0x215A JUMPI JUMPDEST POP PUSH2 0x2135 JUMPI POP POP RETURNDATASIZE ISZERO PUSH2 0x212D JUMPI RETURNDATASIZE SWAP1 PUSH2 0x20F8 DUP3 PUSH2 0x17A5 JUMP JUMPDEST SWAP2 PUSH2 0x2106 PUSH1 0x40 MLOAD SWAP4 DUP5 PUSH2 0x1614 JUMP JUMPDEST DUP3 MSTORE RETURNDATASIZE PUSH0 DUP3 DUP5 ADD RETURNDATACOPY JUMPDEST DUP2 MLOAD SWAP2 DUP3 PUSH2 0x212A JUMPI DUP4 PUSH4 0x32505749 PUSH1 0xE1 SHL PUSH0 MSTORE PUSH1 0x4 MSTORE PUSH1 0x24 PUSH0 REVERT JUMPDEST ADD REVERT JUMPDEST PUSH1 0x60 SWAP1 PUSH2 0x210F JUMP JUMPDEST SWAP1 SWAP3 SWAP2 POP PUSH1 0x1 PUSH1 0x1 PUSH1 0xE0 SHL SUB NOT AND PUSH4 0x757A42FF PUSH1 0xE1 SHL ADD PUSH2 0x1F4A JUMPI POP PUSH0 DUP1 DUP1 DUP1 PUSH2 0x208F JUMP JUMPDEST SWAP1 SWAP2 POP DUP4 DUP2 DUP2 RETURNDATASIZE DUP4 GT PUSH2 0x2193 JUMPI JUMPDEST PUSH2 0x2172 DUP2 DUP4 PUSH2 0x1614 JUMP JUMPDEST DUP2 ADD SUB SLT PUSH2 0x72D JUMPI MLOAD PUSH1 0x1 PUSH1 0x1 PUSH1 0xE0 SHL SUB NOT DUP2 AND DUP2 SUB PUSH2 0x72D JUMPI SWAP1 PUSH0 PUSH2 0x20E0 JUMP JUMPDEST POP RETURNDATASIZE PUSH2 0x2168 JUMP JUMPDEST PUSH4 0x39E35637 PUSH1 0xE1 SHL PUSH0 MSTORE PUSH0 PUSH1 0x4 MSTORE PUSH1 0x24 PUSH0 REVERT JUMPDEST PUSH0 DUP5 DUP2 MSTORE PUSH1 0x4 PUSH1 0x20 MSTORE PUSH1 0x40 DUP1 DUP3 KECCAK256 DUP1 SLOAD PUSH1 0x1 PUSH1 0x1 PUSH1 0xA0 SHL SUB NOT AND SWAP1 SSTORE DUP3 DUP3 MSTORE PUSH1 0x3 DUP9 MSTORE SWAP1 KECCAK256 DUP1 SLOAD PUSH0 NOT ADD SWAP1 SSTORE PUSH2 0x2029 JUMP JUMPDEST PUSH1 0x40 MLOAD PUSH3 0x461BCD PUSH1 0xE5 SHL DUP2 MSTORE PUSH1 0x4 DUP2 ADD DUP6 SWAP1 MSTORE PUSH1 0x24 DUP1 DUP3 ADD MSTORE PUSH32 0x52656E74616C20726563656970747320617265206E6F6E2D7472616E73666572 PUSH1 0x44 DUP3 ADD MSTORE PUSH4 0x61626C65 PUSH1 0xE0 SHL PUSH1 0x64 DUP3 ADD MSTORE PUSH1 0x84 SWAP1 REVERT JUMPDEST POP PUSH1 0x1 PUSH2 0x2005 JUMP INVALID 0xEA PUSH29 0x9386E3A2A10362FF36A32254465D5B26D5D224B6A956829847E6731B0F MCOPY LOG2 PUSH5 0x6970667358 0x22 SLT KECCAK256 0xC3 SWAP14 0x25 CALL 0x28 SHR 0xEF PUSH14 0x9B11F8188E82F67F7A8975AB6622 PUSH29 0xBF3B05F7C4A206774964736F6C634300081C003354CDD369E4E8A8515E MSTORE 0xCA PUSH19 0xEC816C2101831AD1F18BF44102ED171459C9B4 0xF8 "
		},
		"gasEstimates": {
			"creation": {
				"codeDepositCost": "1769000",
				"executionCost": "infinite",
				"totalCost": "infinite"
			},
			"external": {
				"DEFAULT_ADMIN_ROLE()": "553",
				"MINTER_ROLE()": "711",
				"agreementRentReceipts(uint256,uint256)": "6970",
				"approve(address,uint256)": "31151",
				"balanceOf(address)": "2694",
				"burnReceipt(uint256)": "84178",
				"getAgreementRentReceipts(uint256)": "infinite",
				"getApproved(uint256)": "4630",
				"getReceipt(uint256)": "infinite",
				"getRoleAdmin(bytes32)": "2501",
				"getTenantReceipts(address)": "infinite",
				"grantRole(bytes32,address)": "33458",
				"hasRole(bytes32,address)": "2820",
				"isApprovedForAll(address,address)": "3198",
				"mintReceipt(address,address,uint256,uint256,uint256,uint256,uint256,string)": "infinite",
				"mintRentPaymentProof(address,address,uint256,uint256,uint256,uint256,uint256,string)": "infinite",
				"name()": "infinite",
				"ownerOf(uint256)": "2665",
				"receipts(uint256)": "infinite",
				"renounceRole(bytes32,address)": "29044",
				"revokeRole(bytes32,address)": "33858",
				"safeTransferFrom(address,address,uint256)": "infinite",
				"safeTransferFrom(address,address,uint256,bytes)": "infinite",
				"setApprovalForAll(address,bool)": "26845",
				"setMinter(address)": "31547",
				"supportsInterface(bytes4)": "384",
				"symbol()": "infinite",
				"tenantReceipts(address,uint256)": "7373",
				"tokenURI(uint256)": "infinite",
				"transferFrom(address,address,uint256)": "108616"
			},
			"internal": {
				"_update(address,uint256,address)": "infinite"
			}
		},
		"methodIdentifiers": {
			"DEFAULT_ADMIN_ROLE()": "a217fddf",
			"MINTER_ROLE()": "d5391393",
			"agreementRentReceipts(uint256,uint256)": "72e1d047",
			"approve(address,uint256)": "095ea7b3",
			"balanceOf(address)": "70a08231",
			"burnReceipt(uint256)": "942c5875",
			"getAgreementRentReceipts(uint256)": "8e767f43",
			"getApproved(uint256)": "081812fc",
			"getReceipt(uint256)": "b63e6ac3",
			"getRoleAdmin(bytes32)": "248a9ca3",
			"getTenantReceipts(address)": "0d214345",
			"grantRole(bytes32,address)": "2f2ff15d",
			"hasRole(bytes32,address)": "91d14854",
			"isApprovedForAll(address,address)": "e985e9c5",
			"mintReceipt(address,address,uint256,uint256,uint256,uint256,uint256,string)": "d2d8fd5d",
			"mintRentPaymentProof(address,address,uint256,uint256,uint256,uint256,uint256,string)": "c274cb56",
			"name()": "06fdde03",
			"ownerOf(uint256)": "6352211e",
			"receipts(uint256)": "0f7ee1ec",
			"renounceRole(bytes32,address)": "36568abe",
			"revokeRole(bytes32,address)": "d547741f",
			"safeTransferFrom(address,address,uint256)": "42842e0e",
			"safeTransferFrom(address,address,uint256,bytes)": "b88d4fde",
			"setApprovalForAll(address,bool)": "a22cb465",
			"setMinter(address)": "fca3b5aa",
			"supportsInterface(bytes4)": "01ffc9a7",
			"symbol()": "95d89b41",
			"tenantReceipts(address,uint256)": "d7d7a751",
			"tokenURI(uint256)": "c87b56dd",
			"transferFrom(address,address,uint256)": "23b872dd"
		}
	},
	"abi": [
		{
			"inputs": [],
			"stateMutability": "nonpayable",
			"type": "constructor"
		},
		{
			"inputs": [],
			"name": "AccessControlBadConfirmation",
			"type": "error"
		},
		{
			"inputs": [
				{
					"internalType": "address",
					"name": "account",
					"type": "address"
				},
				{
					"internalType": "bytes32",
					"name": "neededRole",
					"type": "bytes32"
				}
			],
			"name": "AccessControlUnauthorizedAccount",
			"type": "error"
		},
		{
			"inputs": [
				{
					"internalType": "address",
					"name": "sender",
					"type": "address"
				},
				{
					"internalType": "uint256",
					"name": "tokenId",
					"type": "uint256"
				},
				{
					"internalType": "address",
					"name": "owner",
					"type": "address"
				}
			],
			"name": "ERC721IncorrectOwner",
			"type": "error"
		},
		{
			"inputs": [
				{
					"internalType": "address",
					"name": "operator",
					"type": "address"
				},
				{
					"internalType": "uint256",
					"name": "tokenId",
					"type": "uint256"
				}
			],
			"name": "ERC721InsufficientApproval",
			"type": "error"
		},
		{
			"inputs": [
				{
					"internalType": "address",
					"name": "approver",
					"type": "address"
				}
			],
			"name": "ERC721InvalidApprover",
			"type": "error"
		},
		{
			"inputs": [
				{
					"internalType": "address",
					"name": "operator",
					"type": "address"
				}
			],
			"name": "ERC721InvalidOperator",
			"type": "error"
		},
		{
			"inputs": [
				{
					"internalType": "address",
					"name": "owner",
					"type": "address"
				}
			],
			"name": "ERC721InvalidOwner",
			"type": "error"
		},
		{
			"inputs": [
				{
					"internalType": "address",
					"name": "receiver",
					"type": "address"
				}
			],
			"name": "ERC721InvalidReceiver",
			"type": "error"
		},
		{
			"inputs": [
				{
					"internalType": "address",
					"name": "sender",
					"type": "address"
				}
			],
			"name": "ERC721InvalidSender",
			"type": "error"
		},
		{
			"inputs": [
				{
					"internalType": "uint256",
					"name": "tokenId",
					"type": "uint256"
				}
			],
			"name": "ERC721NonexistentToken",
			"type": "error"
		},
		{
			"inputs": [],
			"name": "ReentrancyGuardReentrantCall",
			"type": "error"
		},
		{
			"anonymous": false,
			"inputs": [
				{
					"indexed": true,
					"internalType": "address",
					"name": "owner",
					"type": "address"
				},
				{
					"indexed": true,
					"internalType": "address",
					"name": "approved",
					"type": "address"
				},
				{
					"indexed": true,
					"internalType": "uint256",
					"name": "tokenId",
					"type": "uint256"
				}
			],
			"name": "Approval",
			"type": "event"
		},
		{
			"anonymous": false,
			"inputs": [
				{
					"indexed": true,
					"internalType": "address",
					"name": "owner",
					"type": "address"
				},
				{
					"indexed": true,
					"internalType": "address",
					"name": "operator",
					"type": "address"
				},
				{
					"indexed": false,
					"internalType": "bool",
					"name": "approved",
					"type": "bool"
				}
			],
			"name": "ApprovalForAll",
			"type": "event"
		},
		{
			"anonymous": false,
			"inputs": [
				{
					"indexed": true,
					"internalType": "uint256",
					"name": "receiptId",
					"type": "uint256"
				},
				{
					"indexed": false,
					"internalType": "enum RentalReceipt.ReceiptType",
					"name": "receiptType",
					"type": "uint8"
				},
				{
					"indexed": true,
					"internalType": "address",
					"name": "tenant",
					"type": "address"
				},
				{
					"indexed": true,
					"internalType": "address",
					"name": "landlord",
					"type": "address"
				},
				{
					"indexed": false,
					"internalType": "uint256",
					"name": "propertyId",
					"type": "uint256"
				},
				{
					"indexed": false,
					"internalType": "uint256",
					"name": "amount",
					"type": "uint256"
				},
				{
					"indexed": false,
					"internalType": "uint256",
					"name": "agreementId",
					"type": "uint256"
				}
			],
			"name": "ReceiptMinted",
			"type": "event"
		},
		{
			"anonymous": false,
			"inputs": [
				{
					"indexed": true,
					"internalType": "bytes32",
					"name": "role",
					"type": "bytes32"
				},
				{
					"indexed": true,
					"internalType": "bytes32",
					"name": "previousAdminRole",
					"type": "bytes32"
				},
				{
					"indexed": true,
					"internalType": "bytes32",
					"name": "newAdminRole",
					"type": "bytes32"
				}
			],
			"name": "RoleAdminChanged",
			"type": "event"
		},
		{
			"anonymous": false,
			"inputs": [
				{
					"indexed": true,
					"internalType": "bytes32",
					"name": "role",
					"type": "bytes32"
				},
				{
					"indexed": true,
					"internalType": "address",
					"name": "account",
					"type": "address"
				},
				{
					"indexed": true,
					"internalType": "address",
					"name": "sender",
					"type": "address"
				}
			],
			"name": "RoleGranted",
			"type": "event"
		},
		{
			"anonymous": false,
			"inputs": [
				{
					"indexed": true,
					"internalType": "bytes32",
					"name": "role",
					"type": "bytes32"
				},
				{
					"indexed": true,
					"internalType": "address",
					"name": "account",
					"type": "address"
				},
				{
					"indexed": true,
					"internalType": "address",
					"name": "sender",
					"type": "address"
				}
			],
			"name": "RoleRevoked",
			"type": "event"
		},
		{
			"anonymous": false,
			"inputs": [
				{
					"indexed": true,
					"internalType": "address",
					"name": "from",
					"type": "address"
				},
				{
					"indexed": true,
					"internalType": "address",
					"name": "to",
					"type": "address"
				},
				{
					"indexed": true,
					"internalType": "uint256",
					"name": "tokenId",
					"type": "uint256"
				}
			],
			"name": "Transfer",
			"type": "event"
		},
		{
			"inputs": [],
			"name": "DEFAULT_ADMIN_ROLE",
			"outputs": [
				{
					"internalType": "bytes32",
					"name": "",
					"type": "bytes32"
				}
			],
			"stateMutability": "view",
			"type": "function"
		},
		{
			"inputs": [],
			"name": "MINTER_ROLE",
			"outputs": [
				{
					"internalType": "bytes32",
					"name": "",
					"type": "bytes32"
				}
			],
			"stateMutability": "view",
			"type": "function"
		},
		{
			"inputs": [
				{
					"internalType": "uint256",
					"name": "",
					"type": "uint256"
				},
				{
					"internalType": "uint256",
					"name": "",
					"type": "uint256"
				}
			],
			"name": "agreementRentReceipts",
			"outputs": [
				{
					"internalType": "uint256",
					"name": "",
					"type": "uint256"
				}
			],
			"stateMutability": "view",
			"type": "function"
		},
		{
			"inputs": [
				{
					"internalType": "address",
					"name": "to",
					"type": "address"
				},
				{
					"internalType": "uint256",
					"name": "tokenId",
					"type": "uint256"
				}
			],
			"name": "approve",
			"outputs": [],
			"stateMutability": "nonpayable",
			"type": "function"
		},
		{
			"inputs": [
				{
					"internalType": "address",
					"name": "owner",
					"type": "address"
				}
			],
			"name": "balanceOf",
			"outputs": [
				{
					"internalType": "uint256",
					"name": "",
					"type": "uint256"
				}
			],
			"stateMutability": "view",
			"type": "function"
		},
		{
			"inputs": [
				{
					"internalType": "uint256",
					"name": "receiptId",
					"type": "uint256"
				}
			],
			"name": "burnReceipt",
			"outputs": [],
			"stateMutability": "nonpayable",
			"type": "function"
		},
		{
			"inputs": [
				{
					"internalType": "uint256",
					"name": "agreementId",
					"type": "uint256"
				}
			],
			"name": "getAgreementRentReceipts",
			"outputs": [
				{
					"internalType": "uint256[]",
					"name": "",
					"type": "uint256[]"
				}
			],
			"stateMutability": "view",
			"type": "function"
		},
		{
			"inputs": [
				{
					"internalType": "uint256",
					"name": "tokenId",
					"type": "uint256"
				}
			],
			"name": "getApproved",
			"outputs": [
				{
					"internalType": "address",
					"name": "",
					"type": "address"
				}
			],
			"stateMutability": "view",
			"type": "function"
		},
		{
			"inputs": [
				{
					"internalType": "uint256",
					"name": "receiptId",
					"type": "uint256"
				}
			],
			"name": "getReceipt",
			"outputs": [
				{
					"internalType": "enum RentalReceipt.ReceiptType",
					"name": "receiptType",
					"type": "uint8"
				},
				{
					"internalType": "address",
					"name": "tenant",
					"type": "address"
				},
				{
					"internalType": "address",
					"name": "landlord",
					"type": "address"
				},
				{
					"internalType": "uint256",
					"name": "propertyId",
					"type": "uint256"
				},
				{
					"internalType": "uint256",
					"name": "amount",
					"type": "uint256"
				},
				{
					"internalType": "uint256",
					"name": "startDate",
					"type": "uint256"
				},
				{
					"internalType": "uint256",
					"name": "endDate",
					"type": "uint256"
				},
				{
					"internalType": "uint256",
					"name": "issuedDate",
					"type": "uint256"
				},
				{
					"internalType": "string",
					"name": "metadataHash",
					"type": "string"
				},
				{
					"internalType": "uint256",
					"name": "linkedAgreementId",
					"type": "uint256"
				}
			],
			"stateMutability": "view",
			"type": "function"
		},
		{
			"inputs": [
				{
					"internalType": "bytes32",
					"name": "role",
					"type": "bytes32"
				}
			],
			"name": "getRoleAdmin",
			"outputs": [
				{
					"internalType": "bytes32",
					"name": "",
					"type": "bytes32"
				}
			],
			"stateMutability": "view",
			"type": "function"
		},
		{
			"inputs": [
				{
					"internalType": "address",
					"name": "tenant",
					"type": "address"
				}
			],
			"name": "getTenantReceipts",
			"outputs": [
				{
					"internalType": "uint256[]",
					"name": "",
					"type": "uint256[]"
				}
			],
			"stateMutability": "view",
			"type": "function"
		},
		{
			"inputs": [
				{
					"internalType": "bytes32",
					"name": "role",
					"type": "bytes32"
				},
				{
					"internalType": "address",
					"name": "account",
					"type": "address"
				}
			],
			"name": "grantRole",
			"outputs": [],
			"stateMutability": "nonpayable",
			"type": "function"
		},
		{
			"inputs": [
				{
					"internalType": "bytes32",
					"name": "role",
					"type": "bytes32"
				},
				{
					"internalType": "address",
					"name": "account",
					"type": "address"
				}
			],
			"name": "hasRole",
			"outputs": [
				{
					"internalType": "bool",
					"name": "",
					"type": "bool"
				}
			],
			"stateMutability": "view",
			"type": "function"
		},
		{
			"inputs": [
				{
					"internalType": "address",
					"name": "owner",
					"type": "address"
				},
				{
					"internalType": "address",
					"name": "operator",
					"type": "address"
				}
			],
			"name": "isApprovedForAll",
			"outputs": [
				{
					"internalType": "bool",
					"name": "",
					"type": "bool"
				}
			],
			"stateMutability": "view",
			"type": "function"
		},
		{
			"inputs": [
				{
					"internalType": "address",
					"name": "tenant",
					"type": "address"
				},
				{
					"internalType": "address",
					"name": "landlord",
					"type": "address"
				},
				{
					"internalType": "uint256",
					"name": "propertyId",
					"type": "uint256"
				},
				{
					"internalType": "uint256",
					"name": "depositAmount",
					"type": "uint256"
				},
				{
					"internalType": "uint256",
					"name": "",
					"type": "uint256"
				},
				{
					"internalType": "uint256",
					"name": "startDate",
					"type": "uint256"
				},
				{
					"internalType": "uint256",
					"name": "endDate",
					"type": "uint256"
				},
				{
					"internalType": "string",
					"name": "metadataHash",
					"type": "string"
				}
			],
			"name": "mintReceipt",
			"outputs": [
				{
					"internalType": "uint256",
					"name": "",
					"type": "uint256"
				}
			],
			"stateMutability": "nonpayable",
			"type": "function"
		},
		{
			"inputs": [
				{
					"internalType": "address",
					"name": "tenant",
					"type": "address"
				},
				{
					"internalType": "address",
					"name": "landlord",
					"type": "address"
				},
				{
					"internalType": "uint256",
					"name": "agreementId",
					"type": "uint256"
				},
				{
					"internalType": "uint256",
					"name": "rentAmount",
					"type": "uint256"
				},
				{
					"internalType": "uint256",
					"name": "paymentDate",
					"type": "uint256"
				},
				{
					"internalType": "uint256",
					"name": "periodStart",
					"type": "uint256"
				},
				{
					"internalType": "uint256",
					"name": "periodEnd",
					"type": "uint256"
				},
				{
					"internalType": "string",
					"name": "metadataHash",
					"type": "string"
				}
			],
			"name": "mintRentPaymentProof",
			"outputs": [
				{
					"internalType": "uint256",
					"name": "",
					"type": "uint256"
				}
			],
			"stateMutability": "nonpayable",
			"type": "function"
		},
		{
			"inputs": [],
			"name": "name",
			"outputs": [
				{
					"internalType": "string",
					"name": "",
					"type": "string"
				}
			],
			"stateMutability": "view",
			"type": "function"
		},
		{
			"inputs": [
				{
					"internalType": "uint256",
					"name": "tokenId",
					"type": "uint256"
				}
			],
			"name": "ownerOf",
			"outputs": [
				{
					"internalType": "address",
					"name": "",
					"type": "address"
				}
			],
			"stateMutability": "view",
			"type": "function"
		},
		{
			"inputs": [
				{
					"internalType": "uint256",
					"name": "",
					"type": "uint256"
				}
			],
			"name": "receipts",
			"outputs": [
				{
					"internalType": "enum RentalReceipt.ReceiptType",
					"name": "receiptType",
					"type": "uint8"
				},
				{
					"internalType": "address",
					"name": "tenant",
					"type": "address"
				},
				{
					"internalType": "address",
					"name": "landlord",
					"type": "address"
				},
				{
					"internalType": "uint256",
					"name": "propertyId",
					"type": "uint256"
				},
				{
					"internalType": "uint256",
					"name": "amount",
					"type": "uint256"
				},
				{
					"internalType": "uint256",
					"name": "startDate",
					"type": "uint256"
				},
				{
					"internalType": "uint256",
					"name": "endDate",
					"type": "uint256"
				},
				{
					"internalType": "uint256",
					"name": "issuedDate",
					"type": "uint256"
				},
				{
					"internalType": "string",
					"name": "metadataHash",
					"type": "string"
				},
				{
					"internalType": "uint256",
					"name": "linkedAgreementId",
					"type": "uint256"
				}
			],
			"stateMutability": "view",
			"type": "function"
		},
		{
			"inputs": [
				{
					"internalType": "bytes32",
					"name": "role",
					"type": "bytes32"
				},
				{
					"internalType": "address",
					"name": "callerConfirmation",
					"type": "address"
				}
			],
			"name": "renounceRole",
			"outputs": [],
			"stateMutability": "nonpayable",
			"type": "function"
		},
		{
			"inputs": [
				{
					"internalType": "bytes32",
					"name": "role",
					"type": "bytes32"
				},
				{
					"internalType": "address",
					"name": "account",
					"type": "address"
				}
			],
			"name": "revokeRole",
			"outputs": [],
			"stateMutability": "nonpayable",
			"type": "function"
		},
		{
			"inputs": [
				{
					"internalType": "address",
					"name": "from",
					"type": "address"
				},
				{
					"internalType": "address",
					"name": "to",
					"type": "address"
				},
				{
					"internalType": "uint256",
					"name": "tokenId",
					"type": "uint256"
				}
			],
			"name": "safeTransferFrom",
			"outputs": [],
			"stateMutability": "nonpayable",
			"type": "function"
		},
		{
			"inputs": [
				{
					"internalType": "address",
					"name": "from",
					"type": "address"
				},
				{
					"internalType": "address",
					"name": "to",
					"type": "address"
				},
				{
					"internalType": "uint256",
					"name": "tokenId",
					"type": "uint256"
				},
				{
					"internalType": "bytes",
					"name": "data",
					"type": "bytes"
				}
			],
			"name": "safeTransferFrom",
			"outputs": [],
			"stateMutability": "nonpayable",
			"type": "function"
		},
		{
			"inputs": [
				{
					"internalType": "address",
					"name": "operator",
					"type": "address"
				},
				{
					"internalType": "bool",
					"name": "approved",
					"type": "bool"
				}
			],
			"name": "setApprovalForAll",
			"outputs": [],
			"stateMutability": "nonpayable",
			"type": "function"
		},
		{
			"inputs": [
				{
					"internalType": "address",
					"name": "escrowContract",
					"type": "address"
				}
			],
			"name": "setMinter",
			"outputs": [],
			"stateMutability": "nonpayable",
			"type": "function"
		},
		{
			"inputs": [
				{
					"internalType": "bytes4",
					"name": "interfaceId",
					"type": "bytes4"
				}
			],
			"name": "supportsInterface",
			"outputs": [
				{
					"internalType": "bool",
					"name": "",
					"type": "bool"
				}
			],
			"stateMutability": "view",
			"type": "function"
		},
		{
			"inputs": [],
			"name": "symbol",
			"outputs": [
				{
					"internalType": "string",
					"name": "",
					"type": "string"
				}
			],
			"stateMutability": "view",
			"type": "function"
		},
		{
			"inputs": [
				{
					"internalType": "address",
					"name": "",
					"type": "address"
				},
				{
					"internalType": "uint256",
					"name": "",
					"type": "uint256"
				}
			],
			"name": "tenantReceipts",
			"outputs": [
				{
					"internalType": "uint256",
					"name": "",
					"type": "uint256"
				}
			],
			"stateMutability": "view",
			"type": "function"
		},
		{
			"inputs": [
				{
					"internalType": "uint256",
					"name": "tokenId",
					"type": "uint256"
				}
			],
			"name": "tokenURI",
			"outputs": [
				{
					"internalType": "string",
					"name": "",
					"type": "string"
				}
			],
			"stateMutability": "view",
			"type": "function"
		},
		{
			"inputs": [
				{
					"internalType": "address",
					"name": "from",
					"type": "address"
				},
				{
					"internalType": "address",
					"name": "to",
					"type": "address"
				},
				{
					"internalType": "uint256",
					"name": "tokenId",
					"type": "uint256"
				}
			],
			"name": "transferFrom",
			"outputs": [],
			"stateMutability": "nonpayable",
			"type": "function"
		}
	]
}