{
	"data": {
		"bytecode": {
			"linkReferences": {},
			"object": "60803461024257601f613d3538819003918201601f19168301916001600160401b0383118484101761024657808492606094604052833981010312610242576100478161025a565b9061006060406100596020840161025a565b920161025a565b90331561022f575f8054336001600160a01b03198216811783556040519290916001600160a01b0316907f8be0079c531659141344cd1fd0a4f28419497f9722a3daafe3b4186f6b6457e09080a360018080556002600b55600c5562093a80600d556203f480600e556001600160a01b038416156101df57506001600160a01b031690811561019a576001600160a01b03169182156101555760028054610100600160a81b03191660089290921b610100600160a81b0316919091179055600380546001600160a01b0319908116929092179055600f80549091169190911790556001600455604051613ac6908161026f8239f35b60405162461bcd60e51b815260206004820152601760248201527f496e76616c696420706c6174666f726d2077616c6c65740000000000000000006044820152606490fd5b60405162461bcd60e51b815260206004820152601e60248201527f496e76616c69642072656e74616c2072656365697074206164647265737300006044820152606490fd5b62461bcd60e51b815260206004820152602560248201527f496e76616c69642070726f706572747920766572696669636174696f6e206164604482015264647265737360d81b6064820152608490fd5b631e4fbdf760e01b5f525f60045260245ffd5b5f80fd5b634e487b7160e01b5f52604160045260245ffd5b51906001600160a01b03821682036102425756fe6101006040526004361015610012575f80fd5b5f3560e01c806306e652dd146132d15780630aafe1ea14612e745780633059953c14612e3757806331f85eed14612c2457806334b25ee214612a1157806338459eb3146129665780633cd358591461293e578063448db2f6146128cc5780634c8eb426146127e85780634f9f6fe61461255a57806351219def146124a0578063564a565d146123fb5780635686b54b146122e25780635ab98d5a146122665780635b982d2f14611e7e5780635bf31d4d14611e615780635c975abb14611e3f578063705d5f2414611e22578063715018a614611dcb5780637a1e9a4214611d9d5780638456cb5914611d445780638a0b66a214611cfb5780638aed078d14611c795780638c639a8514611c5c5780638da5cb5b14611c355780639547d64714611afb5780639e6fffec14611aa3578063a0f109c51461164d578063a6a7f0eb146113ea578063aa0b5988146113bc578063b0bf778714610d5c578063bd14de9614610bdf578063c1c228ce14610b86578063d064fbe814610b0b578063d9e618ed14610adf578063dcf97ea914610ac2578063e3a96cbd14610918578063f2fde38b14610893578063f95f05f7146104c4578063fa2af9da1461049c578063fd54b969146102095763feb5c1de146101e8575f80fd5b34610205575f366003190112610205576020601054604051908152f35b5f80fd5b34610205576020366003190112610205575f60e060405161022981613496565b8281528260208201528260408201528260608201528260808201528260a08201528260c082015201526004355f526005602052600460405f206040519061026f826134b3565b805482526001810154602083015260028101546001600160a01b03908116604084015260038201541660608301528281015460808301908152600582015460a0840152600682015460c0840152600782015460e084015260088201546101008401526009820154610120840152600a820154909161022091601091906102fc9060ff16610140870161376f565b6040516103178161031081600b8601613415565b03826134ec565b61016086015260ff600c820154818116151561018088015260081c1615156101a0860152600d8101546101c0860152600e8101546101e0860152600f8101546102008601520154920191825260646103738251600b549061368c565b049060646103858451600c549061368c565b04916103a661039582845161367f565b6103a085875161367f565b90613672565b91519351600254604051635c7f355f60e11b815296919491602091889190829060081c6001600160a01b03165afa908115610491575f9161045b575b6101009650604051926103f484613496565b8684526020840195865260408401908152606084019182526080840192835260e060a08501945f865260c0810196875201955f87526040519788525160208801525160408701525160608601525160808501525160a08401525160c08301525160e0820152f35b90506020863d602011610489575b81610476602093836134ec565b81010312610205576101009551906103e2565b3d9150610469565b6040513d5f823e3d90fd5b34610205575f36600319011261020557600f546040516001600160a01b039091168152602090f35b6104cd366135a6565b6104d5613a55565b6104dd613981565b815f52600560205260405f2060ff600a8201541660068110156107dc57600161050691146135f2565b600281019161051f60018060a01b03845416331461377b565b60058201918254341061084e576008810154421161081757600e810193845492600683019161054f83548661367f565b95885f52600760205260405f20604051610568816134d0565b8a81526020810134815260408201428152606083018b815260808401918b835260a08501955f87528054600160401b811015610803576105ad916001820181556135d9565b9490946107f0576005955185555160018501555160028401555160038301555160048201550190519560038710156107dc57610612602096610684936106f29960ff8019835416911617905560108301610608348254613672565b9055548b54613672565b8a5561067360036064610627600c543461368c565b0492610658610636853461367f565b96335f5260118b5260ff60405f205416806107d1575b61078c575b543461367f565b8061077c575b500180549094906001600160a01b03166139a1565b600f546001600160a01b03166139a1565b6003549154905460405163613a65ab60e11b81526001600160a01b0392831660048201529082166024820152604481018a905234606482015242608482015260a4810188905260c4810187905261010060e4820152948593919092169183915f9183916101048301906133b9565b03925af1801561049157610747575b50906080917f0127bef6d745ee904cae3bfcd33b2954906b5f7d41f942bc0ee65d17bbacb8ff93549060405192348452602084015260408301526060820152a260018055005b91906020833d602011610774575b81610762602093836134ec565b81010312610205579091506080610701565b3d9150610755565b61078690336139a1565b8e61065e565b6107b86107995a3a61368c565b6010548091115f146107bd576107af818061367f565b601055336139a1565b610651565b6107af6107ca5a3a61368c565b809261367f565b50601054151561064c565b634e487b7160e01b5f52602160045260245ffd5b634e487b7160e01b5f525f60045260245ffd5b634e487b7160e01b5f52604160045260245ffd5b60405162461bcd60e51b815260206004820152600f60248201526e1319585cd9481a185cc8195b991959608a1b6044820152606490fd5b60405162461bcd60e51b815260206004820152601860248201527f496e73756666696369656e742072656e7420616d6f756e7400000000000000006044820152606490fd5b34610205576020366003190112610205576108ac613347565b6108b461395b565b6001600160a01b03168015610905575f80546001600160a01b03198116831782556001600160a01b0316907f8be0079c531659141344cd1fd0a4f28419497f9722a3daafe3b4186f6b6457e09080a3005b631e4fbdf760e01b5f525f60045260245ffd5b34610205576020366003190112610205576004355f52600660205260405f2060405161094381613496565b8154815260018201546001600160a01b0316602082019081526040519190610979836109728160028801613415565b03846134ec565b604082019283526003840191825494610991866137b8565b9561099f60405197886134ec565b8087526020870180955f5260205f205f915b838310610a9d57505050509060e09291866060830152610a2b600560048301549283608086015201549360ff85161515938460a082015260ff60018060a01b038760081c16968760c084015260a81c161515968791015260018060a01b03905116965160405197885260e0602089015260e08801906133b9565b96868803604088015251808852602088019060208160051b8a010196915f905b828210610a7157505050508596506060860152608085015260a084015260c08301520390f35b90919297602080610a8f6001938e601f199082030186528c516133b9565b9a0192019201909291610a4b565b600160208192604051610ab4816103108189613415565b8152019201920191906109b1565b34610205575f366003190112610205576020600c54604051908152f35b34610205575f3660031901126102055760025460405160089190911c6001600160a01b03168152602090f35b3461020557610b193661335d565b905f52600760205260405f2080548210156102055760c091610b3a916135d9565b50610b84815491600181015490600281015460038201549060ff600560048501549401541693604051968752602087015260408601526060850152608084015260a0830190613599565bf35b5f366003190112610205573415610ba857610ba334601054613672565b601055005b60405162461bcd60e51b815260206004820152600f60248201526e4d7573742073656e642066756e647360881b6044820152606490fd5b34610205576020366003190112610205576004355f52600560205260405f208054600182015460a052600160a01b6001900360028301541660e052600160a01b60019003600383015416916004810154926005820154600683015460078401546008850154600986015491600a87015460ff1693604051958680600b8b0190610c6791613415565b03610c7290886134ec565b600c890154608052600d8901549a600e8a015498600f8b01549a601001549b60405160c05260c0515260a05160c0516020015260e05160c0516040015260c0516060015260c0516080015260c05160a0015260c05160c0015260c05160e0015260c051610100015260c051610120015260c05161014001610cf2916133ac565b60c05161016001610240905260c05161024001610d0e916133b9565b9360805160ff16151560c051610180015260805160081c60ff16151560c0516101a0015260c0516101c0015260c0516101e0015260c051610200015260c051610220015260c051900360c051f35b60e0366003190112610205576024356001600160a01b0381168103610205576084359060a4359060c43567ffffffffffffffff811161020557610da390369060040161352a565b91610dac613a55565b610db4613981565b341561136d57604435156113195762015180606435101580611309575b156112cc5760025460405163038c931160e11b8152600480359082015260089190911c6001600160a01b031690602081602481855afa908115610491575f91611291575b50156112545760206024916040519283809263e34fc53160e01b825260043560048301525afa908115610491575f91611212575b506001600160a01b03908116908316036111d9576001600160a01b038216331461119457838111156111575742841061111257600454925f1984146110fe5760018401600455610e9b60643586613672565b90600e549260405196610ead886134b3565b868852600435602089015233604089015260018060a01b038616606089015234608089015260443560a089015260643560c089015260e0880152610100870152426101208701525f6101408701526101608601525f6101808601525f6101a08601525f6101c08601526101e08501526102008401525f610220840152815f52600560205260405f20835181556020840151600182015560018060a01b03604085015116600282019060018060a01b03166001600160601b0360a01b82541617905560018060a01b03606085015116600382019060018060a01b03166001600160601b0360a01b8254161790556080840151600482015560a0840151600582015560c0840151600682015560e0840151600782015561010084015160088201556101208401516009820155600a810161014085015160068110156107dc576020956010926102209260ff80198354169116179055611012610160820151600b86016137f3565b600c84016110336101808301511515829060ff801983541691151516179055565b6101a0820151151561ff0082549160081b169061ff0019161790556101c0810151600d8501556101e0810151600e850155610200810151600f8501550151910155335f52600883526110888260405f20613927565b60018060a01b0381165f52600983526110a48260405f20613927565b6040519060018060a01b031681523483820152604435604082015260643560608201523390827f31c2e80a4796bd75ba71ed9f026fef5ed39dc66eeb26205fead3d33b695a3290608060043593a460018055604051908152f35b634e487b7160e01b5f52601160045260245ffd5b60405162461bcd60e51b815260206004820152601c60248201527f53746172742064617465206d75737420626520696e20667574757265000000006044820152606490fd5b60405162461bcd60e51b8152602060048201526015602482015274125b9d985b1a59081c995b9d185b081c195c9a5bd9605a1b6044820152606490fd5b60405162461bcd60e51b815260206004820152601960248201527f4c616e646c6f72642063616e6e6f742062652074656e616e74000000000000006044820152606490fd5b60405162461bcd60e51b8152602060048201526011602482015270098c2dcc8d8dee4c840dad2e6dac2e8c6d607b1b6044820152606490fd5b90506020813d60201161124c575b8161122d602093836134ec565b8101031261020557516001600160a01b03811681036102055785610e49565b3d9150611220565b60405162461bcd60e51b8152602060048201526015602482015274141c9bdc195c9d1e481b9bdd081d995c9a599a5959605a1b6044820152606490fd5b90506020813d6020116112c4575b816112ac602093836134ec565b81010312610205575180151581036102055786610e15565b3d915061129f565b60405162461bcd60e51b8152602060048201526015602482015274125b9d985b1a59081c995b9d081a5b9d195c9d985b605a1b6044820152606490fd5b506301e133806064351115610dd1565b60405162461bcd60e51b815260206004820152602660248201527f4d6f6e74686c792072656e74206d7573742062652067726561746572207468616044820152656e207a65726f60d01b6064820152608490fd5b60405162461bcd60e51b815260206004820152602160248201527f4465706f736974206d7573742062652067726561746572207468616e207a65726044820152606f60f81b6064820152608490fd5b34610205576020366003190112610205576004356113d861395b565b6113e560058211156138ec565b600b55005b34610205576113f8366135a6565b815f52600560205260405f20604051611410816134b3565b815481526001820154602082015260018060a01b03600283015416906040810191825260018060a01b03600384015416906060810191825260048401546080820152600584015460a0820152600684015460c0820152600784015460e082015260088401546101008201526009840154610120820152610220601060ff600a87015416956114a36101408501978861376f565b6040516114b78161031081600b8601613415565b61016085015260ff600c820154818116151561018087015260081c1615156101a0850152600d8101546101c0850152600e8101546101e0850152600f8101546102008501520154910152845f52600660205260405f20925160068110156107dc57600219016116145761153e9160018060a01b039051163314908115611600575b50613635565b61154f60ff6005830154161561369f565b8151156115c2576003018054600160401b8110156108035761157691600182018155613570565b6107f057816115a97f45896cea9c1984614dbdcc6649c7e939f7f33f9d34fcddfc253853cdd100f62f936115bd936137f3565b6040519182916020835260208301906133b9565b0390a2005b60405162461bcd60e51b8152602060048201526016602482015275115d9a59195b98d9481a185cda081c995c5d5a5c995960521b6044820152606490fd5b516001600160a01b03163314905085611538565b60405162461bcd60e51b81526020600482015260116024820152704e6f20616374697665206469737075746560781b6044820152606490fd5b3461020557602036600319011261020557600435611669613981565b805f52600560205260405f20600a81019060ff82541660068110156107dc5760018114908115611a98575b5015611a53576002810180546001600160a01b031633148015611a3d575b8015611a2a575b6116c290613635565b600d82015442106119e5576008820192835442106119ae57600260ff1982541617905560206004830180549261170760646116ff600b548761368c565b04809561367f565b945f600382016117208860018060a01b038354166139a1565b600f546117379088906001600160a01b03166139a1565b6003549354905460018401549554600585015460078601549b5460405163d2d8fd5d60e01b81526001600160a01b039586166004820152938516602485015260448401989098526064830191909152608482015260a481019990995260c489019490945261010060e4890152879390921691839182906117bf90610104830190600b01613415565b03925af192831561049157849361196a575b505f516020613a715f395f51905f529160409182519182526020820152a2805f5260056020527f7c6d497d8bd0dfb43648af8ab63ae866e717cc13e954ba461b83ddb4779a15f56040805f20611958825161182b816134b3565b825481526001830154602082015260028301546001600160a01b03908116858301526003840154166060820152600483015460808201908152600584015460a0830152600684015460c0830152600784015460e083015260088401546101008301526009840154610120830152600a840154909361022091601091906118b89060ff16610140860161376f565b86516118cb8161031081600b8601613415565b61016085015260ff600c820154818116151561018087015260081c1615156101a0850152600d8101546101c0850152600e8101546101e0850152600f810154610200850152015491019081526103a0606461192a8551600b549061368c565b04611951606461193e8551600c549061368c565b049161194a8382613672565b965161367f565b925161367f565b9082519182526020820152a260018055005b909192506020813d6020116119a6575b81611987602093836134ec565b8101031261020557508291905f516020613a715f395f51905f526117d1565b3d915061197a565b60405162461bcd60e51b815260206004820152600f60248201526e1319585cd9481b9bdd08195b991959608a1b6044820152606490fd5b60405162461bcd60e51b815260206004820152601860248201527f4469737075746520706572696f64206e6f7420656e64656400000000000000006044820152606490fd5b505f546001600160a01b031633146116b9565b5060038201546001600160a01b031633146116b2565b60405162461bcd60e51b815260206004820152601860248201527f41677265656d656e74206e6f742072656c65617361626c6500000000000000006044820152606490fd5b600291501484611694565b3461020557604036600319011261020557611abc613347565b6001600160a01b03165f9081526008602052604090208054602435919082101561020557602091611aec91613570565b90549060031b1c604051908152f35b34610205576020366003190112610205576004355f52600760205260405f20805490611b26826137b8565b91611b3460405193846134ec565b808352602083019081925f5260205f20915f905b828210611bd0578486604051918291602083019060208452518091526040830191905f5b818110611b7a575050500390f35b91935091602060c0600192611bc260a08851805184528581015186850152604081015160408501526060810151606085015260808101516080850152015160a0830190613599565b019401910191849392611b6c565b604051611bdc816134d0565b845481526001850154602082015260028501546040820152600385015460608201526004850154608082015260ff60058601541660038110156107dc576001928260209260a06006950152815201940191019092611b48565b34610205575f366003190112610205575f546040516001600160a01b039091168152602090f35b34610205575f366003190112610205576020600b54604051908152f35b34610205576020366003190112610205576001600160a01b03611c9a613347565b165f52600860205260405f206040519081602082549182815201915f5260205f20905f5b818110611ce557611ce185611cd5818703826134ec565b60405191829182613373565b0390f35b8254845260209093019260019283019201611cbe565b3461020557604036600319011261020557611d14613347565b6001600160a01b03165f9081526009602052604090208054602435919082101561020557602091611aec91613570565b34610205575f36600319011261020557611d5c61395b565b611d64613a55565b600160ff1960025416176002557f62e78cea01bee320cd4e420270b5ea74000d11b0c9f74754ebdbfc544b05a2586020604051338152a1005b3461020557602036600319011261020557600435611db961395b565b611dc660038211156138ec565b600c55005b34610205575f36600319011261020557611de361395b565b5f80546001600160a01b0319811682556001600160a01b03167f8be0079c531659141344cd1fd0a4f28419497f9722a3daafe3b4186f6b6457e08280a3005b34610205575f366003190112610205576020600e54604051908152f35b34610205575f36600319011261020557602060ff600254166040519015158152f35b34610205575f366003190112610205576020600d54604051908152f35b346102055760603660031901126102055760043560243567ffffffffffffffff811161020557611eb290369060040161352a565b60443567ffffffffffffffff811161020557611ed290369060040161352a565b90611edb613981565b825f52600560205260405f20600a81019060ff82541660068110156107dc576001811490811561225d575b501561221857611f2c9060018060a01b0360028201541633149081156122015750613635565b8151156121ca57805460ff191660031790556040805190611f4d81836134ec565b60018252601f19015f5b8181106121b957505082611f6a826137d0565b52611f74816137d0565b50604051611f8181613496565b84815260208101903382526040810190848252606081019384526080810142815260a08201945f8652611fff60c08401945f865260e08501965f88528b5f52600660205260405f209551865560018060a01b03905116600186019060018060a01b03166001600160601b0360a01b82541617905551600285016137f3565b518051906003840190600160401b8311610803578154838355808410612142575b50602001905f5260205f205f915b83831061212557508a7f45896cea9c1984614dbdcc6649c7e939f7f33f9d34fcddfc253853cdd100f62f61211c8c8c8c8c6120aa8d61208760058f8f5160048201550194511515859060ff801983541691151516179055565b518354610100600160a81b03191660089190911b610100600160a81b0316178355565b51815460ff60a81b191690151560a81b60ff60a81b16179055604080518181529186917fec80075b97f210877edb0a3d3f4fa1914a46c678cbdd95b3af04fe3ecd33e10b916120fb918501906133b9565b925f60208201528033940390a36040519182916020835260208301906133b9565b0390a260018055005b6001602082612136839451866137f3565b0192019201919061202e565b825f528360205f2091820191015b81811061215d5750612020565b8061216a600192546133dd565b80612177575b5001612150565b601f8111831461218c57505f81555b8e612170565b6121a890825f5283601f60205f20920160051c820191016137dd565b805f525f6020812081835555612186565b806060602080938601015201611f57565b60405162461bcd60e51b815260206004820152600f60248201526e1499585cdbdb881c995c5d5a5c9959608a1b6044820152606490fd5b600301546001600160a01b03163314905086611538565b60405162461bcd60e51b815260206004820152601860248201527f41677265656d656e74206e6f742064697370757461626c6500000000000000006044820152606490fd5b90501586611f06565b346102055760203660031901126102055760043561228261395b565b62015180811015806122d5575b1561229957600e55005b60405162461bcd60e51b8152602060048201526014602482015273125b9d985b1a590819dc9858d9481c195c9a5bd960621b6044820152606490fd5b5062093a8081111561228f565b34610205576020366003190112610205576004356122fe613981565b805f52600560205260405f20600a810160ff81541660068110156107dc5761232690156136eb565b6002820180549092906001600160a01b031633036123bd57815460ff191660049081179092559154910180547f4eb6f7f7274cbcff3ff8d9c87204f6001289ef08ec8d2c1a56bb61c1fd72b5c2926020929161238a916001600160a01b03166139a1565b60405190847f0cae0523c4d6568388c55dcaeb921d927527a60000ca46adffedddf87225f0ec5f80a2548152a260018055005b60405162461bcd60e51b815260206004820152601660248201527513db9b1e481d195b985b9d0818d85b8818d85b98d95b60521b6044820152606490fd5b34610205576020366003190112610205576004355f52600660205260405f20805460018060a01b036001830154169160ff604051612440816103108160028701613415565b61246c60056004850154940154916040519687968752602087015260e0604087015260e08601906133b9565b606085019390935280821615156080850152600881901c6001600160a01b031660a085015260a81c16151560c08301520390f35b34610205576020366003190112610205576004356124bc613981565b805f52600560205260405f206124df60018060a01b03600283015416331461377b565b60ff600a8201541660068110156107dc5760ff916124ff600c92156136eb565b01600181546125108482161561372f565b83191617809155827f630f9a9a8965d9214a9b0ba4926c25d61d8699d5b3ce20aa36718a5a88c2530c5f80a260081c1661254b575b60018055005b61255490613a29565b80612545565b34610205576020366003190112610205575f61022060405161257b816134b3565b8281528260208201528260408201528260608201528260808201528260a08201528260c08201528260e0820152826101008201528261012082015282610140820152606061016082015282610180820152826101a0820152826101c0820152826101e08201528261020082015201526004355f52600560205260405f20601060405191612607836134b3565b805483526001810154602084015260028101546001600160a01b039081166040850152600382015416606084015260048101546080840152600581015460a0840152600681015460c0840152600781015460e084015260088101546101008401526009810154610120840152600a8101546126899060ff16610140850161376f565b60405161269d8161031081600b8601613415565b61016084015260ff600c820154818116151561018086015260081c1615156101a0840152600d8101546101c0840152600e8101546101e0840152600f8101546102008401520154610220820152604051809160208252805160208301526020810151604083015260018060a01b03604082015116606083015260018060a01b036060820151166080830152608081015160a083015260a081015160c083015260c081015160e083015260e081015161010083015261010081015161012083015261012081015161014083015261277d6101408201516101608401906133ac565b61022061279d6101608301516102406101808601526102608501906133b9565b9161018081015115156101a08501526101a081015115156101c08501526101c08101516101e08501526101e08101516102008501526102008101518285015201516102408301520390f35b3461020557602036600319011261020557600435612804613981565b5f81815260056020526040902060038101546001600160a01b031633036128945760ff600a8201541660068110156107dc5760ff91612845600c92156136eb565b01805490612858838360081c161561372f565b61ff00198216610100179055827f95a6e0a1a02b54aa4fdb92bf93c6f5156671c82234ee26718f7c42ac7a51fc7d5f80a21661254b5760018055005b60405162461bcd60e51b815260206004820152601060248201526f139bdd081d1a19481b185b991b1bdc9960821b6044820152606490fd5b34610205576020366003190112610205576001600160a01b036128ed613347565b165f52600960205260405f206040519081602082549182815201915f5260205f20905f5b81811061292857611ce185611cd5818703826134ec565b8254845260209093019260019283019201612911565b34610205575f366003190112610205576003546040516001600160a01b039091168152602090f35b346102055760203660031901126102055761297f613347565b61298761395b565b6001600160a01b031680156129d357805f52601160205260405f20600160ff198254161790557ff8b71668f50644c88021a97120e6823afeaa925680ca70abf9bfd72c07136b8b5f80a2005b60405162461bcd60e51b8152602060048201526016602482015275496e76616c69642074656e616e74206164647265737360501b6044820152606490fd5b3461020557604036600319011261020557600435602435801515810361020557612a3961395b565b612a41613981565b815f52600560205260405f20825f52600660205260405f2090600a81019060ff82541660068110156107dc57600303612be65760058593019360018554612a8b60ff82161561369f565b60ff191617855515612b49576002810180548554610100600160a81b03191660089190911b610100600160a81b03161785557f4eb6f7f7274cbcff3ff8d9c87204f6001289ef08ec8d2c1a56bb61c1fd72b5c292602092612b099160049190805460ff191660051790550154915482906001600160a01b03166139a1565b604051908152a25b5460081c6001600160a01b0316907ff77ceb5e091d2da041bc760667f9d5fe7a756949eaf29250ad0e60ca6f4c27d95f80a360018055005b6003810180548554610100600160a81b03191660089190911b610100600160a81b03161785555f516020613a715f395f51905f5292604092600491600260ff198254161790550154612bbf612bad6064612ba5600b548561368c565b04809361367f565b925483906001600160a01b03166139a1565b600f54612bd69082906001600160a01b03166139a1565b82519182526020820152a2612b11565b60405162461bcd60e51b81526020600482015260166024820152751059dc99595b595b9d081b9bdd08191a5cdc1d5d195960521b6044820152606490fd5b3461020557612c323661335d565b612c3a61395b565b612c42613981565b815f52600560205260405f2090600a82019060ff82541660068110156107dc5760018114908115612e2c575b5015612de7576004830191825493612c8c6010820195865490613672565b8311612da257612cdf83612cda7ff995c6ca579b55231b1320970c217693ef6ef98e1d7c7e853d0aabb9e4eb898d976020978a96600560ff1982541617905583612d5a575b54905490613672565b61367f565b80612cf5575b505050604051908152a260018055005b5f516020613a715f395f51905f5291604091612d31612d1b6064612ba5600b548561368c565b60039093015483906001600160a01b03166139a1565b600f54612d489082906001600160a01b03166139a1565b825191825286820152a2838580612ce5565b6002860154612d739085906001600160a01b03166139a1565b867f4eb6f7f7274cbcff3ff8d9c87204f6001289ef08ec8d2c1a56bb61c1fd72b5c28a604051878152a2612cd1565b60405162461bcd60e51b815260206004820152601960248201527f526566756e64206578636565647320746f74616c2070616964000000000000006044820152606490fd5b60405162461bcd60e51b815260206004820152601e60248201527f496e76616c69642073746174757320666f72207465726d696e6174696f6e00006044820152606490fd5b600391501485612c6e565b34610205576020366003190112610205576001600160a01b03612e58613347565b165f526011602052602060ff60405f2054166040519015158152f35b3461020557602036600319011261020557600435805f52600560205260405f20600a81019060ff82541660068110156107dc576001612eb391146135f2565b60028101546001600160a01b0316331480156132bb575b80156132a8575b612eda90613635565b825f52600a60205260405f20546201518081018091116110fe574211156132635780600f600e612f0f93015491015490613672565b8042111561321e5762015180612f276003924261367f565b04837f6cc363906037e89b38ad80123e744a3eb9b2d62ac3e4a11205c3497a17e3dd3c6020604051848152a2835f52600a6020524260405f205510159081613205575b50612f7157005b5f818152600560205260409020600a01805460ff19166003179055604051612f9a6020826134ec565b5f81525f805b8181106131f4575050604051612fb581613496565b828152602081019030825260405190612fcf6060836134ec565b602882527f52656e74207061796d656e74206f766572647565206265796f6e64206772616360208301526719481c195c9a5bd960c21b604083015260408101918252606081019384526080810142815260a08201945f865261307d60c08401945f865260e085019660018852895f52600660205260405f209551865560018060a01b03905116600186019060018060a01b03166001600160601b0360a01b82541617905551600285016137f3565b518051906003840190600160401b831161080357815483835580841061317d575b50602001905f5260205f205f915b838310613160575050505060056130df9392612087925160048201550194511515859060ff801983541691151516179055565b51815460ff60a81b191690151560a81b60ff60a81b1617905560408051818152601a918101919091527f4175746f2d666c61676765643a2052656e74206f7665726475650000000000006060820152600160208201523091907fec80075b97f210877edb0a3d3f4fa1914a46c678cbdd95b3af04fe3ecd33e10b90608090a3005b6001602082613171839451866137f3565b019201920191906130ac565b825f528360205f2091820191015b818110613198575061309e565b806131a5600192546133dd565b806131b2575b500161318b565b601f811183146131c757505f81555b8c6131ab565b6131e390825f5283601f60205f20920160051c820191016137dd565b805f525f60208120818355556131c1565b806060602080938601015201612fa0565b60ff9150541660068110156107dc576003141582612f6a565b60405162461bcd60e51b815260206004820152601960248201527f5374696c6c2077697468696e20677261636520706572696f64000000000000006044820152606490fd5b60405162461bcd60e51b815260206004820152601c60248201527f436f6f6c646f776e3a20436865636b206f6e63652070657220646179000000006044820152606490fd5b505f546001600160a01b03163314612ed1565b5060038101546001600160a01b03163314612eca565b34610205576020366003190112610205576004356132ed61395b565b620151808110158061333a575b1561330457600d55005b60405162461bcd60e51b815260206004820152600e60248201526d125b9d985b1a59081c195c9a5bd960921b6044820152606490fd5b5062278d008111156132fa565b600435906001600160a01b038216820361020557565b6040906003190112610205576004359060243590565b60206040818301928281528451809452019201905f5b8181106133965750505090565b8251845260209384019390920191600101613389565b9060068210156107dc5752565b805180835260209291819084018484015e5f828201840152601f01601f1916010190565b90600182811c9216801561340b575b60208310146133f757565b634e487b7160e01b5f52602260045260245ffd5b91607f16916133ec565b5f9291815491613424836133dd565b8083529260018116908115613479575060011461344057505050565b5f9081526020812093945091925b83831061345f575060209250010190565b60018160209294939454838587010152019101919061344e565b915050602093945060ff929192191683830152151560051b010190565b610100810190811067ffffffffffffffff82111761080357604052565b610240810190811067ffffffffffffffff82111761080357604052565b60c0810190811067ffffffffffffffff82111761080357604052565b90601f8019910116810190811067ffffffffffffffff82111761080357604052565b67ffffffffffffffff811161080357601f01601f191660200190565b81601f82011215610205578035906135418261350e565b9261354f60405194856134ec565b8284526020838301011161020557815f926020809301838601378301015290565b8054821015613585575f5260205f2001905f90565b634e487b7160e01b5f52603260045260245ffd5b9060038210156107dc5752565b90604060031983011261020557600435916024359067ffffffffffffffff8211610205576135d69160040161352a565b90565b8054821015613585575f52600660205f20910201905f90565b156135f957565b60405162461bcd60e51b815260206004820152601460248201527341677265656d656e74206e6f742061637469766560601b6044820152606490fd5b1561363c57565b60405162461bcd60e51b815260206004820152600e60248201526d139bdd08185d5d1a1bdc9a5e995960921b6044820152606490fd5b919082018092116110fe57565b919082039182116110fe57565b818102929181159184041417156110fe57565b156136a657565b60405162461bcd60e51b815260206004820152601860248201527f4469737075746520616c7265616479207265736f6c76656400000000000000006044820152606490fd5b156136f257565b60405162461bcd60e51b815260206004820152601560248201527441677265656d656e74206e6f742070656e64696e6760581b6044820152606490fd5b1561373657565b60405162461bcd60e51b8152602060048201526011602482015270105b1c9958591e4818dbdb999a5c9b5959607a1b6044820152606490fd5b60068210156107dc5752565b1561378257565b60405162461bcd60e51b815260206004820152600e60248201526d139bdd081d1a19481d195b985b9d60921b6044820152606490fd5b67ffffffffffffffff81116108035760051b60200190565b8051156135855760200190565b8181106137e8575050565b5f81556001016137dd565b919091825167ffffffffffffffff81116108035761381182546133dd565b601f81116138b1575b506020601f821160011461385357819293945f92613848575b50508160011b915f199060031b1c1916179055565b015190505f80613833565b601f19821690835f52805f20915f5b81811061389957509583600195969710613881575b505050811b019055565b01515f1960f88460031b161c191690555f8080613877565b9192602060018192868b015181550194019201613862565b6138dc90835f5260205f20601f840160051c810191602085106138e2575b601f0160051c01906137dd565b5f61381a565b90915081906138cf565b156138f357565b60405162461bcd60e51b815260206004820152600c60248201526b08ccaca40e8dede40d0d2ced60a31b6044820152606490fd5b8054600160401b8110156108035761394491600182018155613570565b819291549060031b91821b915f19901b1916179055565b5f546001600160a01b0316330361396e57565b63118cdaa760e01b5f523360045260245ffd5b600260015414613992576002600155565b633ee5aeb560e01b5f5260045ffd5b814710613a12575f918291829182916001600160a01b03165af13d15613a0a573d906139cc8261350e565b916139da60405193846134ec565b82523d5f602084013e5b156139ec5750565b8051156139fb57602081519101fd5b63d6bda27560e01b5f5260045ffd5b6060906139e4565b504763cf47918160e01b5f5260045260245260445ffd5b5f52600560205260405f20600a8101600160ff19825416179055600d613a50815442613672565b910155565b60ff60025416613a6157565b63d93c066560e01b5f5260045ffdfeaa7f42c5d16a01253841b57b198d8378093c00dfaa1cb169d8d91c5b36fd0adca2646970667358221220b641de3a9fb0cd4735ab72d101f431e8046df45fd37771aef07505c1f09bf81a64736f6c634300081c0033",
			"opcodes": "PUSH1 0x80 CALLVALUE PUSH2 0x242 JUMPI PUSH1 0x1F PUSH2 0x3D35 CODESIZE DUP2 SWAP1 SUB SWAP2 DUP3 ADD PUSH1 0x1F NOT AND DUP4 ADD SWAP2 PUSH1 0x1 PUSH1 0x1 PUSH1 0x40 SHL SUB DUP4 GT DUP5 DUP5 LT OR PUSH2 0x246 JUMPI DUP1 DUP5 SWAP3 PUSH1 0x60 SWAP5 PUSH1 0x40 MSTORE DUP4 CODECOPY DUP2 ADD SUB SLT PUSH2 0x242 JUMPI PUSH2 0x47 DUP2 PUSH2 0x25A JUMP JUMPDEST SWAP1 PUSH2 0x60 PUSH1 0x40 PUSH2 0x59 PUSH1 0x20 DUP5 ADD PUSH2 0x25A JUMP JUMPDEST SWAP3 ADD PUSH2 0x25A JUMP JUMPDEST SWAP1 CALLER ISZERO PUSH2 0x22F JUMPI PUSH0 DUP1 SLOAD CALLER PUSH1 0x1 PUSH1 0x1 PUSH1 0xA0 SHL SUB NOT DUP3 AND DUP2 OR DUP4 SSTORE PUSH1 0x40 MLOAD SWAP3 SWAP1 SWAP2 PUSH1 0x1 PUSH1 0x1 PUSH1 0xA0 SHL SUB AND SWAP1 PUSH32 0x8BE0079C531659141344CD1FD0A4F28419497F9722A3DAAFE3B4186F6B6457E0 SWAP1 DUP1 LOG3 PUSH1 0x1 DUP1 DUP1 SSTORE PUSH1 0x2 PUSH1 0xB SSTORE PUSH1 0xC SSTORE PUSH3 0x93A80 PUSH1 0xD SSTORE PUSH3 0x3F480 PUSH1 0xE SSTORE PUSH1 0x1 PUSH1 0x1 PUSH1 0xA0 SHL SUB DUP5 AND ISZERO PUSH2 0x1DF JUMPI POP PUSH1 0x1 PUSH1 0x1 PUSH1 0xA0 SHL SUB AND SWAP1 DUP2 ISZERO PUSH2 0x19A JUMPI PUSH1 0x1 PUSH1 0x1 PUSH1 0xA0 SHL SUB AND SWAP2 DUP3 ISZERO PUSH2 0x155 JUMPI PUSH1 0x2 DUP1 SLOAD PUSH2 0x100 PUSH1 0x1 PUSH1 0xA8 SHL SUB NOT AND PUSH1 0x8 SWAP3 SWAP1 SWAP3 SHL PUSH2 0x100 PUSH1 0x1 PUSH1 0xA8 SHL SUB AND SWAP2 SWAP1 SWAP2 OR SWAP1 SSTORE PUSH1 0x3 DUP1 SLOAD PUSH1 0x1 PUSH1 0x1 PUSH1 0xA0 SHL SUB NOT SWAP1 DUP2 AND SWAP3 SWAP1 SWAP3 OR SWAP1 SSTORE PUSH1 0xF DUP1 SLOAD SWAP1 SWAP2 AND SWAP2 SWAP1 SWAP2 OR SWAP1 SSTORE PUSH1 0x1 PUSH1 0x4 SSTORE PUSH1 0x40 MLOAD PUSH2 0x3AC6 SWAP1 DUP2 PUSH2 0x26F DUP3 CODECOPY RETURN JUMPDEST PUSH1 0x40 MLOAD PUSH3 0x461BCD PUSH1 0xE5 SHL DUP2 MSTORE PUSH1 0x20 PUSH1 0x4 DUP3 ADD MSTORE PUSH1 0x17 PUSH1 0x24 DUP3 ADD MSTORE PUSH32 0x496E76616C696420706C6174666F726D2077616C6C6574000000000000000000 PUSH1 0x44 DUP3 ADD MSTORE PUSH1 0x64 SWAP1 REVERT JUMPDEST PUSH1 0x40 MLOAD PUSH3 0x461BCD PUSH1 0xE5 SHL DUP2 MSTORE PUSH1 0x20 PUSH1 0x4 DUP3 ADD MSTORE PUSH1 0x1E PUSH1 0x24 DUP3 ADD MSTORE PUSH32 0x496E76616C69642072656E74616C207265636569707420616464726573730000 PUSH1 0x44 DUP3 ADD MSTORE PUSH1 0x64 SWAP1 REVERT JUMPDEST PUSH3 0x461BCD PUSH1 0xE5 SHL DUP2 MSTORE PUSH1 0x20 PUSH1 0x4 DUP3 ADD MSTORE PUSH1 0x25 PUSH1 0x24 DUP3 ADD MSTORE PUSH32 0x496E76616C69642070726F706572747920766572696669636174696F6E206164 PUSH1 0x44 DUP3 ADD MSTORE PUSH5 0x6472657373 PUSH1 0xD8 SHL PUSH1 0x64 DUP3 ADD MSTORE PUSH1 0x84 SWAP1 REVERT JUMPDEST PUSH4 0x1E4FBDF7 PUSH1 0xE0 SHL PUSH0 MSTORE PUSH0 PUSH1 0x4 MSTORE PUSH1 0x24 PUSH0 REVERT JUMPDEST PUSH0 DUP1 REVERT JUMPDEST PUSH4 0x4E487B71 PUSH1 0xE0 SHL PUSH0 MSTORE PUSH1 0x41 PUSH1 0x4 MSTORE PUSH1 0x24 PUSH0 REVERT JUMPDEST MLOAD SWAP1 PUSH1 0x1 PUSH1 0x1 PUSH1 0xA0 SHL SUB DUP3 AND DUP3 SUB PUSH2 0x242 JUMPI JUMP INVALID PUSH2 0x100 PUSH1 0x40 MSTORE PUSH1 0x4 CALLDATASIZE LT ISZERO PUSH2 0x12 JUMPI PUSH0 DUP1 REVERT JUMPDEST PUSH0 CALLDATALOAD PUSH1 0xE0 SHR DUP1 PUSH4 0x6E652DD EQ PUSH2 0x32D1 JUMPI DUP1 PUSH4 0xAAFE1EA EQ PUSH2 0x2E74 JUMPI DUP1 PUSH4 0x3059953C EQ PUSH2 0x2E37 JUMPI DUP1 PUSH4 0x31F85EED EQ PUSH2 0x2C24 JUMPI DUP1 PUSH4 0x34B25EE2 EQ PUSH2 0x2A11 JUMPI DUP1 PUSH4 0x38459EB3 EQ PUSH2 0x2966 JUMPI DUP1 PUSH4 0x3CD35859 EQ PUSH2 0x293E JUMPI DUP1 PUSH4 0x448DB2F6 EQ PUSH2 0x28CC JUMPI DUP1 PUSH4 0x4C8EB426 EQ PUSH2 0x27E8 JUMPI DUP1 PUSH4 0x4F9F6FE6 EQ PUSH2 0x255A JUMPI DUP1 PUSH4 0x51219DEF EQ PUSH2 0x24A0 JUMPI DUP1 PUSH4 0x564A565D EQ PUSH2 0x23FB JUMPI DUP1 PUSH4 0x5686B54B EQ PUSH2 0x22E2 JUMPI DUP1 PUSH4 0x5AB98D5A EQ PUSH2 0x2266 JUMPI DUP1 PUSH4 0x5B982D2F EQ PUSH2 0x1E7E JUMPI DUP1 PUSH4 0x5BF31D4D EQ PUSH2 0x1E61 JUMPI DUP1 PUSH4 0x5C975ABB EQ PUSH2 0x1E3F JUMPI DUP1 PUSH4 0x705D5F24 EQ PUSH2 0x1E22 JUMPI DUP1 PUSH4 0x715018A6 EQ PUSH2 0x1DCB JUMPI DUP1 PUSH4 0x7A1E9A42 EQ PUSH2 0x1D9D JUMPI DUP1 PUSH4 0x8456CB59 EQ PUSH2 0x1D44 JUMPI DUP1 PUSH4 0x8A0B66A2 EQ PUSH2 0x1CFB JUMPI DUP1 PUSH4 0x8AED078D EQ PUSH2 0x1C79 JUMPI DUP1 PUSH4 0x8C639A85 EQ PUSH2 0x1C5C JUMPI DUP1 PUSH4 0x8DA5CB5B EQ PUSH2 0x1C35 JUMPI DUP1 PUSH4 0x9547D647 EQ PUSH2 0x1AFB JUMPI DUP1 PUSH4 0x9E6FFFEC EQ PUSH2 0x1AA3 JUMPI DUP1 PUSH4 0xA0F109C5 EQ PUSH2 0x164D JUMPI DUP1 PUSH4 0xA6A7F0EB EQ PUSH2 0x13EA JUMPI DUP1 PUSH4 0xAA0B5988 EQ PUSH2 0x13BC JUMPI DUP1 PUSH4 0xB0BF7787 EQ PUSH2 0xD5C JUMPI DUP1 PUSH4 0xBD14DE96 EQ PUSH2 0xBDF JUMPI DUP1 PUSH4 0xC1C228CE EQ PUSH2 0xB86 JUMPI DUP1 PUSH4 0xD064FBE8 EQ PUSH2 0xB0B JUMPI DUP1 PUSH4 0xD9E618ED EQ PUSH2 0xADF JUMPI DUP1 PUSH4 0xDCF97EA9 EQ PUSH2 0xAC2 JUMPI DUP1 PUSH4 0xE3A96CBD EQ PUSH2 0x918 JUMPI DUP1 PUSH4 0xF2FDE38B EQ PUSH2 0x893 JUMPI DUP1 PUSH4 0xF95F05F7 EQ PUSH2 0x4C4 JUMPI DUP1 PUSH4 0xFA2AF9DA EQ PUSH2 0x49C JUMPI DUP1 PUSH4 0xFD54B969 EQ PUSH2 0x209 JUMPI PUSH4 0xFEB5C1DE EQ PUSH2 0x1E8 JUMPI PUSH0 DUP1 REVERT JUMPDEST CALLVALUE PUSH2 0x205 JUMPI PUSH0 CALLDATASIZE PUSH1 0x3 NOT ADD SLT PUSH2 0x205 JUMPI PUSH1 0x20 PUSH1 0x10 SLOAD PUSH1 0x40 MLOAD SWAP1 DUP2 MSTORE RETURN JUMPDEST PUSH0 DUP1 REVERT JUMPDEST CALLVALUE PUSH2 0x205 JUMPI PUSH1 0x20 CALLDATASIZE PUSH1 0x3 NOT ADD SLT PUSH2 0x205 JUMPI PUSH0 PUSH1 0xE0 PUSH1 0x40 MLOAD PUSH2 0x229 DUP2 PUSH2 0x3496 JUMP JUMPDEST DUP3 DUP2 MSTORE DUP3 PUSH1 0x20 DUP3 ADD MSTORE DUP3 PUSH1 0x40 DUP3 ADD MSTORE DUP3 PUSH1 0x60 DUP3 ADD MSTORE DUP3 PUSH1 0x80 DUP3 ADD MSTORE DUP3 PUSH1 0xA0 DUP3 ADD MSTORE DUP3 PUSH1 0xC0 DUP3 ADD MSTORE ADD MSTORE PUSH1 0x4 CALLDATALOAD PUSH0 MSTORE PUSH1 0x5 PUSH1 0x20 MSTORE PUSH1 0x4 PUSH1 0x40 PUSH0 KECCAK256 PUSH1 0x40 MLOAD SWAP1 PUSH2 0x26F DUP3 PUSH2 0x34B3 JUMP JUMPDEST DUP1 SLOAD DUP3 MSTORE PUSH1 0x1 DUP2 ADD SLOAD PUSH1 0x20 DUP4 ADD MSTORE PUSH1 0x2 DUP2 ADD SLOAD PUSH1 0x1 PUSH1 0x1 PUSH1 0xA0 SHL SUB SWAP1 DUP2 AND PUSH1 0x40 DUP5 ADD MSTORE PUSH1 0x3 DUP3 ADD SLOAD AND PUSH1 0x60 DUP4 ADD MSTORE DUP3 DUP2 ADD SLOAD PUSH1 0x80 DUP4 ADD SWAP1 DUP2 MSTORE PUSH1 0x5 DUP3 ADD SLOAD PUSH1 0xA0 DUP5 ADD MSTORE PUSH1 0x6 DUP3 ADD SLOAD PUSH1 0xC0 DUP5 ADD MSTORE PUSH1 0x7 DUP3 ADD SLOAD PUSH1 0xE0 DUP5 ADD MSTORE PUSH1 0x8 DUP3 ADD SLOAD PUSH2 0x100 DUP5 ADD MSTORE PUSH1 0x9 DUP3 ADD SLOAD PUSH2 0x120 DUP5 ADD MSTORE PUSH1 0xA DUP3 ADD SLOAD SWAP1 SWAP2 PUSH2 0x220 SWAP2 PUSH1 0x10 SWAP2 SWAP1 PUSH2 0x2FC SWAP1 PUSH1 0xFF AND PUSH2 0x140 DUP8 ADD PUSH2 0x376F JUMP JUMPDEST PUSH1 0x40 MLOAD PUSH2 0x317 DUP2 PUSH2 0x310 DUP2 PUSH1 0xB DUP7 ADD PUSH2 0x3415 JUMP JUMPDEST SUB DUP3 PUSH2 0x34EC JUMP JUMPDEST PUSH2 0x160 DUP7 ADD MSTORE PUSH1 0xFF PUSH1 0xC DUP3 ADD SLOAD DUP2 DUP2 AND ISZERO ISZERO PUSH2 0x180 DUP9 ADD MSTORE PUSH1 0x8 SHR AND ISZERO ISZERO PUSH2 0x1A0 DUP7 ADD MSTORE PUSH1 0xD DUP2 ADD SLOAD PUSH2 0x1C0 DUP7 ADD MSTORE PUSH1 0xE DUP2 ADD SLOAD PUSH2 0x1E0 DUP7 ADD MSTORE PUSH1 0xF DUP2 ADD SLOAD PUSH2 0x200 DUP7 ADD MSTORE ADD SLOAD SWAP3 ADD SWAP2 DUP3 MSTORE PUSH1 0x64 PUSH2 0x373 DUP3 MLOAD PUSH1 0xB SLOAD SWAP1 PUSH2 0x368C JUMP JUMPDEST DIV SWAP1 PUSH1 0x64 PUSH2 0x385 DUP5 MLOAD PUSH1 0xC SLOAD SWAP1 PUSH2 0x368C JUMP JUMPDEST DIV SWAP2 PUSH2 0x3A6 PUSH2 0x395 DUP3 DUP5 MLOAD PUSH2 0x367F JUMP JUMPDEST PUSH2 0x3A0 DUP6 DUP8 MLOAD PUSH2 0x367F JUMP JUMPDEST SWAP1 PUSH2 0x3672 JUMP JUMPDEST SWAP2 MLOAD SWAP4 MLOAD PUSH1 0x2 SLOAD PUSH1 0x40 MLOAD PUSH4 0x5C7F355F PUSH1 0xE1 SHL DUP2 MSTORE SWAP7 SWAP2 SWAP5 SWAP2 PUSH1 0x20 SWAP2 DUP9 SWAP2 SWAP1 DUP3 SWAP1 PUSH1 0x8 SHR PUSH1 0x1 PUSH1 0x1 PUSH1 0xA0 SHL SUB AND GAS STATICCALL SWAP1 DUP2 ISZERO PUSH2 0x491 JUMPI PUSH0 SWAP2 PUSH2 0x45B JUMPI JUMPDEST PUSH2 0x100 SWAP7 POP PUSH1 0x40 MLOAD SWAP3 PUSH2 0x3F4 DUP5 PUSH2 0x3496 JUMP JUMPDEST DUP7 DUP5 MSTORE PUSH1 0x20 DUP5 ADD SWAP6 DUP7 MSTORE PUSH1 0x40 DUP5 ADD SWAP1 DUP2 MSTORE PUSH1 0x60 DUP5 ADD SWAP2 DUP3 MSTORE PUSH1 0x80 DUP5 ADD SWAP3 DUP4 MSTORE PUSH1 0xE0 PUSH1 0xA0 DUP6 ADD SWAP5 PUSH0 DUP7 MSTORE PUSH1 0xC0 DUP2 ADD SWAP7 DUP8 MSTORE ADD SWAP6 PUSH0 DUP8 MSTORE PUSH1 0x40 MLOAD SWAP8 DUP9 MSTORE MLOAD PUSH1 0x20 DUP9 ADD MSTORE MLOAD PUSH1 0x40 DUP8 ADD MSTORE MLOAD PUSH1 0x60 DUP7 ADD MSTORE MLOAD PUSH1 0x80 DUP6 ADD MSTORE MLOAD PUSH1 0xA0 DUP5 ADD MSTORE MLOAD PUSH1 0xC0 DUP4 ADD MSTORE MLOAD PUSH1 0xE0 DUP3 ADD MSTORE RETURN JUMPDEST SWAP1 POP PUSH1 0x20 DUP7 RETURNDATASIZE PUSH1 0x20 GT PUSH2 0x489 JUMPI JUMPDEST DUP2 PUSH2 0x476 PUSH1 0x20 SWAP4 DUP4 PUSH2 0x34EC JUMP JUMPDEST DUP2 ADD SUB SLT PUSH2 0x205 JUMPI PUSH2 0x100 SWAP6 MLOAD SWAP1 PUSH2 0x3E2 JUMP JUMPDEST RETURNDATASIZE SWAP2 POP PUSH2 0x469 JUMP JUMPDEST PUSH1 0x40 MLOAD RETURNDATASIZE PUSH0 DUP3 RETURNDATACOPY RETURNDATASIZE SWAP1 REVERT JUMPDEST CALLVALUE PUSH2 0x205 JUMPI PUSH0 CALLDATASIZE PUSH1 0x3 NOT ADD SLT PUSH2 0x205 JUMPI PUSH1 0xF SLOAD PUSH1 0x40 MLOAD PUSH1 0x1 PUSH1 0x1 PUSH1 0xA0 SHL SUB SWAP1 SWAP2 AND DUP2 MSTORE PUSH1 0x20 SWAP1 RETURN JUMPDEST PUSH2 0x4CD CALLDATASIZE PUSH2 0x35A6 JUMP JUMPDEST PUSH2 0x4D5 PUSH2 0x3A55 JUMP JUMPDEST PUSH2 0x4DD PUSH2 0x3981 JUMP JUMPDEST DUP2 PUSH0 MSTORE PUSH1 0x5 PUSH1 0x20 MSTORE PUSH1 0x40 PUSH0 KECCAK256 PUSH1 0xFF PUSH1 0xA DUP3 ADD SLOAD AND PUSH1 0x6 DUP2 LT ISZERO PUSH2 0x7DC JUMPI PUSH1 0x1 PUSH2 0x506 SWAP2 EQ PUSH2 0x35F2 JUMP JUMPDEST PUSH1 0x2 DUP2 ADD SWAP2 PUSH2 0x51F PUSH1 0x1 DUP1 PUSH1 0xA0 SHL SUB DUP5 SLOAD AND CALLER EQ PUSH2 0x377B JUMP JUMPDEST PUSH1 0x5 DUP3 ADD SWAP2 DUP3 SLOAD CALLVALUE LT PUSH2 0x84E JUMPI PUSH1 0x8 DUP2 ADD SLOAD TIMESTAMP GT PUSH2 0x817 JUMPI PUSH1 0xE DUP2 ADD SWAP4 DUP5 SLOAD SWAP3 PUSH1 0x6 DUP4 ADD SWAP2 PUSH2 0x54F DUP4 SLOAD DUP7 PUSH2 0x367F JUMP JUMPDEST SWAP6 DUP9 PUSH0 MSTORE PUSH1 0x7 PUSH1 0x20 MSTORE PUSH1 0x40 PUSH0 KECCAK256 PUSH1 0x40 MLOAD PUSH2 0x568 DUP2 PUSH2 0x34D0 JUMP JUMPDEST DUP11 DUP2 MSTORE PUSH1 0x20 DUP2 ADD CALLVALUE DUP2 MSTORE PUSH1 0x40 DUP3 ADD TIMESTAMP DUP2 MSTORE PUSH1 0x60 DUP4 ADD DUP12 DUP2 MSTORE PUSH1 0x80 DUP5 ADD SWAP2 DUP12 DUP4 MSTORE PUSH1 0xA0 DUP6 ADD SWAP6 PUSH0 DUP8 MSTORE DUP1 SLOAD PUSH1 0x1 PUSH1 0x40 SHL DUP2 LT ISZERO PUSH2 0x803 JUMPI PUSH2 0x5AD SWAP2 PUSH1 0x1 DUP3 ADD DUP2 SSTORE PUSH2 0x35D9 JUMP JUMPDEST SWAP5 SWAP1 SWAP5 PUSH2 0x7F0 JUMPI PUSH1 0x5 SWAP6 MLOAD DUP6 SSTORE MLOAD PUSH1 0x1 DUP6 ADD SSTORE MLOAD PUSH1 0x2 DUP5 ADD SSTORE MLOAD PUSH1 0x3 DUP4 ADD SSTORE MLOAD PUSH1 0x4 DUP3 ADD SSTORE ADD SWAP1 MLOAD SWAP6 PUSH1 0x3 DUP8 LT ISZERO PUSH2 0x7DC JUMPI PUSH2 0x612 PUSH1 0x20 SWAP7 PUSH2 0x684 SWAP4 PUSH2 0x6F2 SWAP10 PUSH1 0xFF DUP1 NOT DUP4 SLOAD AND SWAP2 AND OR SWAP1 SSTORE PUSH1 0x10 DUP4 ADD PUSH2 0x608 CALLVALUE DUP3 SLOAD PUSH2 0x3672 JUMP JUMPDEST SWAP1 SSTORE SLOAD DUP12 SLOAD PUSH2 0x3672 JUMP JUMPDEST DUP11 SSTORE PUSH2 0x673 PUSH1 0x3 PUSH1 0x64 PUSH2 0x627 PUSH1 0xC SLOAD CALLVALUE PUSH2 0x368C JUMP JUMPDEST DIV SWAP3 PUSH2 0x658 PUSH2 0x636 DUP6 CALLVALUE PUSH2 0x367F JUMP JUMPDEST SWAP7 CALLER PUSH0 MSTORE PUSH1 0x11 DUP12 MSTORE PUSH1 0xFF PUSH1 0x40 PUSH0 KECCAK256 SLOAD AND DUP1 PUSH2 0x7D1 JUMPI JUMPDEST PUSH2 0x78C JUMPI JUMPDEST SLOAD CALLVALUE PUSH2 0x367F JUMP JUMPDEST DUP1 PUSH2 0x77C JUMPI JUMPDEST POP ADD DUP1 SLOAD SWAP1 SWAP5 SWAP1 PUSH1 0x1 PUSH1 0x1 PUSH1 0xA0 SHL SUB AND PUSH2 0x39A1 JUMP JUMPDEST PUSH1 0xF SLOAD PUSH1 0x1 PUSH1 0x1 PUSH1 0xA0 SHL SUB AND PUSH2 0x39A1 JUMP JUMPDEST PUSH1 0x3 SLOAD SWAP2 SLOAD SWAP1 SLOAD PUSH1 0x40 MLOAD PUSH4 0x613A65AB PUSH1 0xE1 SHL DUP2 MSTORE PUSH1 0x1 PUSH1 0x1 PUSH1 0xA0 SHL SUB SWAP3 DUP4 AND PUSH1 0x4 DUP3 ADD MSTORE SWAP1 DUP3 AND PUSH1 0x24 DUP3 ADD MSTORE PUSH1 0x44 DUP2 ADD DUP11 SWAP1 MSTORE CALLVALUE PUSH1 0x64 DUP3 ADD MSTORE TIMESTAMP PUSH1 0x84 DUP3 ADD MSTORE PUSH1 0xA4 DUP2 ADD DUP9 SWAP1 MSTORE PUSH1 0xC4 DUP2 ADD DUP8 SWAP1 MSTORE PUSH2 0x100 PUSH1 0xE4 DUP3 ADD MSTORE SWAP5 DUP6 SWAP4 SWAP2 SWAP1 SWAP3 AND SWAP2 DUP4 SWAP2 PUSH0 SWAP2 DUP4 SWAP2 PUSH2 0x104 DUP4 ADD SWAP1 PUSH2 0x33B9 JUMP JUMPDEST SUB SWAP3 GAS CALL DUP1 ISZERO PUSH2 0x491 JUMPI PUSH2 0x747 JUMPI JUMPDEST POP SWAP1 PUSH1 0x80 SWAP2 PUSH32 0x127BEF6D745EE904CAE3BFCD33B2954906B5F7D41F942BC0EE65D17BBACB8FF SWAP4 SLOAD SWAP1 PUSH1 0x40 MLOAD SWAP3 CALLVALUE DUP5 MSTORE PUSH1 0x20 DUP5 ADD MSTORE PUSH1 0x40 DUP4 ADD MSTORE PUSH1 0x60 DUP3 ADD MSTORE LOG2 PUSH1 0x1 DUP1 SSTORE STOP JUMPDEST SWAP2 SWAP1 PUSH1 0x20 DUP4 RETURNDATASIZE PUSH1 0x20 GT PUSH2 0x774 JUMPI JUMPDEST DUP2 PUSH2 0x762 PUSH1 0x20 SWAP4 DUP4 PUSH2 0x34EC JUMP JUMPDEST DUP2 ADD SUB SLT PUSH2 0x205 JUMPI SWAP1 SWAP2 POP PUSH1 0x80 PUSH2 0x701 JUMP JUMPDEST RETURNDATASIZE SWAP2 POP PUSH2 0x755 JUMP JUMPDEST PUSH2 0x786 SWAP1 CALLER PUSH2 0x39A1 JUMP JUMPDEST DUP15 PUSH2 0x65E JUMP JUMPDEST PUSH2 0x7B8 PUSH2 0x799 GAS GASPRICE PUSH2 0x368C JUMP JUMPDEST PUSH1 0x10 SLOAD DUP1 SWAP2 GT PUSH0 EQ PUSH2 0x7BD JUMPI PUSH2 0x7AF DUP2 DUP1 PUSH2 0x367F JUMP JUMPDEST PUSH1 0x10 SSTORE CALLER PUSH2 0x39A1 JUMP JUMPDEST PUSH2 0x651 JUMP JUMPDEST PUSH2 0x7AF PUSH2 0x7CA GAS GASPRICE PUSH2 0x368C JUMP JUMPDEST DUP1 SWAP3 PUSH2 0x367F JUMP JUMPDEST POP PUSH1 0x10 SLOAD ISZERO ISZERO PUSH2 0x64C JUMP JUMPDEST PUSH4 0x4E487B71 PUSH1 0xE0 SHL PUSH0 MSTORE PUSH1 0x21 PUSH1 0x4 MSTORE PUSH1 0x24 PUSH0 REVERT JUMPDEST PUSH4 0x4E487B71 PUSH1 0xE0 SHL PUSH0 MSTORE PUSH0 PUSH1 0x4 MSTORE PUSH1 0x24 PUSH0 REVERT JUMPDEST PUSH4 0x4E487B71 PUSH1 0xE0 SHL PUSH0 MSTORE PUSH1 0x41 PUSH1 0x4 MSTORE PUSH1 0x24 PUSH0 REVERT JUMPDEST PUSH1 0x40 MLOAD PUSH3 0x461BCD PUSH1 0xE5 SHL DUP2 MSTORE PUSH1 0x20 PUSH1 0x4 DUP3 ADD MSTORE PUSH1 0xF PUSH1 0x24 DUP3 ADD MSTORE PUSH15 0x1319585CD9481A185CC8195B991959 PUSH1 0x8A SHL PUSH1 0x44 DUP3 ADD MSTORE PUSH1 0x64 SWAP1 REVERT JUMPDEST PUSH1 0x40 MLOAD PUSH3 0x461BCD PUSH1 0xE5 SHL DUP2 MSTORE PUSH1 0x20 PUSH1 0x4 DUP3 ADD MSTORE PUSH1 0x18 PUSH1 0x24 DUP3 ADD MSTORE PUSH32 0x496E73756666696369656E742072656E7420616D6F756E740000000000000000 PUSH1 0x44 DUP3 ADD MSTORE PUSH1 0x64 SWAP1 REVERT JUMPDEST CALLVALUE PUSH2 0x205 JUMPI PUSH1 0x20 CALLDATASIZE PUSH1 0x3 NOT ADD SLT PUSH2 0x205 JUMPI PUSH2 0x8AC PUSH2 0x3347 JUMP JUMPDEST PUSH2 0x8B4 PUSH2 0x395B JUMP JUMPDEST PUSH1 0x1 PUSH1 0x1 PUSH1 0xA0 SHL SUB AND DUP1 ISZERO PUSH2 0x905 JUMPI PUSH0 DUP1 SLOAD PUSH1 0x1 PUSH1 0x1 PUSH1 0xA0 SHL SUB NOT DUP2 AND DUP4 OR DUP3 SSTORE PUSH1 0x1 PUSH1 0x1 PUSH1 0xA0 SHL SUB AND SWAP1 PUSH32 0x8BE0079C531659141344CD1FD0A4F28419497F9722A3DAAFE3B4186F6B6457E0 SWAP1 DUP1 LOG3 STOP JUMPDEST PUSH4 0x1E4FBDF7 PUSH1 0xE0 SHL PUSH0 MSTORE PUSH0 PUSH1 0x4 MSTORE PUSH1 0x24 PUSH0 REVERT JUMPDEST CALLVALUE PUSH2 0x205 JUMPI PUSH1 0x20 CALLDATASIZE PUSH1 0x3 NOT ADD SLT PUSH2 0x205 JUMPI PUSH1 0x4 CALLDATALOAD PUSH0 MSTORE PUSH1 0x6 PUSH1 0x20 MSTORE PUSH1 0x40 PUSH0 KECCAK256 PUSH1 0x40 MLOAD PUSH2 0x943 DUP2 PUSH2 0x3496 JUMP JUMPDEST DUP2 SLOAD DUP2 MSTORE PUSH1 0x1 DUP3 ADD SLOAD PUSH1 0x1 PUSH1 0x1 PUSH1 0xA0 SHL SUB AND PUSH1 0x20 DUP3 ADD SWAP1 DUP2 MSTORE PUSH1 0x40 MLOAD SWAP2 SWAP1 PUSH2 0x979 DUP4 PUSH2 0x972 DUP2 PUSH1 0x2 DUP9 ADD PUSH2 0x3415 JUMP JUMPDEST SUB DUP5 PUSH2 0x34EC JUMP JUMPDEST PUSH1 0x40 DUP3 ADD SWAP3 DUP4 MSTORE PUSH1 0x3 DUP5 ADD SWAP2 DUP3 SLOAD SWAP5 PUSH2 0x991 DUP7 PUSH2 0x37B8 JUMP JUMPDEST SWAP6 PUSH2 0x99F PUSH1 0x40 MLOAD SWAP8 DUP9 PUSH2 0x34EC JUMP JUMPDEST DUP1 DUP8 MSTORE PUSH1 0x20 DUP8 ADD DUP1 SWAP6 PUSH0 MSTORE PUSH1 0x20 PUSH0 KECCAK256 PUSH0 SWAP2 JUMPDEST DUP4 DUP4 LT PUSH2 0xA9D JUMPI POP POP POP POP SWAP1 PUSH1 0xE0 SWAP3 SWAP2 DUP7 PUSH1 0x60 DUP4 ADD MSTORE PUSH2 0xA2B PUSH1 0x5 PUSH1 0x4 DUP4 ADD SLOAD SWAP3 DUP4 PUSH1 0x80 DUP7 ADD MSTORE ADD SLOAD SWAP4 PUSH1 0xFF DUP6 AND ISZERO ISZERO SWAP4 DUP5 PUSH1 0xA0 DUP3 ADD MSTORE PUSH1 0xFF PUSH1 0x1 DUP1 PUSH1 0xA0 SHL SUB DUP8 PUSH1 0x8 SHR AND SWAP7 DUP8 PUSH1 0xC0 DUP5 ADD MSTORE PUSH1 0xA8 SHR AND ISZERO ISZERO SWAP7 DUP8 SWAP2 ADD MSTORE PUSH1 0x1 DUP1 PUSH1 0xA0 SHL SUB SWAP1 MLOAD AND SWAP7 MLOAD PUSH1 0x40 MLOAD SWAP8 DUP9 MSTORE PUSH1 0xE0 PUSH1 0x20 DUP10 ADD MSTORE PUSH1 0xE0 DUP9 ADD SWAP1 PUSH2 0x33B9 JUMP JUMPDEST SWAP7 DUP7 DUP9 SUB PUSH1 0x40 DUP9 ADD MSTORE MLOAD DUP1 DUP9 MSTORE PUSH1 0x20 DUP9 ADD SWAP1 PUSH1 0x20 DUP2 PUSH1 0x5 SHL DUP11 ADD ADD SWAP7 SWAP2 PUSH0 SWAP1 JUMPDEST DUP3 DUP3 LT PUSH2 0xA71 JUMPI POP POP POP POP DUP6 SWAP7 POP PUSH1 0x60 DUP7 ADD MSTORE PUSH1 0x80 DUP6 ADD MSTORE PUSH1 0xA0 DUP5 ADD MSTORE PUSH1 0xC0 DUP4 ADD MSTORE SUB SWAP1 RETURN JUMPDEST SWAP1 SWAP2 SWAP3 SWAP8 PUSH1 0x20 DUP1 PUSH2 0xA8F PUSH1 0x1 SWAP4 DUP15 PUSH1 0x1F NOT SWAP1 DUP3 SUB ADD DUP7 MSTORE DUP13 MLOAD PUSH2 0x33B9 JUMP JUMPDEST SWAP11 ADD SWAP3 ADD SWAP3 ADD SWAP1 SWAP3 SWAP2 PUSH2 0xA4B JUMP JUMPDEST PUSH1 0x1 PUSH1 0x20 DUP2 SWAP3 PUSH1 0x40 MLOAD PUSH2 0xAB4 DUP2 PUSH2 0x310 DUP2 DUP10 PUSH2 0x3415 JUMP JUMPDEST DUP2 MSTORE ADD SWAP3 ADD SWAP3 ADD SWAP2 SWAP1 PUSH2 0x9B1 JUMP JUMPDEST CALLVALUE PUSH2 0x205 JUMPI PUSH0 CALLDATASIZE PUSH1 0x3 NOT ADD SLT PUSH2 0x205 JUMPI PUSH1 0x20 PUSH1 0xC SLOAD PUSH1 0x40 MLOAD SWAP1 DUP2 MSTORE RETURN JUMPDEST CALLVALUE PUSH2 0x205 JUMPI PUSH0 CALLDATASIZE PUSH1 0x3 NOT ADD SLT PUSH2 0x205 JUMPI PUSH1 0x2 SLOAD PUSH1 0x40 MLOAD PUSH1 0x8 SWAP2 SWAP1 SWAP2 SHR PUSH1 0x1 PUSH1 0x1 PUSH1 0xA0 SHL SUB AND DUP2 MSTORE PUSH1 0x20 SWAP1 RETURN JUMPDEST CALLVALUE PUSH2 0x205 JUMPI PUSH2 0xB19 CALLDATASIZE PUSH2 0x335D JUMP JUMPDEST SWAP1 PUSH0 MSTORE PUSH1 0x7 PUSH1 0x20 MSTORE PUSH1 0x40 PUSH0 KECCAK256 DUP1 SLOAD DUP3 LT ISZERO PUSH2 0x205 JUMPI PUSH1 0xC0 SWAP2 PUSH2 0xB3A SWAP2 PUSH2 0x35D9 JUMP JUMPDEST POP PUSH2 0xB84 DUP2 SLOAD SWAP2 PUSH1 0x1 DUP2 ADD SLOAD SWAP1 PUSH1 0x2 DUP2 ADD SLOAD PUSH1 0x3 DUP3 ADD SLOAD SWAP1 PUSH1 0xFF PUSH1 0x5 PUSH1 0x4 DUP6 ADD SLOAD SWAP5 ADD SLOAD AND SWAP4 PUSH1 0x40 MLOAD SWAP7 DUP8 MSTORE PUSH1 0x20 DUP8 ADD MSTORE PUSH1 0x40 DUP7 ADD MSTORE PUSH1 0x60 DUP6 ADD MSTORE PUSH1 0x80 DUP5 ADD MSTORE PUSH1 0xA0 DUP4 ADD SWAP1 PUSH2 0x3599 JUMP JUMPDEST RETURN JUMPDEST PUSH0 CALLDATASIZE PUSH1 0x3 NOT ADD SLT PUSH2 0x205 JUMPI CALLVALUE ISZERO PUSH2 0xBA8 JUMPI PUSH2 0xBA3 CALLVALUE PUSH1 0x10 SLOAD PUSH2 0x3672 JUMP JUMPDEST PUSH1 0x10 SSTORE STOP JUMPDEST PUSH1 0x40 MLOAD PUSH3 0x461BCD PUSH1 0xE5 SHL DUP2 MSTORE PUSH1 0x20 PUSH1 0x4 DUP3 ADD MSTORE PUSH1 0xF PUSH1 0x24 DUP3 ADD MSTORE PUSH15 0x4D7573742073656E642066756E6473 PUSH1 0x88 SHL PUSH1 0x44 DUP3 ADD MSTORE PUSH1 0x64 SWAP1 REVERT JUMPDEST CALLVALUE PUSH2 0x205 JUMPI PUSH1 0x20 CALLDATASIZE PUSH1 0x3 NOT ADD SLT PUSH2 0x205 JUMPI PUSH1 0x4 CALLDATALOAD PUSH0 MSTORE PUSH1 0x5 PUSH1 0x20 MSTORE PUSH1 0x40 PUSH0 KECCAK256 DUP1 SLOAD PUSH1 0x1 DUP3 ADD SLOAD PUSH1 0xA0 MSTORE PUSH1 0x1 PUSH1 0xA0 SHL PUSH1 0x1 SWAP1 SUB PUSH1 0x2 DUP4 ADD SLOAD AND PUSH1 0xE0 MSTORE PUSH1 0x1 PUSH1 0xA0 SHL PUSH1 0x1 SWAP1 SUB PUSH1 0x3 DUP4 ADD SLOAD AND SWAP2 PUSH1 0x4 DUP2 ADD SLOAD SWAP3 PUSH1 0x5 DUP3 ADD SLOAD PUSH1 0x6 DUP4 ADD SLOAD PUSH1 0x7 DUP5 ADD SLOAD PUSH1 0x8 DUP6 ADD SLOAD PUSH1 0x9 DUP7 ADD SLOAD SWAP2 PUSH1 0xA DUP8 ADD SLOAD PUSH1 0xFF AND SWAP4 PUSH1 0x40 MLOAD SWAP6 DUP7 DUP1 PUSH1 0xB DUP12 ADD SWAP1 PUSH2 0xC67 SWAP2 PUSH2 0x3415 JUMP JUMPDEST SUB PUSH2 0xC72 SWAP1 DUP9 PUSH2 0x34EC JUMP JUMPDEST PUSH1 0xC DUP10 ADD SLOAD PUSH1 0x80 MSTORE PUSH1 0xD DUP10 ADD SLOAD SWAP11 PUSH1 0xE DUP11 ADD SLOAD SWAP9 PUSH1 0xF DUP12 ADD SLOAD SWAP11 PUSH1 0x10 ADD SLOAD SWAP12 PUSH1 0x40 MLOAD PUSH1 0xC0 MSTORE PUSH1 0xC0 MLOAD MSTORE PUSH1 0xA0 MLOAD PUSH1 0xC0 MLOAD PUSH1 0x20 ADD MSTORE PUSH1 0xE0 MLOAD PUSH1 0xC0 MLOAD PUSH1 0x40 ADD MSTORE PUSH1 0xC0 MLOAD PUSH1 0x60 ADD MSTORE PUSH1 0xC0 MLOAD PUSH1 0x80 ADD MSTORE PUSH1 0xC0 MLOAD PUSH1 0xA0 ADD MSTORE PUSH1 0xC0 MLOAD PUSH1 0xC0 ADD MSTORE PUSH1 0xC0 MLOAD PUSH1 0xE0 ADD MSTORE PUSH1 0xC0 MLOAD PUSH2 0x100 ADD MSTORE PUSH1 0xC0 MLOAD PUSH2 0x120 ADD MSTORE PUSH1 0xC0 MLOAD PUSH2 0x140 ADD PUSH2 0xCF2 SWAP2 PUSH2 0x33AC JUMP JUMPDEST PUSH1 0xC0 MLOAD PUSH2 0x160 ADD PUSH2 0x240 SWAP1 MSTORE PUSH1 0xC0 MLOAD PUSH2 0x240 ADD PUSH2 0xD0E SWAP2 PUSH2 0x33B9 JUMP JUMPDEST SWAP4 PUSH1 0x80 MLOAD PUSH1 0xFF AND ISZERO ISZERO PUSH1 0xC0 MLOAD PUSH2 0x180 ADD MSTORE PUSH1 0x80 MLOAD PUSH1 0x8 SHR PUSH1 0xFF AND ISZERO ISZERO PUSH1 0xC0 MLOAD PUSH2 0x1A0 ADD MSTORE PUSH1 0xC0 MLOAD PUSH2 0x1C0 ADD MSTORE PUSH1 0xC0 MLOAD PUSH2 0x1E0 ADD MSTORE PUSH1 0xC0 MLOAD PUSH2 0x200 ADD MSTORE PUSH1 0xC0 MLOAD PUSH2 0x220 ADD MSTORE PUSH1 0xC0 MLOAD SWAP1 SUB PUSH1 0xC0 MLOAD RETURN JUMPDEST PUSH1 0xE0 CALLDATASIZE PUSH1 0x3 NOT ADD SLT PUSH2 0x205 JUMPI PUSH1 0x24 CALLDATALOAD PUSH1 0x1 PUSH1 0x1 PUSH1 0xA0 SHL SUB DUP2 AND DUP2 SUB PUSH2 0x205 JUMPI PUSH1 0x84 CALLDATALOAD SWAP1 PUSH1 0xA4 CALLDATALOAD SWAP1 PUSH1 0xC4 CALLDATALOAD PUSH8 0xFFFFFFFFFFFFFFFF DUP2 GT PUSH2 0x205 JUMPI PUSH2 0xDA3 SWAP1 CALLDATASIZE SWAP1 PUSH1 0x4 ADD PUSH2 0x352A JUMP JUMPDEST SWAP2 PUSH2 0xDAC PUSH2 0x3A55 JUMP JUMPDEST PUSH2 0xDB4 PUSH2 0x3981 JUMP JUMPDEST CALLVALUE ISZERO PUSH2 0x136D JUMPI PUSH1 0x44 CALLDATALOAD ISZERO PUSH2 0x1319 JUMPI PUSH3 0x15180 PUSH1 0x64 CALLDATALOAD LT ISZERO DUP1 PUSH2 0x1309 JUMPI JUMPDEST ISZERO PUSH2 0x12CC JUMPI PUSH1 0x2 SLOAD PUSH1 0x40 MLOAD PUSH4 0x38C9311 PUSH1 0xE1 SHL DUP2 MSTORE PUSH1 0x4 DUP1 CALLDATALOAD SWAP1 DUP3 ADD MSTORE PUSH1 0x8 SWAP2 SWAP1 SWAP2 SHR PUSH1 0x1 PUSH1 0x1 PUSH1 0xA0 SHL SUB AND SWAP1 PUSH1 0x20 DUP2 PUSH1 0x24 DUP2 DUP6 GAS STATICCALL SWAP1 DUP2 ISZERO PUSH2 0x491 JUMPI PUSH0 SWAP2 PUSH2 0x1291 JUMPI JUMPDEST POP ISZERO PUSH2 0x1254 JUMPI PUSH1 0x20 PUSH1 0x24 SWAP2 PUSH1 0x40 MLOAD SWAP3 DUP4 DUP1 SWAP3 PUSH4 0xE34FC531 PUSH1 0xE0 SHL DUP3 MSTORE PUSH1 0x4 CALLDATALOAD PUSH1 0x4 DUP4 ADD MSTORE GAS STATICCALL SWAP1 DUP2 ISZERO PUSH2 0x491 JUMPI PUSH0 SWAP2 PUSH2 0x1212 JUMPI JUMPDEST POP PUSH1 0x1 PUSH1 0x1 PUSH1 0xA0 SHL SUB SWAP1 DUP2 AND SWAP1 DUP4 AND SUB PUSH2 0x11D9 JUMPI PUSH1 0x1 PUSH1 0x1 PUSH1 0xA0 SHL SUB DUP3 AND CALLER EQ PUSH2 0x1194 JUMPI DUP4 DUP2 GT ISZERO PUSH2 0x1157 JUMPI TIMESTAMP DUP5 LT PUSH2 0x1112 JUMPI PUSH1 0x4 SLOAD SWAP3 PUSH0 NOT DUP5 EQ PUSH2 0x10FE JUMPI PUSH1 0x1 DUP5 ADD PUSH1 0x4 SSTORE PUSH2 0xE9B PUSH1 0x64 CALLDATALOAD DUP7 PUSH2 0x3672 JUMP JUMPDEST SWAP1 PUSH1 0xE SLOAD SWAP3 PUSH1 0x40 MLOAD SWAP7 PUSH2 0xEAD DUP9 PUSH2 0x34B3 JUMP JUMPDEST DUP7 DUP9 MSTORE PUSH1 0x4 CALLDATALOAD PUSH1 0x20 DUP10 ADD MSTORE CALLER PUSH1 0x40 DUP10 ADD MSTORE PUSH1 0x1 DUP1 PUSH1 0xA0 SHL SUB DUP7 AND PUSH1 0x60 DUP10 ADD MSTORE CALLVALUE PUSH1 0x80 DUP10 ADD MSTORE PUSH1 0x44 CALLDATALOAD PUSH1 0xA0 DUP10 ADD MSTORE PUSH1 0x64 CALLDATALOAD PUSH1 0xC0 DUP10 ADD MSTORE PUSH1 0xE0 DUP9 ADD MSTORE PUSH2 0x100 DUP8 ADD MSTORE TIMESTAMP PUSH2 0x120 DUP8 ADD MSTORE PUSH0 PUSH2 0x140 DUP8 ADD MSTORE PUSH2 0x160 DUP7 ADD MSTORE PUSH0 PUSH2 0x180 DUP7 ADD MSTORE PUSH0 PUSH2 0x1A0 DUP7 ADD MSTORE PUSH0 PUSH2 0x1C0 DUP7 ADD MSTORE PUSH2 0x1E0 DUP6 ADD MSTORE PUSH2 0x200 DUP5 ADD MSTORE PUSH0 PUSH2 0x220 DUP5 ADD MSTORE DUP2 PUSH0 MSTORE PUSH1 0x5 PUSH1 0x20 MSTORE PUSH1 0x40 PUSH0 KECCAK256 DUP4 MLOAD DUP2 SSTORE PUSH1 0x20 DUP5 ADD MLOAD PUSH1 0x1 DUP3 ADD SSTORE PUSH1 0x1 DUP1 PUSH1 0xA0 SHL SUB PUSH1 0x40 DUP6 ADD MLOAD AND PUSH1 0x2 DUP3 ADD SWAP1 PUSH1 0x1 DUP1 PUSH1 0xA0 SHL SUB AND PUSH1 0x1 PUSH1 0x1 PUSH1 0x60 SHL SUB PUSH1 0xA0 SHL DUP3 SLOAD AND OR SWAP1 SSTORE PUSH1 0x1 DUP1 PUSH1 0xA0 SHL SUB PUSH1 0x60 DUP6 ADD MLOAD AND PUSH1 0x3 DUP3 ADD SWAP1 PUSH1 0x1 DUP1 PUSH1 0xA0 SHL SUB AND PUSH1 0x1 PUSH1 0x1 PUSH1 0x60 SHL SUB PUSH1 0xA0 SHL DUP3 SLOAD AND OR SWAP1 SSTORE PUSH1 0x80 DUP5 ADD MLOAD PUSH1 0x4 DUP3 ADD SSTORE PUSH1 0xA0 DUP5 ADD MLOAD PUSH1 0x5 DUP3 ADD SSTORE PUSH1 0xC0 DUP5 ADD MLOAD PUSH1 0x6 DUP3 ADD SSTORE PUSH1 0xE0 DUP5 ADD MLOAD PUSH1 0x7 DUP3 ADD SSTORE PUSH2 0x100 DUP5 ADD MLOAD PUSH1 0x8 DUP3 ADD SSTORE PUSH2 0x120 DUP5 ADD MLOAD PUSH1 0x9 DUP3 ADD SSTORE PUSH1 0xA DUP2 ADD PUSH2 0x140 DUP6 ADD MLOAD PUSH1 0x6 DUP2 LT ISZERO PUSH2 0x7DC JUMPI PUSH1 0x20 SWAP6 PUSH1 0x10 SWAP3 PUSH2 0x220 SWAP3 PUSH1 0xFF DUP1 NOT DUP4 SLOAD AND SWAP2 AND OR SWAP1 SSTORE PUSH2 0x1012 PUSH2 0x160 DUP3 ADD MLOAD PUSH1 0xB DUP7 ADD PUSH2 0x37F3 JUMP JUMPDEST PUSH1 0xC DUP5 ADD PUSH2 0x1033 PUSH2 0x180 DUP4 ADD MLOAD ISZERO ISZERO DUP3 SWAP1 PUSH1 0xFF DUP1 NOT DUP4 SLOAD AND SWAP2 ISZERO ISZERO AND OR SWAP1 SSTORE JUMP JUMPDEST PUSH2 0x1A0 DUP3 ADD MLOAD ISZERO ISZERO PUSH2 0xFF00 DUP3 SLOAD SWAP2 PUSH1 0x8 SHL AND SWAP1 PUSH2 0xFF00 NOT AND OR SWAP1 SSTORE PUSH2 0x1C0 DUP2 ADD MLOAD PUSH1 0xD DUP6 ADD SSTORE PUSH2 0x1E0 DUP2 ADD MLOAD PUSH1 0xE DUP6 ADD SSTORE PUSH2 0x200 DUP2 ADD MLOAD PUSH1 0xF DUP6 ADD SSTORE ADD MLOAD SWAP2 ADD SSTORE CALLER PUSH0 MSTORE PUSH1 0x8 DUP4 MSTORE PUSH2 0x1088 DUP3 PUSH1 0x40 PUSH0 KECCAK256 PUSH2 0x3927 JUMP JUMPDEST PUSH1 0x1 DUP1 PUSH1 0xA0 SHL SUB DUP2 AND PUSH0 MSTORE PUSH1 0x9 DUP4 MSTORE PUSH2 0x10A4 DUP3 PUSH1 0x40 PUSH0 KECCAK256 PUSH2 0x3927 JUMP JUMPDEST PUSH1 0x40 MLOAD SWAP1 PUSH1 0x1 DUP1 PUSH1 0xA0 SHL SUB AND DUP2 MSTORE CALLVALUE DUP4 DUP3 ADD MSTORE PUSH1 0x44 CALLDATALOAD PUSH1 0x40 DUP3 ADD MSTORE PUSH1 0x64 CALLDATALOAD PUSH1 0x60 DUP3 ADD MSTORE CALLER SWAP1 DUP3 PUSH32 0x31C2E80A4796BD75BA71ED9F026FEF5ED39DC66EEB26205FEAD3D33B695A3290 PUSH1 0x80 PUSH1 0x4 CALLDATALOAD SWAP4 LOG4 PUSH1 0x1 DUP1 SSTORE PUSH1 0x40 MLOAD SWAP1 DUP2 MSTORE RETURN JUMPDEST PUSH4 0x4E487B71 PUSH1 0xE0 SHL PUSH0 MSTORE PUSH1 0x11 PUSH1 0x4 MSTORE PUSH1 0x24 PUSH0 REVERT JUMPDEST PUSH1 0x40 MLOAD PUSH3 0x461BCD PUSH1 0xE5 SHL DUP2 MSTORE PUSH1 0x20 PUSH1 0x4 DUP3 ADD MSTORE PUSH1 0x1C PUSH1 0x24 DUP3 ADD MSTORE PUSH32 0x53746172742064617465206D75737420626520696E2066757475726500000000 PUSH1 0x44 DUP3 ADD MSTORE PUSH1 0x64 SWAP1 REVERT JUMPDEST PUSH1 0x40 MLOAD PUSH3 0x461BCD PUSH1 0xE5 SHL DUP2 MSTORE PUSH1 0x20 PUSH1 0x4 DUP3 ADD MSTORE PUSH1 0x15 PUSH1 0x24 DUP3 ADD MSTORE PUSH21 0x125B9D985B1A59081C995B9D185B081C195C9A5BD9 PUSH1 0x5A SHL PUSH1 0x44 DUP3 ADD MSTORE PUSH1 0x64 SWAP1 REVERT JUMPDEST PUSH1 0x40 MLOAD PUSH3 0x461BCD PUSH1 0xE5 SHL DUP2 MSTORE PUSH1 0x20 PUSH1 0x4 DUP3 ADD MSTORE PUSH1 0x19 PUSH1 0x24 DUP3 ADD MSTORE PUSH32 0x4C616E646C6F72642063616E6E6F742062652074656E616E7400000000000000 PUSH1 0x44 DUP3 ADD MSTORE PUSH1 0x64 SWAP1 REVERT JUMPDEST PUSH1 0x40 MLOAD PUSH3 0x461BCD PUSH1 0xE5 SHL DUP2 MSTORE PUSH1 0x20 PUSH1 0x4 DUP3 ADD MSTORE PUSH1 0x11 PUSH1 0x24 DUP3 ADD MSTORE PUSH17 0x98C2DCC8D8DEE4C840DAD2E6DAC2E8C6D PUSH1 0x7B SHL PUSH1 0x44 DUP3 ADD MSTORE PUSH1 0x64 SWAP1 REVERT JUMPDEST SWAP1 POP PUSH1 0x20 DUP2 RETURNDATASIZE PUSH1 0x20 GT PUSH2 0x124C JUMPI JUMPDEST DUP2 PUSH2 0x122D PUSH1 0x20 SWAP4 DUP4 PUSH2 0x34EC JUMP JUMPDEST DUP2 ADD SUB SLT PUSH2 0x205 JUMPI MLOAD PUSH1 0x1 PUSH1 0x1 PUSH1 0xA0 SHL SUB DUP2 AND DUP2 SUB PUSH2 0x205 JUMPI DUP6 PUSH2 0xE49 JUMP JUMPDEST RETURNDATASIZE SWAP2 POP PUSH2 0x1220 JUMP JUMPDEST PUSH1 0x40 MLOAD PUSH3 0x461BCD PUSH1 0xE5 SHL DUP2 MSTORE PUSH1 0x20 PUSH1 0x4 DUP3 ADD MSTORE PUSH1 0x15 PUSH1 0x24 DUP3 ADD MSTORE PUSH21 0x141C9BDC195C9D1E481B9BDD081D995C9A599A5959 PUSH1 0x5A SHL PUSH1 0x44 DUP3 ADD MSTORE PUSH1 0x64 SWAP1 REVERT JUMPDEST SWAP1 POP PUSH1 0x20 DUP2 RETURNDATASIZE PUSH1 0x20 GT PUSH2 0x12C4 JUMPI JUMPDEST DUP2 PUSH2 0x12AC PUSH1 0x20 SWAP4 DUP4 PUSH2 0x34EC JUMP JUMPDEST DUP2 ADD SUB SLT PUSH2 0x205 JUMPI MLOAD DUP1 ISZERO ISZERO DUP2 SUB PUSH2 0x205 JUMPI DUP7 PUSH2 0xE15 JUMP JUMPDEST RETURNDATASIZE SWAP2 POP PUSH2 0x129F JUMP JUMPDEST PUSH1 0x40 MLOAD PUSH3 0x461BCD PUSH1 0xE5 SHL DUP2 MSTORE PUSH1 0x20 PUSH1 0x4 DUP3 ADD MSTORE PUSH1 0x15 PUSH1 0x24 DUP3 ADD MSTORE PUSH21 0x125B9D985B1A59081C995B9D081A5B9D195C9D985B PUSH1 0x5A SHL PUSH1 0x44 DUP3 ADD MSTORE PUSH1 0x64 SWAP1 REVERT JUMPDEST POP PUSH4 0x1E13380 PUSH1 0x64 CALLDATALOAD GT ISZERO PUSH2 0xDD1 JUMP JUMPDEST PUSH1 0x40 MLOAD PUSH3 0x461BCD PUSH1 0xE5 SHL DUP2 MSTORE PUSH1 0x20 PUSH1 0x4 DUP3 ADD MSTORE PUSH1 0x26 PUSH1 0x24 DUP3 ADD MSTORE PUSH32 0x4D6F6E74686C792072656E74206D757374206265206772656174657220746861 PUSH1 0x44 DUP3 ADD MSTORE PUSH6 0x6E207A65726F PUSH1 0xD0 SHL PUSH1 0x64 DUP3 ADD MSTORE PUSH1 0x84 SWAP1 REVERT JUMPDEST PUSH1 0x40 MLOAD PUSH3 0x461BCD PUSH1 0xE5 SHL DUP2 MSTORE PUSH1 0x20 PUSH1 0x4 DUP3 ADD MSTORE PUSH1 0x21 PUSH1 0x24 DUP3 ADD MSTORE PUSH32 0x4465706F736974206D7573742062652067726561746572207468616E207A6572 PUSH1 0x44 DUP3 ADD MSTORE PUSH1 0x6F PUSH1 0xF8 SHL PUSH1 0x64 DUP3 ADD MSTORE PUSH1 0x84 SWAP1 REVERT JUMPDEST CALLVALUE PUSH2 0x205 JUMPI PUSH1 0x20 CALLDATASIZE PUSH1 0x3 NOT ADD SLT PUSH2 0x205 JUMPI PUSH1 0x4 CALLDATALOAD PUSH2 0x13D8 PUSH2 0x395B JUMP JUMPDEST PUSH2 0x13E5 PUSH1 0x5 DUP3 GT ISZERO PUSH2 0x38EC JUMP JUMPDEST PUSH1 0xB SSTORE STOP JUMPDEST CALLVALUE PUSH2 0x205 JUMPI PUSH2 0x13F8 CALLDATASIZE PUSH2 0x35A6 JUMP JUMPDEST DUP2 PUSH0 MSTORE PUSH1 0x5 PUSH1 0x20 MSTORE PUSH1 0x40 PUSH0 KECCAK256 PUSH1 0x40 MLOAD PUSH2 0x1410 DUP2 PUSH2 0x34B3 JUMP JUMPDEST DUP2 SLOAD DUP2 MSTORE PUSH1 0x1 DUP3 ADD SLOAD PUSH1 0x20 DUP3 ADD MSTORE PUSH1 0x1 DUP1 PUSH1 0xA0 SHL SUB PUSH1 0x2 DUP4 ADD SLOAD AND SWAP1 PUSH1 0x40 DUP2 ADD SWAP2 DUP3 MSTORE PUSH1 0x1 DUP1 PUSH1 0xA0 SHL SUB PUSH1 0x3 DUP5 ADD SLOAD AND SWAP1 PUSH1 0x60 DUP2 ADD SWAP2 DUP3 MSTORE PUSH1 0x4 DUP5 ADD SLOAD PUSH1 0x80 DUP3 ADD MSTORE PUSH1 0x5 DUP5 ADD SLOAD PUSH1 0xA0 DUP3 ADD MSTORE PUSH1 0x6 DUP5 ADD SLOAD PUSH1 0xC0 DUP3 ADD MSTORE PUSH1 0x7 DUP5 ADD SLOAD PUSH1 0xE0 DUP3 ADD MSTORE PUSH1 0x8 DUP5 ADD SLOAD PUSH2 0x100 DUP3 ADD MSTORE PUSH1 0x9 DUP5 ADD SLOAD PUSH2 0x120 DUP3 ADD MSTORE PUSH2 0x220 PUSH1 0x10 PUSH1 0xFF PUSH1 0xA DUP8 ADD SLOAD AND SWAP6 PUSH2 0x14A3 PUSH2 0x140 DUP6 ADD SWAP8 DUP9 PUSH2 0x376F JUMP JUMPDEST PUSH1 0x40 MLOAD PUSH2 0x14B7 DUP2 PUSH2 0x310 DUP2 PUSH1 0xB DUP7 ADD PUSH2 0x3415 JUMP JUMPDEST PUSH2 0x160 DUP6 ADD MSTORE PUSH1 0xFF PUSH1 0xC DUP3 ADD SLOAD DUP2 DUP2 AND ISZERO ISZERO PUSH2 0x180 DUP8 ADD MSTORE PUSH1 0x8 SHR AND ISZERO ISZERO PUSH2 0x1A0 DUP6 ADD MSTORE PUSH1 0xD DUP2 ADD SLOAD PUSH2 0x1C0 DUP6 ADD MSTORE PUSH1 0xE DUP2 ADD SLOAD PUSH2 0x1E0 DUP6 ADD MSTORE PUSH1 0xF DUP2 ADD SLOAD PUSH2 0x200 DUP6 ADD MSTORE ADD SLOAD SWAP2 ADD MSTORE DUP5 PUSH0 MSTORE PUSH1 0x6 PUSH1 0x20 MSTORE PUSH1 0x40 PUSH0 KECCAK256 SWAP3 MLOAD PUSH1 0x6 DUP2 LT ISZERO PUSH2 0x7DC JUMPI PUSH1 0x2 NOT ADD PUSH2 0x1614 JUMPI PUSH2 0x153E SWAP2 PUSH1 0x1 DUP1 PUSH1 0xA0 SHL SUB SWAP1 MLOAD AND CALLER EQ SWAP1 DUP2 ISZERO PUSH2 0x1600 JUMPI JUMPDEST POP PUSH2 0x3635 JUMP JUMPDEST PUSH2 0x154F PUSH1 0xFF PUSH1 0x5 DUP4 ADD SLOAD AND ISZERO PUSH2 0x369F JUMP JUMPDEST DUP2 MLOAD ISZERO PUSH2 0x15C2 JUMPI PUSH1 0x3 ADD DUP1 SLOAD PUSH1 0x1 PUSH1 0x40 SHL DUP2 LT ISZERO PUSH2 0x803 JUMPI PUSH2 0x1576 SWAP2 PUSH1 0x1 DUP3 ADD DUP2 SSTORE PUSH2 0x3570 JUMP JUMPDEST PUSH2 0x7F0 JUMPI DUP2 PUSH2 0x15A9 PUSH32 0x45896CEA9C1984614DBDCC6649C7E939F7F33F9D34FCDDFC253853CDD100F62F SWAP4 PUSH2 0x15BD SWAP4 PUSH2 0x37F3 JUMP JUMPDEST PUSH1 0x40 MLOAD SWAP2 DUP3 SWAP2 PUSH1 0x20 DUP4 MSTORE PUSH1 0x20 DUP4 ADD SWAP1 PUSH2 0x33B9 JUMP JUMPDEST SUB SWAP1 LOG2 STOP JUMPDEST PUSH1 0x40 MLOAD PUSH3 0x461BCD PUSH1 0xE5 SHL DUP2 MSTORE PUSH1 0x20 PUSH1 0x4 DUP3 ADD MSTORE PUSH1 0x16 PUSH1 0x24 DUP3 ADD MSTORE PUSH22 0x115D9A59195B98D9481A185CDA081C995C5D5A5C9959 PUSH1 0x52 SHL PUSH1 0x44 DUP3 ADD MSTORE PUSH1 0x64 SWAP1 REVERT JUMPDEST MLOAD PUSH1 0x1 PUSH1 0x1 PUSH1 0xA0 SHL SUB AND CALLER EQ SWAP1 POP DUP6 PUSH2 0x1538 JUMP JUMPDEST PUSH1 0x40 MLOAD PUSH3 0x461BCD PUSH1 0xE5 SHL DUP2 MSTORE PUSH1 0x20 PUSH1 0x4 DUP3 ADD MSTORE PUSH1 0x11 PUSH1 0x24 DUP3 ADD MSTORE PUSH17 0x4E6F206163746976652064697370757465 PUSH1 0x78 SHL PUSH1 0x44 DUP3 ADD MSTORE PUSH1 0x64 SWAP1 REVERT JUMPDEST CALLVALUE PUSH2 0x205 JUMPI PUSH1 0x20 CALLDATASIZE PUSH1 0x3 NOT ADD SLT PUSH2 0x205 JUMPI PUSH1 0x4 CALLDATALOAD PUSH2 0x1669 PUSH2 0x3981 JUMP JUMPDEST DUP1 PUSH0 MSTORE PUSH1 0x5 PUSH1 0x20 MSTORE PUSH1 0x40 PUSH0 KECCAK256 PUSH1 0xA DUP2 ADD SWAP1 PUSH1 0xFF DUP3 SLOAD AND PUSH1 0x6 DUP2 LT ISZERO PUSH2 0x7DC JUMPI PUSH1 0x1 DUP2 EQ SWAP1 DUP2 ISZERO PUSH2 0x1A98 JUMPI JUMPDEST POP ISZERO PUSH2 0x1A53 JUMPI PUSH1 0x2 DUP2 ADD DUP1 SLOAD PUSH1 0x1 PUSH1 0x1 PUSH1 0xA0 SHL SUB AND CALLER EQ DUP1 ISZERO PUSH2 0x1A3D JUMPI JUMPDEST DUP1 ISZERO PUSH2 0x1A2A JUMPI JUMPDEST PUSH2 0x16C2 SWAP1 PUSH2 0x3635 JUMP JUMPDEST PUSH1 0xD DUP3 ADD SLOAD TIMESTAMP LT PUSH2 0x19E5 JUMPI PUSH1 0x8 DUP3 ADD SWAP3 DUP4 SLOAD TIMESTAMP LT PUSH2 0x19AE JUMPI PUSH1 0x2 PUSH1 0xFF NOT DUP3 SLOAD AND OR SWAP1 SSTORE PUSH1 0x20 PUSH1 0x4 DUP4 ADD DUP1 SLOAD SWAP3 PUSH2 0x1707 PUSH1 0x64 PUSH2 0x16FF PUSH1 0xB SLOAD DUP8 PUSH2 0x368C JUMP JUMPDEST DIV DUP1 SWAP6 PUSH2 0x367F JUMP JUMPDEST SWAP5 PUSH0 PUSH1 0x3 DUP3 ADD PUSH2 0x1720 DUP9 PUSH1 0x1 DUP1 PUSH1 0xA0 SHL SUB DUP4 SLOAD AND PUSH2 0x39A1 JUMP JUMPDEST PUSH1 0xF SLOAD PUSH2 0x1737 SWAP1 DUP9 SWAP1 PUSH1 0x1 PUSH1 0x1 PUSH1 0xA0 SHL SUB AND PUSH2 0x39A1 JUMP JUMPDEST PUSH1 0x3 SLOAD SWAP4 SLOAD SWAP1 SLOAD PUSH1 0x1 DUP5 ADD SLOAD SWAP6 SLOAD PUSH1 0x5 DUP6 ADD SLOAD PUSH1 0x7 DUP7 ADD SLOAD SWAP12 SLOAD PUSH1 0x40 MLOAD PUSH4 0xD2D8FD5D PUSH1 0xE0 SHL DUP2 MSTORE PUSH1 0x1 PUSH1 0x1 PUSH1 0xA0 SHL SUB SWAP6 DUP7 AND PUSH1 0x4 DUP3 ADD MSTORE SWAP4 DUP6 AND PUSH1 0x24 DUP6 ADD MSTORE PUSH1 0x44 DUP5 ADD SWAP9 SWAP1 SWAP9 MSTORE PUSH1 0x64 DUP4 ADD SWAP2 SWAP1 SWAP2 MSTORE PUSH1 0x84 DUP3 ADD MSTORE PUSH1 0xA4 DUP2 ADD SWAP10 SWAP1 SWAP10 MSTORE PUSH1 0xC4 DUP10 ADD SWAP5 SWAP1 SWAP5 MSTORE PUSH2 0x100 PUSH1 0xE4 DUP10 ADD MSTORE DUP8 SWAP4 SWAP1 SWAP3 AND SWAP2 DUP4 SWAP2 DUP3 SWAP1 PUSH2 0x17BF SWAP1 PUSH2 0x104 DUP4 ADD SWAP1 PUSH1 0xB ADD PUSH2 0x3415 JUMP JUMPDEST SUB SWAP3 GAS CALL SWAP3 DUP4 ISZERO PUSH2 0x491 JUMPI DUP5 SWAP4 PUSH2 0x196A JUMPI JUMPDEST POP PUSH0 MLOAD PUSH1 0x20 PUSH2 0x3A71 PUSH0 CODECOPY PUSH0 MLOAD SWAP1 PUSH0 MSTORE SWAP2 PUSH1 0x40 SWAP2 DUP3 MLOAD SWAP2 DUP3 MSTORE PUSH1 0x20 DUP3 ADD MSTORE LOG2 DUP1 PUSH0 MSTORE PUSH1 0x5 PUSH1 0x20 MSTORE PUSH32 0x7C6D497D8BD0DFB43648AF8AB63AE866E717CC13E954BA461B83DDB4779A15F5 PUSH1 0x40 DUP1 PUSH0 KECCAK256 PUSH2 0x1958 DUP3 MLOAD PUSH2 0x182B DUP2 PUSH2 0x34B3 JUMP JUMPDEST DUP3 SLOAD DUP2 MSTORE PUSH1 0x1 DUP4 ADD SLOAD PUSH1 0x20 DUP3 ADD MSTORE PUSH1 0x2 DUP4 ADD SLOAD PUSH1 0x1 PUSH1 0x1 PUSH1 0xA0 SHL SUB SWAP1 DUP2 AND DUP6 DUP4 ADD MSTORE PUSH1 0x3 DUP5 ADD SLOAD AND PUSH1 0x60 DUP3 ADD MSTORE PUSH1 0x4 DUP4 ADD SLOAD PUSH1 0x80 DUP3 ADD SWAP1 DUP2 MSTORE PUSH1 0x5 DUP5 ADD SLOAD PUSH1 0xA0 DUP4 ADD MSTORE PUSH1 0x6 DUP5 ADD SLOAD PUSH1 0xC0 DUP4 ADD MSTORE PUSH1 0x7 DUP5 ADD SLOAD PUSH1 0xE0 DUP4 ADD MSTORE PUSH1 0x8 DUP5 ADD SLOAD PUSH2 0x100 DUP4 ADD MSTORE PUSH1 0x9 DUP5 ADD SLOAD PUSH2 0x120 DUP4 ADD MSTORE PUSH1 0xA DUP5 ADD SLOAD SWAP1 SWAP4 PUSH2 0x220 SWAP2 PUSH1 0x10 SWAP2 SWAP1 PUSH2 0x18B8 SWAP1 PUSH1 0xFF AND PUSH2 0x140 DUP7 ADD PUSH2 0x376F JUMP JUMPDEST DUP7 MLOAD PUSH2 0x18CB DUP2 PUSH2 0x310 DUP2 PUSH1 0xB DUP7 ADD PUSH2 0x3415 JUMP JUMPDEST PUSH2 0x160 DUP6 ADD MSTORE PUSH1 0xFF PUSH1 0xC DUP3 ADD SLOAD DUP2 DUP2 AND ISZERO ISZERO PUSH2 0x180 DUP8 ADD MSTORE PUSH1 0x8 SHR AND ISZERO ISZERO PUSH2 0x1A0 DUP6 ADD MSTORE PUSH1 0xD DUP2 ADD SLOAD PUSH2 0x1C0 DUP6 ADD MSTORE PUSH1 0xE DUP2 ADD SLOAD PUSH2 0x1E0 DUP6 ADD MSTORE PUSH1 0xF DUP2 ADD SLOAD PUSH2 0x200 DUP6 ADD MSTORE ADD SLOAD SWAP2 ADD SWAP1 DUP2 MSTORE PUSH2 0x3A0 PUSH1 0x64 PUSH2 0x192A DUP6 MLOAD PUSH1 0xB SLOAD SWAP1 PUSH2 0x368C JUMP JUMPDEST DIV PUSH2 0x1951 PUSH1 0x64 PUSH2 0x193E DUP6 MLOAD PUSH1 0xC SLOAD SWAP1 PUSH2 0x368C JUMP JUMPDEST DIV SWAP2 PUSH2 0x194A DUP4 DUP3 PUSH2 0x3672 JUMP JUMPDEST SWAP7 MLOAD PUSH2 0x367F JUMP JUMPDEST SWAP3 MLOAD PUSH2 0x367F JUMP JUMPDEST SWAP1 DUP3 MLOAD SWAP2 DUP3 MSTORE PUSH1 0x20 DUP3 ADD MSTORE LOG2 PUSH1 0x1 DUP1 SSTORE STOP JUMPDEST SWAP1 SWAP2 SWAP3 POP PUSH1 0x20 DUP2 RETURNDATASIZE PUSH1 0x20 GT PUSH2 0x19A6 JUMPI JUMPDEST DUP2 PUSH2 0x1987 PUSH1 0x20 SWAP4 DUP4 PUSH2 0x34EC JUMP JUMPDEST DUP2 ADD SUB SLT PUSH2 0x205 JUMPI POP DUP3 SWAP2 SWAP1 PUSH0 MLOAD PUSH1 0x20 PUSH2 0x3A71 PUSH0 CODECOPY PUSH0 MLOAD SWAP1 PUSH0 MSTORE PUSH2 0x17D1 JUMP JUMPDEST RETURNDATASIZE SWAP2 POP PUSH2 0x197A JUMP JUMPDEST PUSH1 0x40 MLOAD PUSH3 0x461BCD PUSH1 0xE5 SHL DUP2 MSTORE PUSH1 0x20 PUSH1 0x4 DUP3 ADD MSTORE PUSH1 0xF PUSH1 0x24 DUP3 ADD MSTORE PUSH15 0x1319585CD9481B9BDD08195B991959 PUSH1 0x8A SHL PUSH1 0x44 DUP3 ADD MSTORE PUSH1 0x64 SWAP1 REVERT JUMPDEST PUSH1 0x40 MLOAD PUSH3 0x461BCD PUSH1 0xE5 SHL DUP2 MSTORE PUSH1 0x20 PUSH1 0x4 DUP3 ADD MSTORE PUSH1 0x18 PUSH1 0x24 DUP3 ADD MSTORE PUSH32 0x4469737075746520706572696F64206E6F7420656E6465640000000000000000 PUSH1 0x44 DUP3 ADD MSTORE PUSH1 0x64 SWAP1 REVERT JUMPDEST POP PUSH0 SLOAD PUSH1 0x1 PUSH1 0x1 PUSH1 0xA0 SHL SUB AND CALLER EQ PUSH2 0x16B9 JUMP JUMPDEST POP PUSH1 0x3 DUP3 ADD SLOAD PUSH1 0x1 PUSH1 0x1 PUSH1 0xA0 SHL SUB AND CALLER EQ PUSH2 0x16B2 JUMP JUMPDEST PUSH1 0x40 MLOAD PUSH3 0x461BCD PUSH1 0xE5 SHL DUP2 MSTORE PUSH1 0x20 PUSH1 0x4 DUP3 ADD MSTORE PUSH1 0x18 PUSH1 0x24 DUP3 ADD MSTORE PUSH32 0x41677265656D656E74206E6F742072656C65617361626C650000000000000000 PUSH1 0x44 DUP3 ADD MSTORE PUSH1 0x64 SWAP1 REVERT JUMPDEST PUSH1 0x2 SWAP2 POP EQ DUP5 PUSH2 0x1694 JUMP JUMPDEST CALLVALUE PUSH2 0x205 JUMPI PUSH1 0x40 CALLDATASIZE PUSH1 0x3 NOT ADD SLT PUSH2 0x205 JUMPI PUSH2 0x1ABC PUSH2 0x3347 JUMP JUMPDEST PUSH1 0x1 PUSH1 0x1 PUSH1 0xA0 SHL SUB AND PUSH0 SWAP1 DUP2 MSTORE PUSH1 0x8 PUSH1 0x20 MSTORE PUSH1 0x40 SWAP1 KECCAK256 DUP1 SLOAD PUSH1 0x24 CALLDATALOAD SWAP2 SWAP1 DUP3 LT ISZERO PUSH2 0x205 JUMPI PUSH1 0x20 SWAP2 PUSH2 0x1AEC SWAP2 PUSH2 0x3570 JUMP JUMPDEST SWAP1 SLOAD SWAP1 PUSH1 0x3 SHL SHR PUSH1 0x40 MLOAD SWAP1 DUP2 MSTORE RETURN JUMPDEST CALLVALUE PUSH2 0x205 JUMPI PUSH1 0x20 CALLDATASIZE PUSH1 0x3 NOT ADD SLT PUSH2 0x205 JUMPI PUSH1 0x4 CALLDATALOAD PUSH0 MSTORE PUSH1 0x7 PUSH1 0x20 MSTORE PUSH1 0x40 PUSH0 KECCAK256 DUP1 SLOAD SWAP1 PUSH2 0x1B26 DUP3 PUSH2 0x37B8 JUMP JUMPDEST SWAP2 PUSH2 0x1B34 PUSH1 0x40 MLOAD SWAP4 DUP5 PUSH2 0x34EC JUMP JUMPDEST DUP1 DUP4 MSTORE PUSH1 0x20 DUP4 ADD SWAP1 DUP2 SWAP3 PUSH0 MSTORE PUSH1 0x20 PUSH0 KECCAK256 SWAP2 PUSH0 SWAP1 JUMPDEST DUP3 DUP3 LT PUSH2 0x1BD0 JUMPI DUP5 DUP7 PUSH1 0x40 MLOAD SWAP2 DUP3 SWAP2 PUSH1 0x20 DUP4 ADD SWAP1 PUSH1 0x20 DUP5 MSTORE MLOAD DUP1 SWAP2 MSTORE PUSH1 0x40 DUP4 ADD SWAP2 SWAP1 PUSH0 JUMPDEST DUP2 DUP2 LT PUSH2 0x1B7A JUMPI POP POP POP SUB SWAP1 RETURN JUMPDEST SWAP2 SWAP4 POP SWAP2 PUSH1 0x20 PUSH1 0xC0 PUSH1 0x1 SWAP3 PUSH2 0x1BC2 PUSH1 0xA0 DUP9 MLOAD DUP1 MLOAD DUP5 MSTORE DUP6 DUP2 ADD MLOAD DUP7 DUP6 ADD MSTORE PUSH1 0x40 DUP2 ADD MLOAD PUSH1 0x40 DUP6 ADD MSTORE PUSH1 0x60 DUP2 ADD MLOAD PUSH1 0x60 DUP6 ADD MSTORE PUSH1 0x80 DUP2 ADD MLOAD PUSH1 0x80 DUP6 ADD MSTORE ADD MLOAD PUSH1 0xA0 DUP4 ADD SWAP1 PUSH2 0x3599 JUMP JUMPDEST ADD SWAP5 ADD SWAP2 ADD SWAP2 DUP5 SWAP4 SWAP3 PUSH2 0x1B6C JUMP JUMPDEST PUSH1 0x40 MLOAD PUSH2 0x1BDC DUP2 PUSH2 0x34D0 JUMP JUMPDEST DUP5 SLOAD DUP2 MSTORE PUSH1 0x1 DUP6 ADD SLOAD PUSH1 0x20 DUP3 ADD MSTORE PUSH1 0x2 DUP6 ADD SLOAD PUSH1 0x40 DUP3 ADD MSTORE PUSH1 0x3 DUP6 ADD SLOAD PUSH1 0x60 DUP3 ADD MSTORE PUSH1 0x4 DUP6 ADD SLOAD PUSH1 0x80 DUP3 ADD MSTORE PUSH1 0xFF PUSH1 0x5 DUP7 ADD SLOAD AND PUSH1 0x3 DUP2 LT ISZERO PUSH2 0x7DC JUMPI PUSH1 0x1 SWAP3 DUP3 PUSH1 0x20 SWAP3 PUSH1 0xA0 PUSH1 0x6 SWAP6 ADD MSTORE DUP2 MSTORE ADD SWAP5 ADD SWAP2 ADD SWAP1 SWAP3 PUSH2 0x1B48 JUMP JUMPDEST CALLVALUE PUSH2 0x205 JUMPI PUSH0 CALLDATASIZE PUSH1 0x3 NOT ADD SLT PUSH2 0x205 JUMPI PUSH0 SLOAD PUSH1 0x40 MLOAD PUSH1 0x1 PUSH1 0x1 PUSH1 0xA0 SHL SUB SWAP1 SWAP2 AND DUP2 MSTORE PUSH1 0x20 SWAP1 RETURN JUMPDEST CALLVALUE PUSH2 0x205 JUMPI PUSH0 CALLDATASIZE PUSH1 0x3 NOT ADD SLT PUSH2 0x205 JUMPI PUSH1 0x20 PUSH1 0xB SLOAD PUSH1 0x40 MLOAD SWAP1 DUP2 MSTORE RETURN JUMPDEST CALLVALUE PUSH2 0x205 JUMPI PUSH1 0x20 CALLDATASIZE PUSH1 0x3 NOT ADD SLT PUSH2 0x205 JUMPI PUSH1 0x1 PUSH1 0x1 PUSH1 0xA0 SHL SUB PUSH2 0x1C9A PUSH2 0x3347 JUMP JUMPDEST AND PUSH0 MSTORE PUSH1 0x8 PUSH1 0x20 MSTORE PUSH1 0x40 PUSH0 KECCAK256 PUSH1 0x40 MLOAD SWAP1 DUP2 PUSH1 0x20 DUP3 SLOAD SWAP2 DUP3 DUP2 MSTORE ADD SWAP2 PUSH0 MSTORE PUSH1 0x20 PUSH0 KECCAK256 SWAP1 PUSH0 JUMPDEST DUP2 DUP2 LT PUSH2 0x1CE5 JUMPI PUSH2 0x1CE1 DUP6 PUSH2 0x1CD5 DUP2 DUP8 SUB DUP3 PUSH2 0x34EC JUMP JUMPDEST PUSH1 0x40 MLOAD SWAP2 DUP3 SWAP2 DUP3 PUSH2 0x3373 JUMP JUMPDEST SUB SWAP1 RETURN JUMPDEST DUP3 SLOAD DUP5 MSTORE PUSH1 0x20 SWAP1 SWAP4 ADD SWAP3 PUSH1 0x1 SWAP3 DUP4 ADD SWAP3 ADD PUSH2 0x1CBE JUMP JUMPDEST CALLVALUE PUSH2 0x205 JUMPI PUSH1 0x40 CALLDATASIZE PUSH1 0x3 NOT ADD SLT PUSH2 0x205 JUMPI PUSH2 0x1D14 PUSH2 0x3347 JUMP JUMPDEST PUSH1 0x1 PUSH1 0x1 PUSH1 0xA0 SHL SUB AND PUSH0 SWAP1 DUP2 MSTORE PUSH1 0x9 PUSH1 0x20 MSTORE PUSH1 0x40 SWAP1 KECCAK256 DUP1 SLOAD PUSH1 0x24 CALLDATALOAD SWAP2 SWAP1 DUP3 LT ISZERO PUSH2 0x205 JUMPI PUSH1 0x20 SWAP2 PUSH2 0x1AEC SWAP2 PUSH2 0x3570 JUMP JUMPDEST CALLVALUE PUSH2 0x205 JUMPI PUSH0 CALLDATASIZE PUSH1 0x3 NOT ADD SLT PUSH2 0x205 JUMPI PUSH2 0x1D5C PUSH2 0x395B JUMP JUMPDEST PUSH2 0x1D64 PUSH2 0x3A55 JUMP JUMPDEST PUSH1 0x1 PUSH1 0xFF NOT PUSH1 0x2 SLOAD AND OR PUSH1 0x2 SSTORE PUSH32 0x62E78CEA01BEE320CD4E420270B5EA74000D11B0C9F74754EBDBFC544B05A258 PUSH1 0x20 PUSH1 0x40 MLOAD CALLER DUP2 MSTORE LOG1 STOP JUMPDEST CALLVALUE PUSH2 0x205 JUMPI PUSH1 0x20 CALLDATASIZE PUSH1 0x3 NOT ADD SLT PUSH2 0x205 JUMPI PUSH1 0x4 CALLDATALOAD PUSH2 0x1DB9 PUSH2 0x395B JUMP JUMPDEST PUSH2 0x1DC6 PUSH1 0x3 DUP3 GT ISZERO PUSH2 0x38EC JUMP JUMPDEST PUSH1 0xC SSTORE STOP JUMPDEST CALLVALUE PUSH2 0x205 JUMPI PUSH0 CALLDATASIZE PUSH1 0x3 NOT ADD SLT PUSH2 0x205 JUMPI PUSH2 0x1DE3 PUSH2 0x395B JUMP JUMPDEST PUSH0 DUP1 SLOAD PUSH1 0x1 PUSH1 0x1 PUSH1 0xA0 SHL SUB NOT DUP2 AND DUP3 SSTORE PUSH1 0x1 PUSH1 0x1 PUSH1 0xA0 SHL SUB AND PUSH32 0x8BE0079C531659141344CD1FD0A4F28419497F9722A3DAAFE3B4186F6B6457E0 DUP3 DUP1 LOG3 STOP JUMPDEST CALLVALUE PUSH2 0x205 JUMPI PUSH0 CALLDATASIZE PUSH1 0x3 NOT ADD SLT PUSH2 0x205 JUMPI PUSH1 0x20 PUSH1 0xE SLOAD PUSH1 0x40 MLOAD SWAP1 DUP2 MSTORE RETURN JUMPDEST CALLVALUE PUSH2 0x205 JUMPI PUSH0 CALLDATASIZE PUSH1 0x3 NOT ADD SLT PUSH2 0x205 JUMPI PUSH1 0x20 PUSH1 0xFF PUSH1 0x2 SLOAD AND PUSH1 0x40 MLOAD SWAP1 ISZERO ISZERO DUP2 MSTORE RETURN JUMPDEST CALLVALUE PUSH2 0x205 JUMPI PUSH0 CALLDATASIZE PUSH1 0x3 NOT ADD SLT PUSH2 0x205 JUMPI PUSH1 0x20 PUSH1 0xD SLOAD PUSH1 0x40 MLOAD SWAP1 DUP2 MSTORE RETURN JUMPDEST CALLVALUE PUSH2 0x205 JUMPI PUSH1 0x60 CALLDATASIZE PUSH1 0x3 NOT ADD SLT PUSH2 0x205 JUMPI PUSH1 0x4 CALLDATALOAD PUSH1 0x24 CALLDATALOAD PUSH8 0xFFFFFFFFFFFFFFFF DUP2 GT PUSH2 0x205 JUMPI PUSH2 0x1EB2 SWAP1 CALLDATASIZE SWAP1 PUSH1 0x4 ADD PUSH2 0x352A JUMP JUMPDEST PUSH1 0x44 CALLDATALOAD PUSH8 0xFFFFFFFFFFFFFFFF DUP2 GT PUSH2 0x205 JUMPI PUSH2 0x1ED2 SWAP1 CALLDATASIZE SWAP1 PUSH1 0x4 ADD PUSH2 0x352A JUMP JUMPDEST SWAP1 PUSH2 0x1EDB PUSH2 0x3981 JUMP JUMPDEST DUP3 PUSH0 MSTORE PUSH1 0x5 PUSH1 0x20 MSTORE PUSH1 0x40 PUSH0 KECCAK256 PUSH1 0xA DUP2 ADD SWAP1 PUSH1 0xFF DUP3 SLOAD AND PUSH1 0x6 DUP2 LT ISZERO PUSH2 0x7DC JUMPI PUSH1 0x1 DUP2 EQ SWAP1 DUP2 ISZERO PUSH2 0x225D JUMPI JUMPDEST POP ISZERO PUSH2 0x2218 JUMPI PUSH2 0x1F2C SWAP1 PUSH1 0x1 DUP1 PUSH1 0xA0 SHL SUB PUSH1 0x2 DUP3 ADD SLOAD AND CALLER EQ SWAP1 DUP2 ISZERO PUSH2 0x2201 JUMPI POP PUSH2 0x3635 JUMP JUMPDEST DUP2 MLOAD ISZERO PUSH2 0x21CA JUMPI DUP1 SLOAD PUSH1 0xFF NOT AND PUSH1 0x3 OR SWAP1 SSTORE PUSH1 0x40 DUP1 MLOAD SWAP1 PUSH2 0x1F4D DUP2 DUP4 PUSH2 0x34EC JUMP JUMPDEST PUSH1 0x1 DUP3 MSTORE PUSH1 0x1F NOT ADD PUSH0 JUMPDEST DUP2 DUP2 LT PUSH2 0x21B9 JUMPI POP POP DUP3 PUSH2 0x1F6A DUP3 PUSH2 0x37D0 JUMP JUMPDEST MSTORE PUSH2 0x1F74 DUP2 PUSH2 0x37D0 JUMP JUMPDEST POP PUSH1 0x40 MLOAD PUSH2 0x1F81 DUP2 PUSH2 0x3496 JUMP JUMPDEST DUP5 DUP2 MSTORE PUSH1 0x20 DUP2 ADD SWAP1 CALLER DUP3 MSTORE PUSH1 0x40 DUP2 ADD SWAP1 DUP5 DUP3 MSTORE PUSH1 0x60 DUP2 ADD SWAP4 DUP5 MSTORE PUSH1 0x80 DUP2 ADD TIMESTAMP DUP2 MSTORE PUSH1 0xA0 DUP3 ADD SWAP5 PUSH0 DUP7 MSTORE PUSH2 0x1FFF PUSH1 0xC0 DUP5 ADD SWAP5 PUSH0 DUP7 MSTORE PUSH1 0xE0 DUP6 ADD SWAP7 PUSH0 DUP9 MSTORE DUP12 PUSH0 MSTORE PUSH1 0x6 PUSH1 0x20 MSTORE PUSH1 0x40 PUSH0 KECCAK256 SWAP6 MLOAD DUP7 SSTORE PUSH1 0x1 DUP1 PUSH1 0xA0 SHL SUB SWAP1 MLOAD AND PUSH1 0x1 DUP7 ADD SWAP1 PUSH1 0x1 DUP1 PUSH1 0xA0 SHL SUB AND PUSH1 0x1 PUSH1 0x1 PUSH1 0x60 SHL SUB PUSH1 0xA0 SHL DUP3 SLOAD AND OR SWAP1 SSTORE MLOAD PUSH1 0x2 DUP6 ADD PUSH2 0x37F3 JUMP JUMPDEST MLOAD DUP1 MLOAD SWAP1 PUSH1 0x3 DUP5 ADD SWAP1 PUSH1 0x1 PUSH1 0x40 SHL DUP4 GT PUSH2 0x803 JUMPI DUP2 SLOAD DUP4 DUP4 SSTORE DUP1 DUP5 LT PUSH2 0x2142 JUMPI JUMPDEST POP PUSH1 0x20 ADD SWAP1 PUSH0 MSTORE PUSH1 0x20 PUSH0 KECCAK256 PUSH0 SWAP2 JUMPDEST DUP4 DUP4 LT PUSH2 0x2125 JUMPI POP DUP11 PUSH32 0x45896CEA9C1984614DBDCC6649C7E939F7F33F9D34FCDDFC253853CDD100F62F PUSH2 0x211C DUP13 DUP13 DUP13 DUP13 PUSH2 0x20AA DUP14 PUSH2 0x2087 PUSH1 0x5 DUP16 DUP16 MLOAD PUSH1 0x4 DUP3 ADD SSTORE ADD SWAP5 MLOAD ISZERO ISZERO DUP6 SWAP1 PUSH1 0xFF DUP1 NOT DUP4 SLOAD AND SWAP2 ISZERO ISZERO AND OR SWAP1 SSTORE JUMP JUMPDEST MLOAD DUP4 SLOAD PUSH2 0x100 PUSH1 0x1 PUSH1 0xA8 SHL SUB NOT AND PUSH1 0x8 SWAP2 SWAP1 SWAP2 SHL PUSH2 0x100 PUSH1 0x1 PUSH1 0xA8 SHL SUB AND OR DUP4 SSTORE JUMP JUMPDEST MLOAD DUP2 SLOAD PUSH1 0xFF PUSH1 0xA8 SHL NOT AND SWAP1 ISZERO ISZERO PUSH1 0xA8 SHL PUSH1 0xFF PUSH1 0xA8 SHL AND OR SWAP1 SSTORE PUSH1 0x40 DUP1 MLOAD DUP2 DUP2 MSTORE SWAP2 DUP7 SWAP2 PUSH32 0xEC80075B97F210877EDB0A3D3F4FA1914A46C678CBDD95B3AF04FE3ECD33E10B SWAP2 PUSH2 0x20FB SWAP2 DUP6 ADD SWAP1 PUSH2 0x33B9 JUMP JUMPDEST SWAP3 PUSH0 PUSH1 0x20 DUP3 ADD MSTORE DUP1 CALLER SWAP5 SUB SWAP1 LOG3 PUSH1 0x40 MLOAD SWAP2 DUP3 SWAP2 PUSH1 0x20 DUP4 MSTORE PUSH1 0x20 DUP4 ADD SWAP1 PUSH2 0x33B9 JUMP JUMPDEST SUB SWAP1 LOG2 PUSH1 0x1 DUP1 SSTORE STOP JUMPDEST PUSH1 0x1 PUSH1 0x20 DUP3 PUSH2 0x2136 DUP4 SWAP5 MLOAD DUP7 PUSH2 0x37F3 JUMP JUMPDEST ADD SWAP3 ADD SWAP3 ADD SWAP2 SWAP1 PUSH2 0x202E JUMP JUMPDEST DUP3 PUSH0 MSTORE DUP4 PUSH1 0x20 PUSH0 KECCAK256 SWAP2 DUP3 ADD SWAP2 ADD JUMPDEST DUP2 DUP2 LT PUSH2 0x215D JUMPI POP PUSH2 0x2020 JUMP JUMPDEST DUP1 PUSH2 0x216A PUSH1 0x1 SWAP3 SLOAD PUSH2 0x33DD JUMP JUMPDEST DUP1 PUSH2 0x2177 JUMPI JUMPDEST POP ADD PUSH2 0x2150 JUMP JUMPDEST PUSH1 0x1F DUP2 GT DUP4 EQ PUSH2 0x218C JUMPI POP PUSH0 DUP2 SSTORE JUMPDEST DUP15 PUSH2 0x2170 JUMP JUMPDEST PUSH2 0x21A8 SWAP1 DUP3 PUSH0 MSTORE DUP4 PUSH1 0x1F PUSH1 0x20 PUSH0 KECCAK256 SWAP3 ADD PUSH1 0x5 SHR DUP3 ADD SWAP2 ADD PUSH2 0x37DD JUMP JUMPDEST DUP1 PUSH0 MSTORE PUSH0 PUSH1 0x20 DUP2 KECCAK256 DUP2 DUP4 SSTORE SSTORE PUSH2 0x2186 JUMP JUMPDEST DUP1 PUSH1 0x60 PUSH1 0x20 DUP1 SWAP4 DUP7 ADD ADD MSTORE ADD PUSH2 0x1F57 JUMP JUMPDEST PUSH1 0x40 MLOAD PUSH3 0x461BCD PUSH1 0xE5 SHL DUP2 MSTORE PUSH1 0x20 PUSH1 0x4 DUP3 ADD MSTORE PUSH1 0xF PUSH1 0x24 DUP3 ADD MSTORE PUSH15 0x1499585CDBDB881C995C5D5A5C9959 PUSH1 0x8A SHL PUSH1 0x44 DUP3 ADD MSTORE PUSH1 0x64 SWAP1 REVERT JUMPDEST PUSH1 0x3 ADD SLOAD PUSH1 0x1 PUSH1 0x1 PUSH1 0xA0 SHL SUB AND CALLER EQ SWAP1 POP DUP7 PUSH2 0x1538 JUMP JUMPDEST PUSH1 0x40 MLOAD PUSH3 0x461BCD PUSH1 0xE5 SHL DUP2 MSTORE PUSH1 0x20 PUSH1 0x4 DUP3 ADD MSTORE PUSH1 0x18 PUSH1 0x24 DUP3 ADD MSTORE PUSH32 0x41677265656D656E74206E6F742064697370757461626C650000000000000000 PUSH1 0x44 DUP3 ADD MSTORE PUSH1 0x64 SWAP1 REVERT JUMPDEST SWAP1 POP ISZERO DUP7 PUSH2 0x1F06 JUMP JUMPDEST CALLVALUE PUSH2 0x205 JUMPI PUSH1 0x20 CALLDATASIZE PUSH1 0x3 NOT ADD SLT PUSH2 0x205 JUMPI PUSH1 0x4 CALLDATALOAD PUSH2 0x2282 PUSH2 0x395B JUMP JUMPDEST PUSH3 0x15180 DUP2 LT ISZERO DUP1 PUSH2 0x22D5 JUMPI JUMPDEST ISZERO PUSH2 0x2299 JUMPI PUSH1 0xE SSTORE STOP JUMPDEST PUSH1 0x40 MLOAD PUSH3 0x461BCD PUSH1 0xE5 SHL DUP2 MSTORE PUSH1 0x20 PUSH1 0x4 DUP3 ADD MSTORE PUSH1 0x14 PUSH1 0x24 DUP3 ADD MSTORE PUSH20 0x125B9D985B1A590819DC9858D9481C195C9A5BD9 PUSH1 0x62 SHL PUSH1 0x44 DUP3 ADD MSTORE PUSH1 0x64 SWAP1 REVERT JUMPDEST POP PUSH3 0x93A80 DUP2 GT ISZERO PUSH2 0x228F JUMP JUMPDEST CALLVALUE PUSH2 0x205 JUMPI PUSH1 0x20 CALLDATASIZE PUSH1 0x3 NOT ADD SLT PUSH2 0x205 JUMPI PUSH1 0x4 CALLDATALOAD PUSH2 0x22FE PUSH2 0x3981 JUMP JUMPDEST DUP1 PUSH0 MSTORE PUSH1 0x5 PUSH1 0x20 MSTORE PUSH1 0x40 PUSH0 KECCAK256 PUSH1 0xA DUP2 ADD PUSH1 0xFF DUP2 SLOAD AND PUSH1 0x6 DUP2 LT ISZERO PUSH2 0x7DC JUMPI PUSH2 0x2326 SWAP1 ISZERO PUSH2 0x36EB JUMP JUMPDEST PUSH1 0x2 DUP3 ADD DUP1 SLOAD SWAP1 SWAP3 SWAP1 PUSH1 0x1 PUSH1 0x1 PUSH1 0xA0 SHL SUB AND CALLER SUB PUSH2 0x23BD JUMPI DUP2 SLOAD PUSH1 0xFF NOT AND PUSH1 0x4 SWAP1 DUP2 OR SWAP1 SWAP3 SSTORE SWAP2 SLOAD SWAP2 ADD DUP1 SLOAD PUSH32 0x4EB6F7F7274CBCFF3FF8D9C87204F6001289EF08EC8D2C1A56BB61C1FD72B5C2 SWAP3 PUSH1 0x20 SWAP3 SWAP2 PUSH2 0x238A SWAP2 PUSH1 0x1 PUSH1 0x1 PUSH1 0xA0 SHL SUB AND PUSH2 0x39A1 JUMP JUMPDEST PUSH1 0x40 MLOAD SWAP1 DUP5 PUSH32 0xCAE0523C4D6568388C55DCAEB921D927527A60000CA46ADFFEDDDF87225F0EC PUSH0 DUP1 LOG2 SLOAD DUP2 MSTORE LOG2 PUSH1 0x1 DUP1 SSTORE STOP JUMPDEST PUSH1 0x40 MLOAD PUSH3 0x461BCD PUSH1 0xE5 SHL DUP2 MSTORE PUSH1 0x20 PUSH1 0x4 DUP3 ADD MSTORE PUSH1 0x16 PUSH1 0x24 DUP3 ADD MSTORE PUSH22 0x13DB9B1E481D195B985B9D0818D85B8818D85B98D95B PUSH1 0x52 SHL PUSH1 0x44 DUP3 ADD MSTORE PUSH1 0x64 SWAP1 REVERT JUMPDEST CALLVALUE PUSH2 0x205 JUMPI PUSH1 0x20 CALLDATASIZE PUSH1 0x3 NOT ADD SLT PUSH2 0x205 JUMPI PUSH1 0x4 CALLDATALOAD PUSH0 MSTORE PUSH1 0x6 PUSH1 0x20 MSTORE PUSH1 0x40 PUSH0 KECCAK256 DUP1 SLOAD PUSH1 0x1 DUP1 PUSH1 0xA0 SHL SUB PUSH1 0x1 DUP4 ADD SLOAD AND SWAP2 PUSH1 0xFF PUSH1 0x40 MLOAD PUSH2 0x2440 DUP2 PUSH2 0x310 DUP2 PUSH1 0x2 DUP8 ADD PUSH2 0x3415 JUMP JUMPDEST PUSH2 0x246C PUSH1 0x5 PUSH1 0x4 DUP6 ADD SLOAD SWAP5 ADD SLOAD SWAP2 PUSH1 0x40 MLOAD SWAP7 DUP8 SWAP7 DUP8 MSTORE PUSH1 0x20 DUP8 ADD MSTORE PUSH1 0xE0 PUSH1 0x40 DUP8 ADD MSTORE PUSH1 0xE0 DUP7 ADD SWAP1 PUSH2 0x33B9 JUMP JUMPDEST PUSH1 0x60 DUP6 ADD SWAP4 SWAP1 SWAP4 MSTORE DUP1 DUP3 AND ISZERO ISZERO PUSH1 0x80 DUP6 ADD MSTORE PUSH1 0x8 DUP2 SWAP1 SHR PUSH1 0x1 PUSH1 0x1 PUSH1 0xA0 SHL SUB AND PUSH1 0xA0 DUP6 ADD MSTORE PUSH1 0xA8 SHR AND ISZERO ISZERO PUSH1 0xC0 DUP4 ADD MSTORE SUB SWAP1 RETURN JUMPDEST CALLVALUE PUSH2 0x205 JUMPI PUSH1 0x20 CALLDATASIZE PUSH1 0x3 NOT ADD SLT PUSH2 0x205 JUMPI PUSH1 0x4 CALLDATALOAD PUSH2 0x24BC PUSH2 0x3981 JUMP JUMPDEST DUP1 PUSH0 MSTORE PUSH1 0x5 PUSH1 0x20 MSTORE PUSH1 0x40 PUSH0 KECCAK256 PUSH2 0x24DF PUSH1 0x1 DUP1 PUSH1 0xA0 SHL SUB PUSH1 0x2 DUP4 ADD SLOAD AND CALLER EQ PUSH2 0x377B JUMP JUMPDEST PUSH1 0xFF PUSH1 0xA DUP3 ADD SLOAD AND PUSH1 0x6 DUP2 LT ISZERO PUSH2 0x7DC JUMPI PUSH1 0xFF SWAP2 PUSH2 0x24FF PUSH1 0xC SWAP3 ISZERO PUSH2 0x36EB JUMP JUMPDEST ADD PUSH1 0x1 DUP2 SLOAD PUSH2 0x2510 DUP5 DUP3 AND ISZERO PUSH2 0x372F JUMP JUMPDEST DUP4 NOT AND OR DUP1 SWAP2 SSTORE DUP3 PUSH32 0x630F9A9A8965D9214A9B0BA4926C25D61D8699D5B3CE20AA36718A5A88C2530C PUSH0 DUP1 LOG2 PUSH1 0x8 SHR AND PUSH2 0x254B JUMPI JUMPDEST PUSH1 0x1 DUP1 SSTORE STOP JUMPDEST PUSH2 0x2554 SWAP1 PUSH2 0x3A29 JUMP JUMPDEST DUP1 PUSH2 0x2545 JUMP JUMPDEST CALLVALUE PUSH2 0x205 JUMPI PUSH1 0x20 CALLDATASIZE PUSH1 0x3 NOT ADD SLT PUSH2 0x205 JUMPI PUSH0 PUSH2 0x220 PUSH1 0x40 MLOAD PUSH2 0x257B DUP2 PUSH2 0x34B3 JUMP JUMPDEST DUP3 DUP2 MSTORE DUP3 PUSH1 0x20 DUP3 ADD MSTORE DUP3 PUSH1 0x40 DUP3 ADD MSTORE DUP3 PUSH1 0x60 DUP3 ADD MSTORE DUP3 PUSH1 0x80 DUP3 ADD MSTORE DUP3 PUSH1 0xA0 DUP3 ADD MSTORE DUP3 PUSH1 0xC0 DUP3 ADD MSTORE DUP3 PUSH1 0xE0 DUP3 ADD MSTORE DUP3 PUSH2 0x100 DUP3 ADD MSTORE DUP3 PUSH2 0x120 DUP3 ADD MSTORE DUP3 PUSH2 0x140 DUP3 ADD MSTORE PUSH1 0x60 PUSH2 0x160 DUP3 ADD MSTORE DUP3 PUSH2 0x180 DUP3 ADD MSTORE DUP3 PUSH2 0x1A0 DUP3 ADD MSTORE DUP3 PUSH2 0x1C0 DUP3 ADD MSTORE DUP3 PUSH2 0x1E0 DUP3 ADD MSTORE DUP3 PUSH2 0x200 DUP3 ADD MSTORE ADD MSTORE PUSH1 0x4 CALLDATALOAD PUSH0 MSTORE PUSH1 0x5 PUSH1 0x20 MSTORE PUSH1 0x40 PUSH0 KECCAK256 PUSH1 0x10 PUSH1 0x40 MLOAD SWAP2 PUSH2 0x2607 DUP4 PUSH2 0x34B3 JUMP JUMPDEST DUP1 SLOAD DUP4 MSTORE PUSH1 0x1 DUP2 ADD SLOAD PUSH1 0x20 DUP5 ADD MSTORE PUSH1 0x2 DUP2 ADD SLOAD PUSH1 0x1 PUSH1 0x1 PUSH1 0xA0 SHL SUB SWAP1 DUP2 AND PUSH1 0x40 DUP6 ADD MSTORE PUSH1 0x3 DUP3 ADD SLOAD AND PUSH1 0x60 DUP5 ADD MSTORE PUSH1 0x4 DUP2 ADD SLOAD PUSH1 0x80 DUP5 ADD MSTORE PUSH1 0x5 DUP2 ADD SLOAD PUSH1 0xA0 DUP5 ADD MSTORE PUSH1 0x6 DUP2 ADD SLOAD PUSH1 0xC0 DUP5 ADD MSTORE PUSH1 0x7 DUP2 ADD SLOAD PUSH1 0xE0 DUP5 ADD MSTORE PUSH1 0x8 DUP2 ADD SLOAD PUSH2 0x100 DUP5 ADD MSTORE PUSH1 0x9 DUP2 ADD SLOAD PUSH2 0x120 DUP5 ADD MSTORE PUSH1 0xA DUP2 ADD SLOAD PUSH2 0x2689 SWAP1 PUSH1 0xFF AND PUSH2 0x140 DUP6 ADD PUSH2 0x376F JUMP JUMPDEST PUSH1 0x40 MLOAD PUSH2 0x269D DUP2 PUSH2 0x310 DUP2 PUSH1 0xB DUP7 ADD PUSH2 0x3415 JUMP JUMPDEST PUSH2 0x160 DUP5 ADD MSTORE PUSH1 0xFF PUSH1 0xC DUP3 ADD SLOAD DUP2 DUP2 AND ISZERO ISZERO PUSH2 0x180 DUP7 ADD MSTORE PUSH1 0x8 SHR AND ISZERO ISZERO PUSH2 0x1A0 DUP5 ADD MSTORE PUSH1 0xD DUP2 ADD SLOAD PUSH2 0x1C0 DUP5 ADD MSTORE PUSH1 0xE DUP2 ADD SLOAD PUSH2 0x1E0 DUP5 ADD MSTORE PUSH1 0xF DUP2 ADD SLOAD PUSH2 0x200 DUP5 ADD MSTORE ADD SLOAD PUSH2 0x220 DUP3 ADD MSTORE PUSH1 0x40 MLOAD DUP1 SWAP2 PUSH1 0x20 DUP3 MSTORE DUP1 MLOAD PUSH1 0x20 DUP4 ADD MSTORE PUSH1 0x20 DUP2 ADD MLOAD PUSH1 0x40 DUP4 ADD MSTORE PUSH1 0x1 DUP1 PUSH1 0xA0 SHL SUB PUSH1 0x40 DUP3 ADD MLOAD AND PUSH1 0x60 DUP4 ADD MSTORE PUSH1 0x1 DUP1 PUSH1 0xA0 SHL SUB PUSH1 0x60 DUP3 ADD MLOAD AND PUSH1 0x80 DUP4 ADD MSTORE PUSH1 0x80 DUP2 ADD MLOAD PUSH1 0xA0 DUP4 ADD MSTORE PUSH1 0xA0 DUP2 ADD MLOAD PUSH1 0xC0 DUP4 ADD MSTORE PUSH1 0xC0 DUP2 ADD MLOAD PUSH1 0xE0 DUP4 ADD MSTORE PUSH1 0xE0 DUP2 ADD MLOAD PUSH2 0x100 DUP4 ADD MSTORE PUSH2 0x100 DUP2 ADD MLOAD PUSH2 0x120 DUP4 ADD MSTORE PUSH2 0x120 DUP2 ADD MLOAD PUSH2 0x140 DUP4 ADD MSTORE PUSH2 0x277D PUSH2 0x140 DUP3 ADD MLOAD PUSH2 0x160 DUP5 ADD SWAP1 PUSH2 0x33AC JUMP JUMPDEST PUSH2 0x220 PUSH2 0x279D PUSH2 0x160 DUP4 ADD MLOAD PUSH2 0x240 PUSH2 0x180 DUP7 ADD MSTORE PUSH2 0x260 DUP6 ADD SWAP1 PUSH2 0x33B9 JUMP JUMPDEST SWAP2 PUSH2 0x180 DUP2 ADD MLOAD ISZERO ISZERO PUSH2 0x1A0 DUP6 ADD MSTORE PUSH2 0x1A0 DUP2 ADD MLOAD ISZERO ISZERO PUSH2 0x1C0 DUP6 ADD MSTORE PUSH2 0x1C0 DUP2 ADD MLOAD PUSH2 0x1E0 DUP6 ADD MSTORE PUSH2 0x1E0 DUP2 ADD MLOAD PUSH2 0x200 DUP6 ADD MSTORE PUSH2 0x200 DUP2 ADD MLOAD DUP3 DUP6 ADD MSTORE ADD MLOAD PUSH2 0x240 DUP4 ADD MSTORE SUB SWAP1 RETURN JUMPDEST CALLVALUE PUSH2 0x205 JUMPI PUSH1 0x20 CALLDATASIZE PUSH1 0x3 NOT ADD SLT PUSH2 0x205 JUMPI PUSH1 0x4 CALLDATALOAD PUSH2 0x2804 PUSH2 0x3981 JUMP JUMPDEST PUSH0 DUP2 DUP2 MSTORE PUSH1 0x5 PUSH1 0x20 MSTORE PUSH1 0x40 SWAP1 KECCAK256 PUSH1 0x3 DUP2 ADD SLOAD PUSH1 0x1 PUSH1 0x1 PUSH1 0xA0 SHL SUB AND CALLER SUB PUSH2 0x2894 JUMPI PUSH1 0xFF PUSH1 0xA DUP3 ADD SLOAD AND PUSH1 0x6 DUP2 LT ISZERO PUSH2 0x7DC JUMPI PUSH1 0xFF SWAP2 PUSH2 0x2845 PUSH1 0xC SWAP3 ISZERO PUSH2 0x36EB JUMP JUMPDEST ADD DUP1 SLOAD SWAP1 PUSH2 0x2858 DUP4 DUP4 PUSH1 0x8 SHR AND ISZERO PUSH2 0x372F JUMP JUMPDEST PUSH2 0xFF00 NOT DUP3 AND PUSH2 0x100 OR SWAP1 SSTORE DUP3 PUSH32 0x95A6E0A1A02B54AA4FDB92BF93C6F5156671C82234EE26718F7C42AC7A51FC7D PUSH0 DUP1 LOG2 AND PUSH2 0x254B JUMPI PUSH1 0x1 DUP1 SSTORE STOP JUMPDEST PUSH1 0x40 MLOAD PUSH3 0x461BCD PUSH1 0xE5 SHL DUP2 MSTORE PUSH1 0x20 PUSH1 0x4 DUP3 ADD MSTORE PUSH1 0x10 PUSH1 0x24 DUP3 ADD MSTORE PUSH16 0x139BDD081D1A19481B185B991B1BDC99 PUSH1 0x82 SHL PUSH1 0x44 DUP3 ADD MSTORE PUSH1 0x64 SWAP1 REVERT JUMPDEST CALLVALUE PUSH2 0x205 JUMPI PUSH1 0x20 CALLDATASIZE PUSH1 0x3 NOT ADD SLT PUSH2 0x205 JUMPI PUSH1 0x1 PUSH1 0x1 PUSH1 0xA0 SHL SUB PUSH2 0x28ED PUSH2 0x3347 JUMP JUMPDEST AND PUSH0 MSTORE PUSH1 0x9 PUSH1 0x20 MSTORE PUSH1 0x40 PUSH0 KECCAK256 PUSH1 0x40 MLOAD SWAP1 DUP2 PUSH1 0x20 DUP3 SLOAD SWAP2 DUP3 DUP2 MSTORE ADD SWAP2 PUSH0 MSTORE PUSH1 0x20 PUSH0 KECCAK256 SWAP1 PUSH0 JUMPDEST DUP2 DUP2 LT PUSH2 0x2928 JUMPI PUSH2 0x1CE1 DUP6 PUSH2 0x1CD5 DUP2 DUP8 SUB DUP3 PUSH2 0x34EC JUMP JUMPDEST DUP3 SLOAD DUP5 MSTORE PUSH1 0x20 SWAP1 SWAP4 ADD SWAP3 PUSH1 0x1 SWAP3 DUP4 ADD SWAP3 ADD PUSH2 0x2911 JUMP JUMPDEST CALLVALUE PUSH2 0x205 JUMPI PUSH0 CALLDATASIZE PUSH1 0x3 NOT ADD SLT PUSH2 0x205 JUMPI PUSH1 0x3 SLOAD PUSH1 0x40 MLOAD PUSH1 0x1 PUSH1 0x1 PUSH1 0xA0 SHL SUB SWAP1 SWAP2 AND DUP2 MSTORE PUSH1 0x20 SWAP1 RETURN JUMPDEST CALLVALUE PUSH2 0x205 JUMPI PUSH1 0x20 CALLDATASIZE PUSH1 0x3 NOT ADD SLT PUSH2 0x205 JUMPI PUSH2 0x297F PUSH2 0x3347 JUMP JUMPDEST PUSH2 0x2987 PUSH2 0x395B JUMP JUMPDEST PUSH1 0x1 PUSH1 0x1 PUSH1 0xA0 SHL SUB AND DUP1 ISZERO PUSH2 0x29D3 JUMPI DUP1 PUSH0 MSTORE PUSH1 0x11 PUSH1 0x20 MSTORE PUSH1 0x40 PUSH0 KECCAK256 PUSH1 0x1 PUSH1 0xFF NOT DUP3 SLOAD AND OR SWAP1 SSTORE PUSH32 0xF8B71668F50644C88021A97120E6823AFEAA925680CA70ABF9BFD72C07136B8B PUSH0 DUP1 LOG2 STOP JUMPDEST PUSH1 0x40 MLOAD PUSH3 0x461BCD PUSH1 0xE5 SHL DUP2 MSTORE PUSH1 0x20 PUSH1 0x4 DUP3 ADD MSTORE PUSH1 0x16 PUSH1 0x24 DUP3 ADD MSTORE PUSH22 0x496E76616C69642074656E616E742061646472657373 PUSH1 0x50 SHL PUSH1 0x44 DUP3 ADD MSTORE PUSH1 0x64 SWAP1 REVERT JUMPDEST CALLVALUE PUSH2 0x205 JUMPI PUSH1 0x40 CALLDATASIZE PUSH1 0x3 NOT ADD SLT PUSH2 0x205 JUMPI PUSH1 0x4 CALLDATALOAD PUSH1 0x24 CALLDATALOAD DUP1 ISZERO ISZERO DUP2 SUB PUSH2 0x205 JUMPI PUSH2 0x2A39 PUSH2 0x395B JUMP JUMPDEST PUSH2 0x2A41 PUSH2 0x3981 JUMP JUMPDEST DUP2 PUSH0 MSTORE PUSH1 0x5 PUSH1 0x20 MSTORE PUSH1 0x40 PUSH0 KECCAK256 DUP3 PUSH0 MSTORE PUSH1 0x6 PUSH1 0x20 MSTORE PUSH1 0x40 PUSH0 KECCAK256 SWAP1 PUSH1 0xA DUP2 ADD SWAP1 PUSH1 0xFF DUP3 SLOAD AND PUSH1 0x6 DUP2 LT ISZERO PUSH2 0x7DC JUMPI PUSH1 0x3 SUB PUSH2 0x2BE6 JUMPI PUSH1 0x5 DUP6 SWAP4 ADD SWAP4 PUSH1 0x1 DUP6 SLOAD PUSH2 0x2A8B PUSH1 0xFF DUP3 AND ISZERO PUSH2 0x369F JUMP JUMPDEST PUSH1 0xFF NOT AND OR DUP6 SSTORE ISZERO PUSH2 0x2B49 JUMPI PUSH1 0x2 DUP2 ADD DUP1 SLOAD DUP6 SLOAD PUSH2 0x100 PUSH1 0x1 PUSH1 0xA8 SHL SUB NOT AND PUSH1 0x8 SWAP2 SWAP1 SWAP2 SHL PUSH2 0x100 PUSH1 0x1 PUSH1 0xA8 SHL SUB AND OR DUP6 SSTORE PUSH32 0x4EB6F7F7274CBCFF3FF8D9C87204F6001289EF08EC8D2C1A56BB61C1FD72B5C2 SWAP3 PUSH1 0x20 SWAP3 PUSH2 0x2B09 SWAP2 PUSH1 0x4 SWAP2 SWAP1 DUP1 SLOAD PUSH1 0xFF NOT AND PUSH1 0x5 OR SWAP1 SSTORE ADD SLOAD SWAP2 SLOAD DUP3 SWAP1 PUSH1 0x1 PUSH1 0x1 PUSH1 0xA0 SHL SUB AND PUSH2 0x39A1 JUMP JUMPDEST PUSH1 0x40 MLOAD SWAP1 DUP2 MSTORE LOG2 JUMPDEST SLOAD PUSH1 0x8 SHR PUSH1 0x1 PUSH1 0x1 PUSH1 0xA0 SHL SUB AND SWAP1 PUSH32 0xF77CEB5E091D2DA041BC760667F9D5FE7A756949EAF29250AD0E60CA6F4C27D9 PUSH0 DUP1 LOG3 PUSH1 0x1 DUP1 SSTORE STOP JUMPDEST PUSH1 0x3 DUP2 ADD DUP1 SLOAD DUP6 SLOAD PUSH2 0x100 PUSH1 0x1 PUSH1 0xA8 SHL SUB NOT AND PUSH1 0x8 SWAP2 SWAP1 SWAP2 SHL PUSH2 0x100 PUSH1 0x1 PUSH1 0xA8 SHL SUB AND OR DUP6 SSTORE PUSH0 MLOAD PUSH1 0x20 PUSH2 0x3A71 PUSH0 CODECOPY PUSH0 MLOAD SWAP1 PUSH0 MSTORE SWAP3 PUSH1 0x40 SWAP3 PUSH1 0x4 SWAP2 PUSH1 0x2 PUSH1 0xFF NOT DUP3 SLOAD AND OR SWAP1 SSTORE ADD SLOAD PUSH2 0x2BBF PUSH2 0x2BAD PUSH1 0x64 PUSH2 0x2BA5 PUSH1 0xB SLOAD DUP6 PUSH2 0x368C JUMP JUMPDEST DIV DUP1 SWAP4 PUSH2 0x367F JUMP JUMPDEST SWAP3 SLOAD DUP4 SWAP1 PUSH1 0x1 PUSH1 0x1 PUSH1 0xA0 SHL SUB AND PUSH2 0x39A1 JUMP JUMPDEST PUSH1 0xF SLOAD PUSH2 0x2BD6 SWAP1 DUP3 SWAP1 PUSH1 0x1 PUSH1 0x1 PUSH1 0xA0 SHL SUB AND PUSH2 0x39A1 JUMP JUMPDEST DUP3 MLOAD SWAP2 DUP3 MSTORE PUSH1 0x20 DUP3 ADD MSTORE LOG2 PUSH2 0x2B11 JUMP JUMPDEST PUSH1 0x40 MLOAD PUSH3 0x461BCD PUSH1 0xE5 SHL DUP2 MSTORE PUSH1 0x20 PUSH1 0x4 DUP3 ADD MSTORE PUSH1 0x16 PUSH1 0x24 DUP3 ADD MSTORE PUSH22 0x1059DC99595B595B9D081B9BDD08191A5CDC1D5D1959 PUSH1 0x52 SHL PUSH1 0x44 DUP3 ADD MSTORE PUSH1 0x64 SWAP1 REVERT JUMPDEST CALLVALUE PUSH2 0x205 JUMPI PUSH2 0x2C32 CALLDATASIZE PUSH2 0x335D JUMP JUMPDEST PUSH2 0x2C3A PUSH2 0x395B JUMP JUMPDEST PUSH2 0x2C42 PUSH2 0x3981 JUMP JUMPDEST DUP2 PUSH0 MSTORE PUSH1 0x5 PUSH1 0x20 MSTORE PUSH1 0x40 PUSH0 KECCAK256 SWAP1 PUSH1 0xA DUP3 ADD SWAP1 PUSH1 0xFF DUP3 SLOAD AND PUSH1 0x6 DUP2 LT ISZERO PUSH2 0x7DC JUMPI PUSH1 0x1 DUP2 EQ SWAP1 DUP2 ISZERO PUSH2 0x2E2C JUMPI JUMPDEST POP ISZERO PUSH2 0x2DE7 JUMPI PUSH1 0x4 DUP4 ADD SWAP2 DUP3 SLOAD SWAP4 PUSH2 0x2C8C PUSH1 0x10 DUP3 ADD SWAP6 DUP7 SLOAD SWAP1 PUSH2 0x3672 JUMP JUMPDEST DUP4 GT PUSH2 0x2DA2 JUMPI PUSH2 0x2CDF DUP4 PUSH2 0x2CDA PUSH32 0xF995C6CA579B55231B1320970C217693EF6EF98E1D7C7E853D0AABB9E4EB898D SWAP8 PUSH1 0x20 SWAP8 DUP11 SWAP7 PUSH1 0x5 PUSH1 0xFF NOT DUP3 SLOAD AND OR SWAP1 SSTORE DUP4 PUSH2 0x2D5A JUMPI JUMPDEST SLOAD SWAP1 SLOAD SWAP1 PUSH2 0x3672 JUMP JUMPDEST PUSH2 0x367F JUMP JUMPDEST DUP1 PUSH2 0x2CF5 JUMPI JUMPDEST POP POP POP PUSH1 0x40 MLOAD SWAP1 DUP2 MSTORE LOG2 PUSH1 0x1 DUP1 SSTORE STOP JUMPDEST PUSH0 MLOAD PUSH1 0x20 PUSH2 0x3A71 PUSH0 CODECOPY PUSH0 MLOAD SWAP1 PUSH0 MSTORE SWAP2 PUSH1 0x40 SWAP2 PUSH2 0x2D31 PUSH2 0x2D1B PUSH1 0x64 PUSH2 0x2BA5 PUSH1 0xB SLOAD DUP6 PUSH2 0x368C JUMP JUMPDEST PUSH1 0x3 SWAP1 SWAP4 ADD SLOAD DUP4 SWAP1 PUSH1 0x1 PUSH1 0x1 PUSH1 0xA0 SHL SUB AND PUSH2 0x39A1 JUMP JUMPDEST PUSH1 0xF SLOAD PUSH2 0x2D48 SWAP1 DUP3 SWAP1 PUSH1 0x1 PUSH1 0x1 PUSH1 0xA0 SHL SUB AND PUSH2 0x39A1 JUMP JUMPDEST DUP3 MLOAD SWAP2 DUP3 MSTORE DUP7 DUP3 ADD MSTORE LOG2 DUP4 DUP6 DUP1 PUSH2 0x2CE5 JUMP JUMPDEST PUSH1 0x2 DUP7 ADD SLOAD PUSH2 0x2D73 SWAP1 DUP6 SWAP1 PUSH1 0x1 PUSH1 0x1 PUSH1 0xA0 SHL SUB AND PUSH2 0x39A1 JUMP JUMPDEST DUP7 PUSH32 0x4EB6F7F7274CBCFF3FF8D9C87204F6001289EF08EC8D2C1A56BB61C1FD72B5C2 DUP11 PUSH1 0x40 MLOAD DUP8 DUP2 MSTORE LOG2 PUSH2 0x2CD1 JUMP JUMPDEST PUSH1 0x40 MLOAD PUSH3 0x461BCD PUSH1 0xE5 SHL DUP2 MSTORE PUSH1 0x20 PUSH1 0x4 DUP3 ADD MSTORE PUSH1 0x19 PUSH1 0x24 DUP3 ADD MSTORE PUSH32 0x526566756E64206578636565647320746F74616C207061696400000000000000 PUSH1 0x44 DUP3 ADD MSTORE PUSH1 0x64 SWAP1 REVERT JUMPDEST PUSH1 0x40 MLOAD PUSH3 0x461BCD PUSH1 0xE5 SHL DUP2 MSTORE PUSH1 0x20 PUSH1 0x4 DUP3 ADD MSTORE PUSH1 0x1E PUSH1 0x24 DUP3 ADD MSTORE PUSH32 0x496E76616C69642073746174757320666F72207465726D696E6174696F6E0000 PUSH1 0x44 DUP3 ADD MSTORE PUSH1 0x64 SWAP1 REVERT JUMPDEST PUSH1 0x3 SWAP2 POP EQ DUP6 PUSH2 0x2C6E JUMP JUMPDEST CALLVALUE PUSH2 0x205 JUMPI PUSH1 0x20 CALLDATASIZE PUSH1 0x3 NOT ADD SLT PUSH2 0x205 JUMPI PUSH1 0x1 PUSH1 0x1 PUSH1 0xA0 SHL SUB PUSH2 0x2E58 PUSH2 0x3347 JUMP JUMPDEST AND PUSH0 MSTORE PUSH1 0x11 PUSH1 0x20 MSTORE PUSH1 0x20 PUSH1 0xFF PUSH1 0x40 PUSH0 KECCAK256 SLOAD AND PUSH1 0x40 MLOAD SWAP1 ISZERO ISZERO DUP2 MSTORE RETURN JUMPDEST CALLVALUE PUSH2 0x205 JUMPI PUSH1 0x20 CALLDATASIZE PUSH1 0x3 NOT ADD SLT PUSH2 0x205 JUMPI PUSH1 0x4 CALLDATALOAD DUP1 PUSH0 MSTORE PUSH1 0x5 PUSH1 0x20 MSTORE PUSH1 0x40 PUSH0 KECCAK256 PUSH1 0xA DUP2 ADD SWAP1 PUSH1 0xFF DUP3 SLOAD AND PUSH1 0x6 DUP2 LT ISZERO PUSH2 0x7DC JUMPI PUSH1 0x1 PUSH2 0x2EB3 SWAP2 EQ PUSH2 0x35F2 JUMP JUMPDEST PUSH1 0x2 DUP2 ADD SLOAD PUSH1 0x1 PUSH1 0x1 PUSH1 0xA0 SHL SUB AND CALLER EQ DUP1 ISZERO PUSH2 0x32BB JUMPI JUMPDEST DUP1 ISZERO PUSH2 0x32A8 JUMPI JUMPDEST PUSH2 0x2EDA SWAP1 PUSH2 0x3635 JUMP JUMPDEST DUP3 PUSH0 MSTORE PUSH1 0xA PUSH1 0x20 MSTORE PUSH1 0x40 PUSH0 KECCAK256 SLOAD PUSH3 0x15180 DUP2 ADD DUP1 SWAP2 GT PUSH2 0x10FE JUMPI TIMESTAMP GT ISZERO PUSH2 0x3263 JUMPI DUP1 PUSH1 0xF PUSH1 0xE PUSH2 0x2F0F SWAP4 ADD SLOAD SWAP2 ADD SLOAD SWAP1 PUSH2 0x3672 JUMP JUMPDEST DUP1 TIMESTAMP GT ISZERO PUSH2 0x321E JUMPI PUSH3 0x15180 PUSH2 0x2F27 PUSH1 0x3 SWAP3 TIMESTAMP PUSH2 0x367F JUMP JUMPDEST DIV DUP4 PUSH32 0x6CC363906037E89B38AD80123E744A3EB9B2D62AC3E4A11205C3497A17E3DD3C PUSH1 0x20 PUSH1 0x40 MLOAD DUP5 DUP2 MSTORE LOG2 DUP4 PUSH0 MSTORE PUSH1 0xA PUSH1 0x20 MSTORE TIMESTAMP PUSH1 0x40 PUSH0 KECCAK256 SSTORE LT ISZERO SWAP1 DUP2 PUSH2 0x3205 JUMPI JUMPDEST POP PUSH2 0x2F71 JUMPI STOP JUMPDEST PUSH0 DUP2 DUP2 MSTORE PUSH1 0x5 PUSH1 0x20 MSTORE PUSH1 0x40 SWAP1 KECCAK256 PUSH1 0xA ADD DUP1 SLOAD PUSH1 0xFF NOT AND PUSH1 0x3 OR SWAP1 SSTORE PUSH1 0x40 MLOAD PUSH2 0x2F9A PUSH1 0x20 DUP3 PUSH2 0x34EC JUMP JUMPDEST PUSH0 DUP2 MSTORE PUSH0 DUP1 JUMPDEST DUP2 DUP2 LT PUSH2 0x31F4 JUMPI POP POP PUSH1 0x40 MLOAD PUSH2 0x2FB5 DUP2 PUSH2 0x3496 JUMP JUMPDEST DUP3 DUP2 MSTORE PUSH1 0x20 DUP2 ADD SWAP1 ADDRESS DUP3 MSTORE PUSH1 0x40 MLOAD SWAP1 PUSH2 0x2FCF PUSH1 0x60 DUP4 PUSH2 0x34EC JUMP JUMPDEST PUSH1 0x28 DUP3 MSTORE PUSH32 0x52656E74207061796D656E74206F766572647565206265796F6E642067726163 PUSH1 0x20 DUP4 ADD MSTORE PUSH8 0x19481C195C9A5BD9 PUSH1 0xC2 SHL PUSH1 0x40 DUP4 ADD MSTORE PUSH1 0x40 DUP2 ADD SWAP2 DUP3 MSTORE PUSH1 0x60 DUP2 ADD SWAP4 DUP5 MSTORE PUSH1 0x80 DUP2 ADD TIMESTAMP DUP2 MSTORE PUSH1 0xA0 DUP3 ADD SWAP5 PUSH0 DUP7 MSTORE PUSH2 0x307D PUSH1 0xC0 DUP5 ADD SWAP5 PUSH0 DUP7 MSTORE PUSH1 0xE0 DUP6 ADD SWAP7 PUSH1 0x1 DUP9 MSTORE DUP10 PUSH0 MSTORE PUSH1 0x6 PUSH1 0x20 MSTORE PUSH1 0x40 PUSH0 KECCAK256 SWAP6 MLOAD DUP7 SSTORE PUSH1 0x1 DUP1 PUSH1 0xA0 SHL SUB SWAP1 MLOAD AND PUSH1 0x1 DUP7 ADD SWAP1 PUSH1 0x1 DUP1 PUSH1 0xA0 SHL SUB AND PUSH1 0x1 PUSH1 0x1 PUSH1 0x60 SHL SUB PUSH1 0xA0 SHL DUP3 SLOAD AND OR SWAP1 SSTORE MLOAD PUSH1 0x2 DUP6 ADD PUSH2 0x37F3 JUMP JUMPDEST MLOAD DUP1 MLOAD SWAP1 PUSH1 0x3 DUP5 ADD SWAP1 PUSH1 0x1 PUSH1 0x40 SHL DUP4 GT PUSH2 0x803 JUMPI DUP2 SLOAD DUP4 DUP4 SSTORE DUP1 DUP5 LT PUSH2 0x317D JUMPI JUMPDEST POP PUSH1 0x20 ADD SWAP1 PUSH0 MSTORE PUSH1 0x20 PUSH0 KECCAK256 PUSH0 SWAP2 JUMPDEST DUP4 DUP4 LT PUSH2 0x3160 JUMPI POP POP POP POP PUSH1 0x5 PUSH2 0x30DF SWAP4 SWAP3 PUSH2 0x2087 SWAP3 MLOAD PUSH1 0x4 DUP3 ADD SSTORE ADD SWAP5 MLOAD ISZERO ISZERO DUP6 SWAP1 PUSH1 0xFF DUP1 NOT DUP4 SLOAD AND SWAP2 ISZERO ISZERO AND OR SWAP1 SSTORE JUMP JUMPDEST MLOAD DUP2 SLOAD PUSH1 0xFF PUSH1 0xA8 SHL NOT AND SWAP1 ISZERO ISZERO PUSH1 0xA8 SHL PUSH1 0xFF PUSH1 0xA8 SHL AND OR SWAP1 SSTORE PUSH1 0x40 DUP1 MLOAD DUP2 DUP2 MSTORE PUSH1 0x1A SWAP2 DUP2 ADD SWAP2 SWAP1 SWAP2 MSTORE PUSH32 0x4175746F2D666C61676765643A2052656E74206F766572647565000000000000 PUSH1 0x60 DUP3 ADD MSTORE PUSH1 0x1 PUSH1 0x20 DUP3 ADD MSTORE ADDRESS SWAP2 SWAP1 PUSH32 0xEC80075B97F210877EDB0A3D3F4FA1914A46C678CBDD95B3AF04FE3ECD33E10B SWAP1 PUSH1 0x80 SWAP1 LOG3 STOP JUMPDEST PUSH1 0x1 PUSH1 0x20 DUP3 PUSH2 0x3171 DUP4 SWAP5 MLOAD DUP7 PUSH2 0x37F3 JUMP JUMPDEST ADD SWAP3 ADD SWAP3 ADD SWAP2 SWAP1 PUSH2 0x30AC JUMP JUMPDEST DUP3 PUSH0 MSTORE DUP4 PUSH1 0x20 PUSH0 KECCAK256 SWAP2 DUP3 ADD SWAP2 ADD JUMPDEST DUP2 DUP2 LT PUSH2 0x3198 JUMPI POP PUSH2 0x309E JUMP JUMPDEST DUP1 PUSH2 0x31A5 PUSH1 0x1 SWAP3 SLOAD PUSH2 0x33DD JUMP JUMPDEST DUP1 PUSH2 0x31B2 JUMPI JUMPDEST POP ADD PUSH2 0x318B JUMP JUMPDEST PUSH1 0x1F DUP2 GT DUP4 EQ PUSH2 0x31C7 JUMPI POP PUSH0 DUP2 SSTORE JUMPDEST DUP13 PUSH2 0x31AB JUMP JUMPDEST PUSH2 0x31E3 SWAP1 DUP3 PUSH0 MSTORE DUP4 PUSH1 0x1F PUSH1 0x20 PUSH0 KECCAK256 SWAP3 ADD PUSH1 0x5 SHR DUP3 ADD SWAP2 ADD PUSH2 0x37DD JUMP JUMPDEST DUP1 PUSH0 MSTORE PUSH0 PUSH1 0x20 DUP2 KECCAK256 DUP2 DUP4 SSTORE SSTORE PUSH2 0x31C1 JUMP JUMPDEST DUP1 PUSH1 0x60 PUSH1 0x20 DUP1 SWAP4 DUP7 ADD ADD MSTORE ADD PUSH2 0x2FA0 JUMP JUMPDEST PUSH1 0xFF SWAP2 POP SLOAD AND PUSH1 0x6 DUP2 LT ISZERO PUSH2 0x7DC JUMPI PUSH1 0x3 EQ ISZERO DUP3 PUSH2 0x2F6A JUMP JUMPDEST PUSH1 0x40 MLOAD PUSH3 0x461BCD PUSH1 0xE5 SHL DUP2 MSTORE PUSH1 0x20 PUSH1 0x4 DUP3 ADD MSTORE PUSH1 0x19 PUSH1 0x24 DUP3 ADD MSTORE PUSH32 0x5374696C6C2077697468696E20677261636520706572696F6400000000000000 PUSH1 0x44 DUP3 ADD MSTORE PUSH1 0x64 SWAP1 REVERT JUMPDEST PUSH1 0x40 MLOAD PUSH3 0x461BCD PUSH1 0xE5 SHL DUP2 MSTORE PUSH1 0x20 PUSH1 0x4 DUP3 ADD MSTORE PUSH1 0x1C PUSH1 0x24 DUP3 ADD MSTORE PUSH32 0x436F6F6C646F776E3A20436865636B206F6E6365207065722064617900000000 PUSH1 0x44 DUP3 ADD MSTORE PUSH1 0x64 SWAP1 REVERT JUMPDEST POP PUSH0 SLOAD PUSH1 0x1 PUSH1 0x1 PUSH1 0xA0 SHL SUB AND CALLER EQ PUSH2 0x2ED1 JUMP JUMPDEST POP PUSH1 0x3 DUP2 ADD SLOAD PUSH1 0x1 PUSH1 0x1 PUSH1 0xA0 SHL SUB AND CALLER EQ PUSH2 0x2ECA JUMP JUMPDEST CALLVALUE PUSH2 0x205 JUMPI PUSH1 0x20 CALLDATASIZE PUSH1 0x3 NOT ADD SLT PUSH2 0x205 JUMPI PUSH1 0x4 CALLDATALOAD PUSH2 0x32ED PUSH2 0x395B JUMP JUMPDEST PUSH3 0x15180 DUP2 LT ISZERO DUP1 PUSH2 0x333A JUMPI JUMPDEST ISZERO PUSH2 0x3304 JUMPI PUSH1 0xD SSTORE STOP JUMPDEST PUSH1 0x40 MLOAD PUSH3 0x461BCD PUSH1 0xE5 SHL DUP2 MSTORE PUSH1 0x20 PUSH1 0x4 DUP3 ADD MSTORE PUSH1 0xE PUSH1 0x24 DUP3 ADD MSTORE PUSH14 0x125B9D985B1A59081C195C9A5BD9 PUSH1 0x92 SHL PUSH1 0x44 DUP3 ADD MSTORE PUSH1 0x64 SWAP1 REVERT JUMPDEST POP PUSH3 0x278D00 DUP2 GT ISZERO PUSH2 0x32FA JUMP JUMPDEST PUSH1 0x4 CALLDATALOAD SWAP1 PUSH1 0x1 PUSH1 0x1 PUSH1 0xA0 SHL SUB DUP3 AND DUP3 SUB PUSH2 0x205 JUMPI JUMP JUMPDEST PUSH1 0x40 SWAP1 PUSH1 0x3 NOT ADD SLT PUSH2 0x205 JUMPI PUSH1 0x4 CALLDATALOAD SWAP1 PUSH1 0x24 CALLDATALOAD SWAP1 JUMP JUMPDEST PUSH1 0x20 PUSH1 0x40 DUP2 DUP4 ADD SWAP3 DUP3 DUP2 MSTORE DUP5 MLOAD DUP1 SWAP5 MSTORE ADD SWAP3 ADD SWAP1 PUSH0 JUMPDEST DUP2 DUP2 LT PUSH2 0x3396 JUMPI POP POP POP SWAP1 JUMP JUMPDEST DUP3 MLOAD DUP5 MSTORE PUSH1 0x20 SWAP4 DUP5 ADD SWAP4 SWAP1 SWAP3 ADD SWAP2 PUSH1 0x1 ADD PUSH2 0x3389 JUMP JUMPDEST SWAP1 PUSH1 0x6 DUP3 LT ISZERO PUSH2 0x7DC JUMPI MSTORE JUMP JUMPDEST DUP1 MLOAD DUP1 DUP4 MSTORE PUSH1 0x20 SWAP3 SWAP2 DUP2 SWAP1 DUP5 ADD DUP5 DUP5 ADD MCOPY PUSH0 DUP3 DUP3 ADD DUP5 ADD MSTORE PUSH1 0x1F ADD PUSH1 0x1F NOT AND ADD ADD SWAP1 JUMP JUMPDEST SWAP1 PUSH1 0x1 DUP3 DUP2 SHR SWAP3 AND DUP1 ISZERO PUSH2 0x340B JUMPI JUMPDEST PUSH1 0x20 DUP4 LT EQ PUSH2 0x33F7 JUMPI JUMP JUMPDEST PUSH4 0x4E487B71 PUSH1 0xE0 SHL PUSH0 MSTORE PUSH1 0x22 PUSH1 0x4 MSTORE PUSH1 0x24 PUSH0 REVERT JUMPDEST SWAP2 PUSH1 0x7F AND SWAP2 PUSH2 0x33EC JUMP JUMPDEST PUSH0 SWAP3 SWAP2 DUP2 SLOAD SWAP2 PUSH2 0x3424 DUP4 PUSH2 0x33DD JUMP JUMPDEST DUP1 DUP4 MSTORE SWAP3 PUSH1 0x1 DUP2 AND SWAP1 DUP2 ISZERO PUSH2 0x3479 JUMPI POP PUSH1 0x1 EQ PUSH2 0x3440 JUMPI POP POP POP JUMP JUMPDEST PUSH0 SWAP1 DUP2 MSTORE PUSH1 0x20 DUP2 KECCAK256 SWAP4 SWAP5 POP SWAP2 SWAP3 JUMPDEST DUP4 DUP4 LT PUSH2 0x345F JUMPI POP PUSH1 0x20 SWAP3 POP ADD ADD SWAP1 JUMP JUMPDEST PUSH1 0x1 DUP2 PUSH1 0x20 SWAP3 SWAP5 SWAP4 SWAP5 SLOAD DUP4 DUP6 DUP8 ADD ADD MSTORE ADD SWAP2 ADD SWAP2 SWAP1 PUSH2 0x344E JUMP JUMPDEST SWAP2 POP POP PUSH1 0x20 SWAP4 SWAP5 POP PUSH1 0xFF SWAP3 SWAP2 SWAP3 NOT AND DUP4 DUP4 ADD MSTORE ISZERO ISZERO PUSH1 0x5 SHL ADD ADD SWAP1 JUMP JUMPDEST PUSH2 0x100 DUP2 ADD SWAP1 DUP2 LT PUSH8 0xFFFFFFFFFFFFFFFF DUP3 GT OR PUSH2 0x803 JUMPI PUSH1 0x40 MSTORE JUMP JUMPDEST PUSH2 0x240 DUP2 ADD SWAP1 DUP2 LT PUSH8 0xFFFFFFFFFFFFFFFF DUP3 GT OR PUSH2 0x803 JUMPI PUSH1 0x40 MSTORE JUMP JUMPDEST PUSH1 0xC0 DUP2 ADD SWAP1 DUP2 LT PUSH8 0xFFFFFFFFFFFFFFFF DUP3 GT OR PUSH2 0x803 JUMPI PUSH1 0x40 MSTORE JUMP JUMPDEST SWAP1 PUSH1 0x1F DUP1 NOT SWAP2 ADD AND DUP2 ADD SWAP1 DUP2 LT PUSH8 0xFFFFFFFFFFFFFFFF DUP3 GT OR PUSH2 0x803 JUMPI PUSH1 0x40 MSTORE JUMP JUMPDEST PUSH8 0xFFFFFFFFFFFFFFFF DUP2 GT PUSH2 0x803 JUMPI PUSH1 0x1F ADD PUSH1 0x1F NOT AND PUSH1 0x20 ADD SWAP1 JUMP JUMPDEST DUP2 PUSH1 0x1F DUP3 ADD SLT ISZERO PUSH2 0x205 JUMPI DUP1 CALLDATALOAD SWAP1 PUSH2 0x3541 DUP3 PUSH2 0x350E JUMP JUMPDEST SWAP3 PUSH2 0x354F PUSH1 0x40 MLOAD SWAP5 DUP6 PUSH2 0x34EC JUMP JUMPDEST DUP3 DUP5 MSTORE PUSH1 0x20 DUP4 DUP4 ADD ADD GT PUSH2 0x205 JUMPI DUP2 PUSH0 SWAP3 PUSH1 0x20 DUP1 SWAP4 ADD DUP4 DUP7 ADD CALLDATACOPY DUP4 ADD ADD MSTORE SWAP1 JUMP JUMPDEST DUP1 SLOAD DUP3 LT ISZERO PUSH2 0x3585 JUMPI PUSH0 MSTORE PUSH1 0x20 PUSH0 KECCAK256 ADD SWAP1 PUSH0 SWAP1 JUMP JUMPDEST PUSH4 0x4E487B71 PUSH1 0xE0 SHL PUSH0 MSTORE PUSH1 0x32 PUSH1 0x4 MSTORE PUSH1 0x24 PUSH0 REVERT JUMPDEST SWAP1 PUSH1 0x3 DUP3 LT ISZERO PUSH2 0x7DC JUMPI MSTORE JUMP JUMPDEST SWAP1 PUSH1 0x40 PUSH1 0x3 NOT DUP4 ADD SLT PUSH2 0x205 JUMPI PUSH1 0x4 CALLDATALOAD SWAP2 PUSH1 0x24 CALLDATALOAD SWAP1 PUSH8 0xFFFFFFFFFFFFFFFF DUP3 GT PUSH2 0x205 JUMPI PUSH2 0x35D6 SWAP2 PUSH1 0x4 ADD PUSH2 0x352A JUMP JUMPDEST SWAP1 JUMP JUMPDEST DUP1 SLOAD DUP3 LT ISZERO PUSH2 0x3585 JUMPI PUSH0 MSTORE PUSH1 0x6 PUSH1 0x20 PUSH0 KECCAK256 SWAP2 MUL ADD SWAP1 PUSH0 SWAP1 JUMP JUMPDEST ISZERO PUSH2 0x35F9 JUMPI JUMP JUMPDEST PUSH1 0x40 MLOAD PUSH3 0x461BCD PUSH1 0xE5 SHL DUP2 MSTORE PUSH1 0x20 PUSH1 0x4 DUP3 ADD MSTORE PUSH1 0x14 PUSH1 0x24 DUP3 ADD MSTORE PUSH20 0x41677265656D656E74206E6F7420616374697665 PUSH1 0x60 SHL PUSH1 0x44 DUP3 ADD MSTORE PUSH1 0x64 SWAP1 REVERT JUMPDEST ISZERO PUSH2 0x363C JUMPI JUMP JUMPDEST PUSH1 0x40 MLOAD PUSH3 0x461BCD PUSH1 0xE5 SHL DUP2 MSTORE PUSH1 0x20 PUSH1 0x4 DUP3 ADD MSTORE PUSH1 0xE PUSH1 0x24 DUP3 ADD MSTORE PUSH14 0x139BDD08185D5D1A1BDC9A5E9959 PUSH1 0x92 SHL PUSH1 0x44 DUP3 ADD MSTORE PUSH1 0x64 SWAP1 REVERT JUMPDEST SWAP2 SWAP1 DUP3 ADD DUP1 SWAP3 GT PUSH2 0x10FE JUMPI JUMP JUMPDEST SWAP2 SWAP1 DUP3 SUB SWAP2 DUP3 GT PUSH2 0x10FE JUMPI JUMP JUMPDEST DUP2 DUP2 MUL SWAP3 SWAP2 DUP2 ISZERO SWAP2 DUP5 DIV EQ OR ISZERO PUSH2 0x10FE JUMPI JUMP JUMPDEST ISZERO PUSH2 0x36A6 JUMPI JUMP JUMPDEST PUSH1 0x40 MLOAD PUSH3 0x461BCD PUSH1 0xE5 SHL DUP2 MSTORE PUSH1 0x20 PUSH1 0x4 DUP3 ADD MSTORE PUSH1 0x18 PUSH1 0x24 DUP3 ADD MSTORE PUSH32 0x4469737075746520616C7265616479207265736F6C7665640000000000000000 PUSH1 0x44 DUP3 ADD MSTORE PUSH1 0x64 SWAP1 REVERT JUMPDEST ISZERO PUSH2 0x36F2 JUMPI JUMP JUMPDEST PUSH1 0x40 MLOAD PUSH3 0x461BCD PUSH1 0xE5 SHL DUP2 MSTORE PUSH1 0x20 PUSH1 0x4 DUP3 ADD MSTORE PUSH1 0x15 PUSH1 0x24 DUP3 ADD MSTORE PUSH21 0x41677265656D656E74206E6F742070656E64696E67 PUSH1 0x58 SHL PUSH1 0x44 DUP3 ADD MSTORE PUSH1 0x64 SWAP1 REVERT JUMPDEST ISZERO PUSH2 0x3736 JUMPI JUMP JUMPDEST PUSH1 0x40 MLOAD PUSH3 0x461BCD PUSH1 0xE5 SHL DUP2 MSTORE PUSH1 0x20 PUSH1 0x4 DUP3 ADD MSTORE PUSH1 0x11 PUSH1 0x24 DUP3 ADD MSTORE PUSH17 0x105B1C9958591E4818DBDB999A5C9B5959 PUSH1 0x7A SHL PUSH1 0x44 DUP3 ADD MSTORE PUSH1 0x64 SWAP1 REVERT JUMPDEST PUSH1 0x6 DUP3 LT ISZERO PUSH2 0x7DC JUMPI MSTORE JUMP JUMPDEST ISZERO PUSH2 0x3782 JUMPI JUMP JUMPDEST PUSH1 0x40 MLOAD PUSH3 0x461BCD PUSH1 0xE5 SHL DUP2 MSTORE PUSH1 0x20 PUSH1 0x4 DUP3 ADD MSTORE PUSH1 0xE PUSH1 0x24 DUP3 ADD MSTORE PUSH14 0x139BDD081D1A19481D195B985B9D PUSH1 0x92 SHL PUSH1 0x44 DUP3 ADD MSTORE PUSH1 0x64 SWAP1 REVERT JUMPDEST PUSH8 0xFFFFFFFFFFFFFFFF DUP2 GT PUSH2 0x803 JUMPI PUSH1 0x5 SHL PUSH1 0x20 ADD SWAP1 JUMP JUMPDEST DUP1 MLOAD ISZERO PUSH2 0x3585 JUMPI PUSH1 0x20 ADD SWAP1 JUMP JUMPDEST DUP2 DUP2 LT PUSH2 0x37E8 JUMPI POP POP JUMP JUMPDEST PUSH0 DUP2 SSTORE PUSH1 0x1 ADD PUSH2 0x37DD JUMP JUMPDEST SWAP2 SWAP1 SWAP2 DUP3 MLOAD PUSH8 0xFFFFFFFFFFFFFFFF DUP2 GT PUSH2 0x803 JUMPI PUSH2 0x3811 DUP3 SLOAD PUSH2 0x33DD JUMP JUMPDEST PUSH1 0x1F DUP2 GT PUSH2 0x38B1 JUMPI JUMPDEST POP PUSH1 0x20 PUSH1 0x1F DUP3 GT PUSH1 0x1 EQ PUSH2 0x3853 JUMPI DUP2 SWAP3 SWAP4 SWAP5 PUSH0 SWAP3 PUSH2 0x3848 JUMPI JUMPDEST POP POP DUP2 PUSH1 0x1 SHL SWAP2 PUSH0 NOT SWAP1 PUSH1 0x3 SHL SHR NOT AND OR SWAP1 SSTORE JUMP JUMPDEST ADD MLOAD SWAP1 POP PUSH0 DUP1 PUSH2 0x3833 JUMP JUMPDEST PUSH1 0x1F NOT DUP3 AND SWAP1 DUP4 PUSH0 MSTORE DUP1 PUSH0 KECCAK256 SWAP2 PUSH0 JUMPDEST DUP2 DUP2 LT PUSH2 0x3899 JUMPI POP SWAP6 DUP4 PUSH1 0x1 SWAP6 SWAP7 SWAP8 LT PUSH2 0x3881 JUMPI JUMPDEST POP POP POP DUP2 SHL ADD SWAP1 SSTORE JUMP JUMPDEST ADD MLOAD PUSH0 NOT PUSH1 0xF8 DUP5 PUSH1 0x3 SHL AND SHR NOT AND SWAP1 SSTORE PUSH0 DUP1 DUP1 PUSH2 0x3877 JUMP JUMPDEST SWAP2 SWAP3 PUSH1 0x20 PUSH1 0x1 DUP2 SWAP3 DUP7 DUP12 ADD MLOAD DUP2 SSTORE ADD SWAP5 ADD SWAP3 ADD PUSH2 0x3862 JUMP JUMPDEST PUSH2 0x38DC SWAP1 DUP4 PUSH0 MSTORE PUSH1 0x20 PUSH0 KECCAK256 PUSH1 0x1F DUP5 ADD PUSH1 0x5 SHR DUP2 ADD SWAP2 PUSH1 0x20 DUP6 LT PUSH2 0x38E2 JUMPI JUMPDEST PUSH1 0x1F ADD PUSH1 0x5 SHR ADD SWAP1 PUSH2 0x37DD JUMP JUMPDEST PUSH0 PUSH2 0x381A JUMP JUMPDEST SWAP1 SWAP2 POP DUP2 SWAP1 PUSH2 0x38CF JUMP JUMPDEST ISZERO PUSH2 0x38F3 JUMPI JUMP JUMPDEST PUSH1 0x40 MLOAD PUSH3 0x461BCD PUSH1 0xE5 SHL DUP2 MSTORE PUSH1 0x20 PUSH1 0x4 DUP3 ADD MSTORE PUSH1 0xC PUSH1 0x24 DUP3 ADD MSTORE PUSH12 0x8CCACA40E8DEDE40D0D2CED PUSH1 0xA3 SHL PUSH1 0x44 DUP3 ADD MSTORE PUSH1 0x64 SWAP1 REVERT JUMPDEST DUP1 SLOAD PUSH1 0x1 PUSH1 0x40 SHL DUP2 LT ISZERO PUSH2 0x803 JUMPI PUSH2 0x3944 SWAP2 PUSH1 0x1 DUP3 ADD DUP2 SSTORE PUSH2 0x3570 JUMP JUMPDEST DUP2 SWAP3 SWAP2 SLOAD SWAP1 PUSH1 0x3 SHL SWAP2 DUP3 SHL SWAP2 PUSH0 NOT SWAP1 SHL NOT AND OR SWAP1 SSTORE JUMP JUMPDEST PUSH0 SLOAD PUSH1 0x1 PUSH1 0x1 PUSH1 0xA0 SHL SUB AND CALLER SUB PUSH2 0x396E JUMPI JUMP JUMPDEST PUSH4 0x118CDAA7 PUSH1 0xE0 SHL PUSH0 MSTORE CALLER PUSH1 0x4 MSTORE PUSH1 0x24 PUSH0 REVERT JUMPDEST PUSH1 0x2 PUSH1 0x1 SLOAD EQ PUSH2 0x3992 JUMPI PUSH1 0x2 PUSH1 0x1 SSTORE JUMP JUMPDEST PUSH4 0x3EE5AEB5 PUSH1 0xE0 SHL PUSH0 MSTORE PUSH1 0x4 PUSH0 REVERT JUMPDEST DUP2 SELFBALANCE LT PUSH2 0x3A12 JUMPI PUSH0 SWAP2 DUP3 SWAP2 DUP3 SWAP2 DUP3 SWAP2 PUSH1 0x1 PUSH1 0x1 PUSH1 0xA0 SHL SUB AND GAS CALL RETURNDATASIZE ISZERO PUSH2 0x3A0A JUMPI RETURNDATASIZE SWAP1 PUSH2 0x39CC DUP3 PUSH2 0x350E JUMP JUMPDEST SWAP2 PUSH2 0x39DA PUSH1 0x40 MLOAD SWAP4 DUP5 PUSH2 0x34EC JUMP JUMPDEST DUP3 MSTORE RETURNDATASIZE PUSH0 PUSH1 0x20 DUP5 ADD RETURNDATACOPY JUMPDEST ISZERO PUSH2 0x39EC JUMPI POP JUMP JUMPDEST DUP1 MLOAD ISZERO PUSH2 0x39FB JUMPI PUSH1 0x20 DUP2 MLOAD SWAP2 ADD REVERT JUMPDEST PUSH4 0xD6BDA275 PUSH1 0xE0 SHL PUSH0 MSTORE PUSH1 0x4 PUSH0 REVERT JUMPDEST PUSH1 0x60 SWAP1 PUSH2 0x39E4 JUMP JUMPDEST POP SELFBALANCE PUSH4 0xCF479181 PUSH1 0xE0 SHL PUSH0 MSTORE PUSH1 0x4 MSTORE PUSH1 0x24 MSTORE PUSH1 0x44 PUSH0 REVERT JUMPDEST PUSH0 MSTORE PUSH1 0x5 PUSH1 0x20 MSTORE PUSH1 0x40 PUSH0 KECCAK256 PUSH1 0xA DUP2 ADD PUSH1 0x1 PUSH1 0xFF NOT DUP3 SLOAD AND OR SWAP1 SSTORE PUSH1 0xD PUSH2 0x3A50 DUP2 SLOAD TIMESTAMP PUSH2 0x3672 JUMP JUMPDEST SWAP2 ADD SSTORE JUMP JUMPDEST PUSH1 0xFF PUSH1 0x2 SLOAD AND PUSH2 0x3A61 JUMPI JUMP JUMPDEST PUSH4 0xD93C0665 PUSH1 0xE0 SHL PUSH0 MSTORE PUSH1 0x4 PUSH0 REVERT INVALID 0xAA PUSH32 0x42C5D16A01253841B57B198D8378093C00DFAA1CB169D8D91C5B36FD0ADCA264 PUSH10 0x70667358221220B641DE GASPRICE SWAP16 0xB0 0xCD SELFBALANCE CALLDATALOAD 0xAB PUSH19 0xD101F431E8046DF45FD37771AEF07505C1F09B 0xF8 BYTE PUSH5 0x736F6C6343 STOP ADDMOD SHR STOP CALLER "
		},
		"gasEstimates": {
			"creation": {
				"codeDepositCost": "3009200",
				"executionCost": "infinite",
				"totalCost": "infinite"
			},
			"external": {
				"agreements(uint256)": "infinite",
				"calculateFeeBreakdown(uint256)": "infinite",
				"cancelAgreement(uint256)": "infinite",
				"checkRentOverdue(uint256)": "infinite",
				"createAgreement(uint256,address,uint256,uint256,uint256,uint256,string)": "infinite",
				"defaultGracePeriod()": "2634",
				"disputePeriod()": "2590",
				"disputes(uint256)": "infinite",
				"fundGasSubsidy()": "25094",
				"gasSubsidyPool()": "3159",
				"getAgreement(uint256)": "infinite",
				"getDispute(uint256)": "infinite",
				"getLandlordAgreements(address)": "infinite",
				"getRentPayments(uint256)": "infinite",
				"getTenantAgreements(address)": "infinite",
				"grantGasSubsidy(address)": "27922",
				"isGasSubsidized(address)": "2466",
				"landlordAgreements(address,uint256)": "7243",
				"landlordConfirm(uint256)": "125116",
				"owner()": "2811",
				"pause()": "30134",
				"paused()": "2624",
				"payRent(uint256,string)": "infinite",
				"platformFeePercent()": "2766",
				"platformWallet()": "3142",
				"propertyVerification()": "3041",
				"raiseDispute(uint256,string,string)": "infinite",
				"releaseDeposit(uint256)": "infinite",
				"renounceOwnership()": "28438",
				"rentPayments(uint256,uint256)": "18153",
				"rentProcessingFeePercent()": "3030",
				"rentalReceipt()": "2416",
				"resolveDispute(uint256,bool)": "infinite",
				"submitEvidence(uint256,string)": "infinite",
				"tenantAgreements(address,uint256)": "7353",
				"tenantConfirm(uint256)": "125180",
				"terminateAgreement(uint256,uint256)": "infinite",
				"transferOwnership(address)": "28976",
				"updateDisputePeriod(uint256)": "24464",
				"updateGracePeriod(uint256)": "24750",
				"updatePlatformFee(uint256)": "25083",
				"updateRentProcessingFee(uint256)": "24863"
			},
			"internal": {
				"_activateAgreement(uint256)": "48578",
				"_autoRaiseRentDispute(uint256)": "infinite",
				"_emitFeeBreakdown(uint256)": "infinite"
			}
		},
		"methodIdentifiers": {
			"agreements(uint256)": "bd14de96",
			"calculateFeeBreakdown(uint256)": "fd54b969",
			"cancelAgreement(uint256)": "5686b54b",
			"checkRentOverdue(uint256)": "0aafe1ea",
			"createAgreement(uint256,address,uint256,uint256,uint256,uint256,string)": "b0bf7787",
			"defaultGracePeriod()": "705d5f24",
			"disputePeriod()": "5bf31d4d",
			"disputes(uint256)": "564a565d",
			"fundGasSubsidy()": "c1c228ce",
			"gasSubsidyPool()": "feb5c1de",
			"getAgreement(uint256)": "4f9f6fe6",
			"getDispute(uint256)": "e3a96cbd",
			"getLandlordAgreements(address)": "448db2f6",
			"getRentPayments(uint256)": "9547d647",
			"getTenantAgreements(address)": "8aed078d",
			"grantGasSubsidy(address)": "38459eb3",
			"isGasSubsidized(address)": "3059953c",
			"landlordAgreements(address,uint256)": "8a0b66a2",
			"landlordConfirm(uint256)": "4c8eb426",
			"owner()": "8da5cb5b",
			"pause()": "8456cb59",
			"paused()": "5c975abb",
			"payRent(uint256,string)": "f95f05f7",
			"platformFeePercent()": "8c639a85",
			"platformWallet()": "fa2af9da",
			"propertyVerification()": "d9e618ed",
			"raiseDispute(uint256,string,string)": "5b982d2f",
			"releaseDeposit(uint256)": "a0f109c5",
			"renounceOwnership()": "715018a6",
			"rentPayments(uint256,uint256)": "d064fbe8",
			"rentProcessingFeePercent()": "dcf97ea9",
			"rentalReceipt()": "3cd35859",
			"resolveDispute(uint256,bool)": "34b25ee2",
			"submitEvidence(uint256,string)": "a6a7f0eb",
			"tenantAgreements(address,uint256)": "9e6fffec",
			"tenantConfirm(uint256)": "51219def",
			"terminateAgreement(uint256,uint256)": "31f85eed",
			"transferOwnership(address)": "f2fde38b",
			"updateDisputePeriod(uint256)": "06e652dd",
			"updateGracePeriod(uint256)": "5ab98d5a",
			"updatePlatformFee(uint256)": "aa0b5988",
			"updateRentProcessingFee(uint256)": "7a1e9a42"
		}
	},
	"abi": [
		{
			"inputs": [
				{
					"internalType": "address",
					"name": "_propertyVerification",
					"type": "address"
				},
				{
					"internalType": "address",
					"name": "_rentalReceipt",
					"type": "address"
				},
				{
					"internalType": "address",
					"name": "_platformWallet",
					"type": "address"
				}
			],
			"stateMutability": "nonpayable",
			"type": "constructor"
		},
		{
			"inputs": [],
			"name": "EnforcedPause",
			"type": "error"
		},
		{
			"inputs": [],
			"name": "ExpectedPause",
			"type": "error"
		},
		{
			"inputs": [],
			"name": "FailedCall",
			"type": "error"
		},
		{
			"inputs": [
				{
					"internalType": "uint256",
					"name": "balance",
					"type": "uint256"
				},
				{
					"internalType": "uint256",
					"name": "needed",
					"type": "uint256"
				}
			],
			"name": "InsufficientBalance",
			"type": "error"
		},
		{
			"inputs": [
				{
					"internalType": "address",
					"name": "owner",
					"type": "address"
				}
			],
			"name": "OwnableInvalidOwner",
			"type": "error"
		},
		{
			"inputs": [
				{
					"internalType": "address",
					"name": "account",
					"type": "address"
				}
			],
			"name": "OwnableUnauthorizedAccount",
			"type": "error"
		},
		{
			"inputs": [],
			"name": "ReentrancyGuardReentrantCall",
			"type": "error"
		},
		{
			"anonymous": false,
			"inputs": [
				{
					"indexed": true,
					"internalType": "uint256",
					"name": "agreementId",
					"type": "uint256"
				}
			],
			"name": "AgreementCancelled",
			"type": "event"
		},
		{
			"anonymous": false,
			"inputs": [
				{
					"indexed": true,
					"internalType": "uint256",
					"name": "agreementId",
					"type": "uint256"
				},
				{
					"indexed": true,
					"internalType": "uint256",
					"name": "propertyId",
					"type": "uint256"
				},
				{
					"indexed": true,
					"internalType": "address",
					"name": "tenant",
					"type": "address"
				},
				{
					"indexed": false,
					"internalType": "address",
					"name": "landlord",
					"type": "address"
				},
				{
					"indexed": false,
					"internalType": "uint256",
					"name": "depositAmount",
					"type": "uint256"
				},
				{
					"indexed": false,
					"internalType": "uint256",
					"name": "monthlyRent",
					"type": "uint256"
				},
				{
					"indexed": false,
					"internalType": "uint256",
					"name": "rentInterval",
					"type": "uint256"
				}
			],
			"name": "AgreementCreated",
			"type": "event"
		},
		{
			"anonymous": false,
			"inputs": [
				{
					"indexed": true,
					"internalType": "uint256",
					"name": "agreementId",
					"type": "uint256"
				},
				{
					"indexed": false,
					"internalType": "uint256",
					"name": "refundAmount",
					"type": "uint256"
				}
			],
			"name": "AgreementTerminated",
			"type": "event"
		},
		{
			"anonymous": false,
			"inputs": [
				{
					"indexed": true,
					"internalType": "uint256",
					"name": "agreementId",
					"type": "uint256"
				},
				{
					"indexed": false,
					"internalType": "uint256",
					"name": "amount",
					"type": "uint256"
				},
				{
					"indexed": false,
					"internalType": "uint256",
					"name": "platformFee",
					"type": "uint256"
				}
			],
			"name": "DepositReleased",
			"type": "event"
		},
		{
			"anonymous": false,
			"inputs": [
				{
					"indexed": true,
					"internalType": "uint256",
					"name": "agreementId",
					"type": "uint256"
				},
				{
					"indexed": true,
					"internalType": "address",
					"name": "initiator",
					"type": "address"
				},
				{
					"indexed": false,
					"internalType": "string",
					"name": "reason",
					"type": "string"
				},
				{
					"indexed": false,
					"internalType": "bool",
					"name": "isRentDispute",
					"type": "bool"
				}
			],
			"name": "DisputeRaised",
			"type": "event"
		},
		{
			"anonymous": false,
			"inputs": [
				{
					"indexed": true,
					"internalType": "uint256",
					"name": "agreementId",
					"type": "uint256"
				},
				{
					"indexed": true,
					"internalType": "address",
					"name": "winner",
					"type": "address"
				}
			],
			"name": "DisputeResolved",
			"type": "event"
		},
		{
			"anonymous": false,
			"inputs": [
				{
					"indexed": true,
					"internalType": "uint256",
					"name": "agreementId",
					"type": "uint256"
				},
				{
					"indexed": false,
					"internalType": "string",
					"name": "evidenceHash",
					"type": "string"
				}
			],
			"name": "EvidenceSubmitted",
			"type": "event"
		},
		{
			"anonymous": false,
			"inputs": [
				{
					"indexed": true,
					"internalType": "uint256",
					"name": "agreementId",
					"type": "uint256"
				},
				{
					"indexed": false,
					"internalType": "uint256",
					"name": "landlordNet",
					"type": "uint256"
				},
				{
					"indexed": false,
					"internalType": "uint256",
					"name": "platformTotal",
					"type": "uint256"
				}
			],
			"name": "FeeBreakdownCalculated",
			"type": "event"
		},
		{
			"anonymous": false,
			"inputs": [
				{
					"indexed": true,
					"internalType": "address",
					"name": "tenant",
					"type": "address"
				}
			],
			"name": "GasSubsidyGranted",
			"type": "event"
		},
		{
			"anonymous": false,
			"inputs": [
				{
					"indexed": true,
					"internalType": "uint256",
					"name": "agreementId",
					"type": "uint256"
				}
			],
			"name": "LandlordConfirmed",
			"type": "event"
		},
		{
			"anonymous": false,
			"inputs": [
				{
					"indexed": true,
					"internalType": "address",
					"name": "previousOwner",
					"type": "address"
				},
				{
					"indexed": true,
					"internalType": "address",
					"name": "newOwner",
					"type": "address"
				}
			],
			"name": "OwnershipTransferred",
			"type": "event"
		},
		{
			"anonymous": false,
			"inputs": [
				{
					"indexed": false,
					"internalType": "address",
					"name": "account",
					"type": "address"
				}
			],
			"name": "Paused",
			"type": "event"
		},
		{
			"anonymous": false,
			"inputs": [
				{
					"indexed": true,
					"internalType": "uint256",
					"name": "agreementId",
					"type": "uint256"
				},
				{
					"indexed": false,
					"internalType": "uint256",
					"name": "daysOverdue",
					"type": "uint256"
				}
			],
			"name": "RentOverdue",
			"type": "event"
		},
		{
			"anonymous": false,
			"inputs": [
				{
					"indexed": true,
					"internalType": "uint256",
					"name": "agreementId",
					"type": "uint256"
				},
				{
					"indexed": false,
					"internalType": "uint256",
					"name": "amount",
					"type": "uint256"
				},
				{
					"indexed": false,
					"internalType": "uint256",
					"name": "periodStart",
					"type": "uint256"
				},
				{
					"indexed": false,
					"internalType": "uint256",
					"name": "periodEnd",
					"type": "uint256"
				},
				{
					"indexed": false,
					"internalType": "uint256",
					"name": "nextDueDate",
					"type": "uint256"
				}
			],
			"name": "RentPaid",
			"type": "event"
		},
		{
			"anonymous": false,
			"inputs": [
				{
					"indexed": true,
					"internalType": "uint256",
					"name": "agreementId",
					"type": "uint256"
				}
			],
			"name": "TenantConfirmed",
			"type": "event"
		},
		{
			"anonymous": false,
			"inputs": [
				{
					"indexed": true,
					"internalType": "uint256",
					"name": "agreementId",
					"type": "uint256"
				},
				{
					"indexed": false,
					"internalType": "uint256",
					"name": "amount",
					"type": "uint256"
				}
			],
			"name": "TenantRefunded",
			"type": "event"
		},
		{
			"anonymous": false,
			"inputs": [
				{
					"indexed": false,
					"internalType": "address",
					"name": "account",
					"type": "address"
				}
			],
			"name": "Unpaused",
			"type": "event"
		},
		{
			"inputs": [
				{
					"internalType": "uint256",
					"name": "",
					"type": "uint256"
				}
			],
			"name": "agreements",
			"outputs": [
				{
					"internalType": "uint256",
					"name": "agreementId",
					"type": "uint256"
				},
				{
					"internalType": "uint256",
					"name": "propertyId",
					"type": "uint256"
				},
				{
					"internalType": "address",
					"name": "tenant",
					"type": "address"
				},
				{
					"internalType": "address",
					"name": "landlord",
					"type": "address"
				},
				{
					"internalType": "uint256",
					"name": "depositAmount",
					"type": "uint256"
				},
				{
					"internalType": "uint256",
					"name": "monthlyRent",
					"type": "uint256"
				},
				{
					"internalType": "uint256",
					"name": "rentInterval",
					"type": "uint256"
				},
				{
					"internalType": "uint256",
					"name": "startDate",
					"type": "uint256"
				},
				{
					"internalType": "uint256",
					"name": "endDate",
					"type": "uint256"
				},
				{
					"internalType": "uint256",
					"name": "createdAt",
					"type": "uint256"
				},
				{
					"internalType": "enum TrustLeaseEscrow.AgreementStatus",
					"name": "status",
					"type": "uint8"
				},
				{
					"internalType": "string",
					"name": "metadataHash",
					"type": "string"
				},
				{
					"internalType": "bool",
					"name": "tenantConfirmed",
					"type": "bool"
				},
				{
					"internalType": "bool",
					"name": "landlordConfirmed",
					"type": "bool"
				},
				{
					"internalType": "uint256",
					"name": "disputeDeadline",
					"type": "uint256"
				},
				{
					"internalType": "uint256",
					"name": "nextRentDueDate",
					"type": "uint256"
				},
				{
					"internalType": "uint256",
					"name": "overdueGracePeriod",
					"type": "uint256"
				},
				{
					"internalType": "uint256",
					"name": "totalRentPaid",
					"type": "uint256"
				}
			],
			"stateMutability": "view",
			"type": "function"
		},
		{
			"inputs": [
				{
					"internalType": "uint256",
					"name": "agreementId",
					"type": "uint256"
				}
			],
			"name": "calculateFeeBreakdown",
			"outputs": [
				{
					"components": [
						{
							"internalType": "uint256",
							"name": "depositAmount",
							"type": "uint256"
						},
						{
							"internalType": "uint256",
							"name": "totalRentPaid",
							"type": "uint256"
						},
						{
							"internalType": "uint256",
							"name": "platformFeeOnDeposit",
							"type": "uint256"
						},
						{
							"internalType": "uint256",
							"name": "platformFeeOnRent",
							"type": "uint256"
						},
						{
							"internalType": "uint256",
							"name": "listingFee",
							"type": "uint256"
						},
						{
							"internalType": "uint256",
							"name": "totalGasSponsored",
							"type": "uint256"
						},
						{
							"internalType": "uint256",
							"name": "netToLandlord",
							"type": "uint256"
						},
						{
							"internalType": "uint256",
							"name": "netToTenant",
							"type": "uint256"
						}
					],
					"internalType": "struct TrustLeaseEscrow.FeeBreakdown",
					"name": "",
					"type": "tuple"
				}
			],
			"stateMutability": "view",
			"type": "function"
		},
		{
			"inputs": [
				{
					"internalType": "uint256",
					"name": "agreementId",
					"type": "uint256"
				}
			],
			"name": "cancelAgreement",
			"outputs": [],
			"stateMutability": "nonpayable",
			"type": "function"
		},
		{
			"inputs": [
				{
					"internalType": "uint256",
					"name": "agreementId",
					"type": "uint256"
				}
			],
			"name": "checkRentOverdue",
			"outputs": [],
			"stateMutability": "nonpayable",
			"type": "function"
		},
		{
			"inputs": [
				{
					"internalType": "uint256",
					"name": "propertyId",
					"type": "uint256"
				},
				{
					"internalType": "address",
					"name": "landlord",
					"type": "address"
				},
				{
					"internalType": "uint256",
					"name": "monthlyRent",
					"type": "uint256"
				},
				{
					"internalType": "uint256",
					"name": "rentInterval",
					"type": "uint256"
				},
				{
					"internalType": "uint256",
					"name": "startDate",
					"type": "uint256"
				},
				{
					"internalType": "uint256",
					"name": "endDate",
					"type": "uint256"
				},
				{
					"internalType": "string",
					"name": "metadataHash",
					"type": "string"
				}
			],
			"name": "createAgreement",
			"outputs": [
				{
					"internalType": "uint256",
					"name": "",
					"type": "uint256"
				}
			],
			"stateMutability": "payable",
			"type": "function"
		},
		{
			"inputs": [],
			"name": "defaultGracePeriod",
			"outputs": [
				{
					"internalType": "uint256",
					"name": "",
					"type": "uint256"
				}
			],
			"stateMutability": "view",
			"type": "function"
		},
		{
			"inputs": [],
			"name": "disputePeriod",
			"outputs": [
				{
					"internalType": "uint256",
					"name": "",
					"type": "uint256"
				}
			],
			"stateMutability": "view",
			"type": "function"
		},
		{
			"inputs": [
				{
					"internalType": "uint256",
					"name": "",
					"type": "uint256"
				}
			],
			"name": "disputes",
			"outputs": [
				{
					"internalType": "uint256",
					"name": "agreementId",
					"type": "uint256"
				},
				{
					"internalType": "address",
					"name": "initiator",
					"type": "address"
				},
				{
					"internalType": "string",
					"name": "reason",
					"type": "string"
				},
				{
					"internalType": "uint256",
					"name": "createdAt",
					"type": "uint256"
				},
				{
					"internalType": "bool",
					"name": "resolved",
					"type": "bool"
				},
				{
					"internalType": "address",
					"name": "winner",
					"type": "address"
				},
				{
					"internalType": "bool",
					"name": "isRentDispute",
					"type": "bool"
				}
			],
			"stateMutability": "view",
			"type": "function"
		},
		{
			"inputs": [],
			"name": "fundGasSubsidy",
			"outputs": [],
			"stateMutability": "payable",
			"type": "function"
		},
		{
			"inputs": [],
			"name": "gasSubsidyPool",
			"outputs": [
				{
					"internalType": "uint256",
					"name": "",
					"type": "uint256"
				}
			],
			"stateMutability": "view",
			"type": "function"
		},
		{
			"inputs": [
				{
					"internalType": "uint256",
					"name": "agreementId",
					"type": "uint256"
				}
			],
			"name": "getAgreement",
			"outputs": [
				{
					"components": [
						{
							"internalType": "uint256",
							"name": "agreementId",
							"type": "uint256"
						},
						{
							"internalType": "uint256",
							"name": "propertyId",
							"type": "uint256"
						},
						{
							"internalType": "address",
							"name": "tenant",
							"type": "address"
						},
						{
							"internalType": "address",
							"name": "landlord",
							"type": "address"
						},
						{
							"internalType": "uint256",
							"name": "depositAmount",
							"type": "uint256"
						},
						{
							"internalType": "uint256",
							"name": "monthlyRent",
							"type": "uint256"
						},
						{
							"internalType": "uint256",
							"name": "rentInterval",
							"type": "uint256"
						},
						{
							"internalType": "uint256",
							"name": "startDate",
							"type": "uint256"
						},
						{
							"internalType": "uint256",
							"name": "endDate",
							"type": "uint256"
						},
						{
							"internalType": "uint256",
							"name": "createdAt",
							"type": "uint256"
						},
						{
							"internalType": "enum TrustLeaseEscrow.AgreementStatus",
							"name": "status",
							"type": "uint8"
						},
						{
							"internalType": "string",
							"name": "metadataHash",
							"type": "string"
						},
						{
							"internalType": "bool",
							"name": "tenantConfirmed",
							"type": "bool"
						},
						{
							"internalType": "bool",
							"name": "landlordConfirmed",
							"type": "bool"
						},
						{
							"internalType": "uint256",
							"name": "disputeDeadline",
							"type": "uint256"
						},
						{
							"internalType": "uint256",
							"name": "nextRentDueDate",
							"type": "uint256"
						},
						{
							"internalType": "uint256",
							"name": "overdueGracePeriod",
							"type": "uint256"
						},
						{
							"internalType": "uint256",
							"name": "totalRentPaid",
							"type": "uint256"
						}
					],
					"internalType": "struct TrustLeaseEscrow.RentalAgreement",
					"name": "",
					"type": "tuple"
				}
			],
			"stateMutability": "view",
			"type": "function"
		},
		{
			"inputs": [
				{
					"internalType": "uint256",
					"name": "agreementId",
					"type": "uint256"
				}
			],
			"name": "getDispute",
			"outputs": [
				{
					"internalType": "address",
					"name": "initiator",
					"type": "address"
				},
				{
					"internalType": "string",
					"name": "reason",
					"type": "string"
				},
				{
					"internalType": "string[]",
					"name": "evidenceHashes",
					"type": "string[]"
				},
				{
					"internalType": "uint256",
					"name": "createdAt",
					"type": "uint256"
				},
				{
					"internalType": "bool",
					"name": "resolved",
					"type": "bool"
				},
				{
					"internalType": "address",
					"name": "winner",
					"type": "address"
				},
				{
					"internalType": "bool",
					"name": "isRentDispute",
					"type": "bool"
				}
			],
			"stateMutability": "view",
			"type": "function"
		},
		{
			"inputs": [
				{
					"internalType": "address",
					"name": "landlord",
					"type": "address"
				}
			],
			"name": "getLandlordAgreements",
			"outputs": [
				{
					"internalType": "uint256[]",
					"name": "",
					"type": "uint256[]"
				}
			],
			"stateMutability": "view",
			"type": "function"
		},
		{
			"inputs": [
				{
					"internalType": "uint256",
					"name": "agreementId",
					"type": "uint256"
				}
			],
			"name": "getRentPayments",
			"outputs": [
				{
					"components": [
						{
							"internalType": "uint256",
							"name": "agreementId",
							"type": "uint256"
						},
						{
							"internalType": "uint256",
							"name": "amount",
							"type": "uint256"
						},
						{
							"internalType": "uint256",
							"name": "paidDate",
							"type": "uint256"
						},
						{
							"internalType": "uint256",
							"name": "periodStart",
							"type": "uint256"
						},
						{
							"internalType": "uint256",
							"name": "periodEnd",
							"type": "uint256"
						},
						{
							"internalType": "enum TrustLeaseEscrow.RentStatus",
							"name": "status",
							"type": "uint8"
						}
					],
					"internalType": "struct TrustLeaseEscrow.RentPayment[]",
					"name": "",
					"type": "tuple[]"
				}
			],
			"stateMutability": "view",
			"type": "function"
		},
		{
			"inputs": [
				{
					"internalType": "address",
					"name": "tenant",
					"type": "address"
				}
			],
			"name": "getTenantAgreements",
			"outputs": [
				{
					"internalType": "uint256[]",
					"name": "",
					"type": "uint256[]"
				}
			],
			"stateMutability": "view",
			"type": "function"
		},
		{
			"inputs": [
				{
					"internalType": "address",
					"name": "tenant",
					"type": "address"
				}
			],
			"name": "grantGasSubsidy",
			"outputs": [],
			"stateMutability": "nonpayable",
			"type": "function"
		},
		{
			"inputs": [
				{
					"internalType": "address",
					"name": "",
					"type": "address"
				}
			],
			"name": "isGasSubsidized",
			"outputs": [
				{
					"internalType": "bool",
					"name": "",
					"type": "bool"
				}
			],
			"stateMutability": "view",
			"type": "function"
		},
		{
			"inputs": [
				{
					"internalType": "address",
					"name": "",
					"type": "address"
				},
				{
					"internalType": "uint256",
					"name": "",
					"type": "uint256"
				}
			],
			"name": "landlordAgreements",
			"outputs": [
				{
					"internalType": "uint256",
					"name": "",
					"type": "uint256"
				}
			],
			"stateMutability": "view",
			"type": "function"
		},
		{
			"inputs": [
				{
					"internalType": "uint256",
					"name": "agreementId",
					"type": "uint256"
				}
			],
			"name": "landlordConfirm",
			"outputs": [],
			"stateMutability": "nonpayable",
			"type": "function"
		},
		{
			"inputs": [],
			"name": "owner",
			"outputs": [
				{
					"internalType": "address",
					"name": "",
					"type": "address"
				}
			],
			"stateMutability": "view",
			"type": "function"
		},
		{
			"inputs": [],
			"name": "pause",
			"outputs": [],
			"stateMutability": "nonpayable",
			"type": "function"
		},
		{
			"inputs": [],
			"name": "paused",
			"outputs": [
				{
					"internalType": "bool",
					"name": "",
					"type": "bool"
				}
			],
			"stateMutability": "view",
			"type": "function"
		},
		{
			"inputs": [
				{
					"internalType": "uint256",
					"name": "agreementId",
					"type": "uint256"
				},
				{
					"internalType": "string",
					"name": "metadataHash",
					"type": "string"
				}
			],
			"name": "payRent",
			"outputs": [],
			"stateMutability": "payable",
			"type": "function"
		},
		{
			"inputs": [],
			"name": "platformFeePercent",
			"outputs": [
				{
					"internalType": "uint256",
					"name": "",
					"type": "uint256"
				}
			],
			"stateMutability": "view",
			"type": "function"
		},
		{
			"inputs": [],
			"name": "platformWallet",
			"outputs": [
				{
					"internalType": "address",
					"name": "",
					"type": "address"
				}
			],
			"stateMutability": "view",
			"type": "function"
		},
		{
			"inputs": [],
			"name": "propertyVerification",
			"outputs": [
				{
					"internalType": "contract IPropertyVerification",
					"name": "",
					"type": "address"
				}
			],
			"stateMutability": "view",
			"type": "function"
		},
		{
			"inputs": [
				{
					"internalType": "uint256",
					"name": "agreementId",
					"type": "uint256"
				},
				{
					"internalType": "string",
					"name": "reason",
					"type": "string"
				},
				{
					"internalType": "string",
					"name": "evidenceHash",
					"type": "string"
				}
			],
			"name": "raiseDispute",
			"outputs": [],
			"stateMutability": "nonpayable",
			"type": "function"
		},
		{
			"inputs": [
				{
					"internalType": "uint256",
					"name": "agreementId",
					"type": "uint256"
				}
			],
			"name": "releaseDeposit",
			"outputs": [],
			"stateMutability": "nonpayable",
			"type": "function"
		},
		{
			"inputs": [],
			"name": "renounceOwnership",
			"outputs": [],
			"stateMutability": "nonpayable",
			"type": "function"
		},
		{
			"inputs": [
				{
					"internalType": "uint256",
					"name": "",
					"type": "uint256"
				},
				{
					"internalType": "uint256",
					"name": "",
					"type": "uint256"
				}
			],
			"name": "rentPayments",
			"outputs": [
				{
					"internalType": "uint256",
					"name": "agreementId",
					"type": "uint256"
				},
				{
					"internalType": "uint256",
					"name": "amount",
					"type": "uint256"
				},
				{
					"internalType": "uint256",
					"name": "paidDate",
					"type": "uint256"
				},
				{
					"internalType": "uint256",
					"name": "periodStart",
					"type": "uint256"
				},
				{
					"internalType": "uint256",
					"name": "periodEnd",
					"type": "uint256"
				},
				{
					"internalType": "enum TrustLeaseEscrow.RentStatus",
					"name": "status",
					"type": "uint8"
				}
			],
			"stateMutability": "view",
			"type": "function"
		},
		{
			"inputs": [],
			"name": "rentProcessingFeePercent",
			"outputs": [
				{
					"internalType": "uint256",
					"name": "",
					"type": "uint256"
				}
			],
			"stateMutability": "view",
			"type": "function"
		},
		{
			"inputs": [],
			"name": "rentalReceipt",
			"outputs": [
				{
					"internalType": "contract IRentalReceipt",
					"name": "",
					"type": "address"
				}
			],
			"stateMutability": "view",
			"type": "function"
		},
		{
			"inputs": [
				{
					"internalType": "uint256",
					"name": "agreementId",
					"type": "uint256"
				},
				{
					"internalType": "bool",
					"name": "refundTenant",
					"type": "bool"
				}
			],
			"name": "resolveDispute",
			"outputs": [],
			"stateMutability": "nonpayable",
			"type": "function"
		},
		{
			"inputs": [
				{
					"internalType": "uint256",
					"name": "agreementId",
					"type": "uint256"
				},
				{
					"internalType": "string",
					"name": "evidenceHash",
					"type": "string"
				}
			],
			"name": "submitEvidence",
			"outputs": [],
			"stateMutability": "nonpayable",
			"type": "function"
		},
		{
			"inputs": [
				{
					"internalType": "address",
					"name": "",
					"type": "address"
				},
				{
					"internalType": "uint256",
					"name": "",
					"type": "uint256"
				}
			],
			"name": "tenantAgreements",
			"outputs": [
				{
					"internalType": "uint256",
					"name": "",
					"type": "uint256"
				}
			],
			"stateMutability": "view",
			"type": "function"
		},
		{
			"inputs": [
				{
					"internalType": "uint256",
					"name": "agreementId",
					"type": "uint256"
				}
			],
			"name": "tenantConfirm",
			"outputs": [],
			"stateMutability": "nonpayable",
			"type": "function"
		},
		{
			"inputs": [
				{
					"internalType": "uint256",
					"name": "agreementId",
					"type": "uint256"
				},
				{
					"internalType": "uint256",
					"name": "proRatedRefund",
					"type": "uint256"
				}
			],
			"name": "terminateAgreement",
			"outputs": [],
			"stateMutability": "nonpayable",
			"type": "function"
		},
		{
			"inputs": [
				{
					"internalType": "address",
					"name": "newOwner",
					"type": "address"
				}
			],
			"name": "transferOwnership",
			"outputs": [],
			"stateMutability": "nonpayable",
			"type": "function"
		},
		{
			"inputs": [
				{
					"internalType": "uint256",
					"name": "newPeriod",
					"type": "uint256"
				}
			],
			"name": "updateDisputePeriod",
			"outputs": [],
			"stateMutability": "nonpayable",
			"type": "function"
		},
		{
			"inputs": [
				{
					"internalType": "uint256",
					"name": "newPeriod",
					"type": "uint256"
				}
			],
			"name": "updateGracePeriod",
			"outputs": [],
			"stateMutability": "nonpayable",
			"type": "function"
		},
		{
			"inputs": [
				{
					"internalType": "uint256",
					"name": "newFeePercent",
					"type": "uint256"
				}
			],
			"name": "updatePlatformFee",
			"outputs": [],
			"stateMutability": "nonpayable",
			"type": "function"
		},
		{
			"inputs": [
				{
					"internalType": "uint256",
					"name": "newFeePercent",
					"type": "uint256"
				}
			],
			"name": "updateRentProcessingFee",
			"outputs": [],
			"stateMutability": "nonpayable",
			"type": "function"
		}
	]
}